{
  "_format": "hh-sol-artifact-1",
  "contractName": "SINCPredictionMarket",
  "sourceName": "contracts/SINCPredictionMarket.sol",
  "abi": [
    {
      "inputs": [
        {
          "internalType": "address",
          "name": "_sincToken",
          "type": "address"
        }
      ],
      "stateMutability": "nonpayable",
      "type": "constructor"
    },
    {
      "inputs": [
        {
          "internalType": "address",
          "name": "owner",
          "type": "address"
        }
      ],
      "name": "OwnableInvalidOwner",
      "type": "error"
    },
    {
      "inputs": [
        {
          "internalType": "address",
          "name": "account",
          "type": "address"
        }
      ],
      "name": "OwnableUnauthorizedAccount",
      "type": "error"
    },
    {
      "inputs": [],
      "name": "ReentrancyGuardReentrantCall",
      "type": "error"
    },
    {
      "anonymous": false,
      "inputs": [
        {
          "indexed": true,
          "internalType": "uint256",
          "name": "marketId",
          "type": "uint256"
        },
        {
          "indexed": true,
          "internalType": "address",
          "name": "user",
          "type": "address"
        },
        {
          "indexed": false,
          "internalType": "bool",
          "name": "outcome",
          "type": "bool"
        },
        {
          "indexed": false,
          "internalType": "uint256",
          "name": "amount",
          "type": "uint256"
        }
      ],
      "name": "BetPlaced",
      "type": "event"
    },
    {
      "anonymous": false,
      "inputs": [
        {
          "indexed": true,
          "internalType": "uint256",
          "name": "marketId",
          "type": "uint256"
        },
        {
          "indexed": false,
          "internalType": "string",
          "name": "question",
          "type": "string"
        },
        {
          "indexed": false,
          "internalType": "uint256",
          "name": "deadline",
          "type": "uint256"
        }
      ],
      "name": "MarketCreated",
      "type": "event"
    },
    {
      "anonymous": false,
      "inputs": [
        {
          "indexed": true,
          "internalType": "uint256",
          "name": "marketId",
          "type": "uint256"
        },
        {
          "indexed": false,
          "internalType": "uint8",
          "name": "winningOutcome",
          "type": "uint8"
        }
      ],
      "name": "MarketResolved",
      "type": "event"
    },
    {
      "anonymous": false,
      "inputs": [
        {
          "indexed": true,
          "internalType": "address",
          "name": "previousOwner",
          "type": "address"
        },
        {
          "indexed": true,
          "internalType": "address",
          "name": "newOwner",
          "type": "address"
        }
      ],
      "name": "OwnershipTransferred",
      "type": "event"
    },
    {
      "anonymous": false,
      "inputs": [
        {
          "indexed": true,
          "internalType": "uint256",
          "name": "marketId",
          "type": "uint256"
        },
        {
          "indexed": true,
          "internalType": "address",
          "name": "user",
          "type": "address"
        },
        {
          "indexed": false,
          "internalType": "uint256",
          "name": "amount",
          "type": "uint256"
        }
      ],
      "name": "WinningsClaimed",
      "type": "event"
    },
    {
      "inputs": [
        {
          "internalType": "uint256",
          "name": "marketId",
          "type": "uint256"
        }
      ],
      "name": "claimWinnings",
      "outputs": [],
      "stateMutability": "nonpayable",
      "type": "function"
    },
    {
      "inputs": [
        {
          "internalType": "string",
          "name": "question",
          "type": "string"
        },
        {
          "internalType": "uint256",
          "name": "duration",
          "type": "uint256"
        }
      ],
      "name": "createMarket",
      "outputs": [
        {
          "internalType": "uint256",
          "name": "",
          "type": "uint256"
        }
      ],
      "stateMutability": "nonpayable",
      "type": "function"
    },
    {
      "inputs": [
        {
          "internalType": "uint256",
          "name": "",
          "type": "uint256"
        }
      ],
      "name": "markets",
      "outputs": [
        {
          "internalType": "string",
          "name": "question",
          "type": "string"
        },
        {
          "internalType": "uint256",
          "name": "deadline",
          "type": "uint256"
        },
        {
          "internalType": "bool",
          "name": "resolved",
          "type": "bool"
        },
        {
          "internalType": "uint8",
          "name": "winningOutcome",
          "type": "uint8"
        },
        {
          "internalType": "uint256",
          "name": "totalYesPool",
          "type": "uint256"
        },
        {
          "internalType": "uint256",
          "name": "totalNoPool",
          "type": "uint256"
        }
      ],
      "stateMutability": "view",
      "type": "function"
    },
    {
      "inputs": [],
      "name": "nextMarketId",
      "outputs": [
        {
          "internalType": "uint256",
          "name": "",
          "type": "uint256"
        }
      ],
      "stateMutability": "view",
      "type": "function"
    },
    {
      "inputs": [],
      "name": "owner",
      "outputs": [
        {
          "internalType": "address",
          "name": "",
          "type": "address"
        }
      ],
      "stateMutability": "view",
      "type": "function"
    },
    {
      "inputs": [
        {
          "internalType": "uint256",
          "name": "marketId",
          "type": "uint256"
        },
        {
          "internalType": "bool",
          "name": "isYes",
          "type": "bool"
        },
        {
          "internalType": "uint256",
          "name": "amount",
          "type": "uint256"
        }
      ],
      "name": "placeBet",
      "outputs": [],
      "stateMutability": "nonpayable",
      "type": "function"
    },
    {
      "inputs": [],
      "name": "renounceOwnership",
      "outputs": [],
      "stateMutability": "nonpayable",
      "type": "function"
    },
    {
      "inputs": [
        {
          "internalType": "uint256",
          "name": "marketId",
          "type": "uint256"
        },
        {
          "internalType": "uint8",
          "name": "_winningOutcome",
          "type": "uint8"
        }
      ],
      "name": "resolveMarket",
      "outputs": [],
      "stateMutability": "nonpayable",
      "type": "function"
    },
    {
      "inputs": [],
      "name": "sincToken",
      "outputs": [
        {
          "internalType": "contract IERC20",
          "name": "",
          "type": "address"
        }
      ],
      "stateMutability": "view",
      "type": "function"
    },
    {
      "inputs": [
        {
          "internalType": "address",
          "name": "newOwner",
          "type": "address"
        }
      ],
      "name": "transferOwnership",
      "outputs": [],
      "stateMutability": "nonpayable",
      "type": "function"
    }
  ],
  "bytecode": "0x6080346100cf57601f610d1838819003918201601f19168301916001600160401b038311848410176100d4578084926020946040528339810103126100cf57516001600160a01b0390818116908190036100cf5733156100b65760005460018060a01b0319903382821617600055604051933391167f8be0079c531659141344cd1fd0a4f28419497f9722a3daafe3b4186f6b6457e0600080a36001805560016004556002541617600255610c2d90816100eb8239f35b604051631e4fbdf760e01b815260006004820152602490fd5b600080fd5b634e487b7160e01b600052604160045260246000fdfe60406080815260048036101561001457600080fd5b60009160e08335811c9081631a38cac614610849578163406ef2ef1461082a5781635f61351814610801578163677bd9ff14610648578163715018a6146105eb578163883c84c1146103cc5781638da5cb5b146103a0578163b1283e771461026a57508063df55406e146101215763f2fde38b1461009157600080fd5b3461011d57602036600319011261011d576001600160a01b03823581811693919290849003610119576100c2610aba565b831561010357505082546001600160a01b0319811683178455167f8be0079c531659141344cd1fd0a4f28419497f9722a3daafe3b4186f6b6457e08380a380f35b51631e4fbdf760e01b8152908101849052602490fd5b8480fd5b8280fd5b50903461011d578160031936011261011d578035916024359160ff8316928381036102665761014e610aba565b848652600360205282862090600282019283549260ff8416610230576001015442106101f65760028610156101c157509160016020949261ff007f739f283563fb51ab6b89ee95d937b2e63a6cfcb83c385dbebb629f9d97bd43e6979560081b169061ffff19161717905551908152a280f35b606490602086519162461bcd60e51b8352820152600f60248201526e496e76616c6964206f7574636f6d6560881b6044820152fd5b606490602086519162461bcd60e51b83528201526014602482015273111958591b1a5b99481b9bdd081c995858da195960621b6044820152fd5b855162461bcd60e51b8152602081840152601060248201526f105b1c9958591e481c995cdbdb1d995960821b6044820152606490fd5b8580fd5b849150833461011d576020938460031936011261039c57813584526003855280842081519285878584549261029e84610a48565b80835260019480861690811561037e5750600114610342575b506102c492500386610a82565b8201549260028301549160038401549301549381519760c089528651968760c08b0152815b88811061032f57505090889960ff94939289898c9b9c01015288015282821615159087015260081c166060850152608084015260a0830152601f80199101168101030190f35b8181018c01518b82018b01528b016102e9565b868b52838b208b925085905b82841061036757505050916102c4928201018a926102b7565b80548b85018701528a94509285019286910161034e565b60ff191684860152508b9390151560051b83010190506102c46102b7565b8380fd5b8483346103c857816003193601126103c857905490516001600160a01b039091168152602090f35b5080fd5b838584346103c857806003193601126103c85767ffffffffffffffff90833582811161039c573660238201121561039c578085013592831161039c57602490368285830101116101195761041e610aba565b855493600019968786146105d95760019081870190558587526020966003885285812061044b8154610a48565b601f8111610597575b5087989982989798601f861160011461050457879694928492877f2d1e9ad45dbe8e898e0374deebf2a661b2ae7c1855d2a29507d584c35d287c759a60029460609a98926104f7575b505086861b918760031b1c19161781555b6104b9883542610ae6565b80948201550160ff1981541690558289519687958b8752828c880152018686013783830185015289830152601f01601f19168101030190a251908152f35b890101359050893861049d565b8284528b842091601f198716858e5b82821061057d575050926002928a7f2d1e9ad45dbe8e898e0374deebf2a661b2ae7c1855d2a29507d584c35d287c759b9a9896938a60609b999710610563575b505050508385811b0181556104ae565b60f88960031b161c1991890101351690558d808981610553565b8a85018c013586558e9c509488019493840193018e610513565b818352898320601f860160051c8101918b87106105cf575b601f0160051c01905b8181106105c55750610454565b83815584016105b8565b90915081906105af565b634e487b7160e01b8752601190528286fd5b8434610645578060031936011261064557610604610aba565b80546001600160a01b03198116825581906001600160a01b03167f8be0079c531659141344cd1fd0a4f28419497f9722a3daafe3b4186f6b6457e08280a380f35b80fd5b50503461011d5760208060031936011261039c57823591610667610b64565b8285526003825280852093600285015460ff8116156107d0578691849160081c60ff1660010361078d576106ce60058801973385528884526106c9868620546106b1811515610b87565b6106c385600385015494015484610ae6565b90610bc4565b610bd7565b96338452825282848120555b600254845163a9059cbb60e01b81523392810192909252602482018890529092839160449183916001600160a01b03165af1908115610783577f5380cf6fe903b40c6d5a9e0dfbca2f3a423f0a21520b4d5947ed5169bdba946d939291610748918891610756575b50610b26565b519384523393a36001805580f35b6107769150843d861161077c575b61076e8183610a82565b810190610b09565b38610742565b503d610764565b82513d88823e3d90fd5b6107c060068801973385528884526106c9868620546107ad811515610b87565b6106c38560038501549401548094610ae6565b96338452825282848120556106da565b5082606492519162461bcd60e51b8352820152600c60248201526b139bdd081c995cdbdb1d995960a21b6044820152fd5b8483346103c857816003193601126103c85760025490516001600160a01b039091168152602090f35b5050903461011d578260031936011261011d5760209250549051908152f35b828585346103c85760603660031901126103c85780356024359384151592838603610119576044359061087a610b64565b8386526020906003825283872060ff600282015416610a145760018101544210156109e05783156109a95787988360018060a01b036002541660648851809c81936323b872dd60e01b835233898401523060248401528a60448401525af198891561099f577f4af71b021e799c62c158bd54636ca8da2fa26115a21a2dc6efe486ec104fd15f979899610913918c916109825750610b26565b156109565760039150338952600581018352848920610933858254610ae6565b905501610941838254610ae6565b90555b82519586528501523393a36001805580f35b33895260068101835284892061096d858254610ae6565b90550161097b838254610ae6565b9055610944565b6109999150863d881161077c5761076e8183610a82565b8c610742565b86513d8c823e3d90fd5b5060649184519162461bcd60e51b835282015260126024820152710416d6f756e74206d757374206265203e20360741b6044820152fd5b5060649184519162461bcd60e51b8352820152600f60248201526e111958591b1a5b99481c185cdcd959608a1b6044820152fd5b5060649184519162461bcd60e51b8352820152600f60248201526e13585c9ad95d081c995cdbdb1d9959608a1b6044820152fd5b90600182811c92168015610a78575b6020831014610a6257565b634e487b7160e01b600052602260045260246000fd5b91607f1691610a57565b90601f8019910116810190811067ffffffffffffffff821117610aa457604052565b634e487b7160e01b600052604160045260246000fd5b6000546001600160a01b03163303610ace57565b60405163118cdaa760e01b8152336004820152602490fd5b91908201809211610af357565b634e487b7160e01b600052601160045260246000fd5b90816020910312610b2157518015158103610b215790565b600080fd5b15610b2d57565b60405162461bcd60e51b815260206004820152600f60248201526e151c985b9cd9995c8819985a5b1959608a1b6044820152606490fd5b600260015414610b75576002600155565b604051633ee5aeb560e01b8152600490fd5b15610b8e57565b60405162461bcd60e51b815260206004820152600e60248201526d139bc81dda5b9b9a5b99c818995d60921b6044820152606490fd5b81810292918115918404141715610af357565b8115610be1570490565b634e487b7160e01b600052601260045260246000fdfea2646970667358221220bf1043340dae21c3827d981ba07a0ba991c920ac1b667277669325030207313564736f6c63430008140033",
  "linkReferences": {},
  "deployedLinkReferences": {}
}