{
  "_format": "hh-sol-artifact-1",
  "contractName": "SinBondingCurve",
  "sourceName": "contracts/SinBondingCurve.sol",
  "abi": [
    {
      "inputs": [
        {
          "internalType": "address",
          "name": "_token",
          "type": "address"
        },
        {
          "internalType": "uint256",
          "name": "_basePricePerWholeToken",
          "type": "uint256"
        }
      ],
      "stateMutability": "nonpayable",
      "type": "constructor"
    },
    {
      "inputs": [],
      "name": "basePricePerWholeToken",
      "outputs": [
        {
          "internalType": "uint256",
          "name": "",
          "type": "uint256"
        }
      ],
      "stateMutability": "view",
      "type": "function"
    },
    {
      "inputs": [],
      "name": "decimalsFactor",
      "outputs": [
        {
          "internalType": "uint256",
          "name": "",
          "type": "uint256"
        }
      ],
      "stateMutability": "view",
      "type": "function"
    },
    {
      "inputs": [
        {
          "internalType": "uint256",
          "name": "tokenAmount",
          "type": "uint256"
        }
      ],
      "name": "priceForTokenAmount",
      "outputs": [
        {
          "internalType": "uint256",
          "name": "",
          "type": "uint256"
        }
      ],
      "stateMutability": "view",
      "type": "function"
    },
    {
      "inputs": [
        {
          "internalType": "uint256",
          "name": "tokenAmount",
          "type": "uint256"
        }
      ],
      "name": "priceForTokenAmountRoundedUp",
      "outputs": [
        {
          "internalType": "uint256",
          "name": "",
          "type": "uint256"
        }
      ],
      "stateMutability": "view",
      "type": "function"
    },
    {
      "inputs": [],
      "name": "token",
      "outputs": [
        {
          "internalType": "contract IERC20Metadata",
          "name": "",
          "type": "address"
        }
      ],
      "stateMutability": "view",
      "type": "function"
    },
    {
      "inputs": [],
      "name": "tokenDecimals",
      "outputs": [
        {
          "internalType": "uint8",
          "name": "",
          "type": "uint8"
        }
      ],
      "stateMutability": "view",
      "type": "function"
    }
  ],
  "bytecode": "0x60806040523480156200001157600080fd5b5060405162000964380380620009648339818101604052810190620000379190620001fe565b816000806101000a81548173ffffffffffffffffffffffffffffffffffffffff021916908373ffffffffffffffffffffffffffffffffffffffff16021790555060008054906101000a900473ffffffffffffffffffffffffffffffffffffffff1673ffffffffffffffffffffffffffffffffffffffff1663313ce5676040518163ffffffff1660e01b8152600401602060405180830381865afa158015620000e3573d6000803e3d6000fd5b505050506040513d601f19601f8201168201806040525081019062000109919062000283565b600060146101000a81548160ff021916908360ff160217905550600060149054906101000a900460ff1660ff16600a62000144919062000438565b60018190555080600281905550505062000489565b600080fd5b600073ffffffffffffffffffffffffffffffffffffffff82169050919050565b60006200018b826200015e565b9050919050565b6200019d816200017e565b8114620001a957600080fd5b50565b600081519050620001bd8162000192565b92915050565b6000819050919050565b620001d881620001c3565b8114620001e457600080fd5b50565b600081519050620001f881620001cd565b92915050565b6000806040838503121562000218576200021762000159565b5b60006200022885828601620001ac565b92505060206200023b85828601620001e7565b9150509250929050565b600060ff82169050919050565b6200025d8162000245565b81146200026957600080fd5b50565b6000815190506200027d8162000252565b92915050565b6000602082840312156200029c576200029b62000159565b5b6000620002ac848285016200026c565b91505092915050565b7f4e487b7100000000000000000000000000000000000000000000000000000000600052601160045260246000fd5b60008160011c9050919050565b6000808291508390505b600185111562000343578086048111156200031b576200031a620002b5565b5b60018516156200032b5780820291505b80810290506200033b85620002e4565b9450620002fb565b94509492505050565b6000826200035e576001905062000431565b816200036e576000905062000431565b81600181146200038757600281146200039257620003c8565b600191505062000431565b60ff841115620003a757620003a6620002b5565b5b8360020a915084821115620003c157620003c0620002b5565b5b5062000431565b5060208310610133831016604e8410600b8410161715620004025782820a905083811115620003fc57620003fb620002b5565b5b62000431565b620004118484846001620002f1565b925090508184048111156200042b576200042a620002b5565b5b81810290505b9392505050565b60006200044582620001c3565b91506200045283620001c3565b9250620004817fffffffffffffffffffffffffffffffffffffffffffffffffffffffffffffffff84846200034c565b905092915050565b6104cb80620004996000396000f3fe608060405234801561001057600080fd5b50600436106100625760003560e01c806301d2f5181461006757806322e8748c146100975780633b97e856146100c757806340f43275146100e5578063f054d13914610103578063fc0c546a14610121575b600080fd5b610081600480360381019061007c9190610234565b61013f565b60405161008e9190610270565b60405180910390f35b6100b160048036038101906100ac9190610234565b610163565b6040516100be9190610270565b60405180910390f35b6100cf6101b6565b6040516100dc91906102a7565b60405180910390f35b6100ed6101c9565b6040516100fa9190610270565b60405180910390f35b61010b6101cf565b6040516101189190610270565b60405180910390f35b6101296101d5565b6040516101369190610341565b60405180910390f35b600060015482600254610152919061038b565b61015c91906103fc565b9050919050565b600080820361017557600090506101b1565b600060018054610185919061042d565b83600254610193919061038b565b61019d9190610461565b9050600154816101ad91906103fc565b9150505b919050565b600060149054906101000a900460ff1681565b60025481565b60015481565b60008054906101000a900473ffffffffffffffffffffffffffffffffffffffff1681565b600080fd5b6000819050919050565b610211816101fe565b811461021c57600080fd5b50565b60008135905061022e81610208565b92915050565b60006020828403121561024a576102496101f9565b5b60006102588482850161021f565b91505092915050565b61026a816101fe565b82525050565b60006020820190506102856000830184610261565b92915050565b600060ff82169050919050565b6102a18161028b565b82525050565b60006020820190506102bc6000830184610298565b92915050565b600073ffffffffffffffffffffffffffffffffffffffff82169050919050565b6000819050919050565b60006103076103026102fd846102c2565b6102e2565b6102c2565b9050919050565b6000610319826102ec565b9050919050565b600061032b8261030e565b9050919050565b61033b81610320565b82525050565b60006020820190506103566000830184610332565b92915050565b7f4e487b7100000000000000000000000000000000000000000000000000000000600052601160045260246000fd5b6000610396826101fe565b91506103a1836101fe565b92508282026103af816101fe565b915082820484148315176103c6576103c561035c565b5b5092915050565b7f4e487b7100000000000000000000000000000000000000000000000000000000600052601260045260246000fd5b6000610407826101fe565b9150610412836101fe565b925082610422576104216103cd565b5b828204905092915050565b6000610438826101fe565b9150610443836101fe565b925082820390508181111561045b5761045a61035c565b5b92915050565b600061046c826101fe565b9150610477836101fe565b925082820190508082111561048f5761048e61035c565b5b9291505056fea26469706673582212202c4d038bd8177885e777d7d197e595736f449468d8c14e4d19b5fb289fba3cec64736f6c63430008130033",
  "linkReferences": {},
  "deployedLinkReferences": {}
}