{
  "_format": "hh-sol-artifact-1",
  "contractName": "SINCairdrop",
  "sourceName": "contracts/SINCairdrop.sol",
  "abi": [
    {
      "inputs": [
        {
          "internalType": "address",
          "name": "_sincTokenAddress",
          "type": "address"
        }
      ],
      "stateMutability": "nonpayable",
      "type": "constructor"
    },
    {
      "inputs": [
        {
          "internalType": "address",
          "name": "owner",
          "type": "address"
        }
      ],
      "name": "OwnableInvalidOwner",
      "type": "error"
    },
    {
      "inputs": [
        {
          "internalType": "address",
          "name": "account",
          "type": "address"
        }
      ],
      "name": "OwnableUnauthorizedAccount",
      "type": "error"
    },
    {
      "inputs": [],
      "name": "ReentrancyGuardReentrantCall",
      "type": "error"
    },
    {
      "anonymous": false,
      "inputs": [
        {
          "indexed": true,
          "internalType": "address",
          "name": "recipient",
          "type": "address"
        },
        {
          "indexed": false,
          "internalType": "uint256",
          "name": "amount",
          "type": "uint256"
        },
        {
          "indexed": false,
          "internalType": "uint256",
          "name": "timestamp",
          "type": "uint256"
        }
      ],
      "name": "AirdropClaimed",
      "type": "event"
    },
    {
      "anonymous": false,
      "inputs": [
        {
          "indexed": false,
          "internalType": "uint256",
          "name": "newStart",
          "type": "uint256"
        },
        {
          "indexed": false,
          "internalType": "uint256",
          "name": "newEnd",
          "type": "uint256"
        }
      ],
      "name": "ClaimWindowUpdated",
      "type": "event"
    },
    {
      "anonymous": false,
      "inputs": [
        {
          "indexed": true,
          "internalType": "address",
          "name": "previousOwner",
          "type": "address"
        },
        {
          "indexed": true,
          "internalType": "address",
          "name": "newOwner",
          "type": "address"
        }
      ],
      "name": "OwnershipTransferred",
      "type": "event"
    },
    {
      "anonymous": false,
      "inputs": [
        {
          "indexed": true,
          "internalType": "address",
          "name": "wallet",
          "type": "address"
        },
        {
          "indexed": false,
          "internalType": "uint256",
          "name": "timestamp",
          "type": "uint256"
        }
      ],
      "name": "WalletVerified",
      "type": "event"
    },
    {
      "inputs": [],
      "name": "AIRDROP_END",
      "outputs": [
        {
          "internalType": "uint256",
          "name": "",
          "type": "uint256"
        }
      ],
      "stateMutability": "view",
      "type": "function"
    },
    {
      "inputs": [],
      "name": "AIRDROP_START",
      "outputs": [
        {
          "internalType": "uint256",
          "name": "",
          "type": "uint256"
        }
      ],
      "stateMutability": "view",
      "type": "function"
    },
    {
      "inputs": [],
      "name": "MAX_CLAIMS",
      "outputs": [
        {
          "internalType": "uint256",
          "name": "",
          "type": "uint256"
        }
      ],
      "stateMutability": "view",
      "type": "function"
    },
    {
      "inputs": [],
      "name": "TOKENS_PER_CLAIM",
      "outputs": [
        {
          "internalType": "uint256",
          "name": "",
          "type": "uint256"
        }
      ],
      "stateMutability": "view",
      "type": "function"
    },
    {
      "inputs": [
        {
          "internalType": "address",
          "name": "_wallet",
          "type": "address"
        }
      ],
      "name": "canClaim",
      "outputs": [
        {
          "internalType": "bool",
          "name": "",
          "type": "bool"
        }
      ],
      "stateMutability": "view",
      "type": "function"
    },
    {
      "inputs": [],
      "name": "claimAirdrop",
      "outputs": [],
      "stateMutability": "nonpayable",
      "type": "function"
    },
    {
      "inputs": [
        {
          "internalType": "uint256",
          "name": "",
          "type": "uint256"
        }
      ],
      "name": "claimants",
      "outputs": [
        {
          "internalType": "address",
          "name": "",
          "type": "address"
        }
      ],
      "stateMutability": "view",
      "type": "function"
    },
    {
      "inputs": [],
      "name": "getClaimantCount",
      "outputs": [
        {
          "internalType": "uint256",
          "name": "",
          "type": "uint256"
        }
      ],
      "stateMutability": "view",
      "type": "function"
    },
    {
      "inputs": [],
      "name": "getClaimants",
      "outputs": [
        {
          "internalType": "address[]",
          "name": "",
          "type": "address[]"
        }
      ],
      "stateMutability": "view",
      "type": "function"
    },
    {
      "inputs": [],
      "name": "getRemainingClaims",
      "outputs": [
        {
          "internalType": "uint256",
          "name": "",
          "type": "uint256"
        }
      ],
      "stateMutability": "view",
      "type": "function"
    },
    {
      "inputs": [],
      "name": "getTotalClaims",
      "outputs": [
        {
          "internalType": "uint256",
          "name": "",
          "type": "uint256"
        }
      ],
      "stateMutability": "view",
      "type": "function"
    },
    {
      "inputs": [
        {
          "internalType": "address",
          "name": "",
          "type": "address"
        }
      ],
      "name": "hasClaimed",
      "outputs": [
        {
          "internalType": "bool",
          "name": "",
          "type": "bool"
        }
      ],
      "stateMutability": "view",
      "type": "function"
    },
    {
      "inputs": [],
      "name": "isAirdropActive",
      "outputs": [
        {
          "internalType": "bool",
          "name": "",
          "type": "bool"
        }
      ],
      "stateMutability": "view",
      "type": "function"
    },
    {
      "inputs": [
        {
          "internalType": "address",
          "name": "",
          "type": "address"
        }
      ],
      "name": "isVerified",
      "outputs": [
        {
          "internalType": "bool",
          "name": "",
          "type": "bool"
        }
      ],
      "stateMutability": "view",
      "type": "function"
    },
    {
      "inputs": [],
      "name": "owner",
      "outputs": [
        {
          "internalType": "address",
          "name": "",
          "type": "address"
        }
      ],
      "stateMutability": "view",
      "type": "function"
    },
    {
      "inputs": [
        {
          "internalType": "address",
          "name": "_recipient",
          "type": "address"
        }
      ],
      "name": "recoverUnclaimedTokens",
      "outputs": [],
      "stateMutability": "nonpayable",
      "type": "function"
    },
    {
      "inputs": [],
      "name": "renounceOwnership",
      "outputs": [],
      "stateMutability": "nonpayable",
      "type": "function"
    },
    {
      "inputs": [
        {
          "internalType": "address",
          "name": "_wallet",
          "type": "address"
        }
      ],
      "name": "revokeVerification",
      "outputs": [],
      "stateMutability": "nonpayable",
      "type": "function"
    },
    {
      "inputs": [
        {
          "internalType": "address[]",
          "name": "_wallets",
          "type": "address[]"
        }
      ],
      "name": "revokeVerifications",
      "outputs": [],
      "stateMutability": "nonpayable",
      "type": "function"
    },
    {
      "inputs": [],
      "name": "sincToken",
      "outputs": [
        {
          "internalType": "contract IERC20",
          "name": "",
          "type": "address"
        }
      ],
      "stateMutability": "view",
      "type": "function"
    },
    {
      "inputs": [],
      "name": "totalClaimed",
      "outputs": [
        {
          "internalType": "uint256",
          "name": "",
          "type": "uint256"
        }
      ],
      "stateMutability": "view",
      "type": "function"
    },
    {
      "inputs": [
        {
          "internalType": "address",
          "name": "newOwner",
          "type": "address"
        }
      ],
      "name": "transferOwnership",
      "outputs": [],
      "stateMutability": "nonpayable",
      "type": "function"
    },
    {
      "inputs": [
        {
          "internalType": "uint256",
          "name": "_newStart",
          "type": "uint256"
        },
        {
          "internalType": "uint256",
          "name": "_newEnd",
          "type": "uint256"
        }
      ],
      "name": "updateClaimWindow",
      "outputs": [],
      "stateMutability": "nonpayable",
      "type": "function"
    },
    {
      "inputs": [
        {
          "internalType": "address",
          "name": "_wallet",
          "type": "address"
        }
      ],
      "name": "verifyWallet",
      "outputs": [],
      "stateMutability": "nonpayable",
      "type": "function"
    },
    {
      "inputs": [
        {
          "internalType": "address[]",
          "name": "_wallets",
          "type": "address[]"
        }
      ],
      "name": "verifyWallets",
      "outputs": [],
      "stateMutability": "nonpayable",
      "type": "function"
    }
  ],
  "bytecode": "0x60803461011b57601f61104538819003918201601f19168301916001600160401b038311848410176101205780849260209460405283398101031261011b57516001600160a01b038082169182900361011b573315610102576000549060018060a01b0319913383821617600055604051913391167f8be0079c531659141344cd1fd0a4f28419497f9722a3daafe3b4186f6b6457e0600080a360018055600060035582156100c057506002541617600255604051610f0e90816101378239f35b62461bcd60e51b815260206004820152601560248201527f496e76616c696420746f6b656e206164647265737300000000000000000000006044820152606490fd5b604051631e4fbdf760e01b815260006004820152602490fd5b600080fd5b634e487b7160e01b600052604160045260246000fdfe6080604081815260048036101561001557600080fd5b600092833560e01c90816316daa23b14610d1b575080633a3b476614610b2d5780633ecb94a814610b0e5780635aa60adc14610a7f5780635b88349d146107855780635f6135181461075c578063715018a61461070257806373b2e80e146106c45780638da5cb5b1461069c578063953964921461065b578063a6cb8be314610596578063b9209e3314610558578063bf3506c1146104ba578063c0deb8601461049b578063ccfff67914610477578063cf62ba921461045a578063d1c67d5814610417578063d54ad2a1146103f8578063da5186b91461039a578063e20d810f1461035f578063e998d2fa1461031e578063eb6a0cbe14610264578063f2fde38b146101d6578063f30f40a8146101b35763fc399c791461013657600080fd5b346101af5760203660031901126101af57356001600160a01b03811691908290036101af5760207fb609aa16dcc660a4f07550b21f65b03ae3fe781d89444940bdb3d7407ca810e491610187610dd6565b610192841515610e4b565b83855260058252808520805460ff1916600117905551428152a280f35b8280fd5b5050346101d257816003193601126101d257602090516367a6c4008152f35b5080fd5b5090346101af5760203660031901126101af576001600160a01b0382358181169391929084900361026057610209610dd6565b831561024a57505082546001600160a01b0319811683178455167f8be0079c531659141344cd1fd0a4f28419497f9722a3daafe3b4186f6b6457e08380a380f35b51631e4fbdf760e01b8152908101849052602490fd5b8480fd5b5050346101d25761027436610d84565b919061027e610dd6565b835b83811061028b578480f35b610319906001600160a01b036102b6816102ae6102a9858a89610e27565b610e37565b161515610e4b565b806102c56102a9848988610e27565b1687527fb609aa16dcc660a4f07550b21f65b03ae3fe781d89444940bdb3d7407ca810e460209160058352868920600160ff1982541617905561030c6102a9858a89610e27565b16918651428152a2610e02565b610280565b50346101af5760203660031901126101af57356001600160a01b038116908190036101af5761034b610dd6565b825260056020528120805460ff1916905580f35b5050346101d257816003193601126101d25760209063679edb00421015908161038b575b519015158152f35b6367a6c4004211159150610383565b5050346101d2576103aa36610d84565b91906103b4610dd6565b835b8381106103c1578480f35b6103f3906001600160a01b036103db6102a9838887610e27565b1686526005602052838620805460ff19169055610e02565b6103b6565b5050346101d257816003193601126101d2576020906003549051908152f35b50346101af5760203660031901126101af5735916006548310156104575750610441602092610d37565b905491519160018060a01b039160031b1c168152f35b80fd5b5050346101d257816003193601126101d257602090516101f48152f35b5050346101d257816003193601126101d25760209051683635c9adc5dea000008152f35b5050346101d257816003193601126101d2576020905163679edb008152f35b5090346101af5760203660031901126101af5781356001600160a01b03811690819003610554579260209381526005845260ff82822054169283610541575b505081610532575b81610523575b8161051457519015158152f35b90506101f46003541090610383565b6367a6c4004211159150610507565b63679edb004210159150610501565b84528190205460ff1615915038806104f9565b8380fd5b50346101af5760203660031901126101af57356001600160a01b038116908190036101af57818360ff92602095526005855220541690519015158152f35b8284346104575780600319360112610457579080519182906006549182855260208095018093600684527ff652222313e28459528d920b65115c16c04f3efc82aaedc97be59f3f377c0d3f90845b81811061063e57505050816105fa910382610e88565b83519485948186019282875251809352850193925b82811061061e57505050500390f35b83516001600160a01b03168552869550938101939281019260010161060f565b82546001600160a01b0316845292880192600192830192016105e4565b509190346101d257816003193601126101d257600354916101f4928303928311610689576020838351908152f35b634e487b7160e01b815260118452602490fd5b5050346101d257816003193601126101d257905490516001600160a01b039091168152602090f35b50346101af5760203660031901126101af5780356001600160a01b03811690819003610554578360ff92849260209652855220541690519015158152f35b833461045757806003193601126104575761071b610dd6565b80546001600160a01b03198116825581906001600160a01b03167f8be0079c531659141344cd1fd0a4f28419497f9722a3daafe3b4186f6b6457e08280a380f35b5050346101d257816003193601126101d25760025490516001600160a01b039091168152602090f35b50346101af57826003193601126101af576001916002835414610a72576002835533845260206005815260ff828620541615610a315733855282815260ff82862054166109f05763679edb0042106109b9576367a6c4004211610981576101f46003541015610948573385528281528185208460ff1982541617905561080c600354610e02565b600355600654680100000000000000008110156109355780856108329201600655610d37565b9080549160031b60018060a01b03928333831b921b19161790556002541692825163a9059cbb60e01b8152338282015282816044818a683635c9adc5dea00000998a60248401525af190811561092b5787916108fe575b50156108c55750907fd0755a9ef5a74f50d34b3503bb5b65ad71a112c001b76dfa6412c9aa4a1f43b091815193845242908401523392a2805580f35b915162461bcd60e51b8152918201526015602482015274151bdad95b881d1c985b9cd9995c8819985a5b1959605a1b6044820152606490fd5b61091e9150833d8511610924575b6109168183610e88565b810190610ec0565b38610889565b503d61090c565b84513d89823e3d90fd5b634e487b7160e01b865260418452602486fd5b905162461bcd60e51b8152918201526015602482015274105a5c991c9bdc081b1a5b5a5d081c995858da1959605a1b6044820152606490fd5b905162461bcd60e51b8152918201526014602482015273105a5c991c9bdc081c195c9a5bd908195b99195960621b6044820152606490fd5b905162461bcd60e51b8152918201526013602482015272105a5c991c9bdc081b9bdd081cdd185c9d1959606a1b6044820152606490fd5b905162461bcd60e51b815291820152601760248201527f416c726561647920636c61696d65642061697264726f700000000000000000006044820152606490fd5b905162461bcd60e51b815291820152601f60248201527f57616c6c6574206e6f7420766572696669656420666f722061697264726f70006044820152606490fd5b51633ee5aeb560e01b8152fd5b509190346101d257806003193601126101d257823560243593610aa0610dd6565b84821015610ada57507f0855587c27170e75c96262d5fd85f9afbe456729d3ddf667be334116d962dd58929382519182526020820152a180f35b606490602084519162461bcd60e51b8352820152600e60248201526d496e76616c69642077696e646f7760901b6044820152fd5b5050346101d257816003193601126101d2576020906006549051908152f35b5090346101af57602090816003193601126105545782356001600160a01b0381811691829003610d1757610b5f610dd6565b6367a6c400421115610cdd578115610ca65760025483516370a0823160e01b815230878201529116918482602481865afa91821561092b578792610c73575b508115610c39579060448592888651958694859363a9059cbb60e01b85528b85015260248401525af1908115610c2f578591610c12575b5015610bdf578380f35b5162461bcd60e51b815291820152600f60248201526e151c985b9cd9995c8819985a5b1959608a1b604482015260649150fd5b610c299150833d8511610924576109168183610e88565b38610bd5565b82513d87823e3d90fd5b835162461bcd60e51b815280870186905260146024820152732737903a37b5b2b739903a37903932b1b7bb32b960611b6044820152606490fd5b9091508481813d8311610c9f575b610c8b8183610e88565b81010312610c9b57519038610b9e565b8680fd5b503d610c81565b50505162461bcd60e51b8152918201526011602482015270125b9d985b1a59081c9958da5c1a595b9d607a1b604482015260649150fd5b50505162461bcd60e51b815291820152601460248201527341697264726f70207374696c6c2061637469766560601b604482015260649150fd5b8580fd5b8490346101d257816003193601126101d2576020906003548152f35b600654811015610d6e5760066000527ff652222313e28459528d920b65115c16c04f3efc82aaedc97be59f3f377c0d3f0190600090565b634e487b7160e01b600052603260045260246000fd5b906020600319830112610dd15760043567ffffffffffffffff92838211610dd15780602383011215610dd1578160040135938411610dd15760248460051b83010111610dd1576024019190565b600080fd5b6000546001600160a01b03163303610dea57565b60405163118cdaa760e01b8152336004820152602490fd5b6000198114610e115760010190565b634e487b7160e01b600052601160045260246000fd5b9190811015610d6e5760051b0190565b356001600160a01b0381168103610dd15790565b15610e5257565b60405162461bcd60e51b815260206004820152600e60248201526d125b9d985b1a59081dd85b1b195d60921b6044820152606490fd5b90601f8019910116810190811067ffffffffffffffff821117610eaa57604052565b634e487b7160e01b600052604160045260246000fd5b90816020910312610dd157518015158103610dd1579056fea26469706673582212201c0103ed332d29c108b971f2f8e99d8c74b4256800f9c24a4f93a599d81c3f2564736f6c63430008140033",
  "linkReferences": {},
  "deployedLinkReferences": {}
}