{
  "_format": "hh-sol-artifact-1",
  "contractName": "SINCAgentToken",
  "sourceName": "contracts/SINCAgentToken.sol",
  "abi": [
    {
      "inputs": [],
      "stateMutability": "nonpayable",
      "type": "constructor"
    },
    {
      "inputs": [
        {
          "internalType": "address",
          "name": "sender",
          "type": "address"
        },
        {
          "internalType": "uint256",
          "name": "tokenId",
          "type": "uint256"
        },
        {
          "internalType": "address",
          "name": "owner",
          "type": "address"
        }
      ],
      "name": "ERC721IncorrectOwner",
      "type": "error"
    },
    {
      "inputs": [
        {
          "internalType": "address",
          "name": "operator",
          "type": "address"
        },
        {
          "internalType": "uint256",
          "name": "tokenId",
          "type": "uint256"
        }
      ],
      "name": "ERC721InsufficientApproval",
      "type": "error"
    },
    {
      "inputs": [
        {
          "internalType": "address",
          "name": "approver",
          "type": "address"
        }
      ],
      "name": "ERC721InvalidApprover",
      "type": "error"
    },
    {
      "inputs": [
        {
          "internalType": "address",
          "name": "operator",
          "type": "address"
        }
      ],
      "name": "ERC721InvalidOperator",
      "type": "error"
    },
    {
      "inputs": [
        {
          "internalType": "address",
          "name": "owner",
          "type": "address"
        }
      ],
      "name": "ERC721InvalidOwner",
      "type": "error"
    },
    {
      "inputs": [
        {
          "internalType": "address",
          "name": "receiver",
          "type": "address"
        }
      ],
      "name": "ERC721InvalidReceiver",
      "type": "error"
    },
    {
      "inputs": [
        {
          "internalType": "address",
          "name": "sender",
          "type": "address"
        }
      ],
      "name": "ERC721InvalidSender",
      "type": "error"
    },
    {
      "inputs": [
        {
          "internalType": "uint256",
          "name": "tokenId",
          "type": "uint256"
        }
      ],
      "name": "ERC721NonexistentToken",
      "type": "error"
    },
    {
      "inputs": [],
      "name": "EnforcedPause",
      "type": "error"
    },
    {
      "inputs": [],
      "name": "ExpectedPause",
      "type": "error"
    },
    {
      "inputs": [
        {
          "internalType": "address",
          "name": "owner",
          "type": "address"
        }
      ],
      "name": "OwnableInvalidOwner",
      "type": "error"
    },
    {
      "inputs": [
        {
          "internalType": "address",
          "name": "account",
          "type": "address"
        }
      ],
      "name": "OwnableUnauthorizedAccount",
      "type": "error"
    },
    {
      "inputs": [],
      "name": "ReentrancyGuardReentrantCall",
      "type": "error"
    },
    {
      "inputs": [
        {
          "internalType": "uint256",
          "name": "value",
          "type": "uint256"
        },
        {
          "internalType": "uint256",
          "name": "length",
          "type": "uint256"
        }
      ],
      "name": "StringsInsufficientHexLength",
      "type": "error"
    },
    {
      "anonymous": false,
      "inputs": [
        {
          "indexed": true,
          "internalType": "uint256",
          "name": "tokenId",
          "type": "uint256"
        },
        {
          "indexed": true,
          "internalType": "address",
          "name": "agent",
          "type": "address"
        },
        {
          "indexed": false,
          "internalType": "string",
          "name": "purpose",
          "type": "string"
        }
      ],
      "name": "AgentBorn",
      "type": "event"
    },
    {
      "anonymous": false,
      "inputs": [
        {
          "indexed": true,
          "internalType": "uint256",
          "name": "oldTokenId",
          "type": "uint256"
        },
        {
          "indexed": true,
          "internalType": "uint256",
          "name": "newTokenId",
          "type": "uint256"
        },
        {
          "indexed": true,
          "internalType": "address",
          "name": "agent",
          "type": "address"
        }
      ],
      "name": "AgentReassigned",
      "type": "event"
    },
    {
      "anonymous": false,
      "inputs": [
        {
          "indexed": true,
          "internalType": "uint256",
          "name": "tokenId",
          "type": "uint256"
        },
        {
          "indexed": true,
          "internalType": "address",
          "name": "agent",
          "type": "address"
        }
      ],
      "name": "AgentTerminated",
      "type": "event"
    },
    {
      "anonymous": false,
      "inputs": [
        {
          "indexed": true,
          "internalType": "address",
          "name": "owner",
          "type": "address"
        },
        {
          "indexed": true,
          "internalType": "address",
          "name": "approved",
          "type": "address"
        },
        {
          "indexed": true,
          "internalType": "uint256",
          "name": "tokenId",
          "type": "uint256"
        }
      ],
      "name": "Approval",
      "type": "event"
    },
    {
      "anonymous": false,
      "inputs": [
        {
          "indexed": true,
          "internalType": "address",
          "name": "owner",
          "type": "address"
        },
        {
          "indexed": true,
          "internalType": "address",
          "name": "operator",
          "type": "address"
        },
        {
          "indexed": false,
          "internalType": "bool",
          "name": "approved",
          "type": "bool"
        }
      ],
      "name": "ApprovalForAll",
      "type": "event"
    },
    {
      "anonymous": false,
      "inputs": [
        {
          "indexed": false,
          "internalType": "uint256",
          "name": "_fromTokenId",
          "type": "uint256"
        },
        {
          "indexed": false,
          "internalType": "uint256",
          "name": "_toTokenId",
          "type": "uint256"
        }
      ],
      "name": "BatchMetadataUpdate",
      "type": "event"
    },
    {
      "anonymous": false,
      "inputs": [
        {
          "indexed": true,
          "internalType": "uint256",
          "name": "tokenId",
          "type": "uint256"
        },
        {
          "indexed": true,
          "internalType": "bytes32",
          "name": "taskHash",
          "type": "bytes32"
        },
        {
          "indexed": false,
          "internalType": "string",
          "name": "metadata",
          "type": "string"
        }
      ],
      "name": "ExecutionDelegated",
      "type": "event"
    },
    {
      "anonymous": false,
      "inputs": [
        {
          "indexed": false,
          "internalType": "uint256",
          "name": "_tokenId",
          "type": "uint256"
        }
      ],
      "name": "MetadataUpdate",
      "type": "event"
    },
    {
      "anonymous": false,
      "inputs": [
        {
          "indexed": true,
          "internalType": "address",
          "name": "previousOwner",
          "type": "address"
        },
        {
          "indexed": true,
          "internalType": "address",
          "name": "newOwner",
          "type": "address"
        }
      ],
      "name": "OwnershipTransferred",
      "type": "event"
    },
    {
      "anonymous": false,
      "inputs": [
        {
          "indexed": false,
          "internalType": "address",
          "name": "account",
          "type": "address"
        }
      ],
      "name": "Paused",
      "type": "event"
    },
    {
      "anonymous": false,
      "inputs": [
        {
          "indexed": true,
          "internalType": "uint256",
          "name": "tokenId",
          "type": "uint256"
        }
      ],
      "name": "PermissionsBurned",
      "type": "event"
    },
    {
      "anonymous": false,
      "inputs": [
        {
          "indexed": true,
          "internalType": "uint256",
          "name": "tokenId",
          "type": "uint256"
        },
        {
          "indexed": false,
          "internalType": "uint256",
          "name": "newScore",
          "type": "uint256"
        }
      ],
      "name": "ReputationUpdated",
      "type": "event"
    },
    {
      "anonymous": false,
      "inputs": [
        {
          "indexed": true,
          "internalType": "address",
          "name": "from",
          "type": "address"
        },
        {
          "indexed": true,
          "internalType": "address",
          "name": "to",
          "type": "address"
        },
        {
          "indexed": true,
          "internalType": "uint256",
          "name": "tokenId",
          "type": "uint256"
        }
      ],
      "name": "Transfer",
      "type": "event"
    },
    {
      "anonymous": false,
      "inputs": [
        {
          "indexed": false,
          "internalType": "address",
          "name": "account",
          "type": "address"
        }
      ],
      "name": "Unpaused",
      "type": "event"
    },
    {
      "inputs": [
        {
          "internalType": "uint256",
          "name": "",
          "type": "uint256"
        }
      ],
      "name": "agentProfiles",
      "outputs": [
        {
          "internalType": "string",
          "name": "purpose",
          "type": "string"
        },
        {
          "internalType": "uint256",
          "name": "scope",
          "type": "uint256"
        },
        {
          "internalType": "uint256",
          "name": "budget",
          "type": "uint256"
        },
        {
          "internalType": "uint256",
          "name": "lifecycleStart",
          "type": "uint256"
        },
        {
          "internalType": "uint256",
          "name": "lifecycleEnd",
          "type": "uint256"
        },
        {
          "internalType": "bool",
          "name": "active",
          "type": "bool"
        },
        {
          "internalType": "address",
          "name": "assignedAgent",
          "type": "address"
        }
      ],
      "stateMutability": "view",
      "type": "function"
    },
    {
      "inputs": [
        {
          "internalType": "uint256",
          "name": "",
          "type": "uint256"
        }
      ],
      "name": "agentReputation",
      "outputs": [
        {
          "internalType": "uint256",
          "name": "",
          "type": "uint256"
        }
      ],
      "stateMutability": "view",
      "type": "function"
    },
    {
      "inputs": [
        {
          "internalType": "address",
          "name": "",
          "type": "address"
        }
      ],
      "name": "agentTokens",
      "outputs": [
        {
          "internalType": "uint256",
          "name": "",
          "type": "uint256"
        }
      ],
      "stateMutability": "view",
      "type": "function"
    },
    {
      "inputs": [
        {
          "internalType": "address",
          "name": "to",
          "type": "address"
        },
        {
          "internalType": "uint256",
          "name": "tokenId",
          "type": "uint256"
        }
      ],
      "name": "approve",
      "outputs": [],
      "stateMutability": "nonpayable",
      "type": "function"
    },
    {
      "inputs": [
        {
          "internalType": "address",
          "name": "owner",
          "type": "address"
        }
      ],
      "name": "balanceOf",
      "outputs": [
        {
          "internalType": "uint256",
          "name": "",
          "type": "uint256"
        }
      ],
      "stateMutability": "view",
      "type": "function"
    },
    {
      "inputs": [
        {
          "internalType": "uint256",
          "name": "tokenId",
          "type": "uint256"
        }
      ],
      "name": "decayReputation",
      "outputs": [],
      "stateMutability": "nonpayable",
      "type": "function"
    },
    {
      "inputs": [
        {
          "internalType": "uint256",
          "name": "tokenId",
          "type": "uint256"
        },
        {
          "internalType": "bytes32",
          "name": "taskHash",
          "type": "bytes32"
        },
        {
          "internalType": "string",
          "name": "metadata",
          "type": "string"
        }
      ],
      "name": "delegateExecution",
      "outputs": [],
      "stateMutability": "nonpayable",
      "type": "function"
    },
    {
      "inputs": [
        {
          "internalType": "address",
          "name": "agent",
          "type": "address"
        }
      ],
      "name": "emergencyRevoke",
      "outputs": [],
      "stateMutability": "nonpayable",
      "type": "function"
    },
    {
      "inputs": [
        {
          "internalType": "uint256",
          "name": "tokenId",
          "type": "uint256"
        }
      ],
      "name": "getAgentProfile",
      "outputs": [
        {
          "components": [
            {
              "internalType": "string",
              "name": "purpose",
              "type": "string"
            },
            {
              "internalType": "string[]",
              "name": "permissions",
              "type": "string[]"
            },
            {
              "internalType": "uint256",
              "name": "scope",
              "type": "uint256"
            },
            {
              "internalType": "uint256",
              "name": "budget",
              "type": "uint256"
            },
            {
              "internalType": "uint256",
              "name": "lifecycleStart",
              "type": "uint256"
            },
            {
              "internalType": "uint256",
              "name": "lifecycleEnd",
              "type": "uint256"
            },
            {
              "internalType": "bool",
              "name": "active",
              "type": "bool"
            },
            {
              "internalType": "address",
              "name": "assignedAgent",
              "type": "address"
            }
          ],
          "internalType": "struct SINCAgentToken.AgentProfile",
          "name": "",
          "type": "tuple"
        }
      ],
      "stateMutability": "view",
      "type": "function"
    },
    {
      "inputs": [
        {
          "internalType": "address",
          "name": "agent",
          "type": "address"
        }
      ],
      "name": "getAgentToken",
      "outputs": [
        {
          "internalType": "uint256",
          "name": "",
          "type": "uint256"
        }
      ],
      "stateMutability": "view",
      "type": "function"
    },
    {
      "inputs": [
        {
          "internalType": "uint256",
          "name": "tokenId",
          "type": "uint256"
        }
      ],
      "name": "getApproved",
      "outputs": [
        {
          "internalType": "address",
          "name": "",
          "type": "address"
        }
      ],
      "stateMutability": "view",
      "type": "function"
    },
    {
      "inputs": [
        {
          "internalType": "address",
          "name": "agent",
          "type": "address"
        }
      ],
      "name": "isAgentActive",
      "outputs": [
        {
          "internalType": "bool",
          "name": "",
          "type": "bool"
        }
      ],
      "stateMutability": "view",
      "type": "function"
    },
    {
      "inputs": [
        {
          "internalType": "address",
          "name": "owner",
          "type": "address"
        },
        {
          "internalType": "address",
          "name": "operator",
          "type": "address"
        }
      ],
      "name": "isApprovedForAll",
      "outputs": [
        {
          "internalType": "bool",
          "name": "",
          "type": "bool"
        }
      ],
      "stateMutability": "view",
      "type": "function"
    },
    {
      "inputs": [
        {
          "internalType": "address",
          "name": "agent",
          "type": "address"
        },
        {
          "internalType": "string",
          "name": "purpose",
          "type": "string"
        },
        {
          "internalType": "string[]",
          "name": "permissions",
          "type": "string[]"
        },
        {
          "internalType": "uint256",
          "name": "scope",
          "type": "uint256"
        },
        {
          "internalType": "uint256",
          "name": "budget",
          "type": "uint256"
        },
        {
          "internalType": "uint256",
          "name": "lifecycleDuration",
          "type": "uint256"
        }
      ],
      "name": "mintAgent",
      "outputs": [
        {
          "internalType": "uint256",
          "name": "",
          "type": "uint256"
        }
      ],
      "stateMutability": "nonpayable",
      "type": "function"
    },
    {
      "inputs": [
        {
          "internalType": "address[]",
          "name": "agents",
          "type": "address[]"
        },
        {
          "internalType": "string[]",
          "name": "purposes",
          "type": "string[]"
        },
        {
          "internalType": "string[][]",
          "name": "permissionsList",
          "type": "string[][]"
        },
        {
          "internalType": "uint256[]",
          "name": "scopes",
          "type": "uint256[]"
        },
        {
          "internalType": "uint256[]",
          "name": "budgets",
          "type": "uint256[]"
        },
        {
          "internalType": "uint256[]",
          "name": "lifecycleDurations",
          "type": "uint256[]"
        }
      ],
      "name": "mintAgentBatch",
      "outputs": [
        {
          "internalType": "uint256[]",
          "name": "",
          "type": "uint256[]"
        }
      ],
      "stateMutability": "nonpayable",
      "type": "function"
    },
    {
      "inputs": [],
      "name": "name",
      "outputs": [
        {
          "internalType": "string",
          "name": "",
          "type": "string"
        }
      ],
      "stateMutability": "view",
      "type": "function"
    },
    {
      "inputs": [],
      "name": "owner",
      "outputs": [
        {
          "internalType": "address",
          "name": "",
          "type": "address"
        }
      ],
      "stateMutability": "view",
      "type": "function"
    },
    {
      "inputs": [
        {
          "internalType": "uint256",
          "name": "tokenId",
          "type": "uint256"
        }
      ],
      "name": "ownerOf",
      "outputs": [
        {
          "internalType": "address",
          "name": "",
          "type": "address"
        }
      ],
      "stateMutability": "view",
      "type": "function"
    },
    {
      "inputs": [],
      "name": "pause",
      "outputs": [],
      "stateMutability": "nonpayable",
      "type": "function"
    },
    {
      "inputs": [],
      "name": "paused",
      "outputs": [
        {
          "internalType": "bool",
          "name": "",
          "type": "bool"
        }
      ],
      "stateMutability": "view",
      "type": "function"
    },
    {
      "inputs": [
        {
          "internalType": "address",
          "name": "agent",
          "type": "address"
        },
        {
          "internalType": "string",
          "name": "newPurpose",
          "type": "string"
        },
        {
          "internalType": "string[]",
          "name": "newPermissions",
          "type": "string[]"
        },
        {
          "internalType": "uint256",
          "name": "newScope",
          "type": "uint256"
        },
        {
          "internalType": "uint256",
          "name": "newBudget",
          "type": "uint256"
        },
        {
          "internalType": "uint256",
          "name": "newLifecycleDuration",
          "type": "uint256"
        }
      ],
      "name": "reassignAgent",
      "outputs": [
        {
          "internalType": "uint256",
          "name": "",
          "type": "uint256"
        }
      ],
      "stateMutability": "nonpayable",
      "type": "function"
    },
    {
      "inputs": [],
      "name": "renounceOwnership",
      "outputs": [],
      "stateMutability": "nonpayable",
      "type": "function"
    },
    {
      "inputs": [
        {
          "internalType": "address",
          "name": "from",
          "type": "address"
        },
        {
          "internalType": "address",
          "name": "to",
          "type": "address"
        },
        {
          "internalType": "uint256",
          "name": "tokenId",
          "type": "uint256"
        }
      ],
      "name": "safeTransferFrom",
      "outputs": [],
      "stateMutability": "nonpayable",
      "type": "function"
    },
    {
      "inputs": [
        {
          "internalType": "address",
          "name": "from",
          "type": "address"
        },
        {
          "internalType": "address",
          "name": "to",
          "type": "address"
        },
        {
          "internalType": "uint256",
          "name": "tokenId",
          "type": "uint256"
        },
        {
          "internalType": "bytes",
          "name": "data",
          "type": "bytes"
        }
      ],
      "name": "safeTransferFrom",
      "outputs": [],
      "stateMutability": "nonpayable",
      "type": "function"
    },
    {
      "inputs": [
        {
          "internalType": "address",
          "name": "operator",
          "type": "address"
        },
        {
          "internalType": "bool",
          "name": "approved",
          "type": "bool"
        }
      ],
      "name": "setApprovalForAll",
      "outputs": [],
      "stateMutability": "nonpayable",
      "type": "function"
    },
    {
      "inputs": [
        {
          "internalType": "bytes4",
          "name": "interfaceId",
          "type": "bytes4"
        }
      ],
      "name": "supportsInterface",
      "outputs": [
        {
          "internalType": "bool",
          "name": "",
          "type": "bool"
        }
      ],
      "stateMutability": "view",
      "type": "function"
    },
    {
      "inputs": [],
      "name": "symbol",
      "outputs": [
        {
          "internalType": "string",
          "name": "",
          "type": "string"
        }
      ],
      "stateMutability": "view",
      "type": "function"
    },
    {
      "inputs": [
        {
          "internalType": "uint256",
          "name": "tokenId",
          "type": "uint256"
        }
      ],
      "name": "terminateAgent",
      "outputs": [],
      "stateMutability": "nonpayable",
      "type": "function"
    },
    {
      "inputs": [
        {
          "internalType": "uint256",
          "name": "tokenId",
          "type": "uint256"
        }
      ],
      "name": "tokenURI",
      "outputs": [
        {
          "internalType": "string",
          "name": "",
          "type": "string"
        }
      ],
      "stateMutability": "view",
      "type": "function"
    },
    {
      "inputs": [
        {
          "internalType": "address",
          "name": "from",
          "type": "address"
        },
        {
          "internalType": "address",
          "name": "to",
          "type": "address"
        },
        {
          "internalType": "uint256",
          "name": "tokenId",
          "type": "uint256"
        }
      ],
      "name": "transferFrom",
      "outputs": [],
      "stateMutability": "nonpayable",
      "type": "function"
    },
    {
      "inputs": [
        {
          "internalType": "address",
          "name": "newOwner",
          "type": "address"
        }
      ],
      "name": "transferOwnership",
      "outputs": [],
      "stateMutability": "nonpayable",
      "type": "function"
    },
    {
      "inputs": [],
      "name": "unpause",
      "outputs": [],
      "stateMutability": "nonpayable",
      "type": "function"
    },
    {
      "inputs": [
        {
          "internalType": "uint256",
          "name": "tokenId",
          "type": "uint256"
        },
        {
          "internalType": "uint256",
          "name": "newScore",
          "type": "uint256"
        }
      ],
      "name": "updateReputation",
      "outputs": [],
      "stateMutability": "nonpayable",
      "type": "function"
    },
    {
      "inputs": [
        {
          "internalType": "address",
          "name": "agent",
          "type": "address"
        },
        {
          "internalType": "string",
          "name": "requiredPermission",
          "type": "string"
        }
      ],
      "name": "validateAgent",
      "outputs": [
        {
          "internalType": "bool",
          "name": "",
          "type": "bool"
        }
      ],
      "stateMutability": "view",
      "type": "function"
    }
  ],
  "bytecode": "0x608034620003a7576001600160401b039060408181018381118382101762000391578152601082526020926f29a4a7219020b3b2b73a102a37b5b2b760811b8484015281519082820182811082821117620003915783526004918281526314d051d560e21b868201528451908282116200037c576000968754926001978885811c9516801562000371575b838610146200035e578190601f958681116200030b575b508390868311600114620002a7578b926200029b575b5050600019600383901b1c191690881b1788555b8151938411620002885786548781811c911680156200027d575b828210146200026a57908184869594931162000213575b5080928411600114620001ab575087926200019f575b5050600019600383901b1c191690841b1783555b33156200018a575060068054336001600160a01b03198216811790925591519390916001600160a01b0316907f8be0079c531659141344cd1fd0a4f28419497f9722a3daafe3b4186f6b6457e09080a380600755600c556133149081620003ad8239f35b836024925191631e4fbdf760e01b8352820152fd5b01519050388062000112565b9190879450601f198416858a52838a20938a905b828210620001f95750508411620001df575b505050811b01835562000126565b015160001960f88460031b161c19169055388080620001d1565b8484015186558a97909501949384019390810190620001bf565b90919293508789528189208480870160051c82019284881062000260575b9187968b92969594930160051c01915b82811062000251575050620000fc565b8b81558796508a910162000241565b9250819262000231565b634e487b7160e01b895260228652602489fd5b90607f1690620000e5565b634e487b7160e01b885260418552602488fd5b015190503880620000b7565b8b8052848c208b94509190601f1984168d5b87828210620002f45750508411620002da575b505050811b018855620000cb565b015160001960f88460031b161c19169055388080620002cc565b8385015186558e97909501949384019301620002b9565b9091508a8052838b208680850160051c82019286861062000354575b918c91869594930160051c01915b82811062000345575050620000a1565b8d81558594508c910162000335565b9250819262000327565b634e487b7160e01b8a526022875260248afd5b94607f16946200008a565b604184634e487b7160e01b6000525260246000fd5b634e487b7160e01b600052604160045260246000fd5b600080fdfe6080604052600436101561001257600080fd5b60003560e01c806301ffc9a71461023257806302bb3f021461022d5780630374e1fb146101b05780630675f7631461022857806306fdde0314610223578063081812fc1461021e578063095ea7b3146102195780630e7c52cd146102145780631ae024a41461020f5780631f141b231461020a57806323b872dd14610205578063383aaaf5146102005780633f4ba83a146101fb57806342842e0e146101f6578063554c4f4b146101f157806358084024146101ec5780635c975abb146101e75780636352211e146101e257806370a08231146101dd578063715018a6146101d85780638456cb59146101d35780638da5cb5b146101ce57806395d89b41146101c9578063a22cb465146101c4578063b88d4fde146101bf578063c87b56dd146101ba578063cb1d2723146101b5578063cd409ffe146101b0578063d3b71c5b146101ab578063debfc4ef146101a6578063e985e9c5146101a1578063f098a7ae1461019c578063f2fde38b146101975763f91bd0501461019257600080fd5b611a61565b611964565b6118c7565b611784565b611758565b611731565b61042c565b61164c565b6112e5565b61127e565b6111bd565b611118565b6110ef565b611095565b611037565b610fda565b610faa565b610f87565b610eb0565b610e89565b610e61565b610df7565b610cf6565b610cdf565b610bbb565b610969565b6108d4565b6106f5565b6106b7565b6105d4565b610469565b6103da565b61024e565b6001600160e01b031981160361024957565b600080fd5b3461024957602036600319011261024957602060043561026d81610237565b63ffffffff60e01b166380ac58cd60e01b81149081156102ab575b811561029a575b506040519015158152f35b6301ffc9a760e01b1490503861028f565b635b5e139f60e01b81149150610288565b6001600160a01b0381160361024957565b634e487b7160e01b600052604160045260246000fd5b61010081019081106001600160401b038211176102ff57604052565b6102cd565b602081019081106001600160401b038211176102ff57604052565b604081019081106001600160401b038211176102ff57604052565b90601f801991011681019081106001600160401b038211176102ff57604052565b60405190610368826102e3565b565b6001600160401b0381116102ff57601f01601f191660200190565b9291926103918261036a565b9161039f604051938461033a565b829481845281830111610249578281602093846000960137010152565b9080601f83011215610249578160206103d793359101610385565b90565b34610249576040366003190112610249576004356103f7816102bc565b6024356001600160401b0381116102495760209161041c6104229236906004016103bc565b90612c33565b6040519015158152f35b3461024957602036600319011261024957600435610449816102bc565b60018060a01b0316600052600a6020526020604060002054604051908152f35b3461024957604036600319011261024957600435602435610488611b28565b610490612765565b610498612783565b8160005260096020526104b560ff6006604060002001541661312f565b6103e8811161053e5781807ea4f8488cd701f9a77136eb5c91d5e2edef3c38001ca7148525acf8a262648161051c8461052f9561050b6000805160206132bf83398151915298600052600b602052604060002090565b556040519081529081906020820190565b0390a26040519081529081906020820190565b0390a161053c6001600755565b005b60405162461bcd60e51b815260206004820152601560248201527453636f72652065786365656473206d6178696d756d60581b6044820152606490fd5b60005b83811061058e5750506000910152565b818101518382015260200161057e565b906020916105b78151809281855285808601910161057b565b601f01601f1916010190565b9060206103d792818152019061059e565b34610249576000806003193601126106b457604051908080546105f6816107f6565b8085529160019180831690811561068a5750600114610630575b61062c856106208187038261033a565b604051918291826105c3565b0390f35b80809450527f290decd9548b62a8d60345a988386fc84ba6bc95484008f6362f93160ef3e5635b8284106106725750505081016020016106208261062c610610565b80546020858701810191909152909301928101610657565b86955061062c9693506020925061062094915060ff191682840152151560051b8201019293610610565b80fd5b34610249576020366003190112610249576004356106d481611d82565b506000526004602052602060018060a01b0360406000205416604051908152f35b3461024957604036600319011261024957600435610712816102bc565b6024359061071f82611d82565b331515806107e3575b806107b5575b61079d5761053c9261077e9181906001600160a01b0385811691167f8c5be1e5ebec7d5bd14f71427d1e84f3dd0314c0f7b2291e5b200ac8c7c3b925600080a46000526004602052604060002090565b80546001600160a01b0319166001600160a01b03909216919091179055565b60405163a9fbf51f60e01b8152336004820152602490fd5b506001600160a01b038116600090815260056020908152604080832033845290915290205460ff161561072e565b506001600160a01b038116331415610728565b90600182811c92168015610826575b602083101461081057565b634e487b7160e01b600052602260045260246000fd5b91607f1691610805565b9060405191826000825492610844846107f6565b9081845260019485811690816000146108b1575060011461086e575b50506103689250038361033a565b9093915060005260209081600020936000915b81831061089957505061036893508201013880610860565b85548884018501529485019487945091830191610881565b91505061036894506020925060ff191682840152151560051b8201013880610860565b34610249576020366003190112610249576004356000526009602052610932604060002061090181610830565b906002810154906003810154906004810154600660058301549201549260405196879660e0885260e088019061059e565b602087019590955260408601526060850152608084015260ff8116151560a084015260081c6001600160a01b031660c08301520390f35b3461024957602036600319011261024957600435610985612765565b61098d612783565b6000805160206132bf8339815191526109a582611d82565b6001600160a01b0392906109bc9084163014612a7d565b60066109d2826000526009602052604060002090565b0192610a0484546109e560ff8216612abb565b60065483906001600160a01b03163314918215610ab6575b5050612b07565b835460ff198116855560081c6001600160a01b03166000908152600a602052604081209094610a4991869055610a3984612b42565b5460081c6001600160a01b031690565b16610aa6604051928392817fa806fb6440873ea44e7260319bf79fcfe758e61cce44f590a691b589a2b38a7a8880a3807fcdeb43784f6b74e8fa65e24d8c67aae46d0428144381a27ae1608c2fab53af508780a282526020820190565b0390a1610ab36001600755565b80f35b90915060081c16331482386109fd565b6001600160401b0381116102ff5760051b60200190565b92919092610aea84610ac6565b91610af8604051938461033a565b829480845260208094019060051b8301928284116102495780915b848310610b2257505050505050565b82356001600160401b038111610249578691610b4186849386016103bc565b815201920191610b13565b60c060031982011261024957600435610b64816102bc565b916001600160401b036024358181116102495783610b84916004016103bc565b92604435918211610249578060238301121561024957816024610bac93600401359101610add565b90606435906084359060a43590565b34610249577ff3778495c09fea57facd4869e893696a945aee645211006b9d7982a1ed5bb8c5610c3261062c610bf036610b4c565b91610bfd97939497611b28565b610c05612765565b610c0d612783565b60018060a01b03861694600098868a52600a60205260408a20549788610c4a5761215a565b809260405196868897a4600160075582526020820190565b888b526009602052600660408c200160ff1981541690558a610c7e8260018060a01b0316600052600a602052604060002090565b55610c8889612b42565b87897fa806fb6440873ea44e7260319bf79fcfe758e61cce44f590a691b589a2b38a7a8d80a361215a565b606090600319011261024957600435610ccb816102bc565b90602435610cd8816102bc565b9060443590565b346102495761053c610cf036610cb3565b91611b54565b34610249576060366003190112610249576044356001600160401b03600435818311610249573660238401121561024957826004013591821161024957366024838501011161024957610d47612765565b7fbe26f4f61219280653f16dba7ff7fabfcd5bcea269bf1cec070edb907731e88260009382855260096020526040610d8760ff600683892001541661312f565b600654610da990336001600160a01b0391821614908115610dda575b50612b07565b846024825193602085528260208601520182840137858186840101528160243595601f80199101168101030190a380f35b905085885260096020526006838920015460081c16331438610da3565b3461024957600036600319011261024957610e10611b28565b60085460ff811615610e4f5760ff19166008557f5db9ee0a495bf2e6ff9c91a7834c1ba4fdd244a5e8aa4e537bd38aeae4b073aa6020604051338152a1005b604051638dfc202b60e01b8152600490fd5b346102495761053c610e7236610cb3565b9060405192610e8084610304565b60008452611c59565b34610249576020366003190112610249576020610422600435610eab816102bc565b612e34565b3461024957602036600319011261024957600435610ecd816102bc565b610ed5611b28565b6001600160a01b0381166000818152600a60205260408120549092909190839083610efe575080f35b838252600960209081526040808420600601805460ff191690556001600160a01b039092166000908152600a9091522055610f3882612b42565b817fa806fb6440873ea44e7260319bf79fcfe758e61cce44f590a691b589a2b38a7a8480a37fcdeb43784f6b74e8fa65e24d8c67aae46d0428144381a27ae1608c2fab53af508280a238808280f35b3461024957600036600319011261024957602060ff600854166040519015158152f35b34610249576020366003190112610249576020610fc8600435611d82565b6040516001600160a01b039091168152f35b3461024957602036600319011261024957600435610ff7816102bc565b6001600160a01b0316801561101e5760005260036020526020604060002054604051908152f35b6040516322718ad960e21b815260006004820152602490fd5b34610249576000806003193601126106b457611051611b28565b600680546001600160a01b0319811690915581906001600160a01b03167f8be0079c531659141344cd1fd0a4f28419497f9722a3daafe3b4186f6b6457e08280a380f35b34610249576000366003190112610249576110ae611b28565b6110b6612765565b600160ff1960085416176008557f62e78cea01bee320cd4e420270b5ea74000d11b0c9f74754ebdbfc544b05a2586020604051338152a1005b34610249576000366003190112610249576006546040516001600160a01b039091168152602090f35b34610249576000806003193601126106b4576040519080600180549161113d836107f6565b8086529282811690811561068a57506001146111635761062c856106208187038261033a565b92508083527fb10e2d527612073b26eecdfd717e6a320cf44b4afac2b0732d9fcbe2b7fa0cf65b8284106111a55750505081016020016106208261062c610610565b8054602085870181019190915290930192810161118a565b34610249576040366003190112610249576004356111da816102bc565b60243580151590818103610249576001600160a01b03831692831561126557906112266112379233600052600560205260406000209060018060a01b0316600052602052604060002090565b9060ff801983541691151516179055565b6040519081527f17307eab39ab6107e8899845ad3d59bd9653f200f220920489ca2b5937696c3160203392a3005b604051630b61174360e31b815260048101859052602490fd5b346102495760803660031901126102495760043561129b816102bc565b6024356112a7816102bc565b606435916001600160401b0383116102495736602384011215610249576112db61053c933690602481600401359101610385565b9160443591611c59565b3461024957602036600319011261024957600435600081815260026020526040902054611320906001600160a01b039081165b161515612d24565b61134561133f61133a836000526009602052604060002090565b612dbc565b91612f18565b8151916113556040820151612f18565b906113636060820151612f18565b60c08201511561163c5760e0611377612ea4565b925b015161138d906001600160a01b0316613096565b6040517f7b226e616d65223a202253494e43204167656e7420546f6b656e2023000000006020820152958695919491603c87016113c991612c1c565b61088b60f21b81526002017f226465736372697074696f6e223a202253494e43204167656e74204f6e746f6c81527f6f677920546f6b656e202d204e6f6e2d7472616e7366657261626c652061636360208201526f195cdcc818dc9959195b9d1a585b088b60821b60408201526050016e2261747472696275746573223a205b60881b8152600f017f7b2274726169745f74797065223a2022507572706f7365222c202276616c7565815263111d101160e11b602082015260240161148d91612c1c565b62089f4b60ea1b81526003017f7b2274726169745f74797065223a202253636f7065222c202276616c7565223a815261101160f11b60208201526022016114d391612c1c565b62089f4b60ea1b81526003017f7b2274726169745f74797065223a2022427564676574222c202276616c7565228152621d101160e91b602082015260230161151a91612c1c565b62089f4b60ea1b81526003017f7b2274726169745f74797065223a2022416374697665222c202276616c7565228152621d101160e91b602082015260230161156191612c1c565b62089f4b60ea1b81526003017f7b2274726169745f74797065223a202241737369676e6564204167656e74222c81526a10113b30b63ab2911d101160a91b6020820152602b016115b091612c1c565b61227d60f01b8152600201615d7d60f01b81526002010390601f199182810182526115db908261033a565b6115e4906131dd565b6040517f646174613a6170706c69636174696f6e2f6a736f6e3b6261736536342c000000602082015291908290603d820161161e91612c1c565b03908101825261162e908261033a565b60405161062c8192826105c3565b60e0611646612e83565b92611379565b3461024957602036600319011261024957600435611668611b28565b611670612765565b600090808252600b602052604082205480611689578280f35b6005811115611717576004198101908111611712576000805160206132bf83398151915291611709915b818552600b6020526040852055807ea4f8488cd701f9a77136eb5c91d5e2edef3c38001ca7148525acf8a262648161051c6116f883600052600b602052604060002090565b546040519081529081906020820190565b0390a138808280f35b61231b565b506117096000805160206132bf83398151915291836116b3565b3461024957602061175061174436610b4c565b9493909392919261215a565b604051908152f35b3461024957602036600319011261024957600435600052600b6020526020604060002054604051908152f35b3461024957604036600319011261024957602060ff6117e06004356117a8816102bc565b602435906117b5826102bc565b60018060a01b03166000526005845260406000209060018060a01b0316600052602052604060002090565b54166040519015158152f35b60209182825280519061180c61010092838686015261012085019061059e565b938082015194601f19918286830301604087015286519182815281810182808560051b8401019901946000925b85841061189957505050505050509060e08260406103d795940151606085015260608101516080850152608081015160a085015260a081015160c085015261188960c08201518386019015159052565b01516001600160a01b0316910152565b9091929394959985806118b6838e8787600197030189525161059e565b9c0194019401929594939190611839565b346102495760203660031901126102495761062c61195861133a60043561194860e06040516118f5816102e3565b606081526060602082015260009181836040819401528260608201528260808201528260a08201528260c082015201528281526002602052611318604060018060a01b03922060018060a01b0390541690565b6000526009602052604060002090565b604051918291826117ec565b3461024957602036600319011261024957600435611981816102bc565b611989611b28565b6001600160a01b039081169081156119dd57600654826bffffffffffffffffffffffff60a01b821617600655167f8be0079c531659141344cd1fd0a4f28419497f9722a3daafe3b4186f6b6457e0600080a3005b604051631e4fbdf760e01b815260006004820152602490fd5b9181601f84011215610249578235916001600160401b038311610249576020808501948460051b01011161024957565b6020908160408183019282815285518094520193019160005b828110611a4d575050505090565b835185529381019392810192600101611a3f565b346102495760c0366003190112610249576001600160401b036004803582811161024957611a9290369083016119f6565b9060243584811161024957611aaa90369085016119f6565b9060443586811161024957611ac290369087016119f6565b9060643588811161024957611ada90369089016119f6565b9290916084358a811161024957611af49036908b016119f6565b96909560a4359b8c1161024957611b14611b1c9b61062c9d3691016119f6565b9a90996127a6565b60405191829182611a26565b6006546001600160a01b03163303611b3c57565b60405163118cdaa760e01b8152336004820152602490fd5b91906001600160a01b039081811615611c2d578260005260026020528160406000205416151580611c25575b611bc557611b918291843391611fbd565b9316921690828203611ba257505050565b60649350604051926364283d7b60e01b8452600484015260248301526044820152fd5b60405162461bcd60e51b815260206004820152603260248201527f53494e43204167656e7420546f6b656e7320617265206e6f6e2d7472616e7366604482015271657261626c652028536f756c626f756e642960701b6064820152608490fd5b506001611b80565b604051633250574960e11b815260006004820152602490fd5b60405190611c5382610304565b60008252565b91929092611c68818585611b54565b833b611c75575b50505050565b611c9a916020916040519384928392630a85bd0160e11b978885523360048601611dd2565b038160006001600160a01b0388165af160009181611d2e575b50611cf25782611cc1611e03565b8051919082611ceb57604051633250574960e11b81526001600160a01b0383166004820152602490fd5b6020915001fd5b6001600160e01b03191603611d0b575038808080611c6f565b604051633250574960e11b81526001600160a01b03919091166004820152602490fd5b611d5091925060203d8111611d57575b611d48818361033a565b810190611dbd565b9038611cb3565b503d611d3e565b611d72906000526004602052604060002090565b80546001600160a01b0319169055565b6000818152600260205260409020546001600160a01b0316908115611da5575090565b60249060405190637e27328960e01b82526004820152fd5b9081602091031261024957516103d781610237565b6001600160a01b0391821681529116602082015260408101919091526080606082018190526103d79291019061059e565b3d15611e2e573d90611e148261036a565b91611e22604051938461033a565b82523d6000602084013e565b606090565b6000828152600260205260409020546001600160a01b03908116929190611e779084611ec4575b82169182611ea0575b61077e846000526002602052604060002090565b827fddf252ad1be2c89b69c2b068fc378daa952ba7f163c4a11628f55a4df523b3ef600080a490565b6001600160a01b038116600090815260036020526040902060018154019055611e63565b611ed8846000526004602052604060002090565b80546001600160a01b03191690556001600160a01b03851660009081526003602052604090208054600019019055611e5a565b6000818152600260205260409020546001600160a01b03169081611f76575b611f3e816000526002602052604060002090565b80546001600160a01b03191690556000827fddf252ad1be2c89b69c2b068fc378daa952ba7f163c4a11628f55a4df523b3ef8280a490565b611f8a816000526004602052604060002090565b80546001600160a01b03191690556001600160a01b03821660009081526003602052604090208054600019019055611f2a565b6000828152600260205260408120546001600160a01b039081169485929190818116801515908161208c575b505050906120357fddf252ad1be2c89b69c2b068fc378daa952ba7f163c4a11628f55a4df523b3ef928461205e575b8516948561203a575b61077e876000526002602052604060002090565b80a490565b6001600160a01b038116600090815260036020526040902060018154019055612021565b61206787611d5e565b6001600160a01b03851660009081526003602052604090208054600019019055612018565b90809293949550916120f5575b50156120aa57908180879493611fe9565b8490866120ca57604051637e27328960e01b815260048101839052602490fd5b60405163177e802f60e01b81526001600160a01b039190911660048201526024810191909152604490fd5b87811491508115612127575b811561210f575b5038612099565b90508584526004602052826040852054161438612108565b9050868452600560205260ff61215283604087209060018060a01b0316600052602052604060002090565b541690612101565b6122477f914162c67690fa436b8c7df6421bce3ec89955c4d38a0c956b00ab365a01faec936121eb97956122999497612191611b28565b612199612765565b6121a1612783565b6001600160a01b0385166000908152600a602052604090206121c49054156122c5565b600c54998a986121db6121d68b612331565b600c55565b6121e58a30612706565b4261235c565b916121f461035b565b938a855260208501526040840152606083015242608083015260a082015261221f60c0820160019052565b6001600160a01b03831660e0820152612242866000526009602052604060002090565b612592565b6001600160a01b0381166000908152600a6020526040902084905561228061227985600052600b602052604060002090565b6101f49055565b6040516001600160a01b039091169490918291826105c3565b0390a36040518181526000805160206132bf8339815191529080602081015b0390a16103d76001600755565b156122cc57565b60405162461bcd60e51b815260206004820152602160248201527f4167656e7420616c72656164792068617320616e2061637469766520746f6b656044820152603760f91b6064820152608490fd5b634e487b7160e01b600052601160045260246000fd5b60001981146117125760010190565b906002820180921161171257565b906020820180921161171257565b9190820180921161171257565b818110612374575050565b60008155600101612369565b9190601f811161238f57505050565b610368926000526020600020906020601f840160051c830193106123bb575b601f0160051c0190612369565b90915081906123ae565b91909182516001600160401b0381116102ff576123ec816123e684546107f6565b84612380565b602080601f831160011461242857508192939460009261241d575b50508160011b916000199060031b1c1916179055565b015190503880612407565b90601f1983169561243e85600052602060002090565b926000905b88821061247b57505083600195969710612462575b505050811b019055565b015160001960f88460031b161c19169055388080612458565b80600185968294968601518155019501930190612443565b600281901b91906001600160fe1b0381160361171257565b8151916801000000000000000083116102ff57815483835580841061250e575b506124e0602080920192600052602060002090565b6000925b8484106124f2575050505050565b60018382612502839451866123c5565b019201930192906124e4565b6000838152846020822092830192015b82811061252c5750506124cb565b80612539600192546107f6565b80612546575b500161251e565b601f90818111841461255e5750508281555b3861253f565b836125809261257285600052602060002090565b920160051c82019101612369565b60008181526020812081835555612558565b919080519283516001600160401b0381116102ff576125b5816123e684546107f6565b6020948590601f8311600114612689579261260261036896978460e09560069561265c9860009261267e575b50508160011b916000199060031b1c19161783555b860151600183016124ab565b60408501516002820155606085015160038201556080850151600482015560a08501516005820155019261264e61263c60c0830151151590565b859060ff801983541691151516179055565b01516001600160a01b031690565b8154610100600160a81b03191660089190911b610100600160a81b0316179055565b0151905038806125e1565b90601f1983169161269f85600052602060002090565b9260005b8181106126ef57509760018560069561265c98956126029560e0996103689d9e106126d6575b505050811b0183556125f6565b015160001960f88460031b161c191690553880806126c9565b9293896001819287860151815501950193016126a3565b6001600160a01b039181831615611c2d57806000526002602052826040600020541615158061275d575b611bc55761273d91611e33565b1661274457565b6040516339e3563760e11b815260006004820152602490fd5b506001612730565b60ff6008541661277157565b60405163d93c066560e01b8152600490fd5b600260075414612794576002600755565b604051633ee5aeb560e01b8152600490fd5b989496939199909b9a9592976127ba611b28565b6127c2612765565b6127ca612783565b8c89811480612920575b80612917575b888161290d575b6127f69282612903575b9c9d92919050612929565b6127ff8b61296e565b9b600c549b6000905b8110612862575050505050505050505050507f6bd5c950a8d8df17f772f5af37cb3655737899cbf903264b9795592da439661c9192935061284a600c54612a6e565b604080519283526020830191909152819081016122b8565b908f91808f8e8e8e8e8e8e8e8e898f8f8f8f84928361288481809581956129b6565b61288d906129cb565b9e612897926129d5565b9c6128a3929198612a16565b986128af9291986129b6565b35976128ba926129b6565b35966128c5926129b6565b359536906128d292610385565b9136906128de92610add565b906128e89561215a565b916128f291612a5a565b526128fc90612331565b9091612808565b149050888f6127eb565b88831491506127e1565b508581146127da565b508881146127d4565b1561293057565b60405162461bcd60e51b8152602060048201526016602482015275082e4e4c2f240d8cadccee8d0e640dad2e6dac2e8c6d60531b6044820152606490fd5b9061297882610ac6565b612985604051918261033a565b8281528092612996601f1991610ac6565b0190602036910137565b634e487b7160e01b600052603260045260246000fd5b91908110156129c65760051b0190565b6129a0565b356103d7816102bc565b91908110156129c65760051b81013590601e19813603018212156102495701908135916001600160401b038311610249576020018236038113610249579190565b91908110156129c65760051b81013590601e19813603018212156102495701908135916001600160401b038311610249576020018260051b36038113610249579190565b80518210156129c65760209160051b010190565b60001981019190821161171257565b15612a8457565b60405162461bcd60e51b815260206004820152600f60248201526e151bdad95b881b9bdd08199bdd5b99608a1b6044820152606490fd5b15612ac257565b60405162461bcd60e51b815260206004820152601860248201527f4167656e7420616c7265616479207465726d696e6174656400000000000000006044820152606490fd5b15612b0e57565b60405162461bcd60e51b815260206004820152600c60248201526b155b985d5d1a1bdc9a5e995960a21b6044820152606490fd5b6000818152600260205260409020546001600160a01b03908116151580612b7a575b611bc557612b7182611f0b565b1615611da55750565b506000612b64565b80548210156129c65760005260206000200190600090565b600092918154612ba9816107f6565b92600191808316908115612c015750600114612bc55750505050565b90919293945060005260209081600020906000915b858310612bf05750505050019038808080611c6f565b805485840152918301918101612bda565b60ff1916845250505081151590910201915038808080611c6f565b90612c2f6020928281519485920161057b565b0190565b6001600160a01b03166000908152600a60205260409020548015612d1d57612c65906000526009602052604060002090565b612c7a612c76600683015460ff1690565b1590565b612d1d5760058101544211612d1d5760009160018092018054935b848110612ca6575050505050600090565b612cb08183612b82565b50604090815190612cff60209183612ccb8482018093612b9a565b0393612cdf601f199586810183528261033a565b51902093519182019282612cf3858a612c1c565b0390810183528261033a565b51902014612d1557612d1090612331565b612c95565b505050905090565b5050600090565b15612d2b57565b60405162461bcd60e51b8152602060048201526014602482015273151bdad95b88191bd95cc81b9bdd08195e1a5cdd60621b6044820152606490fd5b908154612d7381610ac6565b92612d81604051948561033a565b818452600090815260208082208186015b848410612da0575050505050565b6001838192612dae85610830565b815201920193019290612d92565b90610368604051612dcc816102e3565b60e060068295612ddb81610830565b8452612de960018201612d67565b6020850152600281015460408501526003810154606085015260048101546080850152600581015460a0850152015460ff8116151560c084015260081c6001600160a01b0316910152565b6001600160a01b03166000908152600a60205260409020548015612e7d576000526009602052604060002060ff6006820154169081612e71575090565b60059150015442111590565b50600090565b60405190612e908261031f565b600582526466616c736560d81b6020830152565b60405190612eb18261031f565b60048252637472756560e01b6020830152565b60405190606082018281106001600160401b038211176102ff57604052602a8252604082602036910137565b90612efa8261036a565b612f07604051918261033a565b8281528092612996601f199161036a565b806000917a184f03e93ff9f4daa797ed6e38ed64bf6a1f0100000000000000008082101561304d575b506d04ee2d6d415b85acef81000000008083101561303e575b50662386f26fc100008083101561302f575b506305f5e10080831015613020575b5061271080831015613011575b506064821015613001575b600a80921015612ff7575b600190816021612faf828701612ef0565b95860101905b612fc1575b5050505090565b600019019083906f181899199a1a9b1b9c1cb0b131b232b360811b8282061a835304918215612ff257919082612fb5565b612fba565b9160010191612f9e565b9190606460029104910191612f93565b60049193920491019138612f88565b60089193920491019138612f7b565b60109193920491019138612f6c565b60209193920491019138612f5a565b604093508104915038612f41565b8051156129c65760200190565b8051600110156129c65760210190565b9081518110156129c6570160200190565b8015611712576000190190565b8061309f612ec4565b9160306130ab8461305b565b5360786130b784613068565b5360295b600181116130ed57506130cc575090565b60405163e22e27eb60e01b8152600481019190915260146024820152604490fd5b90600f81169060108210156129c65761312a916f181899199a1a9b1b9c1cb0b131b232b360811b901a6131208487613078565b5360041c91613089565b6130bb565b1561313657565b60405162461bcd60e51b815260206004820152601060248201526f4167656e74206e6f742061637469766560801b6044820152606490fd5b60405190606082018281106001600160401b038211176102ff57604052604082527f6768696a6b6c6d6e6f707172737475767778797a303132333435363738392b2f6040837f4142434445464748494a4b4c4d4e4f505152535455565758595a61626364656660208201520152565b8051156132b5576131ec61316e565b6132086132036131fc8451612340565b6003900490565b612493565b9161321a6132158461234e565b612ef0565b928352602081016020825183010160208501935b81831061326e5750505060039051068060011461325b57600214613250575090565b603d90600019015390565b50603d9081600019820153600119015390565b90919360048551603f90818160121c1685015184538181600c1c168501516001850153818160061c168501516002850153168301519160039283820153019401919061322e565b506103d7611c4656fef8e1a15aba9398e019f0b49df1a4fde98ee17ae345cb5f6b5e2c27f5033e8ce7a2646970667358221220e06d039dad196226a3750dd68fb3d64ae5bd063eea975119f72dfcc7d28b713d64736f6c63430008140033",
  "linkReferences": {},
  "deployedLinkReferences": {}
}