{
  "_format": "hh-sol-artifact-1",
  "contractName": "SINCCarbonCredit",
  "sourceName": "contracts/SINCCarbonCredit.sol",
  "abi": [
    {
      "inputs": [],
      "stateMutability": "nonpayable",
      "type": "constructor"
    },
    {
      "inputs": [
        {
          "internalType": "address",
          "name": "spender",
          "type": "address"
        },
        {
          "internalType": "uint256",
          "name": "allowance",
          "type": "uint256"
        },
        {
          "internalType": "uint256",
          "name": "needed",
          "type": "uint256"
        }
      ],
      "name": "ERC20InsufficientAllowance",
      "type": "error"
    },
    {
      "inputs": [
        {
          "internalType": "address",
          "name": "sender",
          "type": "address"
        },
        {
          "internalType": "uint256",
          "name": "balance",
          "type": "uint256"
        },
        {
          "internalType": "uint256",
          "name": "needed",
          "type": "uint256"
        }
      ],
      "name": "ERC20InsufficientBalance",
      "type": "error"
    },
    {
      "inputs": [
        {
          "internalType": "address",
          "name": "approver",
          "type": "address"
        }
      ],
      "name": "ERC20InvalidApprover",
      "type": "error"
    },
    {
      "inputs": [
        {
          "internalType": "address",
          "name": "receiver",
          "type": "address"
        }
      ],
      "name": "ERC20InvalidReceiver",
      "type": "error"
    },
    {
      "inputs": [
        {
          "internalType": "address",
          "name": "sender",
          "type": "address"
        }
      ],
      "name": "ERC20InvalidSender",
      "type": "error"
    },
    {
      "inputs": [
        {
          "internalType": "address",
          "name": "spender",
          "type": "address"
        }
      ],
      "name": "ERC20InvalidSpender",
      "type": "error"
    },
    {
      "inputs": [
        {
          "internalType": "address",
          "name": "owner",
          "type": "address"
        }
      ],
      "name": "OwnableInvalidOwner",
      "type": "error"
    },
    {
      "inputs": [
        {
          "internalType": "address",
          "name": "account",
          "type": "address"
        }
      ],
      "name": "OwnableUnauthorizedAccount",
      "type": "error"
    },
    {
      "inputs": [],
      "name": "ReentrancyGuardReentrantCall",
      "type": "error"
    },
    {
      "anonymous": false,
      "inputs": [
        {
          "indexed": true,
          "internalType": "address",
          "name": "owner",
          "type": "address"
        },
        {
          "indexed": true,
          "internalType": "address",
          "name": "spender",
          "type": "address"
        },
        {
          "indexed": false,
          "internalType": "uint256",
          "name": "value",
          "type": "uint256"
        }
      ],
      "name": "Approval",
      "type": "event"
    },
    {
      "anonymous": false,
      "inputs": [
        {
          "indexed": true,
          "internalType": "uint256",
          "name": "projectId",
          "type": "uint256"
        },
        {
          "indexed": true,
          "internalType": "address",
          "name": "receiver",
          "type": "address"
        },
        {
          "indexed": false,
          "internalType": "uint256",
          "name": "amount",
          "type": "uint256"
        }
      ],
      "name": "CreditsIssued",
      "type": "event"
    },
    {
      "anonymous": false,
      "inputs": [
        {
          "indexed": true,
          "internalType": "address",
          "name": "user",
          "type": "address"
        },
        {
          "indexed": false,
          "internalType": "uint256",
          "name": "amount",
          "type": "uint256"
        }
      ],
      "name": "CreditsRetired",
      "type": "event"
    },
    {
      "anonymous": false,
      "inputs": [
        {
          "indexed": true,
          "internalType": "address",
          "name": "previousOwner",
          "type": "address"
        },
        {
          "indexed": true,
          "internalType": "address",
          "name": "newOwner",
          "type": "address"
        }
      ],
      "name": "OwnershipTransferred",
      "type": "event"
    },
    {
      "anonymous": false,
      "inputs": [
        {
          "indexed": true,
          "internalType": "uint256",
          "name": "projectId",
          "type": "uint256"
        },
        {
          "indexed": false,
          "internalType": "string",
          "name": "name",
          "type": "string"
        },
        {
          "indexed": false,
          "internalType": "uint256",
          "name": "totalCredits",
          "type": "uint256"
        }
      ],
      "name": "ProjectRegistered",
      "type": "event"
    },
    {
      "anonymous": false,
      "inputs": [
        {
          "indexed": true,
          "internalType": "uint256",
          "name": "projectId",
          "type": "uint256"
        },
        {
          "indexed": false,
          "internalType": "string",
          "name": "verificationUrl",
          "type": "string"
        }
      ],
      "name": "ProjectVerified",
      "type": "event"
    },
    {
      "anonymous": false,
      "inputs": [
        {
          "indexed": true,
          "internalType": "address",
          "name": "from",
          "type": "address"
        },
        {
          "indexed": true,
          "internalType": "address",
          "name": "to",
          "type": "address"
        },
        {
          "indexed": false,
          "internalType": "uint256",
          "name": "value",
          "type": "uint256"
        }
      ],
      "name": "Transfer",
      "type": "event"
    },
    {
      "inputs": [
        {
          "internalType": "address",
          "name": "owner",
          "type": "address"
        },
        {
          "internalType": "address",
          "name": "spender",
          "type": "address"
        }
      ],
      "name": "allowance",
      "outputs": [
        {
          "internalType": "uint256",
          "name": "",
          "type": "uint256"
        }
      ],
      "stateMutability": "view",
      "type": "function"
    },
    {
      "inputs": [
        {
          "internalType": "address",
          "name": "spender",
          "type": "address"
        },
        {
          "internalType": "uint256",
          "name": "value",
          "type": "uint256"
        }
      ],
      "name": "approve",
      "outputs": [
        {
          "internalType": "bool",
          "name": "",
          "type": "bool"
        }
      ],
      "stateMutability": "nonpayable",
      "type": "function"
    },
    {
      "inputs": [
        {
          "internalType": "address",
          "name": "account",
          "type": "address"
        }
      ],
      "name": "balanceOf",
      "outputs": [
        {
          "internalType": "uint256",
          "name": "",
          "type": "uint256"
        }
      ],
      "stateMutability": "view",
      "type": "function"
    },
    {
      "inputs": [],
      "name": "decimals",
      "outputs": [
        {
          "internalType": "uint8",
          "name": "",
          "type": "uint8"
        }
      ],
      "stateMutability": "view",
      "type": "function"
    },
    {
      "inputs": [
        {
          "internalType": "uint256",
          "name": "projectId",
          "type": "uint256"
        },
        {
          "internalType": "address",
          "name": "receiver",
          "type": "address"
        },
        {
          "internalType": "uint256",
          "name": "amount",
          "type": "uint256"
        }
      ],
      "name": "issueCredits",
      "outputs": [],
      "stateMutability": "nonpayable",
      "type": "function"
    },
    {
      "inputs": [],
      "name": "name",
      "outputs": [
        {
          "internalType": "string",
          "name": "",
          "type": "string"
        }
      ],
      "stateMutability": "view",
      "type": "function"
    },
    {
      "inputs": [],
      "name": "nextProjectId",
      "outputs": [
        {
          "internalType": "uint256",
          "name": "",
          "type": "uint256"
        }
      ],
      "stateMutability": "view",
      "type": "function"
    },
    {
      "inputs": [],
      "name": "owner",
      "outputs": [
        {
          "internalType": "address",
          "name": "",
          "type": "address"
        }
      ],
      "stateMutability": "view",
      "type": "function"
    },
    {
      "inputs": [
        {
          "internalType": "uint256",
          "name": "",
          "type": "uint256"
        }
      ],
      "name": "projects",
      "outputs": [
        {
          "internalType": "string",
          "name": "name",
          "type": "string"
        },
        {
          "internalType": "string",
          "name": "location",
          "type": "string"
        },
        {
          "internalType": "uint256",
          "name": "totalCredits",
          "type": "uint256"
        },
        {
          "internalType": "uint256",
          "name": "issuedCredits",
          "type": "uint256"
        },
        {
          "internalType": "bool",
          "name": "verified",
          "type": "bool"
        },
        {
          "internalType": "string",
          "name": "verificationUrl",
          "type": "string"
        }
      ],
      "stateMutability": "view",
      "type": "function"
    },
    {
      "inputs": [
        {
          "internalType": "string",
          "name": "name",
          "type": "string"
        },
        {
          "internalType": "string",
          "name": "location",
          "type": "string"
        },
        {
          "internalType": "uint256",
          "name": "totalCredits",
          "type": "uint256"
        }
      ],
      "name": "registerProject",
      "outputs": [
        {
          "internalType": "uint256",
          "name": "",
          "type": "uint256"
        }
      ],
      "stateMutability": "nonpayable",
      "type": "function"
    },
    {
      "inputs": [],
      "name": "renounceOwnership",
      "outputs": [],
      "stateMutability": "nonpayable",
      "type": "function"
    },
    {
      "inputs": [
        {
          "internalType": "uint256",
          "name": "amount",
          "type": "uint256"
        }
      ],
      "name": "retireCredits",
      "outputs": [],
      "stateMutability": "nonpayable",
      "type": "function"
    },
    {
      "inputs": [],
      "name": "symbol",
      "outputs": [
        {
          "internalType": "string",
          "name": "",
          "type": "string"
        }
      ],
      "stateMutability": "view",
      "type": "function"
    },
    {
      "inputs": [],
      "name": "totalSupply",
      "outputs": [
        {
          "internalType": "uint256",
          "name": "",
          "type": "uint256"
        }
      ],
      "stateMutability": "view",
      "type": "function"
    },
    {
      "inputs": [
        {
          "internalType": "address",
          "name": "to",
          "type": "address"
        },
        {
          "internalType": "uint256",
          "name": "value",
          "type": "uint256"
        }
      ],
      "name": "transfer",
      "outputs": [
        {
          "internalType": "bool",
          "name": "",
          "type": "bool"
        }
      ],
      "stateMutability": "nonpayable",
      "type": "function"
    },
    {
      "inputs": [
        {
          "internalType": "address",
          "name": "from",
          "type": "address"
        },
        {
          "internalType": "address",
          "name": "to",
          "type": "address"
        },
        {
          "internalType": "uint256",
          "name": "value",
          "type": "uint256"
        }
      ],
      "name": "transferFrom",
      "outputs": [
        {
          "internalType": "bool",
          "name": "",
          "type": "bool"
        }
      ],
      "stateMutability": "nonpayable",
      "type": "function"
    },
    {
      "inputs": [
        {
          "internalType": "address",
          "name": "newOwner",
          "type": "address"
        }
      ],
      "name": "transferOwnership",
      "outputs": [],
      "stateMutability": "nonpayable",
      "type": "function"
    },
    {
      "inputs": [
        {
          "internalType": "uint256",
          "name": "projectId",
          "type": "uint256"
        },
        {
          "internalType": "string",
          "name": "verificationUrl",
          "type": "string"
        }
      ],
      "name": "verifyProject",
      "outputs": [],
      "stateMutability": "nonpayable",
      "type": "function"
    }
  ],
  "bytecode": "0x60803462000394576001600160401b03906040908082018381118282101762000294578252601281526020927114d25390c810d85c989bdb8810dc99591a5d60721b84830152825190838201828110828211176200029457845260038083526253434360e81b86840152835182811162000294578154906001958683811c9316801562000389575b8984101462000373578190601f938481116200031d575b508990848311600114620002b657600092620002aa575b505060001982851b1c191690861b1782555b835192831162000294576004938454978689811c9916801562000289575b818a101462000274578883869798999a1162000218575b5080928511600114620001aa57506000936200019e575b505082851b92600019911b1c19161781555b331562000187575060058054336001600160a01b0319821681179092559251926001600160a01b03167f8be0079c531659141344cd1fd0a4f28419497f9722a3daafe3b4186f6b6457e0600080a38060065560085561131f90816200039a8239f35b6024906000845191631e4fbdf760e01b8352820152fd5b01519150388062000113565b929190879550601f1985168760005284600020946000905b828210620001fe5750508511620001e3575b50505050811b01815562000125565b01519060f884600019921b161c1916905538808080620001d4565b8484015187558a98909601959384019390810190620001c2565b90919293945086600052816000208480880160051c8201928489106200026a575b918a91899897969594930160051c01915b8281106200025a575050620000fc565b600081558897508a91016200024a565b9250819262000239565b602286634e487b7160e01b6000525260246000fd5b98607f1698620000e5565b634e487b7160e01b600052604160045260246000fd5b015190503880620000b5565b90889350601f19831691866000528b6000209260005b8d828210620003065750508411620002ed575b505050811b018255620000c7565b015160001983871b60f8161c19169055388080620002df565b8385015186558c97909501949384019301620002cc565b90915084600052896000208480850160051c8201928c861062000369575b918a91869594930160051c01915b828110620003595750506200009e565b600081558594508a910162000349565b925081926200033b565b634e487b7160e01b600052602260045260246000fd5b92607f169262000087565b600080fdfe608080604052600436101561001357600080fd5b60003560e01c90816306fdde0314610ef957508063095ea7b314610e73578063107046bd14610dd257806318160ddd14610db45780632039e33914610cc157806323b872dd14610bcf578063313ce56714610bb357806370a0823114610b79578063715018a614610b1c5780638da5cb5b14610af357806395d89b4114610a0d578063a29b04231461081d578063a9059cbb146107ec578063b8f9462214610657578063c7c7717e146101e7578063dd62ed3e14610196578063e935b7b1146101785763f2fde38b146100e557600080fd5b34610173576020366003190112610173576100fe610fdc565b610106611177565b6001600160a01b0390811690811561015a57600554826bffffffffffffffffffffffff60a01b821617600555167f8be0079c531659141344cd1fd0a4f28419497f9722a3daafe3b4186f6b6457e0600080a3005b604051631e4fbdf760e01b815260006004820152602490fd5b600080fd5b34610173576000366003190112610173576020600854604051908152f35b34610173576040366003190112610173576101af610fdc565b6101b7610ff2565b9060018060a01b038091166000526001602052604060002091166000526020526020604060002054604051908152f35b346101735760603660031901126101735760043567ffffffffffffffff811161017357610218903690600401611120565b6024803567ffffffffffffffff811161017357610239903690600401611120565b610241611177565b60085491600019831461064357600183016008556040519160c0830183811067ffffffffffffffff82111761062e5760405284835260208301526044356040830152600060608301526000608083015260405180602081011067ffffffffffffffff60208301111761061957602081016040526000815260a08301528260005260076020526040600020825180519067ffffffffffffffff821161058d5781906102f5826102ef8654611008565b86611272565b602090601f83116001146105ad576000926105a2575b50508160011b916000199060031b1c19161781555b602083015180519067ffffffffffffffff821161058d57610351826103486001860154611008565b60018601611272565b602090601f831160011461051857918060a0949260059460009261050d575b50508160011b916000199060031b1c19161760018201555b6040850151600282015560608501516003820155600481016080860151151560ff801983541691161790550192015180519167ffffffffffffffff83116104f95750918184936103e5602097946103df8554611008565b85611272565b8690601f831160011461046a57918061044d94927fc96f671035a5983839cbfb06e1101248d929c6a6cd8b317b233689c7ada29761969460009261045f575b50508160011b916000199060031b1c19161790555b604051918291604083526040830190610f9c565b604435878301520390a2604051908152f35b015190508980610424565b90601f1983169184600052886000209260005b8181106104df57509260019285927fc96f671035a5983839cbfb06e1101248d929c6a6cd8b317b233689c7ada29761989661044d9896106104c6575b505050811b019055610439565b015160001960f88460031b161c191690558980806104b9565b828401518555899850600190940193928a01928a0161047d565b634e487b7160e01b60009081526041600452fd5b015190508980610370565b906001840160005260206000209160005b601f198516811061057557509260a0949260019260059583601f1981161061055c575b505050811b016001820155610388565b015160001960f88460031b161c1916905589808061054c565b91926020600181928685015181550194019201610529565b83634e487b7160e01b60005260416004526000fd5b01519050878061030b565b9250836000526020600020906000935b601f19841685106105fe576001945083601f198116106105e5575b505050811b018155610320565b015160001960f88460031b161c191690558780806105d8565b818101518355602094850194600190930192909101906105bd565b50634e487b7160e01b60009081526041600452fd5b82634e487b7160e01b60005260416004526000fd5b634e487b7160e01b60009081526011600452fd5b3461017357606036600319011261017357600435610673610ff2565b9060443561067f611177565b6106876112c6565b8160005260209260078452604060002060ff600482015416156107b057600381019081549060026106b8868461124f565b9101541061077357836106ca9161124f565b90556001600160a01b031692831561075a578161070a7f80807df250fc60b0a27122f9dca640191a9a0347c492a6bea34b4570e50f2f029360025461124f565b600255846000526000825260406000208181540190558460007fddf252ad1be2c89b69c2b068fc378daa952ba7f163c4a11628f55a4df523b3ef84604051858152a3604051908152a36001600655005b60405163ec442f0560e01b815260006004820152602490fd5b60405162461bcd60e51b81526004810187905260156024820152744578636565647320746f74616c206372656469747360581b6044820152606490fd5b60405162461bcd60e51b8152600481018690526014602482015273141c9bda9958dd081b9bdd081d995c9a599a595960621b6044820152606490fd5b3461017357604036600319011261017357610812610808610fdc565b60243590336111a3565b602060405160018152f35b346101735760403660031901126101735760043560249081359167ffffffffffffffff908184116101735736602385011215610173578360040135918211610173573681838601011161017357610872611177565b826000526020936007855260406000206008548510156109d057600560048201916001928360ff1982541617905501906108b6856108b08454611008565b84611272565b6000601f861160011461094057937ff5572ad5bf12532768a550eaabdae192d15b31d2e676f245277508624a61fc7c9697938693848080958560409a600094610933575b50501b906000198660031b1c19161790555b855196858896875286015201848401376000828201840152601f01601f19168101030190a2005b860101359250858e6108fa565b601f1986169083600052886000209160005b8181106109b9575093879493604097937ff5572ad5bf12532768a550eaabdae192d15b31d2e676f245277508624a61fc7c9a9b97938780971061099d575b505084811b01905561090c565b8401850135600019600388901b60f8161c191690558b80610990565b868301880135845592840192918a01918a01610952565b60405162461bcd60e51b81526004810187905260168185015275141c9bda9958dd08191bd95cc81b9bdd08195e1a5cdd60521b6044820152606490fd5b34610173576000366003190112610173576040516000600454610a2f81611008565b80845290600190818116908115610acc5750600114610a71575b610a6d84610a5981860382611042565b604051918291602083526020830190610f9c565b0390f35b6004600090815292507f8a35acfbc15ff81a39ae7d344fd709f28e8600b4aa8c65c6b64bfe7fe36bd19b5b828410610ab4575050508101602001610a5982610a49565b80546020858701810191909152909301928101610a9c565b60ff191660208087019190915292151560051b85019092019250610a599150839050610a49565b34610173576000366003190112610173576005546040516001600160a01b039091168152602090f35b3461017357600036600319011261017357610b35611177565b600580546001600160a01b031981169091556000906001600160a01b03167f8be0079c531659141344cd1fd0a4f28419497f9722a3daafe3b4186f6b6457e08280a3005b34610173576020366003190112610173576001600160a01b03610b9a610fdc565b1660005260006020526020604060002054604051908152f35b3461017357600036600319011261017357602060405160128152f35b3461017357606036600319011261017357610be8610fdc565b610bf0610ff2565b6001600160a01b03821660008181526001602090815260408083203384529091529020549260443592916000198510610c2f575b5061081293506111a3565b838510610c9b578015610c82573315610c695761081294849160005260016020526040600020336000526020520360406000205584610c24565b604051634a1406b160e11b815260006004820152602490fd5b60405163e602df0560e01b815260006004820152602490fd5b604051637dc7a0d960e11b81523360048201526024810186905260448101859052606490fd5b3461017357602036600319011261017357600435610cdd6112c6565b3315610d9b5733600052600060205280604060002054818110610d735733600052600060205203604060002055806002540360025560006040518281527fddf252ad1be2c89b69c2b068fc378daa952ba7f163c4a11628f55a4df523b3ef60203392a36040519081527f75ce18f0b9e34e9d622e58c9a8e26936ea62297ebb7ca2ea99e83d0535d7997760203392a26001600655005b60405163391434e360e21b815233600482015260248101919091526044810191909152606490fd5b604051634b637e8f60e11b815260006004820152602490fd5b34610173576000366003190112610173576020600254604051908152f35b34610173576020366003190112610173576004356000526007602052610e466040600020610a6d610e028261107a565b91610e0f6001820161107a565b6002820154916003810154610e54610e31600560ff600486015416940161107a565b9360405198899860c08a5260c08a0190610f9c565b9088820360208a0152610f9c565b93604087015260608601521515608085015283820360a0850152610f9c565b3461017357604036600319011261017357610e8c610fdc565b602435903315610c82576001600160a01b0316908115610c6957336000526001602052604060002082600052602052806040600020556040519081527f8c5be1e5ebec7d5bd14f71427d1e84f3dd0314c0f7b2291e5b200ac8c7c3b92560203392a3602060405160018152f35b34610173576000366003190112610173576000600354610f1881611008565b80845290600190818116908115610acc5750600114610f4157610a6d84610a5981860382611042565b6003600090815292507fc2575a0e9e593c00f959f8c92f12db2869c3395a3b0502d05e2516446f71f85b5b828410610f84575050508101602001610a5982610a49565b80546020858701810191909152909301928101610f6c565b919082519283825260005b848110610fc8575050826000602080949584010152601f8019910116010190565b602081830181015184830182015201610fa7565b600435906001600160a01b038216820361017357565b602435906001600160a01b038216820361017357565b90600182811c92168015611038575b602083101461102257565b634e487b7160e01b600052602260045260246000fd5b91607f1691611017565b90601f8019910116810190811067ffffffffffffffff82111761106457604052565b634e487b7160e01b600052604160045260246000fd5b906040519182600082549261108e84611008565b9081845260019485811690816000146110fd57506001146110ba575b50506110b892500383611042565b565b9093915060005260209081600020936000915b8183106110e55750506110b8935082010138806110aa565b855488840185015294850194879450918301916110cd565b9150506110b894506020925060ff191682840152151560051b82010138806110aa565b81601f820112156101735780359067ffffffffffffffff82116110645760405192611155601f8401601f191660200185611042565b8284526020838301011161017357816000926020809301838601378301015290565b6005546001600160a01b0316330361118b57565b60405163118cdaa760e01b8152336004820152602490fd5b916001600160a01b03808416928315610d9b571692831561075a576000908382528160205260408220549083821061121d575091604082827fddf252ad1be2c89b69c2b068fc378daa952ba7f163c4a11628f55a4df523b3ef958760209652828652038282205586815220818154019055604051908152a3565b60405163391434e360e21b81526001600160a01b03919091166004820152602481019190915260448101839052606490fd5b9190820180921161125c57565b634e487b7160e01b600052601160045260246000fd5b90601f811161128057505050565b600091825260208220906020601f850160051c830194106112bc575b601f0160051c01915b8281106112b157505050565b8181556001016112a5565b909250829061129c565b6002600654146112d7576002600655565b604051633ee5aeb560e01b8152600490fdfea26469706673582212201486d0bcffb1a2f08d6f59a0f538b4cf52382b5fb8eac9e8d8539d97dca1425464736f6c63430008140033",
  "linkReferences": {},
  "deployedLinkReferences": {}
}