{"contracts/SINCairdrop.sol":{"SINCairdrop":{"abi":[{"inputs":[{"internalType":"address","name":"_sincTokenAddress","type":"address"}],"stateMutability":"nonpayable","type":"constructor"},{"inputs":[{"internalType":"address","name":"owner","type":"address"}],"name":"OwnableInvalidOwner","type":"error"},{"inputs":[{"internalType":"address","name":"account","type":"address"}],"name":"OwnableUnauthorizedAccount","type":"error"},{"inputs":[],"name":"ReentrancyGuardReentrantCall","type":"error"},{"anonymous":false,"inputs":[{"indexed":true,"internalType":"address","name":"recipient","type":"address"},{"indexed":false,"internalType":"uint256","name":"amount","type":"uint256"},{"indexed":false,"internalType":"uint256","name":"timestamp","type":"uint256"}],"name":"AirdropClaimed","type":"event"},{"anonymous":false,"inputs":[{"indexed":false,"internalType":"uint256","name":"newStart","type":"uint256"},{"indexed":false,"internalType":"uint256","name":"newEnd","type":"uint256"}],"name":"ClaimWindowUpdated","type":"event"},{"anonymous":false,"inputs":[{"indexed":true,"internalType":"address","name":"previousOwner","type":"address"},{"indexed":true,"internalType":"address","name":"newOwner","type":"address"}],"name":"OwnershipTransferred","type":"event"},{"anonymous":false,"inputs":[{"indexed":true,"internalType":"address","name":"wallet","type":"address"},{"indexed":false,"internalType":"uint256","name":"timestamp","type":"uint256"}],"name":"WalletVerified","type":"event"},{"inputs":[],"name":"AIRDROP_END","outputs":[{"internalType":"uint256","name":"","type":"uint256"}],"stateMutability":"view","type":"function"},{"inputs":[],"name":"AIRDROP_START","outputs":[{"internalType":"uint256","name":"","type":"uint256"}],"stateMutability":"view","type":"function"},{"inputs":[],"name":"MAX_CLAIMS","outputs":[{"internalType":"uint256","name":"","type":"uint256"}],"stateMutability":"view","type":"function"},{"inputs":[],"name":"TOKENS_PER_CLAIM","outputs":[{"internalType":"uint256","name":"","type":"uint256"}],"stateMutability":"view","type":"function"},{"inputs":[{"internalType":"address","name":"_wallet","type":"address"}],"name":"canClaim","outputs":[{"internalType":"bool","name":"","type":"bool"}],"stateMutability":"view","type":"function"},{"inputs":[],"name":"claimAirdrop","outputs":[],"stateMutability":"nonpayable","type":"function"},{"inputs":[{"internalType":"uint256","name":"","type":"uint256"}],"name":"claimants","outputs":[{"internalType":"address","name":"","type":"address"}],"stateMutability":"view","type":"function"},{"inputs":[],"name":"getClaimantCount","outputs":[{"internalType":"uint256","name":"","type":"uint256"}],"stateMutability":"view","type":"function"},{"inputs":[],"name":"getClaimants","outputs":[{"internalType":"address[]","name":"","type":"address[]"}],"stateMutability":"view","type":"function"},{"inputs":[],"name":"getRemainingClaims","outputs":[{"internalType":"uint256","name":"","type":"uint256"}],"stateMutability":"view","type":"function"},{"inputs":[],"name":"getTotalClaims","outputs":[{"internalType":"uint256","name":"","type":"uint256"}],"stateMutability":"view","type":"function"},{"inputs":[{"internalType":"address","name":"","type":"address"}],"name":"hasClaimed","outputs":[{"internalType":"bool","name":"","type":"bool"}],"stateMutability":"view","type":"function"},{"inputs":[],"name":"isAirdropActive","outputs":[{"internalType":"bool","name":"","type":"bool"}],"stateMutability":"view","type":"function"},{"inputs":[{"internalType":"address","name":"","type":"address"}],"name":"isVerified","outputs":[{"internalType":"bool","name":"","type":"bool"}],"stateMutability":"view","type":"function"},{"inputs":[],"name":"owner","outputs":[{"internalType":"address","name":"","type":"address"}],"stateMutability":"view","type":"function"},{"inputs":[{"internalType":"address","name":"_recipient","type":"address"}],"name":"recoverUnclaimedTokens","outputs":[],"stateMutability":"nonpayable","type":"function"},{"inputs":[],"name":"renounceOwnership","outputs":[],"stateMutability":"nonpayable","type":"function"},{"inputs":[{"internalType":"address","name":"_wallet","type":"address"}],"name":"revokeVerification","outputs":[],"stateMutability":"nonpayable","type":"function"},{"inputs":[{"internalType":"address[]","name":"_wallets","type":"address[]"}],"name":"revokeVerifications","outputs":[],"stateMutability":"nonpayable","type":"function"},{"inputs":[],"name":"sincToken","outputs":[{"internalType":"contract IERC20","name":"","type":"address"}],"stateMutability":"view","type":"function"},{"inputs":[],"name":"totalClaimed","outputs":[{"internalType":"uint256","name":"","type":"uint256"}],"stateMutability":"view","type":"function"},{"inputs":[{"internalType":"address","name":"newOwner","type":"address"}],"name":"transferOwnership","outputs":[],"stateMutability":"nonpayable","type":"function"},{"inputs":[{"internalType":"uint256","name":"_newStart","type":"uint256"},{"internalType":"uint256","name":"_newEnd","type":"uint256"}],"name":"updateClaimWindow","outputs":[],"stateMutability":"nonpayable","type":"function"},{"inputs":[{"internalType":"address","name":"_wallet","type":"address"}],"name":"verifyWallet","outputs":[],"stateMutability":"nonpayable","type":"function"},{"inputs":[{"internalType":"address[]","name":"_wallets","type":"address[]"}],"name":"verifyWallets","outputs":[],"stateMutability":"nonpayable","type":"function"}],"evm":{"bytecode":{"linkReferences":{},"object":"60803461011b57601f61104538819003918201601f19168301916001600160401b038311848410176101205780849260209460405283398101031261011b57516001600160a01b038082169182900361011b573315610102576000549060018060a01b0319913383821617600055604051913391167f8be0079c531659141344cd1fd0a4f28419497f9722a3daafe3b4186f6b6457e0600080a360018055600060035582156100c057506002541617600255604051610f0e90816101378239f35b62461bcd60e51b815260206004820152601560248201527f496e76616c696420746f6b656e206164647265737300000000000000000000006044820152606490fd5b604051631e4fbdf760e01b815260006004820152602490fd5b600080fd5b634e487b7160e01b600052604160045260246000fdfe6080604081815260048036101561001557600080fd5b600092833560e01c90816316daa23b14610d1b575080633a3b476614610b2d5780633ecb94a814610b0e5780635aa60adc14610a7f5780635b88349d146107855780635f6135181461075c578063715018a61461070257806373b2e80e146106c45780638da5cb5b1461069c578063953964921461065b578063a6cb8be314610596578063b9209e3314610558578063bf3506c1146104ba578063c0deb8601461049b578063ccfff67914610477578063cf62ba921461045a578063d1c67d5814610417578063d54ad2a1146103f8578063da5186b91461039a578063e20d810f1461035f578063e998d2fa1461031e578063eb6a0cbe14610264578063f2fde38b146101d6578063f30f40a8146101b35763fc399c791461013657600080fd5b346101af5760203660031901126101af57356001600160a01b03811691908290036101af5760207fb609aa16dcc660a4f07550b21f65b03ae3fe781d89444940bdb3d7407ca810e491610187610dd6565b610192841515610e4b565b83855260058252808520805460ff1916600117905551428152a280f35b8280fd5b5050346101d257816003193601126101d257602090516367a6c4008152f35b5080fd5b5090346101af5760203660031901126101af576001600160a01b0382358181169391929084900361026057610209610dd6565b831561024a57505082546001600160a01b0319811683178455167f8be0079c531659141344cd1fd0a4f28419497f9722a3daafe3b4186f6b6457e08380a380f35b51631e4fbdf760e01b8152908101849052602490fd5b8480fd5b5050346101d25761027436610d84565b919061027e610dd6565b835b83811061028b578480f35b610319906001600160a01b036102b6816102ae6102a9858a89610e27565b610e37565b161515610e4b565b806102c56102a9848988610e27565b1687527fb609aa16dcc660a4f07550b21f65b03ae3fe781d89444940bdb3d7407ca810e460209160058352868920600160ff1982541617905561030c6102a9858a89610e27565b16918651428152a2610e02565b610280565b50346101af5760203660031901126101af57356001600160a01b038116908190036101af5761034b610dd6565b825260056020528120805460ff1916905580f35b5050346101d257816003193601126101d25760209063679edb00421015908161038b575b519015158152f35b6367a6c4004211159150610383565b5050346101d2576103aa36610d84565b91906103b4610dd6565b835b8381106103c1578480f35b6103f3906001600160a01b036103db6102a9838887610e27565b1686526005602052838620805460ff19169055610e02565b6103b6565b5050346101d257816003193601126101d2576020906003549051908152f35b50346101af5760203660031901126101af5735916006548310156104575750610441602092610d37565b905491519160018060a01b039160031b1c168152f35b80fd5b5050346101d257816003193601126101d257602090516101f48152f35b5050346101d257816003193601126101d25760209051683635c9adc5dea000008152f35b5050346101d257816003193601126101d2576020905163679edb008152f35b5090346101af5760203660031901126101af5781356001600160a01b03811690819003610554579260209381526005845260ff82822054169283610541575b505081610532575b81610523575b8161051457519015158152f35b90506101f46003541090610383565b6367a6c4004211159150610507565b63679edb004210159150610501565b84528190205460ff1615915038806104f9565b8380fd5b50346101af5760203660031901126101af57356001600160a01b038116908190036101af57818360ff92602095526005855220541690519015158152f35b8284346104575780600319360112610457579080519182906006549182855260208095018093600684527ff652222313e28459528d920b65115c16c04f3efc82aaedc97be59f3f377c0d3f90845b81811061063e57505050816105fa910382610e88565b83519485948186019282875251809352850193925b82811061061e57505050500390f35b83516001600160a01b03168552869550938101939281019260010161060f565b82546001600160a01b0316845292880192600192830192016105e4565b509190346101d257816003193601126101d257600354916101f4928303928311610689576020838351908152f35b634e487b7160e01b815260118452602490fd5b5050346101d257816003193601126101d257905490516001600160a01b039091168152602090f35b50346101af5760203660031901126101af5780356001600160a01b03811690819003610554578360ff92849260209652855220541690519015158152f35b833461045757806003193601126104575761071b610dd6565b80546001600160a01b03198116825581906001600160a01b03167f8be0079c531659141344cd1fd0a4f28419497f9722a3daafe3b4186f6b6457e08280a380f35b5050346101d257816003193601126101d25760025490516001600160a01b039091168152602090f35b50346101af57826003193601126101af576001916002835414610a72576002835533845260206005815260ff828620541615610a315733855282815260ff82862054166109f05763679edb0042106109b9576367a6c4004211610981576101f46003541015610948573385528281528185208460ff1982541617905561080c600354610e02565b600355600654680100000000000000008110156109355780856108329201600655610d37565b9080549160031b60018060a01b03928333831b921b19161790556002541692825163a9059cbb60e01b8152338282015282816044818a683635c9adc5dea00000998a60248401525af190811561092b5787916108fe575b50156108c55750907fd0755a9ef5a74f50d34b3503bb5b65ad71a112c001b76dfa6412c9aa4a1f43b091815193845242908401523392a2805580f35b915162461bcd60e51b8152918201526015602482015274151bdad95b881d1c985b9cd9995c8819985a5b1959605a1b6044820152606490fd5b61091e9150833d8511610924575b6109168183610e88565b810190610ec0565b38610889565b503d61090c565b84513d89823e3d90fd5b634e487b7160e01b865260418452602486fd5b905162461bcd60e51b8152918201526015602482015274105a5c991c9bdc081b1a5b5a5d081c995858da1959605a1b6044820152606490fd5b905162461bcd60e51b8152918201526014602482015273105a5c991c9bdc081c195c9a5bd908195b99195960621b6044820152606490fd5b905162461bcd60e51b8152918201526013602482015272105a5c991c9bdc081b9bdd081cdd185c9d1959606a1b6044820152606490fd5b905162461bcd60e51b815291820152601760248201527f416c726561647920636c61696d65642061697264726f700000000000000000006044820152606490fd5b905162461bcd60e51b815291820152601f60248201527f57616c6c6574206e6f7420766572696669656420666f722061697264726f70006044820152606490fd5b51633ee5aeb560e01b8152fd5b509190346101d257806003193601126101d257823560243593610aa0610dd6565b84821015610ada57507f0855587c27170e75c96262d5fd85f9afbe456729d3ddf667be334116d962dd58929382519182526020820152a180f35b606490602084519162461bcd60e51b8352820152600e60248201526d496e76616c69642077696e646f7760901b6044820152fd5b5050346101d257816003193601126101d2576020906006549051908152f35b5090346101af57602090816003193601126105545782356001600160a01b0381811691829003610d1757610b5f610dd6565b6367a6c400421115610cdd578115610ca65760025483516370a0823160e01b815230878201529116918482602481865afa91821561092b578792610c73575b508115610c39579060448592888651958694859363a9059cbb60e01b85528b85015260248401525af1908115610c2f578591610c12575b5015610bdf578380f35b5162461bcd60e51b815291820152600f60248201526e151c985b9cd9995c8819985a5b1959608a1b604482015260649150fd5b610c299150833d8511610924576109168183610e88565b38610bd5565b82513d87823e3d90fd5b835162461bcd60e51b815280870186905260146024820152732737903a37b5b2b739903a37903932b1b7bb32b960611b6044820152606490fd5b9091508481813d8311610c9f575b610c8b8183610e88565b81010312610c9b57519038610b9e565b8680fd5b503d610c81565b50505162461bcd60e51b8152918201526011602482015270125b9d985b1a59081c9958da5c1a595b9d607a1b604482015260649150fd5b50505162461bcd60e51b815291820152601460248201527341697264726f70207374696c6c2061637469766560601b604482015260649150fd5b8580fd5b8490346101d257816003193601126101d2576020906003548152f35b600654811015610d6e5760066000527ff652222313e28459528d920b65115c16c04f3efc82aaedc97be59f3f377c0d3f0190600090565b634e487b7160e01b600052603260045260246000fd5b906020600319830112610dd15760043567ffffffffffffffff92838211610dd15780602383011215610dd1578160040135938411610dd15760248460051b83010111610dd1576024019190565b600080fd5b6000546001600160a01b03163303610dea57565b60405163118cdaa760e01b8152336004820152602490fd5b6000198114610e115760010190565b634e487b7160e01b600052601160045260246000fd5b9190811015610d6e5760051b0190565b356001600160a01b0381168103610dd15790565b15610e5257565b60405162461bcd60e51b815260206004820152600e60248201526d125b9d985b1a59081dd85b1b195d60921b6044820152606490fd5b90601f8019910116810190811067ffffffffffffffff821117610eaa57604052565b634e487b7160e01b600052604160045260246000fd5b90816020910312610dd157518015158103610dd1579056fea26469706673582212201c0103ed332d29c108b971f2f8e99d8c74b4256800f9c24a4f93a599d81c3f2564736f6c63430008140033","opcodes":"PUSH1 0x80 CALLVALUE PUSH2 0x11B JUMPI PUSH1 0x1F PUSH2 0x1045 CODESIZE DUP2 SWAP1 SUB SWAP2 DUP3 ADD PUSH1 0x1F NOT AND DUP4 ADD SWAP2 PUSH1 0x1 PUSH1 0x1 PUSH1 0x40 SHL SUB DUP4 GT DUP5 DUP5 LT OR PUSH2 0x120 JUMPI DUP1 DUP5 SWAP3 PUSH1 0x20 SWAP5 PUSH1 0x40 MSTORE DUP4 CODECOPY DUP2 ADD SUB SLT PUSH2 0x11B JUMPI MLOAD PUSH1 0x1 PUSH1 0x1 PUSH1 0xA0 SHL SUB DUP1 DUP3 AND SWAP2 DUP3 SWAP1 SUB PUSH2 0x11B JUMPI CALLER ISZERO PUSH2 0x102 JUMPI PUSH1 0x0 SLOAD SWAP1 PUSH1 0x1 DUP1 PUSH1 0xA0 SHL SUB NOT SWAP2 CALLER DUP4 DUP3 AND OR PUSH1 0x0 SSTORE PUSH1 0x40 MLOAD SWAP2 CALLER SWAP2 AND PUSH32 0x8BE0079C531659141344CD1FD0A4F28419497F9722A3DAAFE3B4186F6B6457E0 PUSH1 0x0 DUP1 LOG3 PUSH1 0x1 DUP1 SSTORE PUSH1 0x0 PUSH1 0x3 SSTORE DUP3 ISZERO PUSH2 0xC0 JUMPI POP PUSH1 0x2 SLOAD AND OR PUSH1 0x2 SSTORE PUSH1 0x40 MLOAD PUSH2 0xF0E SWAP1 DUP2 PUSH2 0x137 DUP3 CODECOPY RETURN JUMPDEST PUSH3 0x461BCD PUSH1 0xE5 SHL DUP2 MSTORE PUSH1 0x20 PUSH1 0x4 DUP3 ADD MSTORE PUSH1 0x15 PUSH1 0x24 DUP3 ADD MSTORE PUSH32 0x496E76616C696420746F6B656E20616464726573730000000000000000000000 PUSH1 0x44 DUP3 ADD MSTORE PUSH1 0x64 SWAP1 REVERT JUMPDEST PUSH1 0x40 MLOAD PUSH4 0x1E4FBDF7 PUSH1 0xE0 SHL DUP2 MSTORE PUSH1 0x0 PUSH1 0x4 DUP3 ADD MSTORE PUSH1 0x24 SWAP1 REVERT JUMPDEST PUSH1 0x0 DUP1 REVERT JUMPDEST PUSH4 0x4E487B71 PUSH1 0xE0 SHL PUSH1 0x0 MSTORE PUSH1 0x41 PUSH1 0x4 MSTORE PUSH1 0x24 PUSH1 0x0 REVERT INVALID PUSH1 0x80 PUSH1 0x40 DUP2 DUP2 MSTORE PUSH1 0x4 DUP1 CALLDATASIZE LT ISZERO PUSH2 0x15 JUMPI PUSH1 0x0 DUP1 REVERT JUMPDEST PUSH1 0x0 SWAP3 DUP4 CALLDATALOAD PUSH1 0xE0 SHR SWAP1 DUP2 PUSH4 0x16DAA23B EQ PUSH2 0xD1B JUMPI POP DUP1 PUSH4 0x3A3B4766 EQ PUSH2 0xB2D JUMPI DUP1 PUSH4 0x3ECB94A8 EQ PUSH2 0xB0E JUMPI DUP1 PUSH4 0x5AA60ADC EQ PUSH2 0xA7F JUMPI DUP1 PUSH4 0x5B88349D EQ PUSH2 0x785 JUMPI DUP1 PUSH4 0x5F613518 EQ PUSH2 0x75C JUMPI DUP1 PUSH4 0x715018A6 EQ PUSH2 0x702 JUMPI DUP1 PUSH4 0x73B2E80E EQ PUSH2 0x6C4 JUMPI DUP1 PUSH4 0x8DA5CB5B EQ PUSH2 0x69C JUMPI DUP1 PUSH4 0x95396492 EQ PUSH2 0x65B JUMPI DUP1 PUSH4 0xA6CB8BE3 EQ PUSH2 0x596 JUMPI DUP1 PUSH4 0xB9209E33 EQ PUSH2 0x558 JUMPI DUP1 PUSH4 0xBF3506C1 EQ PUSH2 0x4BA JUMPI DUP1 PUSH4 0xC0DEB860 EQ PUSH2 0x49B JUMPI DUP1 PUSH4 0xCCFFF679 EQ PUSH2 0x477 JUMPI DUP1 PUSH4 0xCF62BA92 EQ PUSH2 0x45A JUMPI DUP1 PUSH4 0xD1C67D58 EQ PUSH2 0x417 JUMPI DUP1 PUSH4 0xD54AD2A1 EQ PUSH2 0x3F8 JUMPI DUP1 PUSH4 0xDA5186B9 EQ PUSH2 0x39A JUMPI DUP1 PUSH4 0xE20D810F EQ PUSH2 0x35F JUMPI DUP1 PUSH4 0xE998D2FA EQ PUSH2 0x31E JUMPI DUP1 PUSH4 0xEB6A0CBE EQ PUSH2 0x264 JUMPI DUP1 PUSH4 0xF2FDE38B EQ PUSH2 0x1D6 JUMPI DUP1 PUSH4 0xF30F40A8 EQ PUSH2 0x1B3 JUMPI PUSH4 0xFC399C79 EQ PUSH2 0x136 JUMPI PUSH1 0x0 DUP1 REVERT JUMPDEST CALLVALUE PUSH2 0x1AF JUMPI PUSH1 0x20 CALLDATASIZE PUSH1 0x3 NOT ADD SLT PUSH2 0x1AF JUMPI CALLDATALOAD PUSH1 0x1 PUSH1 0x1 PUSH1 0xA0 SHL SUB DUP2 AND SWAP2 SWAP1 DUP3 SWAP1 SUB PUSH2 0x1AF JUMPI PUSH1 0x20 PUSH32 0xB609AA16DCC660A4F07550B21F65B03AE3FE781D89444940BDB3D7407CA810E4 SWAP2 PUSH2 0x187 PUSH2 0xDD6 JUMP JUMPDEST PUSH2 0x192 DUP5 ISZERO ISZERO PUSH2 0xE4B JUMP JUMPDEST DUP4 DUP6 MSTORE PUSH1 0x5 DUP3 MSTORE DUP1 DUP6 KECCAK256 DUP1 SLOAD PUSH1 0xFF NOT AND PUSH1 0x1 OR SWAP1 SSTORE MLOAD TIMESTAMP DUP2 MSTORE LOG2 DUP1 RETURN JUMPDEST DUP3 DUP1 REVERT JUMPDEST POP POP CALLVALUE PUSH2 0x1D2 JUMPI DUP2 PUSH1 0x3 NOT CALLDATASIZE ADD SLT PUSH2 0x1D2 JUMPI PUSH1 0x20 SWAP1 MLOAD PUSH4 0x67A6C400 DUP2 MSTORE RETURN JUMPDEST POP DUP1 REVERT JUMPDEST POP SWAP1 CALLVALUE PUSH2 0x1AF JUMPI PUSH1 0x20 CALLDATASIZE PUSH1 0x3 NOT ADD SLT PUSH2 0x1AF JUMPI PUSH1 0x1 PUSH1 0x1 PUSH1 0xA0 SHL SUB DUP3 CALLDATALOAD DUP2 DUP2 AND SWAP4 SWAP2 SWAP3 SWAP1 DUP5 SWAP1 SUB PUSH2 0x260 JUMPI PUSH2 0x209 PUSH2 0xDD6 JUMP JUMPDEST DUP4 ISZERO PUSH2 0x24A JUMPI POP POP DUP3 SLOAD PUSH1 0x1 PUSH1 0x1 PUSH1 0xA0 SHL SUB NOT DUP2 AND DUP4 OR DUP5 SSTORE AND PUSH32 0x8BE0079C531659141344CD1FD0A4F28419497F9722A3DAAFE3B4186F6B6457E0 DUP4 DUP1 LOG3 DUP1 RETURN JUMPDEST MLOAD PUSH4 0x1E4FBDF7 PUSH1 0xE0 SHL DUP2 MSTORE SWAP1 DUP2 ADD DUP5 SWAP1 MSTORE PUSH1 0x24 SWAP1 REVERT JUMPDEST DUP5 DUP1 REVERT JUMPDEST POP POP CALLVALUE PUSH2 0x1D2 JUMPI PUSH2 0x274 CALLDATASIZE PUSH2 0xD84 JUMP JUMPDEST SWAP2 SWAP1 PUSH2 0x27E PUSH2 0xDD6 JUMP JUMPDEST DUP4 JUMPDEST DUP4 DUP2 LT PUSH2 0x28B JUMPI DUP5 DUP1 RETURN JUMPDEST PUSH2 0x319 SWAP1 PUSH1 0x1 PUSH1 0x1 PUSH1 0xA0 SHL SUB PUSH2 0x2B6 DUP2 PUSH2 0x2AE PUSH2 0x2A9 DUP6 DUP11 DUP10 PUSH2 0xE27 JUMP JUMPDEST PUSH2 0xE37 JUMP JUMPDEST AND ISZERO ISZERO PUSH2 0xE4B JUMP JUMPDEST DUP1 PUSH2 0x2C5 PUSH2 0x2A9 DUP5 DUP10 DUP9 PUSH2 0xE27 JUMP JUMPDEST AND DUP8 MSTORE PUSH32 0xB609AA16DCC660A4F07550B21F65B03AE3FE781D89444940BDB3D7407CA810E4 PUSH1 0x20 SWAP2 PUSH1 0x5 DUP4 MSTORE DUP7 DUP10 KECCAK256 PUSH1 0x1 PUSH1 0xFF NOT DUP3 SLOAD AND OR SWAP1 SSTORE PUSH2 0x30C PUSH2 0x2A9 DUP6 DUP11 DUP10 PUSH2 0xE27 JUMP JUMPDEST AND SWAP2 DUP7 MLOAD TIMESTAMP DUP2 MSTORE LOG2 PUSH2 0xE02 JUMP JUMPDEST PUSH2 0x280 JUMP JUMPDEST POP CALLVALUE PUSH2 0x1AF JUMPI PUSH1 0x20 CALLDATASIZE PUSH1 0x3 NOT ADD SLT PUSH2 0x1AF JUMPI CALLDATALOAD PUSH1 0x1 PUSH1 0x1 PUSH1 0xA0 SHL SUB DUP2 AND SWAP1 DUP2 SWAP1 SUB PUSH2 0x1AF JUMPI PUSH2 0x34B PUSH2 0xDD6 JUMP JUMPDEST DUP3 MSTORE PUSH1 0x5 PUSH1 0x20 MSTORE DUP2 KECCAK256 DUP1 SLOAD PUSH1 0xFF NOT AND SWAP1 SSTORE DUP1 RETURN JUMPDEST POP POP CALLVALUE PUSH2 0x1D2 JUMPI DUP2 PUSH1 0x3 NOT CALLDATASIZE ADD SLT PUSH2 0x1D2 JUMPI PUSH1 0x20 SWAP1 PUSH4 0x679EDB00 TIMESTAMP LT ISZERO SWAP1 DUP2 PUSH2 0x38B JUMPI JUMPDEST MLOAD SWAP1 ISZERO ISZERO DUP2 MSTORE RETURN JUMPDEST PUSH4 0x67A6C400 TIMESTAMP GT ISZERO SWAP2 POP PUSH2 0x383 JUMP JUMPDEST POP POP CALLVALUE PUSH2 0x1D2 JUMPI PUSH2 0x3AA CALLDATASIZE PUSH2 0xD84 JUMP JUMPDEST SWAP2 SWAP1 PUSH2 0x3B4 PUSH2 0xDD6 JUMP JUMPDEST DUP4 JUMPDEST DUP4 DUP2 LT PUSH2 0x3C1 JUMPI DUP5 DUP1 RETURN JUMPDEST PUSH2 0x3F3 SWAP1 PUSH1 0x1 PUSH1 0x1 PUSH1 0xA0 SHL SUB PUSH2 0x3DB PUSH2 0x2A9 DUP4 DUP9 DUP8 PUSH2 0xE27 JUMP JUMPDEST AND DUP7 MSTORE PUSH1 0x5 PUSH1 0x20 MSTORE DUP4 DUP7 KECCAK256 DUP1 SLOAD PUSH1 0xFF NOT AND SWAP1 SSTORE PUSH2 0xE02 JUMP JUMPDEST PUSH2 0x3B6 JUMP JUMPDEST POP POP CALLVALUE PUSH2 0x1D2 JUMPI DUP2 PUSH1 0x3 NOT CALLDATASIZE ADD SLT PUSH2 0x1D2 JUMPI PUSH1 0x20 SWAP1 PUSH1 0x3 SLOAD SWAP1 MLOAD SWAP1 DUP2 MSTORE RETURN JUMPDEST POP CALLVALUE PUSH2 0x1AF JUMPI PUSH1 0x20 CALLDATASIZE PUSH1 0x3 NOT ADD SLT PUSH2 0x1AF JUMPI CALLDATALOAD SWAP2 PUSH1 0x6 SLOAD DUP4 LT ISZERO PUSH2 0x457 JUMPI POP PUSH2 0x441 PUSH1 0x20 SWAP3 PUSH2 0xD37 JUMP JUMPDEST SWAP1 SLOAD SWAP2 MLOAD SWAP2 PUSH1 0x1 DUP1 PUSH1 0xA0 SHL SUB SWAP2 PUSH1 0x3 SHL SHR AND DUP2 MSTORE RETURN JUMPDEST DUP1 REVERT JUMPDEST POP POP CALLVALUE PUSH2 0x1D2 JUMPI DUP2 PUSH1 0x3 NOT CALLDATASIZE ADD SLT PUSH2 0x1D2 JUMPI PUSH1 0x20 SWAP1 MLOAD PUSH2 0x1F4 DUP2 MSTORE RETURN JUMPDEST POP POP CALLVALUE PUSH2 0x1D2 JUMPI DUP2 PUSH1 0x3 NOT CALLDATASIZE ADD SLT PUSH2 0x1D2 JUMPI PUSH1 0x20 SWAP1 MLOAD PUSH9 0x3635C9ADC5DEA00000 DUP2 MSTORE RETURN JUMPDEST POP POP CALLVALUE PUSH2 0x1D2 JUMPI DUP2 PUSH1 0x3 NOT CALLDATASIZE ADD SLT PUSH2 0x1D2 JUMPI PUSH1 0x20 SWAP1 MLOAD PUSH4 0x679EDB00 DUP2 MSTORE RETURN JUMPDEST POP SWAP1 CALLVALUE PUSH2 0x1AF JUMPI PUSH1 0x20 CALLDATASIZE PUSH1 0x3 NOT ADD SLT PUSH2 0x1AF JUMPI DUP2 CALLDATALOAD PUSH1 0x1 PUSH1 0x1 PUSH1 0xA0 SHL SUB DUP2 AND SWAP1 DUP2 SWAP1 SUB PUSH2 0x554 JUMPI SWAP3 PUSH1 0x20 SWAP4 DUP2 MSTORE PUSH1 0x5 DUP5 MSTORE PUSH1 0xFF DUP3 DUP3 KECCAK256 SLOAD AND SWAP3 DUP4 PUSH2 0x541 JUMPI JUMPDEST POP POP DUP2 PUSH2 0x532 JUMPI JUMPDEST DUP2 PUSH2 0x523 JUMPI JUMPDEST DUP2 PUSH2 0x514 JUMPI MLOAD SWAP1 ISZERO ISZERO DUP2 MSTORE RETURN JUMPDEST SWAP1 POP PUSH2 0x1F4 PUSH1 0x3 SLOAD LT SWAP1 PUSH2 0x383 JUMP JUMPDEST PUSH4 0x67A6C400 TIMESTAMP GT ISZERO SWAP2 POP PUSH2 0x507 JUMP JUMPDEST PUSH4 0x679EDB00 TIMESTAMP LT ISZERO SWAP2 POP PUSH2 0x501 JUMP JUMPDEST DUP5 MSTORE DUP2 SWAP1 KECCAK256 SLOAD PUSH1 0xFF AND ISZERO SWAP2 POP CODESIZE DUP1 PUSH2 0x4F9 JUMP JUMPDEST DUP4 DUP1 REVERT JUMPDEST POP CALLVALUE PUSH2 0x1AF JUMPI PUSH1 0x20 CALLDATASIZE PUSH1 0x3 NOT ADD SLT PUSH2 0x1AF JUMPI CALLDATALOAD PUSH1 0x1 PUSH1 0x1 PUSH1 0xA0 SHL SUB DUP2 AND SWAP1 DUP2 SWAP1 SUB PUSH2 0x1AF JUMPI DUP2 DUP4 PUSH1 0xFF SWAP3 PUSH1 0x20 SWAP6 MSTORE PUSH1 0x5 DUP6 MSTORE KECCAK256 SLOAD AND SWAP1 MLOAD SWAP1 ISZERO ISZERO DUP2 MSTORE RETURN JUMPDEST DUP3 DUP5 CALLVALUE PUSH2 0x457 JUMPI DUP1 PUSH1 0x3 NOT CALLDATASIZE ADD SLT PUSH2 0x457 JUMPI SWAP1 DUP1 MLOAD SWAP2 DUP3 SWAP1 PUSH1 0x6 SLOAD SWAP2 DUP3 DUP6 MSTORE PUSH1 0x20 DUP1 SWAP6 ADD DUP1 SWAP4 PUSH1 0x6 DUP5 MSTORE PUSH32 0xF652222313E28459528D920B65115C16C04F3EFC82AAEDC97BE59F3F377C0D3F SWAP1 DUP5 JUMPDEST DUP2 DUP2 LT PUSH2 0x63E JUMPI POP POP POP DUP2 PUSH2 0x5FA SWAP2 SUB DUP3 PUSH2 0xE88 JUMP JUMPDEST DUP4 MLOAD SWAP5 DUP6 SWAP5 DUP2 DUP7 ADD SWAP3 DUP3 DUP8 MSTORE MLOAD DUP1 SWAP4 MSTORE DUP6 ADD SWAP4 SWAP3 JUMPDEST DUP3 DUP2 LT PUSH2 0x61E JUMPI POP POP POP POP SUB SWAP1 RETURN JUMPDEST DUP4 MLOAD PUSH1 0x1 PUSH1 0x1 PUSH1 0xA0 SHL SUB AND DUP6 MSTORE DUP7 SWAP6 POP SWAP4 DUP2 ADD SWAP4 SWAP3 DUP2 ADD SWAP3 PUSH1 0x1 ADD PUSH2 0x60F JUMP JUMPDEST DUP3 SLOAD PUSH1 0x1 PUSH1 0x1 PUSH1 0xA0 SHL SUB AND DUP5 MSTORE SWAP3 DUP9 ADD SWAP3 PUSH1 0x1 SWAP3 DUP4 ADD SWAP3 ADD PUSH2 0x5E4 JUMP JUMPDEST POP SWAP2 SWAP1 CALLVALUE PUSH2 0x1D2 JUMPI DUP2 PUSH1 0x3 NOT CALLDATASIZE ADD SLT PUSH2 0x1D2 JUMPI PUSH1 0x3 SLOAD SWAP2 PUSH2 0x1F4 SWAP3 DUP4 SUB SWAP3 DUP4 GT PUSH2 0x689 JUMPI PUSH1 0x20 DUP4 DUP4 MLOAD SWAP1 DUP2 MSTORE RETURN JUMPDEST PUSH4 0x4E487B71 PUSH1 0xE0 SHL DUP2 MSTORE PUSH1 0x11 DUP5 MSTORE PUSH1 0x24 SWAP1 REVERT JUMPDEST POP POP CALLVALUE PUSH2 0x1D2 JUMPI DUP2 PUSH1 0x3 NOT CALLDATASIZE ADD SLT PUSH2 0x1D2 JUMPI SWAP1 SLOAD SWAP1 MLOAD PUSH1 0x1 PUSH1 0x1 PUSH1 0xA0 SHL SUB SWAP1 SWAP2 AND DUP2 MSTORE PUSH1 0x20 SWAP1 RETURN JUMPDEST POP CALLVALUE PUSH2 0x1AF JUMPI PUSH1 0x20 CALLDATASIZE PUSH1 0x3 NOT ADD SLT PUSH2 0x1AF JUMPI DUP1 CALLDATALOAD PUSH1 0x1 PUSH1 0x1 PUSH1 0xA0 SHL SUB DUP2 AND SWAP1 DUP2 SWAP1 SUB PUSH2 0x554 JUMPI DUP4 PUSH1 0xFF SWAP3 DUP5 SWAP3 PUSH1 0x20 SWAP7 MSTORE DUP6 MSTORE KECCAK256 SLOAD AND SWAP1 MLOAD SWAP1 ISZERO ISZERO DUP2 MSTORE RETURN JUMPDEST DUP4 CALLVALUE PUSH2 0x457 JUMPI DUP1 PUSH1 0x3 NOT CALLDATASIZE ADD SLT PUSH2 0x457 JUMPI PUSH2 0x71B PUSH2 0xDD6 JUMP JUMPDEST DUP1 SLOAD PUSH1 0x1 PUSH1 0x1 PUSH1 0xA0 SHL SUB NOT DUP2 AND DUP3 SSTORE DUP2 SWAP1 PUSH1 0x1 PUSH1 0x1 PUSH1 0xA0 SHL SUB AND PUSH32 0x8BE0079C531659141344CD1FD0A4F28419497F9722A3DAAFE3B4186F6B6457E0 DUP3 DUP1 LOG3 DUP1 RETURN JUMPDEST POP POP CALLVALUE PUSH2 0x1D2 JUMPI DUP2 PUSH1 0x3 NOT CALLDATASIZE ADD SLT PUSH2 0x1D2 JUMPI PUSH1 0x2 SLOAD SWAP1 MLOAD PUSH1 0x1 PUSH1 0x1 PUSH1 0xA0 SHL SUB SWAP1 SWAP2 AND DUP2 MSTORE PUSH1 0x20 SWAP1 RETURN JUMPDEST POP CALLVALUE PUSH2 0x1AF JUMPI DUP3 PUSH1 0x3 NOT CALLDATASIZE ADD SLT PUSH2 0x1AF JUMPI PUSH1 0x1 SWAP2 PUSH1 0x2 DUP4 SLOAD EQ PUSH2 0xA72 JUMPI PUSH1 0x2 DUP4 SSTORE CALLER DUP5 MSTORE PUSH1 0x20 PUSH1 0x5 DUP2 MSTORE PUSH1 0xFF DUP3 DUP7 KECCAK256 SLOAD AND ISZERO PUSH2 0xA31 JUMPI CALLER DUP6 MSTORE DUP3 DUP2 MSTORE PUSH1 0xFF DUP3 DUP7 KECCAK256 SLOAD AND PUSH2 0x9F0 JUMPI PUSH4 0x679EDB00 TIMESTAMP LT PUSH2 0x9B9 JUMPI PUSH4 0x67A6C400 TIMESTAMP GT PUSH2 0x981 JUMPI PUSH2 0x1F4 PUSH1 0x3 SLOAD LT ISZERO PUSH2 0x948 JUMPI CALLER DUP6 MSTORE DUP3 DUP2 MSTORE DUP2 DUP6 KECCAK256 DUP5 PUSH1 0xFF NOT DUP3 SLOAD AND OR SWAP1 SSTORE PUSH2 0x80C PUSH1 0x3 SLOAD PUSH2 0xE02 JUMP JUMPDEST PUSH1 0x3 SSTORE PUSH1 0x6 SLOAD PUSH9 0x10000000000000000 DUP2 LT ISZERO PUSH2 0x935 JUMPI DUP1 DUP6 PUSH2 0x832 SWAP3 ADD PUSH1 0x6 SSTORE PUSH2 0xD37 JUMP JUMPDEST SWAP1 DUP1 SLOAD SWAP2 PUSH1 0x3 SHL PUSH1 0x1 DUP1 PUSH1 0xA0 SHL SUB SWAP3 DUP4 CALLER DUP4 SHL SWAP3 SHL NOT AND OR SWAP1 SSTORE PUSH1 0x2 SLOAD AND SWAP3 DUP3 MLOAD PUSH4 0xA9059CBB PUSH1 0xE0 SHL DUP2 MSTORE CALLER DUP3 DUP3 ADD MSTORE DUP3 DUP2 PUSH1 0x44 DUP2 DUP11 PUSH9 0x3635C9ADC5DEA00000 SWAP10 DUP11 PUSH1 0x24 DUP5 ADD MSTORE GAS CALL SWAP1 DUP2 ISZERO PUSH2 0x92B JUMPI DUP8 SWAP2 PUSH2 0x8FE JUMPI JUMPDEST POP ISZERO PUSH2 0x8C5 JUMPI POP SWAP1 PUSH32 0xD0755A9EF5A74F50D34B3503BB5B65AD71A112C001B76DFA6412C9AA4A1F43B0 SWAP2 DUP2 MLOAD SWAP4 DUP5 MSTORE TIMESTAMP SWAP1 DUP5 ADD MSTORE CALLER SWAP3 LOG2 DUP1 SSTORE DUP1 RETURN JUMPDEST SWAP2 MLOAD PUSH3 0x461BCD PUSH1 0xE5 SHL DUP2 MSTORE SWAP2 DUP3 ADD MSTORE PUSH1 0x15 PUSH1 0x24 DUP3 ADD MSTORE PUSH21 0x151BDAD95B881D1C985B9CD9995C8819985A5B1959 PUSH1 0x5A SHL PUSH1 0x44 DUP3 ADD MSTORE PUSH1 0x64 SWAP1 REVERT JUMPDEST PUSH2 0x91E SWAP2 POP DUP4 RETURNDATASIZE DUP6 GT PUSH2 0x924 JUMPI JUMPDEST PUSH2 0x916 DUP2 DUP4 PUSH2 0xE88 JUMP JUMPDEST DUP2 ADD SWAP1 PUSH2 0xEC0 JUMP JUMPDEST CODESIZE PUSH2 0x889 JUMP JUMPDEST POP RETURNDATASIZE PUSH2 0x90C JUMP JUMPDEST DUP5 MLOAD RETURNDATASIZE DUP10 DUP3 RETURNDATACOPY RETURNDATASIZE SWAP1 REVERT JUMPDEST PUSH4 0x4E487B71 PUSH1 0xE0 SHL DUP7 MSTORE PUSH1 0x41 DUP5 MSTORE PUSH1 0x24 DUP7 REVERT JUMPDEST SWAP1 MLOAD PUSH3 0x461BCD PUSH1 0xE5 SHL DUP2 MSTORE SWAP2 DUP3 ADD MSTORE PUSH1 0x15 PUSH1 0x24 DUP3 ADD MSTORE PUSH21 0x105A5C991C9BDC081B1A5B5A5D081C995858DA1959 PUSH1 0x5A SHL PUSH1 0x44 DUP3 ADD MSTORE PUSH1 0x64 SWAP1 REVERT JUMPDEST SWAP1 MLOAD PUSH3 0x461BCD PUSH1 0xE5 SHL DUP2 MSTORE SWAP2 DUP3 ADD MSTORE PUSH1 0x14 PUSH1 0x24 DUP3 ADD MSTORE PUSH20 0x105A5C991C9BDC081C195C9A5BD908195B991959 PUSH1 0x62 SHL PUSH1 0x44 DUP3 ADD MSTORE PUSH1 0x64 SWAP1 REVERT JUMPDEST SWAP1 MLOAD PUSH3 0x461BCD PUSH1 0xE5 SHL DUP2 MSTORE SWAP2 DUP3 ADD MSTORE PUSH1 0x13 PUSH1 0x24 DUP3 ADD MSTORE PUSH19 0x105A5C991C9BDC081B9BDD081CDD185C9D1959 PUSH1 0x6A SHL PUSH1 0x44 DUP3 ADD MSTORE PUSH1 0x64 SWAP1 REVERT JUMPDEST SWAP1 MLOAD PUSH3 0x461BCD PUSH1 0xE5 SHL DUP2 MSTORE SWAP2 DUP3 ADD MSTORE PUSH1 0x17 PUSH1 0x24 DUP3 ADD MSTORE PUSH32 0x416C726561647920636C61696D65642061697264726F70000000000000000000 PUSH1 0x44 DUP3 ADD MSTORE PUSH1 0x64 SWAP1 REVERT JUMPDEST SWAP1 MLOAD PUSH3 0x461BCD PUSH1 0xE5 SHL DUP2 MSTORE SWAP2 DUP3 ADD MSTORE PUSH1 0x1F PUSH1 0x24 DUP3 ADD MSTORE PUSH32 0x57616C6C6574206E6F7420766572696669656420666F722061697264726F7000 PUSH1 0x44 DUP3 ADD MSTORE PUSH1 0x64 SWAP1 REVERT JUMPDEST MLOAD PUSH4 0x3EE5AEB5 PUSH1 0xE0 SHL DUP2 MSTORE REVERT JUMPDEST POP SWAP2 SWAP1 CALLVALUE PUSH2 0x1D2 JUMPI DUP1 PUSH1 0x3 NOT CALLDATASIZE ADD SLT PUSH2 0x1D2 JUMPI DUP3 CALLDATALOAD PUSH1 0x24 CALLDATALOAD SWAP4 PUSH2 0xAA0 PUSH2 0xDD6 JUMP JUMPDEST DUP5 DUP3 LT ISZERO PUSH2 0xADA JUMPI POP PUSH32 0x855587C27170E75C96262D5FD85F9AFBE456729D3DDF667BE334116D962DD58 SWAP3 SWAP4 DUP3 MLOAD SWAP2 DUP3 MSTORE PUSH1 0x20 DUP3 ADD MSTORE LOG1 DUP1 RETURN JUMPDEST PUSH1 0x64 SWAP1 PUSH1 0x20 DUP5 MLOAD SWAP2 PUSH3 0x461BCD PUSH1 0xE5 SHL DUP4 MSTORE DUP3 ADD MSTORE PUSH1 0xE PUSH1 0x24 DUP3 ADD MSTORE PUSH14 0x496E76616C69642077696E646F77 PUSH1 0x90 SHL PUSH1 0x44 DUP3 ADD MSTORE REVERT JUMPDEST POP POP CALLVALUE PUSH2 0x1D2 JUMPI DUP2 PUSH1 0x3 NOT CALLDATASIZE ADD SLT PUSH2 0x1D2 JUMPI PUSH1 0x20 SWAP1 PUSH1 0x6 SLOAD SWAP1 MLOAD SWAP1 DUP2 MSTORE RETURN JUMPDEST POP SWAP1 CALLVALUE PUSH2 0x1AF JUMPI PUSH1 0x20 SWAP1 DUP2 PUSH1 0x3 NOT CALLDATASIZE ADD SLT PUSH2 0x554 JUMPI DUP3 CALLDATALOAD PUSH1 0x1 PUSH1 0x1 PUSH1 0xA0 SHL SUB DUP2 DUP2 AND SWAP2 DUP3 SWAP1 SUB PUSH2 0xD17 JUMPI PUSH2 0xB5F PUSH2 0xDD6 JUMP JUMPDEST PUSH4 0x67A6C400 TIMESTAMP GT ISZERO PUSH2 0xCDD JUMPI DUP2 ISZERO PUSH2 0xCA6 JUMPI PUSH1 0x2 SLOAD DUP4 MLOAD PUSH4 0x70A08231 PUSH1 0xE0 SHL DUP2 MSTORE ADDRESS DUP8 DUP3 ADD MSTORE SWAP2 AND SWAP2 DUP5 DUP3 PUSH1 0x24 DUP2 DUP7 GAS STATICCALL SWAP2 DUP3 ISZERO PUSH2 0x92B JUMPI DUP8 SWAP3 PUSH2 0xC73 JUMPI JUMPDEST POP DUP2 ISZERO PUSH2 0xC39 JUMPI SWAP1 PUSH1 0x44 DUP6 SWAP3 DUP9 DUP7 MLOAD SWAP6 DUP7 SWAP5 DUP6 SWAP4 PUSH4 0xA9059CBB PUSH1 0xE0 SHL DUP6 MSTORE DUP12 DUP6 ADD MSTORE PUSH1 0x24 DUP5 ADD MSTORE GAS CALL SWAP1 DUP2 ISZERO PUSH2 0xC2F JUMPI DUP6 SWAP2 PUSH2 0xC12 JUMPI JUMPDEST POP ISZERO PUSH2 0xBDF JUMPI DUP4 DUP1 RETURN JUMPDEST MLOAD PUSH3 0x461BCD PUSH1 0xE5 SHL DUP2 MSTORE SWAP2 DUP3 ADD MSTORE PUSH1 0xF PUSH1 0x24 DUP3 ADD MSTORE PUSH15 0x151C985B9CD9995C8819985A5B1959 PUSH1 0x8A SHL PUSH1 0x44 DUP3 ADD MSTORE PUSH1 0x64 SWAP2 POP REVERT JUMPDEST PUSH2 0xC29 SWAP2 POP DUP4 RETURNDATASIZE DUP6 GT PUSH2 0x924 JUMPI PUSH2 0x916 DUP2 DUP4 PUSH2 0xE88 JUMP JUMPDEST CODESIZE PUSH2 0xBD5 JUMP JUMPDEST DUP3 MLOAD RETURNDATASIZE DUP8 DUP3 RETURNDATACOPY RETURNDATASIZE SWAP1 REVERT JUMPDEST DUP4 MLOAD PUSH3 0x461BCD PUSH1 0xE5 SHL DUP2 MSTORE DUP1 DUP8 ADD DUP7 SWAP1 MSTORE PUSH1 0x14 PUSH1 0x24 DUP3 ADD MSTORE PUSH20 0x2737903A37B5B2B739903A37903932B1B7BB32B9 PUSH1 0x61 SHL PUSH1 0x44 DUP3 ADD MSTORE PUSH1 0x64 SWAP1 REVERT JUMPDEST SWAP1 SWAP2 POP DUP5 DUP2 DUP2 RETURNDATASIZE DUP4 GT PUSH2 0xC9F JUMPI JUMPDEST PUSH2 0xC8B DUP2 DUP4 PUSH2 0xE88 JUMP JUMPDEST DUP2 ADD SUB SLT PUSH2 0xC9B JUMPI MLOAD SWAP1 CODESIZE PUSH2 0xB9E JUMP JUMPDEST DUP7 DUP1 REVERT JUMPDEST POP RETURNDATASIZE PUSH2 0xC81 JUMP JUMPDEST POP POP MLOAD PUSH3 0x461BCD PUSH1 0xE5 SHL DUP2 MSTORE SWAP2 DUP3 ADD MSTORE PUSH1 0x11 PUSH1 0x24 DUP3 ADD MSTORE PUSH17 0x125B9D985B1A59081C9958DA5C1A595B9D PUSH1 0x7A SHL PUSH1 0x44 DUP3 ADD MSTORE PUSH1 0x64 SWAP2 POP REVERT JUMPDEST POP POP MLOAD PUSH3 0x461BCD PUSH1 0xE5 SHL DUP2 MSTORE SWAP2 DUP3 ADD MSTORE PUSH1 0x14 PUSH1 0x24 DUP3 ADD MSTORE PUSH20 0x41697264726F70207374696C6C20616374697665 PUSH1 0x60 SHL PUSH1 0x44 DUP3 ADD MSTORE PUSH1 0x64 SWAP2 POP REVERT JUMPDEST DUP6 DUP1 REVERT JUMPDEST DUP5 SWAP1 CALLVALUE PUSH2 0x1D2 JUMPI DUP2 PUSH1 0x3 NOT CALLDATASIZE ADD SLT PUSH2 0x1D2 JUMPI PUSH1 0x20 SWAP1 PUSH1 0x3 SLOAD DUP2 MSTORE RETURN JUMPDEST PUSH1 0x6 SLOAD DUP2 LT ISZERO PUSH2 0xD6E JUMPI PUSH1 0x6 PUSH1 0x0 MSTORE PUSH32 0xF652222313E28459528D920B65115C16C04F3EFC82AAEDC97BE59F3F377C0D3F ADD SWAP1 PUSH1 0x0 SWAP1 JUMP JUMPDEST PUSH4 0x4E487B71 PUSH1 0xE0 SHL PUSH1 0x0 MSTORE PUSH1 0x32 PUSH1 0x4 MSTORE PUSH1 0x24 PUSH1 0x0 REVERT JUMPDEST SWAP1 PUSH1 0x20 PUSH1 0x3 NOT DUP4 ADD SLT PUSH2 0xDD1 JUMPI PUSH1 0x4 CALLDATALOAD PUSH8 0xFFFFFFFFFFFFFFFF SWAP3 DUP4 DUP3 GT PUSH2 0xDD1 JUMPI DUP1 PUSH1 0x23 DUP4 ADD SLT ISZERO PUSH2 0xDD1 JUMPI DUP2 PUSH1 0x4 ADD CALLDATALOAD SWAP4 DUP5 GT PUSH2 0xDD1 JUMPI PUSH1 0x24 DUP5 PUSH1 0x5 SHL DUP4 ADD ADD GT PUSH2 0xDD1 JUMPI PUSH1 0x24 ADD SWAP2 SWAP1 JUMP JUMPDEST PUSH1 0x0 DUP1 REVERT JUMPDEST PUSH1 0x0 SLOAD PUSH1 0x1 PUSH1 0x1 PUSH1 0xA0 SHL SUB AND CALLER SUB PUSH2 0xDEA JUMPI JUMP JUMPDEST PUSH1 0x40 MLOAD PUSH4 0x118CDAA7 PUSH1 0xE0 SHL DUP2 MSTORE CALLER PUSH1 0x4 DUP3 ADD MSTORE PUSH1 0x24 SWAP1 REVERT JUMPDEST PUSH1 0x0 NOT DUP2 EQ PUSH2 0xE11 JUMPI PUSH1 0x1 ADD SWAP1 JUMP JUMPDEST PUSH4 0x4E487B71 PUSH1 0xE0 SHL PUSH1 0x0 MSTORE PUSH1 0x11 PUSH1 0x4 MSTORE PUSH1 0x24 PUSH1 0x0 REVERT JUMPDEST SWAP2 SWAP1 DUP2 LT ISZERO PUSH2 0xD6E JUMPI PUSH1 0x5 SHL ADD SWAP1 JUMP JUMPDEST CALLDATALOAD PUSH1 0x1 PUSH1 0x1 PUSH1 0xA0 SHL SUB DUP2 AND DUP2 SUB PUSH2 0xDD1 JUMPI SWAP1 JUMP JUMPDEST ISZERO PUSH2 0xE52 JUMPI JUMP JUMPDEST PUSH1 0x40 MLOAD PUSH3 0x461BCD PUSH1 0xE5 SHL DUP2 MSTORE PUSH1 0x20 PUSH1 0x4 DUP3 ADD MSTORE PUSH1 0xE PUSH1 0x24 DUP3 ADD MSTORE PUSH14 0x125B9D985B1A59081DD85B1B195D PUSH1 0x92 SHL PUSH1 0x44 DUP3 ADD MSTORE PUSH1 0x64 SWAP1 REVERT JUMPDEST SWAP1 PUSH1 0x1F DUP1 NOT SWAP2 ADD AND DUP2 ADD SWAP1 DUP2 LT PUSH8 0xFFFFFFFFFFFFFFFF DUP3 GT OR PUSH2 0xEAA JUMPI PUSH1 0x40 MSTORE JUMP JUMPDEST PUSH4 0x4E487B71 PUSH1 0xE0 SHL PUSH1 0x0 MSTORE PUSH1 0x41 PUSH1 0x4 MSTORE PUSH1 0x24 PUSH1 0x0 REVERT JUMPDEST SWAP1 DUP2 PUSH1 0x20 SWAP2 SUB SLT PUSH2 0xDD1 JUMPI MLOAD DUP1 ISZERO ISZERO DUP2 SUB PUSH2 0xDD1 JUMPI SWAP1 JUMP INVALID LOG2 PUSH5 0x6970667358 0x22 SLT KECCAK256 SHR ADD SUB 0xED CALLER 0x2D 0x29 0xC1 ADDMOD 0xB9 PUSH18 0xF2F8E99D8C74B4256800F9C24A4F93A599D8 SHR EXTCODEHASH 0x25 PUSH5 0x736F6C6343 STOP ADDMOD EQ STOP CALLER "},"methodIdentifiers":{"AIRDROP_END()":"f30f40a8","AIRDROP_START()":"c0deb860","MAX_CLAIMS()":"cf62ba92","TOKENS_PER_CLAIM()":"ccfff679","canClaim(address)":"bf3506c1","claimAirdrop()":"5b88349d","claimants(uint256)":"d1c67d58","getClaimantCount()":"3ecb94a8","getClaimants()":"a6cb8be3","getRemainingClaims()":"95396492","getTotalClaims()":"16daa23b","hasClaimed(address)":"73b2e80e","isAirdropActive()":"e20d810f","isVerified(address)":"b9209e33","owner()":"8da5cb5b","recoverUnclaimedTokens(address)":"3a3b4766","renounceOwnership()":"715018a6","revokeVerification(address)":"e998d2fa","revokeVerifications(address[])":"da5186b9","sincToken()":"5f613518","totalClaimed()":"d54ad2a1","transferOwnership(address)":"f2fde38b","updateClaimWindow(uint256,uint256)":"5aa60adc","verifyWallet(address)":"fc399c79","verifyWallets(address[])":"eb6a0cbe"}}}}}