{"contracts/SINCPredictionMarket.sol":{"SINCPredictionMarket":{"abi":[{"inputs":[{"internalType":"address","name":"_sincToken","type":"address"}],"stateMutability":"nonpayable","type":"constructor"},{"inputs":[{"internalType":"address","name":"owner","type":"address"}],"name":"OwnableInvalidOwner","type":"error"},{"inputs":[{"internalType":"address","name":"account","type":"address"}],"name":"OwnableUnauthorizedAccount","type":"error"},{"inputs":[],"name":"ReentrancyGuardReentrantCall","type":"error"},{"anonymous":false,"inputs":[{"indexed":true,"internalType":"uint256","name":"marketId","type":"uint256"},{"indexed":true,"internalType":"address","name":"user","type":"address"},{"indexed":false,"internalType":"bool","name":"outcome","type":"bool"},{"indexed":false,"internalType":"uint256","name":"amount","type":"uint256"}],"name":"BetPlaced","type":"event"},{"anonymous":false,"inputs":[{"indexed":true,"internalType":"uint256","name":"marketId","type":"uint256"},{"indexed":false,"internalType":"string","name":"question","type":"string"},{"indexed":false,"internalType":"uint256","name":"deadline","type":"uint256"}],"name":"MarketCreated","type":"event"},{"anonymous":false,"inputs":[{"indexed":true,"internalType":"uint256","name":"marketId","type":"uint256"},{"indexed":false,"internalType":"uint8","name":"winningOutcome","type":"uint8"}],"name":"MarketResolved","type":"event"},{"anonymous":false,"inputs":[{"indexed":true,"internalType":"address","name":"previousOwner","type":"address"},{"indexed":true,"internalType":"address","name":"newOwner","type":"address"}],"name":"OwnershipTransferred","type":"event"},{"anonymous":false,"inputs":[{"indexed":true,"internalType":"uint256","name":"marketId","type":"uint256"},{"indexed":true,"internalType":"address","name":"user","type":"address"},{"indexed":false,"internalType":"uint256","name":"amount","type":"uint256"}],"name":"WinningsClaimed","type":"event"},{"inputs":[{"internalType":"uint256","name":"marketId","type":"uint256"}],"name":"claimWinnings","outputs":[],"stateMutability":"nonpayable","type":"function"},{"inputs":[{"internalType":"string","name":"question","type":"string"},{"internalType":"uint256","name":"duration","type":"uint256"}],"name":"createMarket","outputs":[{"internalType":"uint256","name":"","type":"uint256"}],"stateMutability":"nonpayable","type":"function"},{"inputs":[{"internalType":"uint256","name":"","type":"uint256"}],"name":"markets","outputs":[{"internalType":"string","name":"question","type":"string"},{"internalType":"uint256","name":"deadline","type":"uint256"},{"internalType":"bool","name":"resolved","type":"bool"},{"internalType":"uint8","name":"winningOutcome","type":"uint8"},{"internalType":"uint256","name":"totalYesPool","type":"uint256"},{"internalType":"uint256","name":"totalNoPool","type":"uint256"}],"stateMutability":"view","type":"function"},{"inputs":[],"name":"nextMarketId","outputs":[{"internalType":"uint256","name":"","type":"uint256"}],"stateMutability":"view","type":"function"},{"inputs":[],"name":"owner","outputs":[{"internalType":"address","name":"","type":"address"}],"stateMutability":"view","type":"function"},{"inputs":[{"internalType":"uint256","name":"marketId","type":"uint256"},{"internalType":"bool","name":"isYes","type":"bool"},{"internalType":"uint256","name":"amount","type":"uint256"}],"name":"placeBet","outputs":[],"stateMutability":"nonpayable","type":"function"},{"inputs":[],"name":"renounceOwnership","outputs":[],"stateMutability":"nonpayable","type":"function"},{"inputs":[{"internalType":"uint256","name":"marketId","type":"uint256"},{"internalType":"uint8","name":"_winningOutcome","type":"uint8"}],"name":"resolveMarket","outputs":[],"stateMutability":"nonpayable","type":"function"},{"inputs":[],"name":"sincToken","outputs":[{"internalType":"contract IERC20","name":"","type":"address"}],"stateMutability":"view","type":"function"},{"inputs":[{"internalType":"address","name":"newOwner","type":"address"}],"name":"transferOwnership","outputs":[],"stateMutability":"nonpayable","type":"function"}],"evm":{"bytecode":{"linkReferences":{},"object":"6080346100cf57601f610d1838819003918201601f19168301916001600160401b038311848410176100d4578084926020946040528339810103126100cf57516001600160a01b0390818116908190036100cf5733156100b65760005460018060a01b0319903382821617600055604051933391167f8be0079c531659141344cd1fd0a4f28419497f9722a3daafe3b4186f6b6457e0600080a36001805560016004556002541617600255610c2d90816100eb8239f35b604051631e4fbdf760e01b815260006004820152602490fd5b600080fd5b634e487b7160e01b600052604160045260246000fdfe60406080815260048036101561001457600080fd5b60009160e08335811c9081631a38cac614610849578163406ef2ef1461082a5781635f61351814610801578163677bd9ff14610648578163715018a6146105eb578163883c84c1146103cc5781638da5cb5b146103a0578163b1283e771461026a57508063df55406e146101215763f2fde38b1461009157600080fd5b3461011d57602036600319011261011d576001600160a01b03823581811693919290849003610119576100c2610aba565b831561010357505082546001600160a01b0319811683178455167f8be0079c531659141344cd1fd0a4f28419497f9722a3daafe3b4186f6b6457e08380a380f35b51631e4fbdf760e01b8152908101849052602490fd5b8480fd5b8280fd5b50903461011d578160031936011261011d578035916024359160ff8316928381036102665761014e610aba565b848652600360205282862090600282019283549260ff8416610230576001015442106101f65760028610156101c157509160016020949261ff007f739f283563fb51ab6b89ee95d937b2e63a6cfcb83c385dbebb629f9d97bd43e6979560081b169061ffff19161717905551908152a280f35b606490602086519162461bcd60e51b8352820152600f60248201526e496e76616c6964206f7574636f6d6560881b6044820152fd5b606490602086519162461bcd60e51b83528201526014602482015273111958591b1a5b99481b9bdd081c995858da195960621b6044820152fd5b855162461bcd60e51b8152602081840152601060248201526f105b1c9958591e481c995cdbdb1d995960821b6044820152606490fd5b8580fd5b849150833461011d576020938460031936011261039c57813584526003855280842081519285878584549261029e84610a48565b80835260019480861690811561037e5750600114610342575b506102c492500386610a82565b8201549260028301549160038401549301549381519760c089528651968760c08b0152815b88811061032f57505090889960ff94939289898c9b9c01015288015282821615159087015260081c166060850152608084015260a0830152601f80199101168101030190f35b8181018c01518b82018b01528b016102e9565b868b52838b208b925085905b82841061036757505050916102c4928201018a926102b7565b80548b85018701528a94509285019286910161034e565b60ff191684860152508b9390151560051b83010190506102c46102b7565b8380fd5b8483346103c857816003193601126103c857905490516001600160a01b039091168152602090f35b5080fd5b838584346103c857806003193601126103c85767ffffffffffffffff90833582811161039c573660238201121561039c578085013592831161039c57602490368285830101116101195761041e610aba565b855493600019968786146105d95760019081870190558587526020966003885285812061044b8154610a48565b601f8111610597575b5087989982989798601f861160011461050457879694928492877f2d1e9ad45dbe8e898e0374deebf2a661b2ae7c1855d2a29507d584c35d287c759a60029460609a98926104f7575b505086861b918760031b1c19161781555b6104b9883542610ae6565b80948201550160ff1981541690558289519687958b8752828c880152018686013783830185015289830152601f01601f19168101030190a251908152f35b890101359050893861049d565b8284528b842091601f198716858e5b82821061057d575050926002928a7f2d1e9ad45dbe8e898e0374deebf2a661b2ae7c1855d2a29507d584c35d287c759b9a9896938a60609b999710610563575b505050508385811b0181556104ae565b60f88960031b161c1991890101351690558d808981610553565b8a85018c013586558e9c509488019493840193018e610513565b818352898320601f860160051c8101918b87106105cf575b601f0160051c01905b8181106105c55750610454565b83815584016105b8565b90915081906105af565b634e487b7160e01b8752601190528286fd5b8434610645578060031936011261064557610604610aba565b80546001600160a01b03198116825581906001600160a01b03167f8be0079c531659141344cd1fd0a4f28419497f9722a3daafe3b4186f6b6457e08280a380f35b80fd5b50503461011d5760208060031936011261039c57823591610667610b64565b8285526003825280852093600285015460ff8116156107d0578691849160081c60ff1660010361078d576106ce60058801973385528884526106c9868620546106b1811515610b87565b6106c385600385015494015484610ae6565b90610bc4565b610bd7565b96338452825282848120555b600254845163a9059cbb60e01b81523392810192909252602482018890529092839160449183916001600160a01b03165af1908115610783577f5380cf6fe903b40c6d5a9e0dfbca2f3a423f0a21520b4d5947ed5169bdba946d939291610748918891610756575b50610b26565b519384523393a36001805580f35b6107769150843d861161077c575b61076e8183610a82565b810190610b09565b38610742565b503d610764565b82513d88823e3d90fd5b6107c060068801973385528884526106c9868620546107ad811515610b87565b6106c38560038501549401548094610ae6565b96338452825282848120556106da565b5082606492519162461bcd60e51b8352820152600c60248201526b139bdd081c995cdbdb1d995960a21b6044820152fd5b8483346103c857816003193601126103c85760025490516001600160a01b039091168152602090f35b5050903461011d578260031936011261011d5760209250549051908152f35b828585346103c85760603660031901126103c85780356024359384151592838603610119576044359061087a610b64565b8386526020906003825283872060ff600282015416610a145760018101544210156109e05783156109a95787988360018060a01b036002541660648851809c81936323b872dd60e01b835233898401523060248401528a60448401525af198891561099f577f4af71b021e799c62c158bd54636ca8da2fa26115a21a2dc6efe486ec104fd15f979899610913918c916109825750610b26565b156109565760039150338952600581018352848920610933858254610ae6565b905501610941838254610ae6565b90555b82519586528501523393a36001805580f35b33895260068101835284892061096d858254610ae6565b90550161097b838254610ae6565b9055610944565b6109999150863d881161077c5761076e8183610a82565b8c610742565b86513d8c823e3d90fd5b5060649184519162461bcd60e51b835282015260126024820152710416d6f756e74206d757374206265203e20360741b6044820152fd5b5060649184519162461bcd60e51b8352820152600f60248201526e111958591b1a5b99481c185cdcd959608a1b6044820152fd5b5060649184519162461bcd60e51b8352820152600f60248201526e13585c9ad95d081c995cdbdb1d9959608a1b6044820152fd5b90600182811c92168015610a78575b6020831014610a6257565b634e487b7160e01b600052602260045260246000fd5b91607f1691610a57565b90601f8019910116810190811067ffffffffffffffff821117610aa457604052565b634e487b7160e01b600052604160045260246000fd5b6000546001600160a01b03163303610ace57565b60405163118cdaa760e01b8152336004820152602490fd5b91908201809211610af357565b634e487b7160e01b600052601160045260246000fd5b90816020910312610b2157518015158103610b215790565b600080fd5b15610b2d57565b60405162461bcd60e51b815260206004820152600f60248201526e151c985b9cd9995c8819985a5b1959608a1b6044820152606490fd5b600260015414610b75576002600155565b604051633ee5aeb560e01b8152600490fd5b15610b8e57565b60405162461bcd60e51b815260206004820152600e60248201526d139bc81dda5b9b9a5b99c818995d60921b6044820152606490fd5b81810292918115918404141715610af357565b8115610be1570490565b634e487b7160e01b600052601260045260246000fdfea2646970667358221220bf1043340dae21c3827d981ba07a0ba991c920ac1b667277669325030207313564736f6c63430008140033","opcodes":"PUSH1 0x80 CALLVALUE PUSH2 0xCF JUMPI PUSH1 0x1F PUSH2 0xD18 CODESIZE DUP2 SWAP1 SUB SWAP2 DUP3 ADD PUSH1 0x1F NOT AND DUP4 ADD SWAP2 PUSH1 0x1 PUSH1 0x1 PUSH1 0x40 SHL SUB DUP4 GT DUP5 DUP5 LT OR PUSH2 0xD4 JUMPI DUP1 DUP5 SWAP3 PUSH1 0x20 SWAP5 PUSH1 0x40 MSTORE DUP4 CODECOPY DUP2 ADD SUB SLT PUSH2 0xCF JUMPI MLOAD PUSH1 0x1 PUSH1 0x1 PUSH1 0xA0 SHL SUB SWAP1 DUP2 DUP2 AND SWAP1 DUP2 SWAP1 SUB PUSH2 0xCF JUMPI CALLER ISZERO PUSH2 0xB6 JUMPI PUSH1 0x0 SLOAD PUSH1 0x1 DUP1 PUSH1 0xA0 SHL SUB NOT SWAP1 CALLER DUP3 DUP3 AND OR PUSH1 0x0 SSTORE PUSH1 0x40 MLOAD SWAP4 CALLER SWAP2 AND PUSH32 0x8BE0079C531659141344CD1FD0A4F28419497F9722A3DAAFE3B4186F6B6457E0 PUSH1 0x0 DUP1 LOG3 PUSH1 0x1 DUP1 SSTORE PUSH1 0x1 PUSH1 0x4 SSTORE PUSH1 0x2 SLOAD AND OR PUSH1 0x2 SSTORE PUSH2 0xC2D SWAP1 DUP2 PUSH2 0xEB DUP3 CODECOPY RETURN JUMPDEST PUSH1 0x40 MLOAD PUSH4 0x1E4FBDF7 PUSH1 0xE0 SHL DUP2 MSTORE PUSH1 0x0 PUSH1 0x4 DUP3 ADD MSTORE PUSH1 0x24 SWAP1 REVERT JUMPDEST PUSH1 0x0 DUP1 REVERT JUMPDEST PUSH4 0x4E487B71 PUSH1 0xE0 SHL PUSH1 0x0 MSTORE PUSH1 0x41 PUSH1 0x4 MSTORE PUSH1 0x24 PUSH1 0x0 REVERT INVALID PUSH1 0x40 PUSH1 0x80 DUP2 MSTORE PUSH1 0x4 DUP1 CALLDATASIZE LT ISZERO PUSH2 0x14 JUMPI PUSH1 0x0 DUP1 REVERT JUMPDEST PUSH1 0x0 SWAP2 PUSH1 0xE0 DUP4 CALLDATALOAD DUP2 SHR SWAP1 DUP2 PUSH4 0x1A38CAC6 EQ PUSH2 0x849 JUMPI DUP2 PUSH4 0x406EF2EF EQ PUSH2 0x82A JUMPI DUP2 PUSH4 0x5F613518 EQ PUSH2 0x801 JUMPI DUP2 PUSH4 0x677BD9FF EQ PUSH2 0x648 JUMPI DUP2 PUSH4 0x715018A6 EQ PUSH2 0x5EB JUMPI DUP2 PUSH4 0x883C84C1 EQ PUSH2 0x3CC JUMPI DUP2 PUSH4 0x8DA5CB5B EQ PUSH2 0x3A0 JUMPI DUP2 PUSH4 0xB1283E77 EQ PUSH2 0x26A JUMPI POP DUP1 PUSH4 0xDF55406E EQ PUSH2 0x121 JUMPI PUSH4 0xF2FDE38B EQ PUSH2 0x91 JUMPI PUSH1 0x0 DUP1 REVERT JUMPDEST CALLVALUE PUSH2 0x11D JUMPI PUSH1 0x20 CALLDATASIZE PUSH1 0x3 NOT ADD SLT PUSH2 0x11D JUMPI PUSH1 0x1 PUSH1 0x1 PUSH1 0xA0 SHL SUB DUP3 CALLDATALOAD DUP2 DUP2 AND SWAP4 SWAP2 SWAP3 SWAP1 DUP5 SWAP1 SUB PUSH2 0x119 JUMPI PUSH2 0xC2 PUSH2 0xABA JUMP JUMPDEST DUP4 ISZERO PUSH2 0x103 JUMPI POP POP DUP3 SLOAD PUSH1 0x1 PUSH1 0x1 PUSH1 0xA0 SHL SUB NOT DUP2 AND DUP4 OR DUP5 SSTORE AND PUSH32 0x8BE0079C531659141344CD1FD0A4F28419497F9722A3DAAFE3B4186F6B6457E0 DUP4 DUP1 LOG3 DUP1 RETURN JUMPDEST MLOAD PUSH4 0x1E4FBDF7 PUSH1 0xE0 SHL DUP2 MSTORE SWAP1 DUP2 ADD DUP5 SWAP1 MSTORE PUSH1 0x24 SWAP1 REVERT JUMPDEST DUP5 DUP1 REVERT JUMPDEST DUP3 DUP1 REVERT JUMPDEST POP SWAP1 CALLVALUE PUSH2 0x11D JUMPI DUP2 PUSH1 0x3 NOT CALLDATASIZE ADD SLT PUSH2 0x11D JUMPI DUP1 CALLDATALOAD SWAP2 PUSH1 0x24 CALLDATALOAD SWAP2 PUSH1 0xFF DUP4 AND SWAP3 DUP4 DUP2 SUB PUSH2 0x266 JUMPI PUSH2 0x14E PUSH2 0xABA JUMP JUMPDEST DUP5 DUP7 MSTORE PUSH1 0x3 PUSH1 0x20 MSTORE DUP3 DUP7 KECCAK256 SWAP1 PUSH1 0x2 DUP3 ADD SWAP3 DUP4 SLOAD SWAP3 PUSH1 0xFF DUP5 AND PUSH2 0x230 JUMPI PUSH1 0x1 ADD SLOAD TIMESTAMP LT PUSH2 0x1F6 JUMPI PUSH1 0x2 DUP7 LT ISZERO PUSH2 0x1C1 JUMPI POP SWAP2 PUSH1 0x1 PUSH1 0x20 SWAP5 SWAP3 PUSH2 0xFF00 PUSH32 0x739F283563FB51AB6B89EE95D937B2E63A6CFCB83C385DBEBB629F9D97BD43E6 SWAP8 SWAP6 PUSH1 0x8 SHL AND SWAP1 PUSH2 0xFFFF NOT AND OR OR SWAP1 SSTORE MLOAD SWAP1 DUP2 MSTORE LOG2 DUP1 RETURN JUMPDEST PUSH1 0x64 SWAP1 PUSH1 0x20 DUP7 MLOAD SWAP2 PUSH3 0x461BCD PUSH1 0xE5 SHL DUP4 MSTORE DUP3 ADD MSTORE PUSH1 0xF PUSH1 0x24 DUP3 ADD MSTORE PUSH15 0x496E76616C6964206F7574636F6D65 PUSH1 0x88 SHL PUSH1 0x44 DUP3 ADD MSTORE REVERT JUMPDEST PUSH1 0x64 SWAP1 PUSH1 0x20 DUP7 MLOAD SWAP2 PUSH3 0x461BCD PUSH1 0xE5 SHL DUP4 MSTORE DUP3 ADD MSTORE PUSH1 0x14 PUSH1 0x24 DUP3 ADD MSTORE PUSH20 0x111958591B1A5B99481B9BDD081C995858DA1959 PUSH1 0x62 SHL PUSH1 0x44 DUP3 ADD MSTORE REVERT JUMPDEST DUP6 MLOAD PUSH3 0x461BCD PUSH1 0xE5 SHL DUP2 MSTORE PUSH1 0x20 DUP2 DUP5 ADD MSTORE PUSH1 0x10 PUSH1 0x24 DUP3 ADD MSTORE PUSH16 0x105B1C9958591E481C995CDBDB1D9959 PUSH1 0x82 SHL PUSH1 0x44 DUP3 ADD MSTORE PUSH1 0x64 SWAP1 REVERT JUMPDEST DUP6 DUP1 REVERT JUMPDEST DUP5 SWAP2 POP DUP4 CALLVALUE PUSH2 0x11D JUMPI PUSH1 0x20 SWAP4 DUP5 PUSH1 0x3 NOT CALLDATASIZE ADD SLT PUSH2 0x39C JUMPI DUP2 CALLDATALOAD DUP5 MSTORE PUSH1 0x3 DUP6 MSTORE DUP1 DUP5 KECCAK256 DUP2 MLOAD SWAP3 DUP6 DUP8 DUP6 DUP5 SLOAD SWAP3 PUSH2 0x29E DUP5 PUSH2 0xA48 JUMP JUMPDEST DUP1 DUP4 MSTORE PUSH1 0x1 SWAP5 DUP1 DUP7 AND SWAP1 DUP2 ISZERO PUSH2 0x37E JUMPI POP PUSH1 0x1 EQ PUSH2 0x342 JUMPI JUMPDEST POP PUSH2 0x2C4 SWAP3 POP SUB DUP7 PUSH2 0xA82 JUMP JUMPDEST DUP3 ADD SLOAD SWAP3 PUSH1 0x2 DUP4 ADD SLOAD SWAP2 PUSH1 0x3 DUP5 ADD SLOAD SWAP4 ADD SLOAD SWAP4 DUP2 MLOAD SWAP8 PUSH1 0xC0 DUP10 MSTORE DUP7 MLOAD SWAP7 DUP8 PUSH1 0xC0 DUP12 ADD MSTORE DUP2 JUMPDEST DUP9 DUP2 LT PUSH2 0x32F JUMPI POP POP SWAP1 DUP9 SWAP10 PUSH1 0xFF SWAP5 SWAP4 SWAP3 DUP10 DUP10 DUP13 SWAP12 SWAP13 ADD ADD MSTORE DUP9 ADD MSTORE DUP3 DUP3 AND ISZERO ISZERO SWAP1 DUP8 ADD MSTORE PUSH1 0x8 SHR AND PUSH1 0x60 DUP6 ADD MSTORE PUSH1 0x80 DUP5 ADD MSTORE PUSH1 0xA0 DUP4 ADD MSTORE PUSH1 0x1F DUP1 NOT SWAP2 ADD AND DUP2 ADD SUB ADD SWAP1 RETURN JUMPDEST DUP2 DUP2 ADD DUP13 ADD MLOAD DUP12 DUP3 ADD DUP12 ADD MSTORE DUP12 ADD PUSH2 0x2E9 JUMP JUMPDEST DUP7 DUP12 MSTORE DUP4 DUP12 KECCAK256 DUP12 SWAP3 POP DUP6 SWAP1 JUMPDEST DUP3 DUP5 LT PUSH2 0x367 JUMPI POP POP POP SWAP2 PUSH2 0x2C4 SWAP3 DUP3 ADD ADD DUP11 SWAP3 PUSH2 0x2B7 JUMP JUMPDEST DUP1 SLOAD DUP12 DUP6 ADD DUP8 ADD MSTORE DUP11 SWAP5 POP SWAP3 DUP6 ADD SWAP3 DUP7 SWAP2 ADD PUSH2 0x34E JUMP JUMPDEST PUSH1 0xFF NOT AND DUP5 DUP7 ADD MSTORE POP DUP12 SWAP4 SWAP1 ISZERO ISZERO PUSH1 0x5 SHL DUP4 ADD ADD SWAP1 POP PUSH2 0x2C4 PUSH2 0x2B7 JUMP JUMPDEST DUP4 DUP1 REVERT JUMPDEST DUP5 DUP4 CALLVALUE PUSH2 0x3C8 JUMPI DUP2 PUSH1 0x3 NOT CALLDATASIZE ADD SLT PUSH2 0x3C8 JUMPI SWAP1 SLOAD SWAP1 MLOAD PUSH1 0x1 PUSH1 0x1 PUSH1 0xA0 SHL SUB SWAP1 SWAP2 AND DUP2 MSTORE PUSH1 0x20 SWAP1 RETURN JUMPDEST POP DUP1 REVERT JUMPDEST DUP4 DUP6 DUP5 CALLVALUE PUSH2 0x3C8 JUMPI DUP1 PUSH1 0x3 NOT CALLDATASIZE ADD SLT PUSH2 0x3C8 JUMPI PUSH8 0xFFFFFFFFFFFFFFFF SWAP1 DUP4 CALLDATALOAD DUP3 DUP2 GT PUSH2 0x39C JUMPI CALLDATASIZE PUSH1 0x23 DUP3 ADD SLT ISZERO PUSH2 0x39C JUMPI DUP1 DUP6 ADD CALLDATALOAD SWAP3 DUP4 GT PUSH2 0x39C JUMPI PUSH1 0x24 SWAP1 CALLDATASIZE DUP3 DUP6 DUP4 ADD ADD GT PUSH2 0x119 JUMPI PUSH2 0x41E PUSH2 0xABA JUMP JUMPDEST DUP6 SLOAD SWAP4 PUSH1 0x0 NOT SWAP7 DUP8 DUP7 EQ PUSH2 0x5D9 JUMPI PUSH1 0x1 SWAP1 DUP2 DUP8 ADD SWAP1 SSTORE DUP6 DUP8 MSTORE PUSH1 0x20 SWAP7 PUSH1 0x3 DUP9 MSTORE DUP6 DUP2 KECCAK256 PUSH2 0x44B DUP2 SLOAD PUSH2 0xA48 JUMP JUMPDEST PUSH1 0x1F DUP2 GT PUSH2 0x597 JUMPI JUMPDEST POP DUP8 SWAP9 SWAP10 DUP3 SWAP9 SWAP8 SWAP9 PUSH1 0x1F DUP7 GT PUSH1 0x1 EQ PUSH2 0x504 JUMPI DUP8 SWAP7 SWAP5 SWAP3 DUP5 SWAP3 DUP8 PUSH32 0x2D1E9AD45DBE8E898E0374DEEBF2A661B2AE7C1855D2A29507D584C35D287C75 SWAP11 PUSH1 0x2 SWAP5 PUSH1 0x60 SWAP11 SWAP9 SWAP3 PUSH2 0x4F7 JUMPI JUMPDEST POP POP DUP7 DUP7 SHL SWAP2 DUP8 PUSH1 0x3 SHL SHR NOT AND OR DUP2 SSTORE JUMPDEST PUSH2 0x4B9 DUP9 CALLDATALOAD TIMESTAMP PUSH2 0xAE6 JUMP JUMPDEST DUP1 SWAP5 DUP3 ADD SSTORE ADD PUSH1 0xFF NOT DUP2 SLOAD AND SWAP1 SSTORE DUP3 DUP10 MLOAD SWAP7 DUP8 SWAP6 DUP12 DUP8 MSTORE DUP3 DUP13 DUP9 ADD MSTORE ADD DUP7 DUP7 ADD CALLDATACOPY DUP4 DUP4 ADD DUP6 ADD MSTORE DUP10 DUP4 ADD MSTORE PUSH1 0x1F ADD PUSH1 0x1F NOT AND DUP2 ADD SUB ADD SWAP1 LOG2 MLOAD SWAP1 DUP2 MSTORE RETURN JUMPDEST DUP10 ADD ADD CALLDATALOAD SWAP1 POP DUP10 CODESIZE PUSH2 0x49D JUMP JUMPDEST DUP3 DUP5 MSTORE DUP12 DUP5 KECCAK256 SWAP2 PUSH1 0x1F NOT DUP8 AND DUP6 DUP15 JUMPDEST DUP3 DUP3 LT PUSH2 0x57D JUMPI POP POP SWAP3 PUSH1 0x2 SWAP3 DUP11 PUSH32 0x2D1E9AD45DBE8E898E0374DEEBF2A661B2AE7C1855D2A29507D584C35D287C75 SWAP12 SWAP11 SWAP9 SWAP7 SWAP4 DUP11 PUSH1 0x60 SWAP12 SWAP10 SWAP8 LT PUSH2 0x563 JUMPI JUMPDEST POP POP POP POP DUP4 DUP6 DUP2 SHL ADD DUP2 SSTORE PUSH2 0x4AE JUMP JUMPDEST PUSH1 0xF8 DUP10 PUSH1 0x3 SHL AND SHR NOT SWAP2 DUP10 ADD ADD CALLDATALOAD AND SWAP1 SSTORE DUP14 DUP1 DUP10 DUP2 PUSH2 0x553 JUMP JUMPDEST DUP11 DUP6 ADD DUP13 ADD CALLDATALOAD DUP7 SSTORE DUP15 SWAP13 POP SWAP5 DUP9 ADD SWAP5 SWAP4 DUP5 ADD SWAP4 ADD DUP15 PUSH2 0x513 JUMP JUMPDEST DUP2 DUP4 MSTORE DUP10 DUP4 KECCAK256 PUSH1 0x1F DUP7 ADD PUSH1 0x5 SHR DUP2 ADD SWAP2 DUP12 DUP8 LT PUSH2 0x5CF JUMPI JUMPDEST PUSH1 0x1F ADD PUSH1 0x5 SHR ADD SWAP1 JUMPDEST DUP2 DUP2 LT PUSH2 0x5C5 JUMPI POP PUSH2 0x454 JUMP JUMPDEST DUP4 DUP2 SSTORE DUP5 ADD PUSH2 0x5B8 JUMP JUMPDEST SWAP1 SWAP2 POP DUP2 SWAP1 PUSH2 0x5AF JUMP JUMPDEST PUSH4 0x4E487B71 PUSH1 0xE0 SHL DUP8 MSTORE PUSH1 0x11 SWAP1 MSTORE DUP3 DUP7 REVERT JUMPDEST DUP5 CALLVALUE PUSH2 0x645 JUMPI DUP1 PUSH1 0x3 NOT CALLDATASIZE ADD SLT PUSH2 0x645 JUMPI PUSH2 0x604 PUSH2 0xABA JUMP JUMPDEST DUP1 SLOAD PUSH1 0x1 PUSH1 0x1 PUSH1 0xA0 SHL SUB NOT DUP2 AND DUP3 SSTORE DUP2 SWAP1 PUSH1 0x1 PUSH1 0x1 PUSH1 0xA0 SHL SUB AND PUSH32 0x8BE0079C531659141344CD1FD0A4F28419497F9722A3DAAFE3B4186F6B6457E0 DUP3 DUP1 LOG3 DUP1 RETURN JUMPDEST DUP1 REVERT JUMPDEST POP POP CALLVALUE PUSH2 0x11D JUMPI PUSH1 0x20 DUP1 PUSH1 0x3 NOT CALLDATASIZE ADD SLT PUSH2 0x39C JUMPI DUP3 CALLDATALOAD SWAP2 PUSH2 0x667 PUSH2 0xB64 JUMP JUMPDEST DUP3 DUP6 MSTORE PUSH1 0x3 DUP3 MSTORE DUP1 DUP6 KECCAK256 SWAP4 PUSH1 0x2 DUP6 ADD SLOAD PUSH1 0xFF DUP2 AND ISZERO PUSH2 0x7D0 JUMPI DUP7 SWAP2 DUP5 SWAP2 PUSH1 0x8 SHR PUSH1 0xFF AND PUSH1 0x1 SUB PUSH2 0x78D JUMPI PUSH2 0x6CE PUSH1 0x5 DUP9 ADD SWAP8 CALLER DUP6 MSTORE DUP9 DUP5 MSTORE PUSH2 0x6C9 DUP7 DUP7 KECCAK256 SLOAD PUSH2 0x6B1 DUP2 ISZERO ISZERO PUSH2 0xB87 JUMP JUMPDEST PUSH2 0x6C3 DUP6 PUSH1 0x3 DUP6 ADD SLOAD SWAP5 ADD SLOAD DUP5 PUSH2 0xAE6 JUMP JUMPDEST SWAP1 PUSH2 0xBC4 JUMP JUMPDEST PUSH2 0xBD7 JUMP JUMPDEST SWAP7 CALLER DUP5 MSTORE DUP3 MSTORE DUP3 DUP5 DUP2 KECCAK256 SSTORE JUMPDEST PUSH1 0x2 SLOAD DUP5 MLOAD PUSH4 0xA9059CBB PUSH1 0xE0 SHL DUP2 MSTORE CALLER SWAP3 DUP2 ADD SWAP3 SWAP1 SWAP3 MSTORE PUSH1 0x24 DUP3 ADD DUP9 SWAP1 MSTORE SWAP1 SWAP3 DUP4 SWAP2 PUSH1 0x44 SWAP2 DUP4 SWAP2 PUSH1 0x1 PUSH1 0x1 PUSH1 0xA0 SHL SUB AND GAS CALL SWAP1 DUP2 ISZERO PUSH2 0x783 JUMPI PUSH32 0x5380CF6FE903B40C6D5A9E0DFBCA2F3A423F0A21520B4D5947ED5169BDBA946D SWAP4 SWAP3 SWAP2 PUSH2 0x748 SWAP2 DUP9 SWAP2 PUSH2 0x756 JUMPI JUMPDEST POP PUSH2 0xB26 JUMP JUMPDEST MLOAD SWAP4 DUP5 MSTORE CALLER SWAP4 LOG3 PUSH1 0x1 DUP1 SSTORE DUP1 RETURN JUMPDEST PUSH2 0x776 SWAP2 POP DUP5 RETURNDATASIZE DUP7 GT PUSH2 0x77C JUMPI JUMPDEST PUSH2 0x76E DUP2 DUP4 PUSH2 0xA82 JUMP JUMPDEST DUP2 ADD SWAP1 PUSH2 0xB09 JUMP JUMPDEST CODESIZE PUSH2 0x742 JUMP JUMPDEST POP RETURNDATASIZE PUSH2 0x764 JUMP JUMPDEST DUP3 MLOAD RETURNDATASIZE DUP9 DUP3 RETURNDATACOPY RETURNDATASIZE SWAP1 REVERT JUMPDEST PUSH2 0x7C0 PUSH1 0x6 DUP9 ADD SWAP8 CALLER DUP6 MSTORE DUP9 DUP5 MSTORE PUSH2 0x6C9 DUP7 DUP7 KECCAK256 SLOAD PUSH2 0x7AD DUP2 ISZERO ISZERO PUSH2 0xB87 JUMP JUMPDEST PUSH2 0x6C3 DUP6 PUSH1 0x3 DUP6 ADD SLOAD SWAP5 ADD SLOAD DUP1 SWAP5 PUSH2 0xAE6 JUMP JUMPDEST SWAP7 CALLER DUP5 MSTORE DUP3 MSTORE DUP3 DUP5 DUP2 KECCAK256 SSTORE PUSH2 0x6DA JUMP JUMPDEST POP DUP3 PUSH1 0x64 SWAP3 MLOAD SWAP2 PUSH3 0x461BCD PUSH1 0xE5 SHL DUP4 MSTORE DUP3 ADD MSTORE PUSH1 0xC PUSH1 0x24 DUP3 ADD MSTORE PUSH12 0x139BDD081C995CDBDB1D9959 PUSH1 0xA2 SHL PUSH1 0x44 DUP3 ADD MSTORE REVERT JUMPDEST DUP5 DUP4 CALLVALUE PUSH2 0x3C8 JUMPI DUP2 PUSH1 0x3 NOT CALLDATASIZE ADD SLT PUSH2 0x3C8 JUMPI PUSH1 0x2 SLOAD SWAP1 MLOAD PUSH1 0x1 PUSH1 0x1 PUSH1 0xA0 SHL SUB SWAP1 SWAP2 AND DUP2 MSTORE PUSH1 0x20 SWAP1 RETURN JUMPDEST POP POP SWAP1 CALLVALUE PUSH2 0x11D JUMPI DUP3 PUSH1 0x3 NOT CALLDATASIZE ADD SLT PUSH2 0x11D JUMPI PUSH1 0x20 SWAP3 POP SLOAD SWAP1 MLOAD SWAP1 DUP2 MSTORE RETURN JUMPDEST DUP3 DUP6 DUP6 CALLVALUE PUSH2 0x3C8 JUMPI PUSH1 0x60 CALLDATASIZE PUSH1 0x3 NOT ADD SLT PUSH2 0x3C8 JUMPI DUP1 CALLDATALOAD PUSH1 0x24 CALLDATALOAD SWAP4 DUP5 ISZERO ISZERO SWAP3 DUP4 DUP7 SUB PUSH2 0x119 JUMPI PUSH1 0x44 CALLDATALOAD SWAP1 PUSH2 0x87A PUSH2 0xB64 JUMP JUMPDEST DUP4 DUP7 MSTORE PUSH1 0x20 SWAP1 PUSH1 0x3 DUP3 MSTORE DUP4 DUP8 KECCAK256 PUSH1 0xFF PUSH1 0x2 DUP3 ADD SLOAD AND PUSH2 0xA14 JUMPI PUSH1 0x1 DUP2 ADD SLOAD TIMESTAMP LT ISZERO PUSH2 0x9E0 JUMPI DUP4 ISZERO PUSH2 0x9A9 JUMPI DUP8 SWAP9 DUP4 PUSH1 0x1 DUP1 PUSH1 0xA0 SHL SUB PUSH1 0x2 SLOAD AND PUSH1 0x64 DUP9 MLOAD DUP1 SWAP13 DUP2 SWAP4 PUSH4 0x23B872DD PUSH1 0xE0 SHL DUP4 MSTORE CALLER DUP10 DUP5 ADD MSTORE ADDRESS PUSH1 0x24 DUP5 ADD MSTORE DUP11 PUSH1 0x44 DUP5 ADD MSTORE GAS CALL SWAP9 DUP10 ISZERO PUSH2 0x99F JUMPI PUSH32 0x4AF71B021E799C62C158BD54636CA8DA2FA26115A21A2DC6EFE486EC104FD15F SWAP8 SWAP9 SWAP10 PUSH2 0x913 SWAP2 DUP13 SWAP2 PUSH2 0x982 JUMPI POP PUSH2 0xB26 JUMP JUMPDEST ISZERO PUSH2 0x956 JUMPI PUSH1 0x3 SWAP2 POP CALLER DUP10 MSTORE PUSH1 0x5 DUP2 ADD DUP4 MSTORE DUP5 DUP10 KECCAK256 PUSH2 0x933 DUP6 DUP3 SLOAD PUSH2 0xAE6 JUMP JUMPDEST SWAP1 SSTORE ADD PUSH2 0x941 DUP4 DUP3 SLOAD PUSH2 0xAE6 JUMP JUMPDEST SWAP1 SSTORE JUMPDEST DUP3 MLOAD SWAP6 DUP7 MSTORE DUP6 ADD MSTORE CALLER SWAP4 LOG3 PUSH1 0x1 DUP1 SSTORE DUP1 RETURN JUMPDEST CALLER DUP10 MSTORE PUSH1 0x6 DUP2 ADD DUP4 MSTORE DUP5 DUP10 KECCAK256 PUSH2 0x96D DUP6 DUP3 SLOAD PUSH2 0xAE6 JUMP JUMPDEST SWAP1 SSTORE ADD PUSH2 0x97B DUP4 DUP3 SLOAD PUSH2 0xAE6 JUMP JUMPDEST SWAP1 SSTORE PUSH2 0x944 JUMP JUMPDEST PUSH2 0x999 SWAP2 POP DUP7 RETURNDATASIZE DUP9 GT PUSH2 0x77C JUMPI PUSH2 0x76E DUP2 DUP4 PUSH2 0xA82 JUMP JUMPDEST DUP13 PUSH2 0x742 JUMP JUMPDEST DUP7 MLOAD RETURNDATASIZE DUP13 DUP3 RETURNDATACOPY RETURNDATASIZE SWAP1 REVERT JUMPDEST POP PUSH1 0x64 SWAP2 DUP5 MLOAD SWAP2 PUSH3 0x461BCD PUSH1 0xE5 SHL DUP4 MSTORE DUP3 ADD MSTORE PUSH1 0x12 PUSH1 0x24 DUP3 ADD MSTORE PUSH18 0x416D6F756E74206D757374206265203E203 PUSH1 0x74 SHL PUSH1 0x44 DUP3 ADD MSTORE REVERT JUMPDEST POP PUSH1 0x64 SWAP2 DUP5 MLOAD SWAP2 PUSH3 0x461BCD PUSH1 0xE5 SHL DUP4 MSTORE DUP3 ADD MSTORE PUSH1 0xF PUSH1 0x24 DUP3 ADD MSTORE PUSH15 0x111958591B1A5B99481C185CDCD959 PUSH1 0x8A SHL PUSH1 0x44 DUP3 ADD MSTORE REVERT JUMPDEST POP PUSH1 0x64 SWAP2 DUP5 MLOAD SWAP2 PUSH3 0x461BCD PUSH1 0xE5 SHL DUP4 MSTORE DUP3 ADD MSTORE PUSH1 0xF PUSH1 0x24 DUP3 ADD MSTORE PUSH15 0x13585C9AD95D081C995CDBDB1D9959 PUSH1 0x8A SHL PUSH1 0x44 DUP3 ADD MSTORE REVERT JUMPDEST SWAP1 PUSH1 0x1 DUP3 DUP2 SHR SWAP3 AND DUP1 ISZERO PUSH2 0xA78 JUMPI JUMPDEST PUSH1 0x20 DUP4 LT EQ PUSH2 0xA62 JUMPI JUMP JUMPDEST PUSH4 0x4E487B71 PUSH1 0xE0 SHL PUSH1 0x0 MSTORE PUSH1 0x22 PUSH1 0x4 MSTORE PUSH1 0x24 PUSH1 0x0 REVERT JUMPDEST SWAP2 PUSH1 0x7F AND SWAP2 PUSH2 0xA57 JUMP JUMPDEST SWAP1 PUSH1 0x1F DUP1 NOT SWAP2 ADD AND DUP2 ADD SWAP1 DUP2 LT PUSH8 0xFFFFFFFFFFFFFFFF DUP3 GT OR PUSH2 0xAA4 JUMPI PUSH1 0x40 MSTORE JUMP JUMPDEST PUSH4 0x4E487B71 PUSH1 0xE0 SHL PUSH1 0x0 MSTORE PUSH1 0x41 PUSH1 0x4 MSTORE PUSH1 0x24 PUSH1 0x0 REVERT JUMPDEST PUSH1 0x0 SLOAD PUSH1 0x1 PUSH1 0x1 PUSH1 0xA0 SHL SUB AND CALLER SUB PUSH2 0xACE JUMPI JUMP JUMPDEST PUSH1 0x40 MLOAD PUSH4 0x118CDAA7 PUSH1 0xE0 SHL DUP2 MSTORE CALLER PUSH1 0x4 DUP3 ADD MSTORE PUSH1 0x24 SWAP1 REVERT JUMPDEST SWAP2 SWAP1 DUP3 ADD DUP1 SWAP3 GT PUSH2 0xAF3 JUMPI JUMP JUMPDEST PUSH4 0x4E487B71 PUSH1 0xE0 SHL PUSH1 0x0 MSTORE PUSH1 0x11 PUSH1 0x4 MSTORE PUSH1 0x24 PUSH1 0x0 REVERT JUMPDEST SWAP1 DUP2 PUSH1 0x20 SWAP2 SUB SLT PUSH2 0xB21 JUMPI MLOAD DUP1 ISZERO ISZERO DUP2 SUB PUSH2 0xB21 JUMPI SWAP1 JUMP JUMPDEST PUSH1 0x0 DUP1 REVERT JUMPDEST ISZERO PUSH2 0xB2D JUMPI JUMP JUMPDEST PUSH1 0x40 MLOAD PUSH3 0x461BCD PUSH1 0xE5 SHL DUP2 MSTORE PUSH1 0x20 PUSH1 0x4 DUP3 ADD MSTORE PUSH1 0xF PUSH1 0x24 DUP3 ADD MSTORE PUSH15 0x151C985B9CD9995C8819985A5B1959 PUSH1 0x8A SHL PUSH1 0x44 DUP3 ADD MSTORE PUSH1 0x64 SWAP1 REVERT JUMPDEST PUSH1 0x2 PUSH1 0x1 SLOAD EQ PUSH2 0xB75 JUMPI PUSH1 0x2 PUSH1 0x1 SSTORE JUMP JUMPDEST PUSH1 0x40 MLOAD PUSH4 0x3EE5AEB5 PUSH1 0xE0 SHL DUP2 MSTORE PUSH1 0x4 SWAP1 REVERT JUMPDEST ISZERO PUSH2 0xB8E JUMPI JUMP JUMPDEST PUSH1 0x40 MLOAD PUSH3 0x461BCD PUSH1 0xE5 SHL DUP2 MSTORE PUSH1 0x20 PUSH1 0x4 DUP3 ADD MSTORE PUSH1 0xE PUSH1 0x24 DUP3 ADD MSTORE PUSH14 0x139BC81DDA5B9B9A5B99C818995D PUSH1 0x92 SHL PUSH1 0x44 DUP3 ADD MSTORE PUSH1 0x64 SWAP1 REVERT JUMPDEST DUP2 DUP2 MUL SWAP3 SWAP2 DUP2 ISZERO SWAP2 DUP5 DIV EQ OR ISZERO PUSH2 0xAF3 JUMPI JUMP JUMPDEST DUP2 ISZERO PUSH2 0xBE1 JUMPI DIV SWAP1 JUMP JUMPDEST PUSH4 0x4E487B71 PUSH1 0xE0 SHL PUSH1 0x0 MSTORE PUSH1 0x12 PUSH1 0x4 MSTORE PUSH1 0x24 PUSH1 0x0 REVERT INVALID LOG2 PUSH5 0x6970667358 0x22 SLT KECCAK256 0xBF LT NUMBER CALLVALUE 0xD 0xAE 0x21 0xC3 DUP3 PUSH30 0x981BA07A0BA991C920AC1B667277669325030207313564736F6C63430008 EQ STOP CALLER "},"methodIdentifiers":{"claimWinnings(uint256)":"677bd9ff","createMarket(string,uint256)":"883c84c1","markets(uint256)":"b1283e77","nextMarketId()":"406ef2ef","owner()":"8da5cb5b","placeBet(uint256,bool,uint256)":"1a38cac6","renounceOwnership()":"715018a6","resolveMarket(uint256,uint8)":"df55406e","sincToken()":"5f613518","transferOwnership(address)":"f2fde38b"}}}}}