{"contracts/SINCAgentToken.sol":{"SINCAgentToken":{"abi":[{"inputs":[],"stateMutability":"nonpayable","type":"constructor"},{"inputs":[{"internalType":"address","name":"sender","type":"address"},{"internalType":"uint256","name":"tokenId","type":"uint256"},{"internalType":"address","name":"owner","type":"address"}],"name":"ERC721IncorrectOwner","type":"error"},{"inputs":[{"internalType":"address","name":"operator","type":"address"},{"internalType":"uint256","name":"tokenId","type":"uint256"}],"name":"ERC721InsufficientApproval","type":"error"},{"inputs":[{"internalType":"address","name":"approver","type":"address"}],"name":"ERC721InvalidApprover","type":"error"},{"inputs":[{"internalType":"address","name":"operator","type":"address"}],"name":"ERC721InvalidOperator","type":"error"},{"inputs":[{"internalType":"address","name":"owner","type":"address"}],"name":"ERC721InvalidOwner","type":"error"},{"inputs":[{"internalType":"address","name":"receiver","type":"address"}],"name":"ERC721InvalidReceiver","type":"error"},{"inputs":[{"internalType":"address","name":"sender","type":"address"}],"name":"ERC721InvalidSender","type":"error"},{"inputs":[{"internalType":"uint256","name":"tokenId","type":"uint256"}],"name":"ERC721NonexistentToken","type":"error"},{"inputs":[],"name":"EnforcedPause","type":"error"},{"inputs":[],"name":"ExpectedPause","type":"error"},{"inputs":[{"internalType":"address","name":"owner","type":"address"}],"name":"OwnableInvalidOwner","type":"error"},{"inputs":[{"internalType":"address","name":"account","type":"address"}],"name":"OwnableUnauthorizedAccount","type":"error"},{"inputs":[],"name":"ReentrancyGuardReentrantCall","type":"error"},{"inputs":[{"internalType":"uint256","name":"value","type":"uint256"},{"internalType":"uint256","name":"length","type":"uint256"}],"name":"StringsInsufficientHexLength","type":"error"},{"anonymous":false,"inputs":[{"indexed":true,"internalType":"uint256","name":"tokenId","type":"uint256"},{"indexed":true,"internalType":"address","name":"agent","type":"address"},{"indexed":false,"internalType":"string","name":"purpose","type":"string"}],"name":"AgentBorn","type":"event"},{"anonymous":false,"inputs":[{"indexed":true,"internalType":"uint256","name":"oldTokenId","type":"uint256"},{"indexed":true,"internalType":"uint256","name":"newTokenId","type":"uint256"},{"indexed":true,"internalType":"address","name":"agent","type":"address"}],"name":"AgentReassigned","type":"event"},{"anonymous":false,"inputs":[{"indexed":true,"internalType":"uint256","name":"tokenId","type":"uint256"},{"indexed":true,"internalType":"address","name":"agent","type":"address"}],"name":"AgentTerminated","type":"event"},{"anonymous":false,"inputs":[{"indexed":true,"internalType":"address","name":"owner","type":"address"},{"indexed":true,"internalType":"address","name":"approved","type":"address"},{"indexed":true,"internalType":"uint256","name":"tokenId","type":"uint256"}],"name":"Approval","type":"event"},{"anonymous":false,"inputs":[{"indexed":true,"internalType":"address","name":"owner","type":"address"},{"indexed":true,"internalType":"address","name":"operator","type":"address"},{"indexed":false,"internalType":"bool","name":"approved","type":"bool"}],"name":"ApprovalForAll","type":"event"},{"anonymous":false,"inputs":[{"indexed":false,"internalType":"uint256","name":"_fromTokenId","type":"uint256"},{"indexed":false,"internalType":"uint256","name":"_toTokenId","type":"uint256"}],"name":"BatchMetadataUpdate","type":"event"},{"anonymous":false,"inputs":[{"indexed":true,"internalType":"uint256","name":"tokenId","type":"uint256"},{"indexed":true,"internalType":"bytes32","name":"taskHash","type":"bytes32"},{"indexed":false,"internalType":"string","name":"metadata","type":"string"}],"name":"ExecutionDelegated","type":"event"},{"anonymous":false,"inputs":[{"indexed":false,"internalType":"uint256","name":"_tokenId","type":"uint256"}],"name":"MetadataUpdate","type":"event"},{"anonymous":false,"inputs":[{"indexed":true,"internalType":"address","name":"previousOwner","type":"address"},{"indexed":true,"internalType":"address","name":"newOwner","type":"address"}],"name":"OwnershipTransferred","type":"event"},{"anonymous":false,"inputs":[{"indexed":false,"internalType":"address","name":"account","type":"address"}],"name":"Paused","type":"event"},{"anonymous":false,"inputs":[{"indexed":true,"internalType":"uint256","name":"tokenId","type":"uint256"}],"name":"PermissionsBurned","type":"event"},{"anonymous":false,"inputs":[{"indexed":true,"internalType":"uint256","name":"tokenId","type":"uint256"},{"indexed":false,"internalType":"uint256","name":"newScore","type":"uint256"}],"name":"ReputationUpdated","type":"event"},{"anonymous":false,"inputs":[{"indexed":true,"internalType":"address","name":"from","type":"address"},{"indexed":true,"internalType":"address","name":"to","type":"address"},{"indexed":true,"internalType":"uint256","name":"tokenId","type":"uint256"}],"name":"Transfer","type":"event"},{"anonymous":false,"inputs":[{"indexed":false,"internalType":"address","name":"account","type":"address"}],"name":"Unpaused","type":"event"},{"inputs":[{"internalType":"uint256","name":"","type":"uint256"}],"name":"agentProfiles","outputs":[{"internalType":"string","name":"purpose","type":"string"},{"internalType":"uint256","name":"scope","type":"uint256"},{"internalType":"uint256","name":"budget","type":"uint256"},{"internalType":"uint256","name":"lifecycleStart","type":"uint256"},{"internalType":"uint256","name":"lifecycleEnd","type":"uint256"},{"internalType":"bool","name":"active","type":"bool"},{"internalType":"address","name":"assignedAgent","type":"address"}],"stateMutability":"view","type":"function"},{"inputs":[{"internalType":"uint256","name":"","type":"uint256"}],"name":"agentReputation","outputs":[{"internalType":"uint256","name":"","type":"uint256"}],"stateMutability":"view","type":"function"},{"inputs":[{"internalType":"address","name":"","type":"address"}],"name":"agentTokens","outputs":[{"internalType":"uint256","name":"","type":"uint256"}],"stateMutability":"view","type":"function"},{"inputs":[{"internalType":"address","name":"to","type":"address"},{"internalType":"uint256","name":"tokenId","type":"uint256"}],"name":"approve","outputs":[],"stateMutability":"nonpayable","type":"function"},{"inputs":[{"internalType":"address","name":"owner","type":"address"}],"name":"balanceOf","outputs":[{"internalType":"uint256","name":"","type":"uint256"}],"stateMutability":"view","type":"function"},{"inputs":[{"internalType":"uint256","name":"tokenId","type":"uint256"}],"name":"decayReputation","outputs":[],"stateMutability":"nonpayable","type":"function"},{"inputs":[{"internalType":"uint256","name":"tokenId","type":"uint256"},{"internalType":"bytes32","name":"taskHash","type":"bytes32"},{"internalType":"string","name":"metadata","type":"string"}],"name":"delegateExecution","outputs":[],"stateMutability":"nonpayable","type":"function"},{"inputs":[{"internalType":"address","name":"agent","type":"address"}],"name":"emergencyRevoke","outputs":[],"stateMutability":"nonpayable","type":"function"},{"inputs":[{"internalType":"uint256","name":"tokenId","type":"uint256"}],"name":"getAgentProfile","outputs":[{"components":[{"internalType":"string","name":"purpose","type":"string"},{"internalType":"string[]","name":"permissions","type":"string[]"},{"internalType":"uint256","name":"scope","type":"uint256"},{"internalType":"uint256","name":"budget","type":"uint256"},{"internalType":"uint256","name":"lifecycleStart","type":"uint256"},{"internalType":"uint256","name":"lifecycleEnd","type":"uint256"},{"internalType":"bool","name":"active","type":"bool"},{"internalType":"address","name":"assignedAgent","type":"address"}],"internalType":"struct SINCAgentToken.AgentProfile","name":"","type":"tuple"}],"stateMutability":"view","type":"function"},{"inputs":[{"internalType":"address","name":"agent","type":"address"}],"name":"getAgentToken","outputs":[{"internalType":"uint256","name":"","type":"uint256"}],"stateMutability":"view","type":"function"},{"inputs":[{"internalType":"uint256","name":"tokenId","type":"uint256"}],"name":"getApproved","outputs":[{"internalType":"address","name":"","type":"address"}],"stateMutability":"view","type":"function"},{"inputs":[{"internalType":"address","name":"agent","type":"address"}],"name":"isAgentActive","outputs":[{"internalType":"bool","name":"","type":"bool"}],"stateMutability":"view","type":"function"},{"inputs":[{"internalType":"address","name":"owner","type":"address"},{"internalType":"address","name":"operator","type":"address"}],"name":"isApprovedForAll","outputs":[{"internalType":"bool","name":"","type":"bool"}],"stateMutability":"view","type":"function"},{"inputs":[{"internalType":"address","name":"agent","type":"address"},{"internalType":"string","name":"purpose","type":"string"},{"internalType":"string[]","name":"permissions","type":"string[]"},{"internalType":"uint256","name":"scope","type":"uint256"},{"internalType":"uint256","name":"budget","type":"uint256"},{"internalType":"uint256","name":"lifecycleDuration","type":"uint256"}],"name":"mintAgent","outputs":[{"internalType":"uint256","name":"","type":"uint256"}],"stateMutability":"nonpayable","type":"function"},{"inputs":[{"internalType":"address[]","name":"agents","type":"address[]"},{"internalType":"string[]","name":"purposes","type":"string[]"},{"internalType":"string[][]","name":"permissionsList","type":"string[][]"},{"internalType":"uint256[]","name":"scopes","type":"uint256[]"},{"internalType":"uint256[]","name":"budgets","type":"uint256[]"},{"internalType":"uint256[]","name":"lifecycleDurations","type":"uint256[]"}],"name":"mintAgentBatch","outputs":[{"internalType":"uint256[]","name":"","type":"uint256[]"}],"stateMutability":"nonpayable","type":"function"},{"inputs":[],"name":"name","outputs":[{"internalType":"string","name":"","type":"string"}],"stateMutability":"view","type":"function"},{"inputs":[],"name":"owner","outputs":[{"internalType":"address","name":"","type":"address"}],"stateMutability":"view","type":"function"},{"inputs":[{"internalType":"uint256","name":"tokenId","type":"uint256"}],"name":"ownerOf","outputs":[{"internalType":"address","name":"","type":"address"}],"stateMutability":"view","type":"function"},{"inputs":[],"name":"pause","outputs":[],"stateMutability":"nonpayable","type":"function"},{"inputs":[],"name":"paused","outputs":[{"internalType":"bool","name":"","type":"bool"}],"stateMutability":"view","type":"function"},{"inputs":[{"internalType":"address","name":"agent","type":"address"},{"internalType":"string","name":"newPurpose","type":"string"},{"internalType":"string[]","name":"newPermissions","type":"string[]"},{"internalType":"uint256","name":"newScope","type":"uint256"},{"internalType":"uint256","name":"newBudget","type":"uint256"},{"internalType":"uint256","name":"newLifecycleDuration","type":"uint256"}],"name":"reassignAgent","outputs":[{"internalType":"uint256","name":"","type":"uint256"}],"stateMutability":"nonpayable","type":"function"},{"inputs":[],"name":"renounceOwnership","outputs":[],"stateMutability":"nonpayable","type":"function"},{"inputs":[{"internalType":"address","name":"from","type":"address"},{"internalType":"address","name":"to","type":"address"},{"internalType":"uint256","name":"tokenId","type":"uint256"}],"name":"safeTransferFrom","outputs":[],"stateMutability":"nonpayable","type":"function"},{"inputs":[{"internalType":"address","name":"from","type":"address"},{"internalType":"address","name":"to","type":"address"},{"internalType":"uint256","name":"tokenId","type":"uint256"},{"internalType":"bytes","name":"data","type":"bytes"}],"name":"safeTransferFrom","outputs":[],"stateMutability":"nonpayable","type":"function"},{"inputs":[{"internalType":"address","name":"operator","type":"address"},{"internalType":"bool","name":"approved","type":"bool"}],"name":"setApprovalForAll","outputs":[],"stateMutability":"nonpayable","type":"function"},{"inputs":[{"internalType":"bytes4","name":"interfaceId","type":"bytes4"}],"name":"supportsInterface","outputs":[{"internalType":"bool","name":"","type":"bool"}],"stateMutability":"view","type":"function"},{"inputs":[],"name":"symbol","outputs":[{"internalType":"string","name":"","type":"string"}],"stateMutability":"view","type":"function"},{"inputs":[{"internalType":"uint256","name":"tokenId","type":"uint256"}],"name":"terminateAgent","outputs":[],"stateMutability":"nonpayable","type":"function"},{"inputs":[{"internalType":"uint256","name":"tokenId","type":"uint256"}],"name":"tokenURI","outputs":[{"internalType":"string","name":"","type":"string"}],"stateMutability":"view","type":"function"},{"inputs":[{"internalType":"address","name":"from","type":"address"},{"internalType":"address","name":"to","type":"address"},{"internalType":"uint256","name":"tokenId","type":"uint256"}],"name":"transferFrom","outputs":[],"stateMutability":"nonpayable","type":"function"},{"inputs":[{"internalType":"address","name":"newOwner","type":"address"}],"name":"transferOwnership","outputs":[],"stateMutability":"nonpayable","type":"function"},{"inputs":[],"name":"unpause","outputs":[],"stateMutability":"nonpayable","type":"function"},{"inputs":[{"internalType":"uint256","name":"tokenId","type":"uint256"},{"internalType":"uint256","name":"newScore","type":"uint256"}],"name":"updateReputation","outputs":[],"stateMutability":"nonpayable","type":"function"},{"inputs":[{"internalType":"address","name":"agent","type":"address"},{"internalType":"string","name":"requiredPermission","type":"string"}],"name":"validateAgent","outputs":[{"internalType":"bool","name":"","type":"bool"}],"stateMutability":"view","type":"function"}],"evm":{"bytecode":{"linkReferences":{},"object":"608034620003a7576001600160401b039060408181018381118382101762000391578152601082526020926f29a4a7219020b3b2b73a102a37b5b2b760811b8484015281519082820182811082821117620003915783526004918281526314d051d560e21b868201528451908282116200037c576000968754926001978885811c9516801562000371575b838610146200035e578190601f958681116200030b575b508390868311600114620002a7578b926200029b575b5050600019600383901b1c191690881b1788555b8151938411620002885786548781811c911680156200027d575b828210146200026a57908184869594931162000213575b5080928411600114620001ab575087926200019f575b5050600019600383901b1c191690841b1783555b33156200018a575060068054336001600160a01b03198216811790925591519390916001600160a01b0316907f8be0079c531659141344cd1fd0a4f28419497f9722a3daafe3b4186f6b6457e09080a380600755600c556133149081620003ad8239f35b836024925191631e4fbdf760e01b8352820152fd5b01519050388062000112565b9190879450601f198416858a52838a20938a905b828210620001f95750508411620001df575b505050811b01835562000126565b015160001960f88460031b161c19169055388080620001d1565b8484015186558a97909501949384019390810190620001bf565b90919293508789528189208480870160051c82019284881062000260575b9187968b92969594930160051c01915b82811062000251575050620000fc565b8b81558796508a910162000241565b9250819262000231565b634e487b7160e01b895260228652602489fd5b90607f1690620000e5565b634e487b7160e01b885260418552602488fd5b015190503880620000b7565b8b8052848c208b94509190601f1984168d5b87828210620002f45750508411620002da575b505050811b018855620000cb565b015160001960f88460031b161c19169055388080620002cc565b8385015186558e97909501949384019301620002b9565b9091508a8052838b208680850160051c82019286861062000354575b918c91869594930160051c01915b82811062000345575050620000a1565b8d81558594508c910162000335565b9250819262000327565b634e487b7160e01b8a526022875260248afd5b94607f16946200008a565b604184634e487b7160e01b6000525260246000fd5b634e487b7160e01b600052604160045260246000fd5b600080fdfe6080604052600436101561001257600080fd5b60003560e01c806301ffc9a71461023257806302bb3f021461022d5780630374e1fb146101b05780630675f7631461022857806306fdde0314610223578063081812fc1461021e578063095ea7b3146102195780630e7c52cd146102145780631ae024a41461020f5780631f141b231461020a57806323b872dd14610205578063383aaaf5146102005780633f4ba83a146101fb57806342842e0e146101f6578063554c4f4b146101f157806358084024146101ec5780635c975abb146101e75780636352211e146101e257806370a08231146101dd578063715018a6146101d85780638456cb59146101d35780638da5cb5b146101ce57806395d89b41146101c9578063a22cb465146101c4578063b88d4fde146101bf578063c87b56dd146101ba578063cb1d2723146101b5578063cd409ffe146101b0578063d3b71c5b146101ab578063debfc4ef146101a6578063e985e9c5146101a1578063f098a7ae1461019c578063f2fde38b146101975763f91bd0501461019257600080fd5b611a61565b611964565b6118c7565b611784565b611758565b611731565b61042c565b61164c565b6112e5565b61127e565b6111bd565b611118565b6110ef565b611095565b611037565b610fda565b610faa565b610f87565b610eb0565b610e89565b610e61565b610df7565b610cf6565b610cdf565b610bbb565b610969565b6108d4565b6106f5565b6106b7565b6105d4565b610469565b6103da565b61024e565b6001600160e01b031981160361024957565b600080fd5b3461024957602036600319011261024957602060043561026d81610237565b63ffffffff60e01b166380ac58cd60e01b81149081156102ab575b811561029a575b506040519015158152f35b6301ffc9a760e01b1490503861028f565b635b5e139f60e01b81149150610288565b6001600160a01b0381160361024957565b634e487b7160e01b600052604160045260246000fd5b61010081019081106001600160401b038211176102ff57604052565b6102cd565b602081019081106001600160401b038211176102ff57604052565b604081019081106001600160401b038211176102ff57604052565b90601f801991011681019081106001600160401b038211176102ff57604052565b60405190610368826102e3565b565b6001600160401b0381116102ff57601f01601f191660200190565b9291926103918261036a565b9161039f604051938461033a565b829481845281830111610249578281602093846000960137010152565b9080601f83011215610249578160206103d793359101610385565b90565b34610249576040366003190112610249576004356103f7816102bc565b6024356001600160401b0381116102495760209161041c6104229236906004016103bc565b90612c33565b6040519015158152f35b3461024957602036600319011261024957600435610449816102bc565b60018060a01b0316600052600a6020526020604060002054604051908152f35b3461024957604036600319011261024957600435602435610488611b28565b610490612765565b610498612783565b8160005260096020526104b560ff6006604060002001541661312f565b6103e8811161053e5781807ea4f8488cd701f9a77136eb5c91d5e2edef3c38001ca7148525acf8a262648161051c8461052f9561050b6000805160206132bf83398151915298600052600b602052604060002090565b556040519081529081906020820190565b0390a26040519081529081906020820190565b0390a161053c6001600755565b005b60405162461bcd60e51b815260206004820152601560248201527453636f72652065786365656473206d6178696d756d60581b6044820152606490fd5b60005b83811061058e5750506000910152565b818101518382015260200161057e565b906020916105b78151809281855285808601910161057b565b601f01601f1916010190565b9060206103d792818152019061059e565b34610249576000806003193601126106b457604051908080546105f6816107f6565b8085529160019180831690811561068a5750600114610630575b61062c856106208187038261033a565b604051918291826105c3565b0390f35b80809450527f290decd9548b62a8d60345a988386fc84ba6bc95484008f6362f93160ef3e5635b8284106106725750505081016020016106208261062c610610565b80546020858701810191909152909301928101610657565b86955061062c9693506020925061062094915060ff191682840152151560051b8201019293610610565b80fd5b34610249576020366003190112610249576004356106d481611d82565b506000526004602052602060018060a01b0360406000205416604051908152f35b3461024957604036600319011261024957600435610712816102bc565b6024359061071f82611d82565b331515806107e3575b806107b5575b61079d5761053c9261077e9181906001600160a01b0385811691167f8c5be1e5ebec7d5bd14f71427d1e84f3dd0314c0f7b2291e5b200ac8c7c3b925600080a46000526004602052604060002090565b80546001600160a01b0319166001600160a01b03909216919091179055565b60405163a9fbf51f60e01b8152336004820152602490fd5b506001600160a01b038116600090815260056020908152604080832033845290915290205460ff161561072e565b506001600160a01b038116331415610728565b90600182811c92168015610826575b602083101461081057565b634e487b7160e01b600052602260045260246000fd5b91607f1691610805565b9060405191826000825492610844846107f6565b9081845260019485811690816000146108b1575060011461086e575b50506103689250038361033a565b9093915060005260209081600020936000915b81831061089957505061036893508201013880610860565b85548884018501529485019487945091830191610881565b91505061036894506020925060ff191682840152151560051b8201013880610860565b34610249576020366003190112610249576004356000526009602052610932604060002061090181610830565b906002810154906003810154906004810154600660058301549201549260405196879660e0885260e088019061059e565b602087019590955260408601526060850152608084015260ff8116151560a084015260081c6001600160a01b031660c08301520390f35b3461024957602036600319011261024957600435610985612765565b61098d612783565b6000805160206132bf8339815191526109a582611d82565b6001600160a01b0392906109bc9084163014612a7d565b60066109d2826000526009602052604060002090565b0192610a0484546109e560ff8216612abb565b60065483906001600160a01b03163314918215610ab6575b5050612b07565b835460ff198116855560081c6001600160a01b03166000908152600a602052604081209094610a4991869055610a3984612b42565b5460081c6001600160a01b031690565b16610aa6604051928392817fa806fb6440873ea44e7260319bf79fcfe758e61cce44f590a691b589a2b38a7a8880a3807fcdeb43784f6b74e8fa65e24d8c67aae46d0428144381a27ae1608c2fab53af508780a282526020820190565b0390a1610ab36001600755565b80f35b90915060081c16331482386109fd565b6001600160401b0381116102ff5760051b60200190565b92919092610aea84610ac6565b91610af8604051938461033a565b829480845260208094019060051b8301928284116102495780915b848310610b2257505050505050565b82356001600160401b038111610249578691610b4186849386016103bc565b815201920191610b13565b60c060031982011261024957600435610b64816102bc565b916001600160401b036024358181116102495783610b84916004016103bc565b92604435918211610249578060238301121561024957816024610bac93600401359101610add565b90606435906084359060a43590565b34610249577ff3778495c09fea57facd4869e893696a945aee645211006b9d7982a1ed5bb8c5610c3261062c610bf036610b4c565b91610bfd97939497611b28565b610c05612765565b610c0d612783565b60018060a01b03861694600098868a52600a60205260408a20549788610c4a5761215a565b809260405196868897a4600160075582526020820190565b888b526009602052600660408c200160ff1981541690558a610c7e8260018060a01b0316600052600a602052604060002090565b55610c8889612b42565b87897fa806fb6440873ea44e7260319bf79fcfe758e61cce44f590a691b589a2b38a7a8d80a361215a565b606090600319011261024957600435610ccb816102bc565b90602435610cd8816102bc565b9060443590565b346102495761053c610cf036610cb3565b91611b54565b34610249576060366003190112610249576044356001600160401b03600435818311610249573660238401121561024957826004013591821161024957366024838501011161024957610d47612765565b7fbe26f4f61219280653f16dba7ff7fabfcd5bcea269bf1cec070edb907731e88260009382855260096020526040610d8760ff600683892001541661312f565b600654610da990336001600160a01b0391821614908115610dda575b50612b07565b846024825193602085528260208601520182840137858186840101528160243595601f80199101168101030190a380f35b905085885260096020526006838920015460081c16331438610da3565b3461024957600036600319011261024957610e10611b28565b60085460ff811615610e4f5760ff19166008557f5db9ee0a495bf2e6ff9c91a7834c1ba4fdd244a5e8aa4e537bd38aeae4b073aa6020604051338152a1005b604051638dfc202b60e01b8152600490fd5b346102495761053c610e7236610cb3565b9060405192610e8084610304565b60008452611c59565b34610249576020366003190112610249576020610422600435610eab816102bc565b612e34565b3461024957602036600319011261024957600435610ecd816102bc565b610ed5611b28565b6001600160a01b0381166000818152600a60205260408120549092909190839083610efe575080f35b838252600960209081526040808420600601805460ff191690556001600160a01b039092166000908152600a9091522055610f3882612b42565b817fa806fb6440873ea44e7260319bf79fcfe758e61cce44f590a691b589a2b38a7a8480a37fcdeb43784f6b74e8fa65e24d8c67aae46d0428144381a27ae1608c2fab53af508280a238808280f35b3461024957600036600319011261024957602060ff600854166040519015158152f35b34610249576020366003190112610249576020610fc8600435611d82565b6040516001600160a01b039091168152f35b3461024957602036600319011261024957600435610ff7816102bc565b6001600160a01b0316801561101e5760005260036020526020604060002054604051908152f35b6040516322718ad960e21b815260006004820152602490fd5b34610249576000806003193601126106b457611051611b28565b600680546001600160a01b0319811690915581906001600160a01b03167f8be0079c531659141344cd1fd0a4f28419497f9722a3daafe3b4186f6b6457e08280a380f35b34610249576000366003190112610249576110ae611b28565b6110b6612765565b600160ff1960085416176008557f62e78cea01bee320cd4e420270b5ea74000d11b0c9f74754ebdbfc544b05a2586020604051338152a1005b34610249576000366003190112610249576006546040516001600160a01b039091168152602090f35b34610249576000806003193601126106b4576040519080600180549161113d836107f6565b8086529282811690811561068a57506001146111635761062c856106208187038261033a565b92508083527fb10e2d527612073b26eecdfd717e6a320cf44b4afac2b0732d9fcbe2b7fa0cf65b8284106111a55750505081016020016106208261062c610610565b8054602085870181019190915290930192810161118a565b34610249576040366003190112610249576004356111da816102bc565b60243580151590818103610249576001600160a01b03831692831561126557906112266112379233600052600560205260406000209060018060a01b0316600052602052604060002090565b9060ff801983541691151516179055565b6040519081527f17307eab39ab6107e8899845ad3d59bd9653f200f220920489ca2b5937696c3160203392a3005b604051630b61174360e31b815260048101859052602490fd5b346102495760803660031901126102495760043561129b816102bc565b6024356112a7816102bc565b606435916001600160401b0383116102495736602384011215610249576112db61053c933690602481600401359101610385565b9160443591611c59565b3461024957602036600319011261024957600435600081815260026020526040902054611320906001600160a01b039081165b161515612d24565b61134561133f61133a836000526009602052604060002090565b612dbc565b91612f18565b8151916113556040820151612f18565b906113636060820151612f18565b60c08201511561163c5760e0611377612ea4565b925b015161138d906001600160a01b0316613096565b6040517f7b226e616d65223a202253494e43204167656e7420546f6b656e2023000000006020820152958695919491603c87016113c991612c1c565b61088b60f21b81526002017f226465736372697074696f6e223a202253494e43204167656e74204f6e746f6c81527f6f677920546f6b656e202d204e6f6e2d7472616e7366657261626c652061636360208201526f195cdcc818dc9959195b9d1a585b088b60821b60408201526050016e2261747472696275746573223a205b60881b8152600f017f7b2274726169745f74797065223a2022507572706f7365222c202276616c7565815263111d101160e11b602082015260240161148d91612c1c565b62089f4b60ea1b81526003017f7b2274726169745f74797065223a202253636f7065222c202276616c7565223a815261101160f11b60208201526022016114d391612c1c565b62089f4b60ea1b81526003017f7b2274726169745f74797065223a2022427564676574222c202276616c7565228152621d101160e91b602082015260230161151a91612c1c565b62089f4b60ea1b81526003017f7b2274726169745f74797065223a2022416374697665222c202276616c7565228152621d101160e91b602082015260230161156191612c1c565b62089f4b60ea1b81526003017f7b2274726169745f74797065223a202241737369676e6564204167656e74222c81526a10113b30b63ab2911d101160a91b6020820152602b016115b091612c1c565b61227d60f01b8152600201615d7d60f01b81526002010390601f199182810182526115db908261033a565b6115e4906131dd565b6040517f646174613a6170706c69636174696f6e2f6a736f6e3b6261736536342c000000602082015291908290603d820161161e91612c1c565b03908101825261162e908261033a565b60405161062c8192826105c3565b60e0611646612e83565b92611379565b3461024957602036600319011261024957600435611668611b28565b611670612765565b600090808252600b602052604082205480611689578280f35b6005811115611717576004198101908111611712576000805160206132bf83398151915291611709915b818552600b6020526040852055807ea4f8488cd701f9a77136eb5c91d5e2edef3c38001ca7148525acf8a262648161051c6116f883600052600b602052604060002090565b546040519081529081906020820190565b0390a138808280f35b61231b565b506117096000805160206132bf83398151915291836116b3565b3461024957602061175061174436610b4c565b9493909392919261215a565b604051908152f35b3461024957602036600319011261024957600435600052600b6020526020604060002054604051908152f35b3461024957604036600319011261024957602060ff6117e06004356117a8816102bc565b602435906117b5826102bc565b60018060a01b03166000526005845260406000209060018060a01b0316600052602052604060002090565b54166040519015158152f35b60209182825280519061180c61010092838686015261012085019061059e565b938082015194601f19918286830301604087015286519182815281810182808560051b8401019901946000925b85841061189957505050505050509060e08260406103d795940151606085015260608101516080850152608081015160a085015260a081015160c085015261188960c08201518386019015159052565b01516001600160a01b0316910152565b9091929394959985806118b6838e8787600197030189525161059e565b9c0194019401929594939190611839565b346102495760203660031901126102495761062c61195861133a60043561194860e06040516118f5816102e3565b606081526060602082015260009181836040819401528260608201528260808201528260a08201528260c082015201528281526002602052611318604060018060a01b03922060018060a01b0390541690565b6000526009602052604060002090565b604051918291826117ec565b3461024957602036600319011261024957600435611981816102bc565b611989611b28565b6001600160a01b039081169081156119dd57600654826bffffffffffffffffffffffff60a01b821617600655167f8be0079c531659141344cd1fd0a4f28419497f9722a3daafe3b4186f6b6457e0600080a3005b604051631e4fbdf760e01b815260006004820152602490fd5b9181601f84011215610249578235916001600160401b038311610249576020808501948460051b01011161024957565b6020908160408183019282815285518094520193019160005b828110611a4d575050505090565b835185529381019392810192600101611a3f565b346102495760c0366003190112610249576001600160401b036004803582811161024957611a9290369083016119f6565b9060243584811161024957611aaa90369085016119f6565b9060443586811161024957611ac290369087016119f6565b9060643588811161024957611ada90369089016119f6565b9290916084358a811161024957611af49036908b016119f6565b96909560a4359b8c1161024957611b14611b1c9b61062c9d3691016119f6565b9a90996127a6565b60405191829182611a26565b6006546001600160a01b03163303611b3c57565b60405163118cdaa760e01b8152336004820152602490fd5b91906001600160a01b039081811615611c2d578260005260026020528160406000205416151580611c25575b611bc557611b918291843391611fbd565b9316921690828203611ba257505050565b60649350604051926364283d7b60e01b8452600484015260248301526044820152fd5b60405162461bcd60e51b815260206004820152603260248201527f53494e43204167656e7420546f6b656e7320617265206e6f6e2d7472616e7366604482015271657261626c652028536f756c626f756e642960701b6064820152608490fd5b506001611b80565b604051633250574960e11b815260006004820152602490fd5b60405190611c5382610304565b60008252565b91929092611c68818585611b54565b833b611c75575b50505050565b611c9a916020916040519384928392630a85bd0160e11b978885523360048601611dd2565b038160006001600160a01b0388165af160009181611d2e575b50611cf25782611cc1611e03565b8051919082611ceb57604051633250574960e11b81526001600160a01b0383166004820152602490fd5b6020915001fd5b6001600160e01b03191603611d0b575038808080611c6f565b604051633250574960e11b81526001600160a01b03919091166004820152602490fd5b611d5091925060203d8111611d57575b611d48818361033a565b810190611dbd565b9038611cb3565b503d611d3e565b611d72906000526004602052604060002090565b80546001600160a01b0319169055565b6000818152600260205260409020546001600160a01b0316908115611da5575090565b60249060405190637e27328960e01b82526004820152fd5b9081602091031261024957516103d781610237565b6001600160a01b0391821681529116602082015260408101919091526080606082018190526103d79291019061059e565b3d15611e2e573d90611e148261036a565b91611e22604051938461033a565b82523d6000602084013e565b606090565b6000828152600260205260409020546001600160a01b03908116929190611e779084611ec4575b82169182611ea0575b61077e846000526002602052604060002090565b827fddf252ad1be2c89b69c2b068fc378daa952ba7f163c4a11628f55a4df523b3ef600080a490565b6001600160a01b038116600090815260036020526040902060018154019055611e63565b611ed8846000526004602052604060002090565b80546001600160a01b03191690556001600160a01b03851660009081526003602052604090208054600019019055611e5a565b6000818152600260205260409020546001600160a01b03169081611f76575b611f3e816000526002602052604060002090565b80546001600160a01b03191690556000827fddf252ad1be2c89b69c2b068fc378daa952ba7f163c4a11628f55a4df523b3ef8280a490565b611f8a816000526004602052604060002090565b80546001600160a01b03191690556001600160a01b03821660009081526003602052604090208054600019019055611f2a565b6000828152600260205260408120546001600160a01b039081169485929190818116801515908161208c575b505050906120357fddf252ad1be2c89b69c2b068fc378daa952ba7f163c4a11628f55a4df523b3ef928461205e575b8516948561203a575b61077e876000526002602052604060002090565b80a490565b6001600160a01b038116600090815260036020526040902060018154019055612021565b61206787611d5e565b6001600160a01b03851660009081526003602052604090208054600019019055612018565b90809293949550916120f5575b50156120aa57908180879493611fe9565b8490866120ca57604051637e27328960e01b815260048101839052602490fd5b60405163177e802f60e01b81526001600160a01b039190911660048201526024810191909152604490fd5b87811491508115612127575b811561210f575b5038612099565b90508584526004602052826040852054161438612108565b9050868452600560205260ff61215283604087209060018060a01b0316600052602052604060002090565b541690612101565b6122477f914162c67690fa436b8c7df6421bce3ec89955c4d38a0c956b00ab365a01faec936121eb97956122999497612191611b28565b612199612765565b6121a1612783565b6001600160a01b0385166000908152600a602052604090206121c49054156122c5565b600c54998a986121db6121d68b612331565b600c55565b6121e58a30612706565b4261235c565b916121f461035b565b938a855260208501526040840152606083015242608083015260a082015261221f60c0820160019052565b6001600160a01b03831660e0820152612242866000526009602052604060002090565b612592565b6001600160a01b0381166000908152600a6020526040902084905561228061227985600052600b602052604060002090565b6101f49055565b6040516001600160a01b039091169490918291826105c3565b0390a36040518181526000805160206132bf8339815191529080602081015b0390a16103d76001600755565b156122cc57565b60405162461bcd60e51b815260206004820152602160248201527f4167656e7420616c72656164792068617320616e2061637469766520746f6b656044820152603760f91b6064820152608490fd5b634e487b7160e01b600052601160045260246000fd5b60001981146117125760010190565b906002820180921161171257565b906020820180921161171257565b9190820180921161171257565b818110612374575050565b60008155600101612369565b9190601f811161238f57505050565b610368926000526020600020906020601f840160051c830193106123bb575b601f0160051c0190612369565b90915081906123ae565b91909182516001600160401b0381116102ff576123ec816123e684546107f6565b84612380565b602080601f831160011461242857508192939460009261241d575b50508160011b916000199060031b1c1916179055565b015190503880612407565b90601f1983169561243e85600052602060002090565b926000905b88821061247b57505083600195969710612462575b505050811b019055565b015160001960f88460031b161c19169055388080612458565b80600185968294968601518155019501930190612443565b600281901b91906001600160fe1b0381160361171257565b8151916801000000000000000083116102ff57815483835580841061250e575b506124e0602080920192600052602060002090565b6000925b8484106124f2575050505050565b60018382612502839451866123c5565b019201930192906124e4565b6000838152846020822092830192015b82811061252c5750506124cb565b80612539600192546107f6565b80612546575b500161251e565b601f90818111841461255e5750508281555b3861253f565b836125809261257285600052602060002090565b920160051c82019101612369565b60008181526020812081835555612558565b919080519283516001600160401b0381116102ff576125b5816123e684546107f6565b6020948590601f8311600114612689579261260261036896978460e09560069561265c9860009261267e575b50508160011b916000199060031b1c19161783555b860151600183016124ab565b60408501516002820155606085015160038201556080850151600482015560a08501516005820155019261264e61263c60c0830151151590565b859060ff801983541691151516179055565b01516001600160a01b031690565b8154610100600160a81b03191660089190911b610100600160a81b0316179055565b0151905038806125e1565b90601f1983169161269f85600052602060002090565b9260005b8181106126ef57509760018560069561265c98956126029560e0996103689d9e106126d6575b505050811b0183556125f6565b015160001960f88460031b161c191690553880806126c9565b9293896001819287860151815501950193016126a3565b6001600160a01b039181831615611c2d57806000526002602052826040600020541615158061275d575b611bc55761273d91611e33565b1661274457565b6040516339e3563760e11b815260006004820152602490fd5b506001612730565b60ff6008541661277157565b60405163d93c066560e01b8152600490fd5b600260075414612794576002600755565b604051633ee5aeb560e01b8152600490fd5b989496939199909b9a9592976127ba611b28565b6127c2612765565b6127ca612783565b8c89811480612920575b80612917575b888161290d575b6127f69282612903575b9c9d92919050612929565b6127ff8b61296e565b9b600c549b6000905b8110612862575050505050505050505050507f6bd5c950a8d8df17f772f5af37cb3655737899cbf903264b9795592da439661c9192935061284a600c54612a6e565b604080519283526020830191909152819081016122b8565b908f91808f8e8e8e8e8e8e8e8e898f8f8f8f84928361288481809581956129b6565b61288d906129cb565b9e612897926129d5565b9c6128a3929198612a16565b986128af9291986129b6565b35976128ba926129b6565b35966128c5926129b6565b359536906128d292610385565b9136906128de92610add565b906128e89561215a565b916128f291612a5a565b526128fc90612331565b9091612808565b149050888f6127eb565b88831491506127e1565b508581146127da565b508881146127d4565b1561293057565b60405162461bcd60e51b8152602060048201526016602482015275082e4e4c2f240d8cadccee8d0e640dad2e6dac2e8c6d60531b6044820152606490fd5b9061297882610ac6565b612985604051918261033a565b8281528092612996601f1991610ac6565b0190602036910137565b634e487b7160e01b600052603260045260246000fd5b91908110156129c65760051b0190565b6129a0565b356103d7816102bc565b91908110156129c65760051b81013590601e19813603018212156102495701908135916001600160401b038311610249576020018236038113610249579190565b91908110156129c65760051b81013590601e19813603018212156102495701908135916001600160401b038311610249576020018260051b36038113610249579190565b80518210156129c65760209160051b010190565b60001981019190821161171257565b15612a8457565b60405162461bcd60e51b815260206004820152600f60248201526e151bdad95b881b9bdd08199bdd5b99608a1b6044820152606490fd5b15612ac257565b60405162461bcd60e51b815260206004820152601860248201527f4167656e7420616c7265616479207465726d696e6174656400000000000000006044820152606490fd5b15612b0e57565b60405162461bcd60e51b815260206004820152600c60248201526b155b985d5d1a1bdc9a5e995960a21b6044820152606490fd5b6000818152600260205260409020546001600160a01b03908116151580612b7a575b611bc557612b7182611f0b565b1615611da55750565b506000612b64565b80548210156129c65760005260206000200190600090565b600092918154612ba9816107f6565b92600191808316908115612c015750600114612bc55750505050565b90919293945060005260209081600020906000915b858310612bf05750505050019038808080611c6f565b805485840152918301918101612bda565b60ff1916845250505081151590910201915038808080611c6f565b90612c2f6020928281519485920161057b565b0190565b6001600160a01b03166000908152600a60205260409020548015612d1d57612c65906000526009602052604060002090565b612c7a612c76600683015460ff1690565b1590565b612d1d5760058101544211612d1d5760009160018092018054935b848110612ca6575050505050600090565b612cb08183612b82565b50604090815190612cff60209183612ccb8482018093612b9a565b0393612cdf601f199586810183528261033a565b51902093519182019282612cf3858a612c1c565b0390810183528261033a565b51902014612d1557612d1090612331565b612c95565b505050905090565b5050600090565b15612d2b57565b60405162461bcd60e51b8152602060048201526014602482015273151bdad95b88191bd95cc81b9bdd08195e1a5cdd60621b6044820152606490fd5b908154612d7381610ac6565b92612d81604051948561033a565b818452600090815260208082208186015b848410612da0575050505050565b6001838192612dae85610830565b815201920193019290612d92565b90610368604051612dcc816102e3565b60e060068295612ddb81610830565b8452612de960018201612d67565b6020850152600281015460408501526003810154606085015260048101546080850152600581015460a0850152015460ff8116151560c084015260081c6001600160a01b0316910152565b6001600160a01b03166000908152600a60205260409020548015612e7d576000526009602052604060002060ff6006820154169081612e71575090565b60059150015442111590565b50600090565b60405190612e908261031f565b600582526466616c736560d81b6020830152565b60405190612eb18261031f565b60048252637472756560e01b6020830152565b60405190606082018281106001600160401b038211176102ff57604052602a8252604082602036910137565b90612efa8261036a565b612f07604051918261033a565b8281528092612996601f199161036a565b806000917a184f03e93ff9f4daa797ed6e38ed64bf6a1f0100000000000000008082101561304d575b506d04ee2d6d415b85acef81000000008083101561303e575b50662386f26fc100008083101561302f575b506305f5e10080831015613020575b5061271080831015613011575b506064821015613001575b600a80921015612ff7575b600190816021612faf828701612ef0565b95860101905b612fc1575b5050505090565b600019019083906f181899199a1a9b1b9c1cb0b131b232b360811b8282061a835304918215612ff257919082612fb5565b612fba565b9160010191612f9e565b9190606460029104910191612f93565b60049193920491019138612f88565b60089193920491019138612f7b565b60109193920491019138612f6c565b60209193920491019138612f5a565b604093508104915038612f41565b8051156129c65760200190565b8051600110156129c65760210190565b9081518110156129c6570160200190565b8015611712576000190190565b8061309f612ec4565b9160306130ab8461305b565b5360786130b784613068565b5360295b600181116130ed57506130cc575090565b60405163e22e27eb60e01b8152600481019190915260146024820152604490fd5b90600f81169060108210156129c65761312a916f181899199a1a9b1b9c1cb0b131b232b360811b901a6131208487613078565b5360041c91613089565b6130bb565b1561313657565b60405162461bcd60e51b815260206004820152601060248201526f4167656e74206e6f742061637469766560801b6044820152606490fd5b60405190606082018281106001600160401b038211176102ff57604052604082527f6768696a6b6c6d6e6f707172737475767778797a303132333435363738392b2f6040837f4142434445464748494a4b4c4d4e4f505152535455565758595a61626364656660208201520152565b8051156132b5576131ec61316e565b6132086132036131fc8451612340565b6003900490565b612493565b9161321a6132158461234e565b612ef0565b928352602081016020825183010160208501935b81831061326e5750505060039051068060011461325b57600214613250575090565b603d90600019015390565b50603d9081600019820153600119015390565b90919360048551603f90818160121c1685015184538181600c1c168501516001850153818160061c168501516002850153168301519160039283820153019401919061322e565b506103d7611c4656fef8e1a15aba9398e019f0b49df1a4fde98ee17ae345cb5f6b5e2c27f5033e8ce7a2646970667358221220e06d039dad196226a3750dd68fb3d64ae5bd063eea975119f72dfcc7d28b713d64736f6c63430008140033","opcodes":"PUSH1 0x80 CALLVALUE PUSH3 0x3A7 JUMPI PUSH1 0x1 PUSH1 0x1 PUSH1 0x40 SHL SUB SWAP1 PUSH1 0x40 DUP2 DUP2 ADD DUP4 DUP2 GT DUP4 DUP3 LT OR PUSH3 0x391 JUMPI DUP2 MSTORE PUSH1 0x10 DUP3 MSTORE PUSH1 0x20 SWAP3 PUSH16 0x29A4A7219020B3B2B73A102A37B5B2B7 PUSH1 0x81 SHL DUP5 DUP5 ADD MSTORE DUP2 MLOAD SWAP1 DUP3 DUP3 ADD DUP3 DUP2 LT DUP3 DUP3 GT OR PUSH3 0x391 JUMPI DUP4 MSTORE PUSH1 0x4 SWAP2 DUP3 DUP2 MSTORE PUSH4 0x14D051D5 PUSH1 0xE2 SHL DUP7 DUP3 ADD MSTORE DUP5 MLOAD SWAP1 DUP3 DUP3 GT PUSH3 0x37C JUMPI PUSH1 0x0 SWAP7 DUP8 SLOAD SWAP3 PUSH1 0x1 SWAP8 DUP9 DUP6 DUP2 SHR SWAP6 AND DUP1 ISZERO PUSH3 0x371 JUMPI JUMPDEST DUP4 DUP7 LT EQ PUSH3 0x35E JUMPI DUP2 SWAP1 PUSH1 0x1F SWAP6 DUP7 DUP2 GT PUSH3 0x30B JUMPI JUMPDEST POP DUP4 SWAP1 DUP7 DUP4 GT PUSH1 0x1 EQ PUSH3 0x2A7 JUMPI DUP12 SWAP3 PUSH3 0x29B JUMPI JUMPDEST POP POP PUSH1 0x0 NOT PUSH1 0x3 DUP4 SWAP1 SHL SHR NOT AND SWAP1 DUP9 SHL OR DUP9 SSTORE JUMPDEST DUP2 MLOAD SWAP4 DUP5 GT PUSH3 0x288 JUMPI DUP7 SLOAD DUP8 DUP2 DUP2 SHR SWAP2 AND DUP1 ISZERO PUSH3 0x27D JUMPI JUMPDEST DUP3 DUP3 LT EQ PUSH3 0x26A JUMPI SWAP1 DUP2 DUP5 DUP7 SWAP6 SWAP5 SWAP4 GT PUSH3 0x213 JUMPI JUMPDEST POP DUP1 SWAP3 DUP5 GT PUSH1 0x1 EQ PUSH3 0x1AB JUMPI POP DUP8 SWAP3 PUSH3 0x19F JUMPI JUMPDEST POP POP PUSH1 0x0 NOT PUSH1 0x3 DUP4 SWAP1 SHL SHR NOT AND SWAP1 DUP5 SHL OR DUP4 SSTORE JUMPDEST CALLER ISZERO PUSH3 0x18A JUMPI POP PUSH1 0x6 DUP1 SLOAD CALLER PUSH1 0x1 PUSH1 0x1 PUSH1 0xA0 SHL SUB NOT DUP3 AND DUP2 OR SWAP1 SWAP3 SSTORE SWAP2 MLOAD SWAP4 SWAP1 SWAP2 PUSH1 0x1 PUSH1 0x1 PUSH1 0xA0 SHL SUB AND SWAP1 PUSH32 0x8BE0079C531659141344CD1FD0A4F28419497F9722A3DAAFE3B4186F6B6457E0 SWAP1 DUP1 LOG3 DUP1 PUSH1 0x7 SSTORE PUSH1 0xC SSTORE PUSH2 0x3314 SWAP1 DUP2 PUSH3 0x3AD DUP3 CODECOPY RETURN JUMPDEST DUP4 PUSH1 0x24 SWAP3 MLOAD SWAP2 PUSH4 0x1E4FBDF7 PUSH1 0xE0 SHL DUP4 MSTORE DUP3 ADD MSTORE REVERT JUMPDEST ADD MLOAD SWAP1 POP CODESIZE DUP1 PUSH3 0x112 JUMP JUMPDEST SWAP2 SWAP1 DUP8 SWAP5 POP PUSH1 0x1F NOT DUP5 AND DUP6 DUP11 MSTORE DUP4 DUP11 KECCAK256 SWAP4 DUP11 SWAP1 JUMPDEST DUP3 DUP3 LT PUSH3 0x1F9 JUMPI POP POP DUP5 GT PUSH3 0x1DF JUMPI JUMPDEST POP POP POP DUP2 SHL ADD DUP4 SSTORE PUSH3 0x126 JUMP JUMPDEST ADD MLOAD PUSH1 0x0 NOT PUSH1 0xF8 DUP5 PUSH1 0x3 SHL AND SHR NOT AND SWAP1 SSTORE CODESIZE DUP1 DUP1 PUSH3 0x1D1 JUMP JUMPDEST DUP5 DUP5 ADD MLOAD DUP7 SSTORE DUP11 SWAP8 SWAP1 SWAP6 ADD SWAP5 SWAP4 DUP5 ADD SWAP4 SWAP1 DUP2 ADD SWAP1 PUSH3 0x1BF JUMP JUMPDEST SWAP1 SWAP2 SWAP3 SWAP4 POP DUP8 DUP10 MSTORE DUP2 DUP10 KECCAK256 DUP5 DUP1 DUP8 ADD PUSH1 0x5 SHR DUP3 ADD SWAP3 DUP5 DUP9 LT PUSH3 0x260 JUMPI JUMPDEST SWAP2 DUP8 SWAP7 DUP12 SWAP3 SWAP7 SWAP6 SWAP5 SWAP4 ADD PUSH1 0x5 SHR ADD SWAP2 JUMPDEST DUP3 DUP2 LT PUSH3 0x251 JUMPI POP POP PUSH3 0xFC JUMP JUMPDEST DUP12 DUP2 SSTORE DUP8 SWAP7 POP DUP11 SWAP2 ADD PUSH3 0x241 JUMP JUMPDEST SWAP3 POP DUP2 SWAP3 PUSH3 0x231 JUMP JUMPDEST PUSH4 0x4E487B71 PUSH1 0xE0 SHL DUP10 MSTORE PUSH1 0x22 DUP7 MSTORE PUSH1 0x24 DUP10 REVERT JUMPDEST SWAP1 PUSH1 0x7F AND SWAP1 PUSH3 0xE5 JUMP JUMPDEST PUSH4 0x4E487B71 PUSH1 0xE0 SHL DUP9 MSTORE PUSH1 0x41 DUP6 MSTORE PUSH1 0x24 DUP9 REVERT JUMPDEST ADD MLOAD SWAP1 POP CODESIZE DUP1 PUSH3 0xB7 JUMP JUMPDEST DUP12 DUP1 MSTORE DUP5 DUP13 KECCAK256 DUP12 SWAP5 POP SWAP2 SWAP1 PUSH1 0x1F NOT DUP5 AND DUP14 JUMPDEST DUP8 DUP3 DUP3 LT PUSH3 0x2F4 JUMPI POP POP DUP5 GT PUSH3 0x2DA JUMPI JUMPDEST POP POP POP DUP2 SHL ADD DUP9 SSTORE PUSH3 0xCB JUMP JUMPDEST ADD MLOAD PUSH1 0x0 NOT PUSH1 0xF8 DUP5 PUSH1 0x3 SHL AND SHR NOT AND SWAP1 SSTORE CODESIZE DUP1 DUP1 PUSH3 0x2CC JUMP JUMPDEST DUP4 DUP6 ADD MLOAD DUP7 SSTORE DUP15 SWAP8 SWAP1 SWAP6 ADD SWAP5 SWAP4 DUP5 ADD SWAP4 ADD PUSH3 0x2B9 JUMP JUMPDEST SWAP1 SWAP2 POP DUP11 DUP1 MSTORE DUP4 DUP12 KECCAK256 DUP7 DUP1 DUP6 ADD PUSH1 0x5 SHR DUP3 ADD SWAP3 DUP7 DUP7 LT PUSH3 0x354 JUMPI JUMPDEST SWAP2 DUP13 SWAP2 DUP7 SWAP6 SWAP5 SWAP4 ADD PUSH1 0x5 SHR ADD SWAP2 JUMPDEST DUP3 DUP2 LT PUSH3 0x345 JUMPI POP POP PUSH3 0xA1 JUMP JUMPDEST DUP14 DUP2 SSTORE DUP6 SWAP5 POP DUP13 SWAP2 ADD PUSH3 0x335 JUMP JUMPDEST SWAP3 POP DUP2 SWAP3 PUSH3 0x327 JUMP JUMPDEST PUSH4 0x4E487B71 PUSH1 0xE0 SHL DUP11 MSTORE PUSH1 0x22 DUP8 MSTORE PUSH1 0x24 DUP11 REVERT JUMPDEST SWAP5 PUSH1 0x7F AND SWAP5 PUSH3 0x8A JUMP JUMPDEST PUSH1 0x41 DUP5 PUSH4 0x4E487B71 PUSH1 0xE0 SHL PUSH1 0x0 MSTORE MSTORE PUSH1 0x24 PUSH1 0x0 REVERT JUMPDEST PUSH4 0x4E487B71 PUSH1 0xE0 SHL PUSH1 0x0 MSTORE PUSH1 0x41 PUSH1 0x4 MSTORE PUSH1 0x24 PUSH1 0x0 REVERT JUMPDEST PUSH1 0x0 DUP1 REVERT INVALID PUSH1 0x80 PUSH1 0x40 MSTORE PUSH1 0x4 CALLDATASIZE LT ISZERO PUSH2 0x12 JUMPI PUSH1 0x0 DUP1 REVERT JUMPDEST PUSH1 0x0 CALLDATALOAD PUSH1 0xE0 SHR DUP1 PUSH4 0x1FFC9A7 EQ PUSH2 0x232 JUMPI DUP1 PUSH4 0x2BB3F02 EQ PUSH2 0x22D JUMPI DUP1 PUSH4 0x374E1FB EQ PUSH2 0x1B0 JUMPI DUP1 PUSH4 0x675F763 EQ PUSH2 0x228 JUMPI DUP1 PUSH4 0x6FDDE03 EQ PUSH2 0x223 JUMPI DUP1 PUSH4 0x81812FC EQ PUSH2 0x21E JUMPI DUP1 PUSH4 0x95EA7B3 EQ PUSH2 0x219 JUMPI DUP1 PUSH4 0xE7C52CD EQ PUSH2 0x214 JUMPI DUP1 PUSH4 0x1AE024A4 EQ PUSH2 0x20F JUMPI DUP1 PUSH4 0x1F141B23 EQ PUSH2 0x20A JUMPI DUP1 PUSH4 0x23B872DD EQ PUSH2 0x205 JUMPI DUP1 PUSH4 0x383AAAF5 EQ PUSH2 0x200 JUMPI DUP1 PUSH4 0x3F4BA83A EQ PUSH2 0x1FB JUMPI DUP1 PUSH4 0x42842E0E EQ PUSH2 0x1F6 JUMPI DUP1 PUSH4 0x554C4F4B EQ PUSH2 0x1F1 JUMPI DUP1 PUSH4 0x58084024 EQ PUSH2 0x1EC JUMPI DUP1 PUSH4 0x5C975ABB EQ PUSH2 0x1E7 JUMPI DUP1 PUSH4 0x6352211E EQ PUSH2 0x1E2 JUMPI DUP1 PUSH4 0x70A08231 EQ PUSH2 0x1DD JUMPI DUP1 PUSH4 0x715018A6 EQ PUSH2 0x1D8 JUMPI DUP1 PUSH4 0x8456CB59 EQ PUSH2 0x1D3 JUMPI DUP1 PUSH4 0x8DA5CB5B EQ PUSH2 0x1CE JUMPI DUP1 PUSH4 0x95D89B41 EQ PUSH2 0x1C9 JUMPI DUP1 PUSH4 0xA22CB465 EQ PUSH2 0x1C4 JUMPI DUP1 PUSH4 0xB88D4FDE EQ PUSH2 0x1BF JUMPI DUP1 PUSH4 0xC87B56DD EQ PUSH2 0x1BA JUMPI DUP1 PUSH4 0xCB1D2723 EQ PUSH2 0x1B5 JUMPI DUP1 PUSH4 0xCD409FFE EQ PUSH2 0x1B0 JUMPI DUP1 PUSH4 0xD3B71C5B EQ PUSH2 0x1AB JUMPI DUP1 PUSH4 0xDEBFC4EF EQ PUSH2 0x1A6 JUMPI DUP1 PUSH4 0xE985E9C5 EQ PUSH2 0x1A1 JUMPI DUP1 PUSH4 0xF098A7AE EQ PUSH2 0x19C JUMPI DUP1 PUSH4 0xF2FDE38B EQ PUSH2 0x197 JUMPI PUSH4 0xF91BD050 EQ PUSH2 0x192 JUMPI PUSH1 0x0 DUP1 REVERT JUMPDEST PUSH2 0x1A61 JUMP JUMPDEST PUSH2 0x1964 JUMP JUMPDEST PUSH2 0x18C7 JUMP JUMPDEST PUSH2 0x1784 JUMP JUMPDEST PUSH2 0x1758 JUMP JUMPDEST PUSH2 0x1731 JUMP JUMPDEST PUSH2 0x42C JUMP JUMPDEST PUSH2 0x164C JUMP JUMPDEST PUSH2 0x12E5 JUMP JUMPDEST PUSH2 0x127E JUMP JUMPDEST PUSH2 0x11BD JUMP JUMPDEST PUSH2 0x1118 JUMP JUMPDEST PUSH2 0x10EF JUMP JUMPDEST PUSH2 0x1095 JUMP JUMPDEST PUSH2 0x1037 JUMP JUMPDEST PUSH2 0xFDA JUMP JUMPDEST PUSH2 0xFAA JUMP JUMPDEST PUSH2 0xF87 JUMP JUMPDEST PUSH2 0xEB0 JUMP JUMPDEST PUSH2 0xE89 JUMP JUMPDEST PUSH2 0xE61 JUMP JUMPDEST PUSH2 0xDF7 JUMP JUMPDEST PUSH2 0xCF6 JUMP JUMPDEST PUSH2 0xCDF JUMP JUMPDEST PUSH2 0xBBB JUMP JUMPDEST PUSH2 0x969 JUMP JUMPDEST PUSH2 0x8D4 JUMP JUMPDEST PUSH2 0x6F5 JUMP JUMPDEST PUSH2 0x6B7 JUMP JUMPDEST PUSH2 0x5D4 JUMP JUMPDEST PUSH2 0x469 JUMP JUMPDEST PUSH2 0x3DA JUMP JUMPDEST PUSH2 0x24E JUMP JUMPDEST PUSH1 0x1 PUSH1 0x1 PUSH1 0xE0 SHL SUB NOT DUP2 AND SUB PUSH2 0x249 JUMPI JUMP JUMPDEST PUSH1 0x0 DUP1 REVERT JUMPDEST CALLVALUE PUSH2 0x249 JUMPI PUSH1 0x20 CALLDATASIZE PUSH1 0x3 NOT ADD SLT PUSH2 0x249 JUMPI PUSH1 0x20 PUSH1 0x4 CALLDATALOAD PUSH2 0x26D DUP2 PUSH2 0x237 JUMP JUMPDEST PUSH4 0xFFFFFFFF PUSH1 0xE0 SHL AND PUSH4 0x80AC58CD PUSH1 0xE0 SHL DUP2 EQ SWAP1 DUP2 ISZERO PUSH2 0x2AB JUMPI JUMPDEST DUP2 ISZERO PUSH2 0x29A JUMPI JUMPDEST POP PUSH1 0x40 MLOAD SWAP1 ISZERO ISZERO DUP2 MSTORE RETURN JUMPDEST PUSH4 0x1FFC9A7 PUSH1 0xE0 SHL EQ SWAP1 POP CODESIZE PUSH2 0x28F JUMP JUMPDEST PUSH4 0x5B5E139F PUSH1 0xE0 SHL DUP2 EQ SWAP2 POP PUSH2 0x288 JUMP JUMPDEST PUSH1 0x1 PUSH1 0x1 PUSH1 0xA0 SHL SUB DUP2 AND SUB PUSH2 0x249 JUMPI JUMP JUMPDEST PUSH4 0x4E487B71 PUSH1 0xE0 SHL PUSH1 0x0 MSTORE PUSH1 0x41 PUSH1 0x4 MSTORE PUSH1 0x24 PUSH1 0x0 REVERT JUMPDEST PUSH2 0x100 DUP2 ADD SWAP1 DUP2 LT PUSH1 0x1 PUSH1 0x1 PUSH1 0x40 SHL SUB DUP3 GT OR PUSH2 0x2FF JUMPI PUSH1 0x40 MSTORE JUMP JUMPDEST PUSH2 0x2CD JUMP JUMPDEST PUSH1 0x20 DUP2 ADD SWAP1 DUP2 LT PUSH1 0x1 PUSH1 0x1 PUSH1 0x40 SHL SUB DUP3 GT OR PUSH2 0x2FF JUMPI PUSH1 0x40 MSTORE JUMP JUMPDEST PUSH1 0x40 DUP2 ADD SWAP1 DUP2 LT PUSH1 0x1 PUSH1 0x1 PUSH1 0x40 SHL SUB DUP3 GT OR PUSH2 0x2FF JUMPI PUSH1 0x40 MSTORE JUMP JUMPDEST SWAP1 PUSH1 0x1F DUP1 NOT SWAP2 ADD AND DUP2 ADD SWAP1 DUP2 LT PUSH1 0x1 PUSH1 0x1 PUSH1 0x40 SHL SUB DUP3 GT OR PUSH2 0x2FF JUMPI PUSH1 0x40 MSTORE JUMP JUMPDEST PUSH1 0x40 MLOAD SWAP1 PUSH2 0x368 DUP3 PUSH2 0x2E3 JUMP JUMPDEST JUMP JUMPDEST PUSH1 0x1 PUSH1 0x1 PUSH1 0x40 SHL SUB DUP2 GT PUSH2 0x2FF JUMPI PUSH1 0x1F ADD PUSH1 0x1F NOT AND PUSH1 0x20 ADD SWAP1 JUMP JUMPDEST SWAP3 SWAP2 SWAP3 PUSH2 0x391 DUP3 PUSH2 0x36A JUMP JUMPDEST SWAP2 PUSH2 0x39F PUSH1 0x40 MLOAD SWAP4 DUP5 PUSH2 0x33A JUMP JUMPDEST DUP3 SWAP5 DUP2 DUP5 MSTORE DUP2 DUP4 ADD GT PUSH2 0x249 JUMPI DUP3 DUP2 PUSH1 0x20 SWAP4 DUP5 PUSH1 0x0 SWAP7 ADD CALLDATACOPY ADD ADD MSTORE JUMP JUMPDEST SWAP1 DUP1 PUSH1 0x1F DUP4 ADD SLT ISZERO PUSH2 0x249 JUMPI DUP2 PUSH1 0x20 PUSH2 0x3D7 SWAP4 CALLDATALOAD SWAP2 ADD PUSH2 0x385 JUMP JUMPDEST SWAP1 JUMP JUMPDEST CALLVALUE PUSH2 0x249 JUMPI PUSH1 0x40 CALLDATASIZE PUSH1 0x3 NOT ADD SLT PUSH2 0x249 JUMPI PUSH1 0x4 CALLDATALOAD PUSH2 0x3F7 DUP2 PUSH2 0x2BC JUMP JUMPDEST PUSH1 0x24 CALLDATALOAD PUSH1 0x1 PUSH1 0x1 PUSH1 0x40 SHL SUB DUP2 GT PUSH2 0x249 JUMPI PUSH1 0x20 SWAP2 PUSH2 0x41C PUSH2 0x422 SWAP3 CALLDATASIZE SWAP1 PUSH1 0x4 ADD PUSH2 0x3BC JUMP JUMPDEST SWAP1 PUSH2 0x2C33 JUMP JUMPDEST PUSH1 0x40 MLOAD SWAP1 ISZERO ISZERO DUP2 MSTORE RETURN JUMPDEST CALLVALUE PUSH2 0x249 JUMPI PUSH1 0x20 CALLDATASIZE PUSH1 0x3 NOT ADD SLT PUSH2 0x249 JUMPI PUSH1 0x4 CALLDATALOAD PUSH2 0x449 DUP2 PUSH2 0x2BC JUMP JUMPDEST PUSH1 0x1 DUP1 PUSH1 0xA0 SHL SUB AND PUSH1 0x0 MSTORE PUSH1 0xA PUSH1 0x20 MSTORE PUSH1 0x20 PUSH1 0x40 PUSH1 0x0 KECCAK256 SLOAD PUSH1 0x40 MLOAD SWAP1 DUP2 MSTORE RETURN JUMPDEST CALLVALUE PUSH2 0x249 JUMPI PUSH1 0x40 CALLDATASIZE PUSH1 0x3 NOT ADD SLT PUSH2 0x249 JUMPI PUSH1 0x4 CALLDATALOAD PUSH1 0x24 CALLDATALOAD PUSH2 0x488 PUSH2 0x1B28 JUMP JUMPDEST PUSH2 0x490 PUSH2 0x2765 JUMP JUMPDEST PUSH2 0x498 PUSH2 0x2783 JUMP JUMPDEST DUP2 PUSH1 0x0 MSTORE PUSH1 0x9 PUSH1 0x20 MSTORE PUSH2 0x4B5 PUSH1 0xFF PUSH1 0x6 PUSH1 0x40 PUSH1 0x0 KECCAK256 ADD SLOAD AND PUSH2 0x312F JUMP JUMPDEST PUSH2 0x3E8 DUP2 GT PUSH2 0x53E JUMPI DUP2 DUP1 PUSH31 0xA4F8488CD701F9A77136EB5C91D5E2EDEF3C38001CA7148525ACF8A2626481 PUSH2 0x51C DUP5 PUSH2 0x52F SWAP6 PUSH2 0x50B PUSH1 0x0 DUP1 MLOAD PUSH1 0x20 PUSH2 0x32BF DUP4 CODECOPY DUP2 MLOAD SWAP2 MSTORE SWAP9 PUSH1 0x0 MSTORE PUSH1 0xB PUSH1 0x20 MSTORE PUSH1 0x40 PUSH1 0x0 KECCAK256 SWAP1 JUMP JUMPDEST SSTORE PUSH1 0x40 MLOAD SWAP1 DUP2 MSTORE SWAP1 DUP2 SWAP1 PUSH1 0x20 DUP3 ADD SWAP1 JUMP JUMPDEST SUB SWAP1 LOG2 PUSH1 0x40 MLOAD SWAP1 DUP2 MSTORE SWAP1 DUP2 SWAP1 PUSH1 0x20 DUP3 ADD SWAP1 JUMP JUMPDEST SUB SWAP1 LOG1 PUSH2 0x53C PUSH1 0x1 PUSH1 0x7 SSTORE JUMP JUMPDEST STOP JUMPDEST PUSH1 0x40 MLOAD PUSH3 0x461BCD PUSH1 0xE5 SHL DUP2 MSTORE PUSH1 0x20 PUSH1 0x4 DUP3 ADD MSTORE PUSH1 0x15 PUSH1 0x24 DUP3 ADD MSTORE PUSH21 0x53636F72652065786365656473206D6178696D756D PUSH1 0x58 SHL PUSH1 0x44 DUP3 ADD MSTORE PUSH1 0x64 SWAP1 REVERT JUMPDEST PUSH1 0x0 JUMPDEST DUP4 DUP2 LT PUSH2 0x58E JUMPI POP POP PUSH1 0x0 SWAP2 ADD MSTORE JUMP JUMPDEST DUP2 DUP2 ADD MLOAD DUP4 DUP3 ADD MSTORE PUSH1 0x20 ADD PUSH2 0x57E JUMP JUMPDEST SWAP1 PUSH1 0x20 SWAP2 PUSH2 0x5B7 DUP2 MLOAD DUP1 SWAP3 DUP2 DUP6 MSTORE DUP6 DUP1 DUP7 ADD SWAP2 ADD PUSH2 0x57B JUMP JUMPDEST PUSH1 0x1F ADD PUSH1 0x1F NOT AND ADD ADD SWAP1 JUMP JUMPDEST SWAP1 PUSH1 0x20 PUSH2 0x3D7 SWAP3 DUP2 DUP2 MSTORE ADD SWAP1 PUSH2 0x59E JUMP JUMPDEST CALLVALUE PUSH2 0x249 JUMPI PUSH1 0x0 DUP1 PUSH1 0x3 NOT CALLDATASIZE ADD SLT PUSH2 0x6B4 JUMPI PUSH1 0x40 MLOAD SWAP1 DUP1 DUP1 SLOAD PUSH2 0x5F6 DUP2 PUSH2 0x7F6 JUMP JUMPDEST DUP1 DUP6 MSTORE SWAP2 PUSH1 0x1 SWAP2 DUP1 DUP4 AND SWAP1 DUP2 ISZERO PUSH2 0x68A JUMPI POP PUSH1 0x1 EQ PUSH2 0x630 JUMPI JUMPDEST PUSH2 0x62C DUP6 PUSH2 0x620 DUP2 DUP8 SUB DUP3 PUSH2 0x33A JUMP JUMPDEST PUSH1 0x40 MLOAD SWAP2 DUP3 SWAP2 DUP3 PUSH2 0x5C3 JUMP JUMPDEST SUB SWAP1 RETURN JUMPDEST DUP1 DUP1 SWAP5 POP MSTORE PUSH32 0x290DECD9548B62A8D60345A988386FC84BA6BC95484008F6362F93160EF3E563 JUMPDEST DUP3 DUP5 LT PUSH2 0x672 JUMPI POP POP POP DUP2 ADD PUSH1 0x20 ADD PUSH2 0x620 DUP3 PUSH2 0x62C PUSH2 0x610 JUMP JUMPDEST DUP1 SLOAD PUSH1 0x20 DUP6 DUP8 ADD DUP2 ADD SWAP2 SWAP1 SWAP2 MSTORE SWAP1 SWAP4 ADD SWAP3 DUP2 ADD PUSH2 0x657 JUMP JUMPDEST DUP7 SWAP6 POP PUSH2 0x62C SWAP7 SWAP4 POP PUSH1 0x20 SWAP3 POP PUSH2 0x620 SWAP5 SWAP2 POP PUSH1 0xFF NOT AND DUP3 DUP5 ADD MSTORE ISZERO ISZERO PUSH1 0x5 SHL DUP3 ADD ADD SWAP3 SWAP4 PUSH2 0x610 JUMP JUMPDEST DUP1 REVERT JUMPDEST CALLVALUE PUSH2 0x249 JUMPI PUSH1 0x20 CALLDATASIZE PUSH1 0x3 NOT ADD SLT PUSH2 0x249 JUMPI PUSH1 0x4 CALLDATALOAD PUSH2 0x6D4 DUP2 PUSH2 0x1D82 JUMP JUMPDEST POP PUSH1 0x0 MSTORE PUSH1 0x4 PUSH1 0x20 MSTORE PUSH1 0x20 PUSH1 0x1 DUP1 PUSH1 0xA0 SHL SUB PUSH1 0x40 PUSH1 0x0 KECCAK256 SLOAD AND PUSH1 0x40 MLOAD SWAP1 DUP2 MSTORE RETURN JUMPDEST CALLVALUE PUSH2 0x249 JUMPI PUSH1 0x40 CALLDATASIZE PUSH1 0x3 NOT ADD SLT PUSH2 0x249 JUMPI PUSH1 0x4 CALLDATALOAD PUSH2 0x712 DUP2 PUSH2 0x2BC JUMP JUMPDEST PUSH1 0x24 CALLDATALOAD SWAP1 PUSH2 0x71F DUP3 PUSH2 0x1D82 JUMP JUMPDEST CALLER ISZERO ISZERO DUP1 PUSH2 0x7E3 JUMPI JUMPDEST DUP1 PUSH2 0x7B5 JUMPI JUMPDEST PUSH2 0x79D JUMPI PUSH2 0x53C SWAP3 PUSH2 0x77E SWAP2 DUP2 SWAP1 PUSH1 0x1 PUSH1 0x1 PUSH1 0xA0 SHL SUB DUP6 DUP2 AND SWAP2 AND PUSH32 0x8C5BE1E5EBEC7D5BD14F71427D1E84F3DD0314C0F7B2291E5B200AC8C7C3B925 PUSH1 0x0 DUP1 LOG4 PUSH1 0x0 MSTORE PUSH1 0x4 PUSH1 0x20 MSTORE PUSH1 0x40 PUSH1 0x0 KECCAK256 SWAP1 JUMP JUMPDEST DUP1 SLOAD PUSH1 0x1 PUSH1 0x1 PUSH1 0xA0 SHL SUB NOT AND PUSH1 0x1 PUSH1 0x1 PUSH1 0xA0 SHL SUB SWAP1 SWAP3 AND SWAP2 SWAP1 SWAP2 OR SWAP1 SSTORE JUMP JUMPDEST PUSH1 0x40 MLOAD PUSH4 0xA9FBF51F PUSH1 0xE0 SHL DUP2 MSTORE CALLER PUSH1 0x4 DUP3 ADD MSTORE PUSH1 0x24 SWAP1 REVERT JUMPDEST POP PUSH1 0x1 PUSH1 0x1 PUSH1 0xA0 SHL SUB DUP2 AND PUSH1 0x0 SWAP1 DUP2 MSTORE PUSH1 0x5 PUSH1 0x20 SWAP1 DUP2 MSTORE PUSH1 0x40 DUP1 DUP4 KECCAK256 CALLER DUP5 MSTORE SWAP1 SWAP2 MSTORE SWAP1 KECCAK256 SLOAD PUSH1 0xFF AND ISZERO PUSH2 0x72E JUMP JUMPDEST POP PUSH1 0x1 PUSH1 0x1 PUSH1 0xA0 SHL SUB DUP2 AND CALLER EQ ISZERO PUSH2 0x728 JUMP JUMPDEST SWAP1 PUSH1 0x1 DUP3 DUP2 SHR SWAP3 AND DUP1 ISZERO PUSH2 0x826 JUMPI JUMPDEST PUSH1 0x20 DUP4 LT EQ PUSH2 0x810 JUMPI JUMP JUMPDEST PUSH4 0x4E487B71 PUSH1 0xE0 SHL PUSH1 0x0 MSTORE PUSH1 0x22 PUSH1 0x4 MSTORE PUSH1 0x24 PUSH1 0x0 REVERT JUMPDEST SWAP2 PUSH1 0x7F AND SWAP2 PUSH2 0x805 JUMP JUMPDEST SWAP1 PUSH1 0x40 MLOAD SWAP2 DUP3 PUSH1 0x0 DUP3 SLOAD SWAP3 PUSH2 0x844 DUP5 PUSH2 0x7F6 JUMP JUMPDEST SWAP1 DUP2 DUP5 MSTORE PUSH1 0x1 SWAP5 DUP6 DUP2 AND SWAP1 DUP2 PUSH1 0x0 EQ PUSH2 0x8B1 JUMPI POP PUSH1 0x1 EQ PUSH2 0x86E JUMPI JUMPDEST POP POP PUSH2 0x368 SWAP3 POP SUB DUP4 PUSH2 0x33A JUMP JUMPDEST SWAP1 SWAP4 SWAP2 POP PUSH1 0x0 MSTORE PUSH1 0x20 SWAP1 DUP2 PUSH1 0x0 KECCAK256 SWAP4 PUSH1 0x0 SWAP2 JUMPDEST DUP2 DUP4 LT PUSH2 0x899 JUMPI POP POP PUSH2 0x368 SWAP4 POP DUP3 ADD ADD CODESIZE DUP1 PUSH2 0x860 JUMP JUMPDEST DUP6 SLOAD DUP9 DUP5 ADD DUP6 ADD MSTORE SWAP5 DUP6 ADD SWAP5 DUP8 SWAP5 POP SWAP2 DUP4 ADD SWAP2 PUSH2 0x881 JUMP JUMPDEST SWAP2 POP POP PUSH2 0x368 SWAP5 POP PUSH1 0x20 SWAP3 POP PUSH1 0xFF NOT AND DUP3 DUP5 ADD MSTORE ISZERO ISZERO PUSH1 0x5 SHL DUP3 ADD ADD CODESIZE DUP1 PUSH2 0x860 JUMP JUMPDEST CALLVALUE PUSH2 0x249 JUMPI PUSH1 0x20 CALLDATASIZE PUSH1 0x3 NOT ADD SLT PUSH2 0x249 JUMPI PUSH1 0x4 CALLDATALOAD PUSH1 0x0 MSTORE PUSH1 0x9 PUSH1 0x20 MSTORE PUSH2 0x932 PUSH1 0x40 PUSH1 0x0 KECCAK256 PUSH2 0x901 DUP2 PUSH2 0x830 JUMP JUMPDEST SWAP1 PUSH1 0x2 DUP2 ADD SLOAD SWAP1 PUSH1 0x3 DUP2 ADD SLOAD SWAP1 PUSH1 0x4 DUP2 ADD SLOAD PUSH1 0x6 PUSH1 0x5 DUP4 ADD SLOAD SWAP3 ADD SLOAD SWAP3 PUSH1 0x40 MLOAD SWAP7 DUP8 SWAP7 PUSH1 0xE0 DUP9 MSTORE PUSH1 0xE0 DUP9 ADD SWAP1 PUSH2 0x59E JUMP JUMPDEST PUSH1 0x20 DUP8 ADD SWAP6 SWAP1 SWAP6 MSTORE PUSH1 0x40 DUP7 ADD MSTORE PUSH1 0x60 DUP6 ADD MSTORE PUSH1 0x80 DUP5 ADD MSTORE PUSH1 0xFF DUP2 AND ISZERO ISZERO PUSH1 0xA0 DUP5 ADD MSTORE PUSH1 0x8 SHR PUSH1 0x1 PUSH1 0x1 PUSH1 0xA0 SHL SUB AND PUSH1 0xC0 DUP4 ADD MSTORE SUB SWAP1 RETURN JUMPDEST CALLVALUE PUSH2 0x249 JUMPI PUSH1 0x20 CALLDATASIZE PUSH1 0x3 NOT ADD SLT PUSH2 0x249 JUMPI PUSH1 0x4 CALLDATALOAD PUSH2 0x985 PUSH2 0x2765 JUMP JUMPDEST PUSH2 0x98D PUSH2 0x2783 JUMP JUMPDEST PUSH1 0x0 DUP1 MLOAD PUSH1 0x20 PUSH2 0x32BF DUP4 CODECOPY DUP2 MLOAD SWAP2 MSTORE PUSH2 0x9A5 DUP3 PUSH2 0x1D82 JUMP JUMPDEST PUSH1 0x1 PUSH1 0x1 PUSH1 0xA0 SHL SUB SWAP3 SWAP1 PUSH2 0x9BC SWAP1 DUP5 AND ADDRESS EQ PUSH2 0x2A7D JUMP JUMPDEST PUSH1 0x6 PUSH2 0x9D2 DUP3 PUSH1 0x0 MSTORE PUSH1 0x9 PUSH1 0x20 MSTORE PUSH1 0x40 PUSH1 0x0 KECCAK256 SWAP1 JUMP JUMPDEST ADD SWAP3 PUSH2 0xA04 DUP5 SLOAD PUSH2 0x9E5 PUSH1 0xFF DUP3 AND PUSH2 0x2ABB JUMP JUMPDEST PUSH1 0x6 SLOAD DUP4 SWAP1 PUSH1 0x1 PUSH1 0x1 PUSH1 0xA0 SHL SUB AND CALLER EQ SWAP2 DUP3 ISZERO PUSH2 0xAB6 JUMPI JUMPDEST POP POP PUSH2 0x2B07 JUMP JUMPDEST DUP4 SLOAD PUSH1 0xFF NOT DUP2 AND DUP6 SSTORE PUSH1 0x8 SHR PUSH1 0x1 PUSH1 0x1 PUSH1 0xA0 SHL SUB AND PUSH1 0x0 SWAP1 DUP2 MSTORE PUSH1 0xA PUSH1 0x20 MSTORE PUSH1 0x40 DUP2 KECCAK256 SWAP1 SWAP5 PUSH2 0xA49 SWAP2 DUP7 SWAP1 SSTORE PUSH2 0xA39 DUP5 PUSH2 0x2B42 JUMP JUMPDEST SLOAD PUSH1 0x8 SHR PUSH1 0x1 PUSH1 0x1 PUSH1 0xA0 SHL SUB AND SWAP1 JUMP JUMPDEST AND PUSH2 0xAA6 PUSH1 0x40 MLOAD SWAP3 DUP4 SWAP3 DUP2 PUSH32 0xA806FB6440873EA44E7260319BF79FCFE758E61CCE44F590A691B589A2B38A7A DUP9 DUP1 LOG3 DUP1 PUSH32 0xCDEB43784F6B74E8FA65E24D8C67AAE46D0428144381A27AE1608C2FAB53AF50 DUP8 DUP1 LOG2 DUP3 MSTORE PUSH1 0x20 DUP3 ADD SWAP1 JUMP JUMPDEST SUB SWAP1 LOG1 PUSH2 0xAB3 PUSH1 0x1 PUSH1 0x7 SSTORE JUMP JUMPDEST DUP1 RETURN JUMPDEST SWAP1 SWAP2 POP PUSH1 0x8 SHR AND CALLER EQ DUP3 CODESIZE PUSH2 0x9FD JUMP JUMPDEST PUSH1 0x1 PUSH1 0x1 PUSH1 0x40 SHL SUB DUP2 GT PUSH2 0x2FF JUMPI PUSH1 0x5 SHL PUSH1 0x20 ADD SWAP1 JUMP JUMPDEST SWAP3 SWAP2 SWAP1 SWAP3 PUSH2 0xAEA DUP5 PUSH2 0xAC6 JUMP JUMPDEST SWAP2 PUSH2 0xAF8 PUSH1 0x40 MLOAD SWAP4 DUP5 PUSH2 0x33A JUMP JUMPDEST DUP3 SWAP5 DUP1 DUP5 MSTORE PUSH1 0x20 DUP1 SWAP5 ADD SWAP1 PUSH1 0x5 SHL DUP4 ADD SWAP3 DUP3 DUP5 GT PUSH2 0x249 JUMPI DUP1 SWAP2 JUMPDEST DUP5 DUP4 LT PUSH2 0xB22 JUMPI POP POP POP POP POP POP JUMP JUMPDEST DUP3 CALLDATALOAD PUSH1 0x1 PUSH1 0x1 PUSH1 0x40 SHL SUB DUP2 GT PUSH2 0x249 JUMPI DUP7 SWAP2 PUSH2 0xB41 DUP7 DUP5 SWAP4 DUP7 ADD PUSH2 0x3BC JUMP JUMPDEST DUP2 MSTORE ADD SWAP3 ADD SWAP2 PUSH2 0xB13 JUMP JUMPDEST PUSH1 0xC0 PUSH1 0x3 NOT DUP3 ADD SLT PUSH2 0x249 JUMPI PUSH1 0x4 CALLDATALOAD PUSH2 0xB64 DUP2 PUSH2 0x2BC JUMP JUMPDEST SWAP2 PUSH1 0x1 PUSH1 0x1 PUSH1 0x40 SHL SUB PUSH1 0x24 CALLDATALOAD DUP2 DUP2 GT PUSH2 0x249 JUMPI DUP4 PUSH2 0xB84 SWAP2 PUSH1 0x4 ADD PUSH2 0x3BC JUMP JUMPDEST SWAP3 PUSH1 0x44 CALLDATALOAD SWAP2 DUP3 GT PUSH2 0x249 JUMPI DUP1 PUSH1 0x23 DUP4 ADD SLT ISZERO PUSH2 0x249 JUMPI DUP2 PUSH1 0x24 PUSH2 0xBAC SWAP4 PUSH1 0x4 ADD CALLDATALOAD SWAP2 ADD PUSH2 0xADD JUMP JUMPDEST SWAP1 PUSH1 0x64 CALLDATALOAD SWAP1 PUSH1 0x84 CALLDATALOAD SWAP1 PUSH1 0xA4 CALLDATALOAD SWAP1 JUMP JUMPDEST CALLVALUE PUSH2 0x249 JUMPI PUSH32 0xF3778495C09FEA57FACD4869E893696A945AEE645211006B9D7982A1ED5BB8C5 PUSH2 0xC32 PUSH2 0x62C PUSH2 0xBF0 CALLDATASIZE PUSH2 0xB4C JUMP JUMPDEST SWAP2 PUSH2 0xBFD SWAP8 SWAP4 SWAP5 SWAP8 PUSH2 0x1B28 JUMP JUMPDEST PUSH2 0xC05 PUSH2 0x2765 JUMP JUMPDEST PUSH2 0xC0D PUSH2 0x2783 JUMP JUMPDEST PUSH1 0x1 DUP1 PUSH1 0xA0 SHL SUB DUP7 AND SWAP5 PUSH1 0x0 SWAP9 DUP7 DUP11 MSTORE PUSH1 0xA PUSH1 0x20 MSTORE PUSH1 0x40 DUP11 KECCAK256 SLOAD SWAP8 DUP9 PUSH2 0xC4A JUMPI PUSH2 0x215A JUMP JUMPDEST DUP1 SWAP3 PUSH1 0x40 MLOAD SWAP7 DUP7 DUP9 SWAP8 LOG4 PUSH1 0x1 PUSH1 0x7 SSTORE DUP3 MSTORE PUSH1 0x20 DUP3 ADD SWAP1 JUMP JUMPDEST DUP9 DUP12 MSTORE PUSH1 0x9 PUSH1 0x20 MSTORE PUSH1 0x6 PUSH1 0x40 DUP13 KECCAK256 ADD PUSH1 0xFF NOT DUP2 SLOAD AND SWAP1 SSTORE DUP11 PUSH2 0xC7E DUP3 PUSH1 0x1 DUP1 PUSH1 0xA0 SHL SUB AND PUSH1 0x0 MSTORE PUSH1 0xA PUSH1 0x20 MSTORE PUSH1 0x40 PUSH1 0x0 KECCAK256 SWAP1 JUMP JUMPDEST SSTORE PUSH2 0xC88 DUP10 PUSH2 0x2B42 JUMP JUMPDEST DUP8 DUP10 PUSH32 0xA806FB6440873EA44E7260319BF79FCFE758E61CCE44F590A691B589A2B38A7A DUP14 DUP1 LOG3 PUSH2 0x215A JUMP JUMPDEST PUSH1 0x60 SWAP1 PUSH1 0x3 NOT ADD SLT PUSH2 0x249 JUMPI PUSH1 0x4 CALLDATALOAD PUSH2 0xCCB DUP2 PUSH2 0x2BC JUMP JUMPDEST SWAP1 PUSH1 0x24 CALLDATALOAD PUSH2 0xCD8 DUP2 PUSH2 0x2BC JUMP JUMPDEST SWAP1 PUSH1 0x44 CALLDATALOAD SWAP1 JUMP JUMPDEST CALLVALUE PUSH2 0x249 JUMPI PUSH2 0x53C PUSH2 0xCF0 CALLDATASIZE PUSH2 0xCB3 JUMP JUMPDEST SWAP2 PUSH2 0x1B54 JUMP JUMPDEST CALLVALUE PUSH2 0x249 JUMPI PUSH1 0x60 CALLDATASIZE PUSH1 0x3 NOT ADD SLT PUSH2 0x249 JUMPI PUSH1 0x44 CALLDATALOAD PUSH1 0x1 PUSH1 0x1 PUSH1 0x40 SHL SUB PUSH1 0x4 CALLDATALOAD DUP2 DUP4 GT PUSH2 0x249 JUMPI CALLDATASIZE PUSH1 0x23 DUP5 ADD SLT ISZERO PUSH2 0x249 JUMPI DUP3 PUSH1 0x4 ADD CALLDATALOAD SWAP2 DUP3 GT PUSH2 0x249 JUMPI CALLDATASIZE PUSH1 0x24 DUP4 DUP6 ADD ADD GT PUSH2 0x249 JUMPI PUSH2 0xD47 PUSH2 0x2765 JUMP JUMPDEST PUSH32 0xBE26F4F61219280653F16DBA7FF7FABFCD5BCEA269BF1CEC070EDB907731E882 PUSH1 0x0 SWAP4 DUP3 DUP6 MSTORE PUSH1 0x9 PUSH1 0x20 MSTORE PUSH1 0x40 PUSH2 0xD87 PUSH1 0xFF PUSH1 0x6 DUP4 DUP10 KECCAK256 ADD SLOAD AND PUSH2 0x312F JUMP JUMPDEST PUSH1 0x6 SLOAD PUSH2 0xDA9 SWAP1 CALLER PUSH1 0x1 PUSH1 0x1 PUSH1 0xA0 SHL SUB SWAP2 DUP3 AND EQ SWAP1 DUP2 ISZERO PUSH2 0xDDA JUMPI JUMPDEST POP PUSH2 0x2B07 JUMP JUMPDEST DUP5 PUSH1 0x24 DUP3 MLOAD SWAP4 PUSH1 0x20 DUP6 MSTORE DUP3 PUSH1 0x20 DUP7 ADD MSTORE ADD DUP3 DUP5 ADD CALLDATACOPY DUP6 DUP2 DUP7 DUP5 ADD ADD MSTORE DUP2 PUSH1 0x24 CALLDATALOAD SWAP6 PUSH1 0x1F DUP1 NOT SWAP2 ADD AND DUP2 ADD SUB ADD SWAP1 LOG3 DUP1 RETURN JUMPDEST SWAP1 POP DUP6 DUP9 MSTORE PUSH1 0x9 PUSH1 0x20 MSTORE PUSH1 0x6 DUP4 DUP10 KECCAK256 ADD SLOAD PUSH1 0x8 SHR AND CALLER EQ CODESIZE PUSH2 0xDA3 JUMP JUMPDEST CALLVALUE PUSH2 0x249 JUMPI PUSH1 0x0 CALLDATASIZE PUSH1 0x3 NOT ADD SLT PUSH2 0x249 JUMPI PUSH2 0xE10 PUSH2 0x1B28 JUMP JUMPDEST PUSH1 0x8 SLOAD PUSH1 0xFF DUP2 AND ISZERO PUSH2 0xE4F JUMPI PUSH1 0xFF NOT AND PUSH1 0x8 SSTORE PUSH32 0x5DB9EE0A495BF2E6FF9C91A7834C1BA4FDD244A5E8AA4E537BD38AEAE4B073AA PUSH1 0x20 PUSH1 0x40 MLOAD CALLER DUP2 MSTORE LOG1 STOP JUMPDEST PUSH1 0x40 MLOAD PUSH4 0x8DFC202B PUSH1 0xE0 SHL DUP2 MSTORE PUSH1 0x4 SWAP1 REVERT JUMPDEST CALLVALUE PUSH2 0x249 JUMPI PUSH2 0x53C PUSH2 0xE72 CALLDATASIZE PUSH2 0xCB3 JUMP JUMPDEST SWAP1 PUSH1 0x40 MLOAD SWAP3 PUSH2 0xE80 DUP5 PUSH2 0x304 JUMP JUMPDEST PUSH1 0x0 DUP5 MSTORE PUSH2 0x1C59 JUMP JUMPDEST CALLVALUE PUSH2 0x249 JUMPI PUSH1 0x20 CALLDATASIZE PUSH1 0x3 NOT ADD SLT PUSH2 0x249 JUMPI PUSH1 0x20 PUSH2 0x422 PUSH1 0x4 CALLDATALOAD PUSH2 0xEAB DUP2 PUSH2 0x2BC JUMP JUMPDEST PUSH2 0x2E34 JUMP JUMPDEST CALLVALUE PUSH2 0x249 JUMPI PUSH1 0x20 CALLDATASIZE PUSH1 0x3 NOT ADD SLT PUSH2 0x249 JUMPI PUSH1 0x4 CALLDATALOAD PUSH2 0xECD DUP2 PUSH2 0x2BC JUMP JUMPDEST PUSH2 0xED5 PUSH2 0x1B28 JUMP JUMPDEST PUSH1 0x1 PUSH1 0x1 PUSH1 0xA0 SHL SUB DUP2 AND PUSH1 0x0 DUP2 DUP2 MSTORE PUSH1 0xA PUSH1 0x20 MSTORE PUSH1 0x40 DUP2 KECCAK256 SLOAD SWAP1 SWAP3 SWAP1 SWAP2 SWAP1 DUP4 SWAP1 DUP4 PUSH2 0xEFE JUMPI POP DUP1 RETURN JUMPDEST DUP4 DUP3 MSTORE PUSH1 0x9 PUSH1 0x20 SWAP1 DUP2 MSTORE PUSH1 0x40 DUP1 DUP5 KECCAK256 PUSH1 0x6 ADD DUP1 SLOAD PUSH1 0xFF NOT AND SWAP1 SSTORE PUSH1 0x1 PUSH1 0x1 PUSH1 0xA0 SHL SUB SWAP1 SWAP3 AND PUSH1 0x0 SWAP1 DUP2 MSTORE PUSH1 0xA SWAP1 SWAP2 MSTORE KECCAK256 SSTORE PUSH2 0xF38 DUP3 PUSH2 0x2B42 JUMP JUMPDEST DUP2 PUSH32 0xA806FB6440873EA44E7260319BF79FCFE758E61CCE44F590A691B589A2B38A7A DUP5 DUP1 LOG3 PUSH32 0xCDEB43784F6B74E8FA65E24D8C67AAE46D0428144381A27AE1608C2FAB53AF50 DUP3 DUP1 LOG2 CODESIZE DUP1 DUP3 DUP1 RETURN JUMPDEST CALLVALUE PUSH2 0x249 JUMPI PUSH1 0x0 CALLDATASIZE PUSH1 0x3 NOT ADD SLT PUSH2 0x249 JUMPI PUSH1 0x20 PUSH1 0xFF PUSH1 0x8 SLOAD AND PUSH1 0x40 MLOAD SWAP1 ISZERO ISZERO DUP2 MSTORE RETURN JUMPDEST CALLVALUE PUSH2 0x249 JUMPI PUSH1 0x20 CALLDATASIZE PUSH1 0x3 NOT ADD SLT PUSH2 0x249 JUMPI PUSH1 0x20 PUSH2 0xFC8 PUSH1 0x4 CALLDATALOAD PUSH2 0x1D82 JUMP JUMPDEST PUSH1 0x40 MLOAD PUSH1 0x1 PUSH1 0x1 PUSH1 0xA0 SHL SUB SWAP1 SWAP2 AND DUP2 MSTORE RETURN JUMPDEST CALLVALUE PUSH2 0x249 JUMPI PUSH1 0x20 CALLDATASIZE PUSH1 0x3 NOT ADD SLT PUSH2 0x249 JUMPI PUSH1 0x4 CALLDATALOAD PUSH2 0xFF7 DUP2 PUSH2 0x2BC JUMP JUMPDEST PUSH1 0x1 PUSH1 0x1 PUSH1 0xA0 SHL SUB AND DUP1 ISZERO PUSH2 0x101E JUMPI PUSH1 0x0 MSTORE PUSH1 0x3 PUSH1 0x20 MSTORE PUSH1 0x20 PUSH1 0x40 PUSH1 0x0 KECCAK256 SLOAD PUSH1 0x40 MLOAD SWAP1 DUP2 MSTORE RETURN JUMPDEST PUSH1 0x40 MLOAD PUSH4 0x22718AD9 PUSH1 0xE2 SHL DUP2 MSTORE PUSH1 0x0 PUSH1 0x4 DUP3 ADD MSTORE PUSH1 0x24 SWAP1 REVERT JUMPDEST CALLVALUE PUSH2 0x249 JUMPI PUSH1 0x0 DUP1 PUSH1 0x3 NOT CALLDATASIZE ADD SLT PUSH2 0x6B4 JUMPI PUSH2 0x1051 PUSH2 0x1B28 JUMP JUMPDEST PUSH1 0x6 DUP1 SLOAD PUSH1 0x1 PUSH1 0x1 PUSH1 0xA0 SHL SUB NOT DUP2 AND SWAP1 SWAP2 SSTORE DUP2 SWAP1 PUSH1 0x1 PUSH1 0x1 PUSH1 0xA0 SHL SUB AND PUSH32 0x8BE0079C531659141344CD1FD0A4F28419497F9722A3DAAFE3B4186F6B6457E0 DUP3 DUP1 LOG3 DUP1 RETURN JUMPDEST CALLVALUE PUSH2 0x249 JUMPI PUSH1 0x0 CALLDATASIZE PUSH1 0x3 NOT ADD SLT PUSH2 0x249 JUMPI PUSH2 0x10AE PUSH2 0x1B28 JUMP JUMPDEST PUSH2 0x10B6 PUSH2 0x2765 JUMP JUMPDEST PUSH1 0x1 PUSH1 0xFF NOT PUSH1 0x8 SLOAD AND OR PUSH1 0x8 SSTORE PUSH32 0x62E78CEA01BEE320CD4E420270B5EA74000D11B0C9F74754EBDBFC544B05A258 PUSH1 0x20 PUSH1 0x40 MLOAD CALLER DUP2 MSTORE LOG1 STOP JUMPDEST CALLVALUE PUSH2 0x249 JUMPI PUSH1 0x0 CALLDATASIZE PUSH1 0x3 NOT ADD SLT PUSH2 0x249 JUMPI PUSH1 0x6 SLOAD PUSH1 0x40 MLOAD PUSH1 0x1 PUSH1 0x1 PUSH1 0xA0 SHL SUB SWAP1 SWAP2 AND DUP2 MSTORE PUSH1 0x20 SWAP1 RETURN JUMPDEST CALLVALUE PUSH2 0x249 JUMPI PUSH1 0x0 DUP1 PUSH1 0x3 NOT CALLDATASIZE ADD SLT PUSH2 0x6B4 JUMPI PUSH1 0x40 MLOAD SWAP1 DUP1 PUSH1 0x1 DUP1 SLOAD SWAP2 PUSH2 0x113D DUP4 PUSH2 0x7F6 JUMP JUMPDEST DUP1 DUP7 MSTORE SWAP3 DUP3 DUP2 AND SWAP1 DUP2 ISZERO PUSH2 0x68A JUMPI POP PUSH1 0x1 EQ PUSH2 0x1163 JUMPI PUSH2 0x62C DUP6 PUSH2 0x620 DUP2 DUP8 SUB DUP3 PUSH2 0x33A JUMP JUMPDEST SWAP3 POP DUP1 DUP4 MSTORE PUSH32 0xB10E2D527612073B26EECDFD717E6A320CF44B4AFAC2B0732D9FCBE2B7FA0CF6 JUMPDEST DUP3 DUP5 LT PUSH2 0x11A5 JUMPI POP POP POP DUP2 ADD PUSH1 0x20 ADD PUSH2 0x620 DUP3 PUSH2 0x62C PUSH2 0x610 JUMP JUMPDEST DUP1 SLOAD PUSH1 0x20 DUP6 DUP8 ADD DUP2 ADD SWAP2 SWAP1 SWAP2 MSTORE SWAP1 SWAP4 ADD SWAP3 DUP2 ADD PUSH2 0x118A JUMP JUMPDEST CALLVALUE PUSH2 0x249 JUMPI PUSH1 0x40 CALLDATASIZE PUSH1 0x3 NOT ADD SLT PUSH2 0x249 JUMPI PUSH1 0x4 CALLDATALOAD PUSH2 0x11DA DUP2 PUSH2 0x2BC JUMP JUMPDEST PUSH1 0x24 CALLDATALOAD DUP1 ISZERO ISZERO SWAP1 DUP2 DUP2 SUB PUSH2 0x249 JUMPI PUSH1 0x1 PUSH1 0x1 PUSH1 0xA0 SHL SUB DUP4 AND SWAP3 DUP4 ISZERO PUSH2 0x1265 JUMPI SWAP1 PUSH2 0x1226 PUSH2 0x1237 SWAP3 CALLER PUSH1 0x0 MSTORE PUSH1 0x5 PUSH1 0x20 MSTORE PUSH1 0x40 PUSH1 0x0 KECCAK256 SWAP1 PUSH1 0x1 DUP1 PUSH1 0xA0 SHL SUB AND PUSH1 0x0 MSTORE PUSH1 0x20 MSTORE PUSH1 0x40 PUSH1 0x0 KECCAK256 SWAP1 JUMP JUMPDEST SWAP1 PUSH1 0xFF DUP1 NOT DUP4 SLOAD AND SWAP2 ISZERO ISZERO AND OR SWAP1 SSTORE JUMP JUMPDEST PUSH1 0x40 MLOAD SWAP1 DUP2 MSTORE PUSH32 0x17307EAB39AB6107E8899845AD3D59BD9653F200F220920489CA2B5937696C31 PUSH1 0x20 CALLER SWAP3 LOG3 STOP JUMPDEST PUSH1 0x40 MLOAD PUSH4 0xB611743 PUSH1 0xE3 SHL DUP2 MSTORE PUSH1 0x4 DUP2 ADD DUP6 SWAP1 MSTORE PUSH1 0x24 SWAP1 REVERT JUMPDEST CALLVALUE PUSH2 0x249 JUMPI PUSH1 0x80 CALLDATASIZE PUSH1 0x3 NOT ADD SLT PUSH2 0x249 JUMPI PUSH1 0x4 CALLDATALOAD PUSH2 0x129B DUP2 PUSH2 0x2BC JUMP JUMPDEST PUSH1 0x24 CALLDATALOAD PUSH2 0x12A7 DUP2 PUSH2 0x2BC JUMP JUMPDEST PUSH1 0x64 CALLDATALOAD SWAP2 PUSH1 0x1 PUSH1 0x1 PUSH1 0x40 SHL SUB DUP4 GT PUSH2 0x249 JUMPI CALLDATASIZE PUSH1 0x23 DUP5 ADD SLT ISZERO PUSH2 0x249 JUMPI PUSH2 0x12DB PUSH2 0x53C SWAP4 CALLDATASIZE SWAP1 PUSH1 0x24 DUP2 PUSH1 0x4 ADD CALLDATALOAD SWAP2 ADD PUSH2 0x385 JUMP JUMPDEST SWAP2 PUSH1 0x44 CALLDATALOAD SWAP2 PUSH2 0x1C59 JUMP JUMPDEST CALLVALUE PUSH2 0x249 JUMPI PUSH1 0x20 CALLDATASIZE PUSH1 0x3 NOT ADD SLT PUSH2 0x249 JUMPI PUSH1 0x4 CALLDATALOAD PUSH1 0x0 DUP2 DUP2 MSTORE PUSH1 0x2 PUSH1 0x20 MSTORE PUSH1 0x40 SWAP1 KECCAK256 SLOAD PUSH2 0x1320 SWAP1 PUSH1 0x1 PUSH1 0x1 PUSH1 0xA0 SHL SUB SWAP1 DUP2 AND JUMPDEST AND ISZERO ISZERO PUSH2 0x2D24 JUMP JUMPDEST PUSH2 0x1345 PUSH2 0x133F PUSH2 0x133A DUP4 PUSH1 0x0 MSTORE PUSH1 0x9 PUSH1 0x20 MSTORE PUSH1 0x40 PUSH1 0x0 KECCAK256 SWAP1 JUMP JUMPDEST PUSH2 0x2DBC JUMP JUMPDEST SWAP2 PUSH2 0x2F18 JUMP JUMPDEST DUP2 MLOAD SWAP2 PUSH2 0x1355 PUSH1 0x40 DUP3 ADD MLOAD PUSH2 0x2F18 JUMP JUMPDEST SWAP1 PUSH2 0x1363 PUSH1 0x60 DUP3 ADD MLOAD PUSH2 0x2F18 JUMP JUMPDEST PUSH1 0xC0 DUP3 ADD MLOAD ISZERO PUSH2 0x163C JUMPI PUSH1 0xE0 PUSH2 0x1377 PUSH2 0x2EA4 JUMP JUMPDEST SWAP3 JUMPDEST ADD MLOAD PUSH2 0x138D SWAP1 PUSH1 0x1 PUSH1 0x1 PUSH1 0xA0 SHL SUB AND PUSH2 0x3096 JUMP JUMPDEST PUSH1 0x40 MLOAD PUSH32 0x7B226E616D65223A202253494E43204167656E7420546F6B656E202300000000 PUSH1 0x20 DUP3 ADD MSTORE SWAP6 DUP7 SWAP6 SWAP2 SWAP5 SWAP2 PUSH1 0x3C DUP8 ADD PUSH2 0x13C9 SWAP2 PUSH2 0x2C1C JUMP JUMPDEST PUSH2 0x88B PUSH1 0xF2 SHL DUP2 MSTORE PUSH1 0x2 ADD PUSH32 0x226465736372697074696F6E223A202253494E43204167656E74204F6E746F6C DUP2 MSTORE PUSH32 0x6F677920546F6B656E202D204E6F6E2D7472616E7366657261626C6520616363 PUSH1 0x20 DUP3 ADD MSTORE PUSH16 0x195CDCC818DC9959195B9D1A585B088B PUSH1 0x82 SHL PUSH1 0x40 DUP3 ADD MSTORE PUSH1 0x50 ADD PUSH15 0x2261747472696275746573223A205B PUSH1 0x88 SHL DUP2 MSTORE PUSH1 0xF ADD PUSH32 0x7B2274726169745F74797065223A2022507572706F7365222C202276616C7565 DUP2 MSTORE PUSH4 0x111D1011 PUSH1 0xE1 SHL PUSH1 0x20 DUP3 ADD MSTORE PUSH1 0x24 ADD PUSH2 0x148D SWAP2 PUSH2 0x2C1C JUMP JUMPDEST PUSH3 0x89F4B PUSH1 0xEA SHL DUP2 MSTORE PUSH1 0x3 ADD PUSH32 0x7B2274726169745F74797065223A202253636F7065222C202276616C7565223A DUP2 MSTORE PUSH2 0x1011 PUSH1 0xF1 SHL PUSH1 0x20 DUP3 ADD MSTORE PUSH1 0x22 ADD PUSH2 0x14D3 SWAP2 PUSH2 0x2C1C JUMP JUMPDEST PUSH3 0x89F4B PUSH1 0xEA SHL DUP2 MSTORE PUSH1 0x3 ADD PUSH32 0x7B2274726169745F74797065223A2022427564676574222C202276616C756522 DUP2 MSTORE PUSH3 0x1D1011 PUSH1 0xE9 SHL PUSH1 0x20 DUP3 ADD MSTORE PUSH1 0x23 ADD PUSH2 0x151A SWAP2 PUSH2 0x2C1C JUMP JUMPDEST PUSH3 0x89F4B PUSH1 0xEA SHL DUP2 MSTORE PUSH1 0x3 ADD PUSH32 0x7B2274726169745F74797065223A2022416374697665222C202276616C756522 DUP2 MSTORE PUSH3 0x1D1011 PUSH1 0xE9 SHL PUSH1 0x20 DUP3 ADD MSTORE PUSH1 0x23 ADD PUSH2 0x1561 SWAP2 PUSH2 0x2C1C JUMP JUMPDEST PUSH3 0x89F4B PUSH1 0xEA SHL DUP2 MSTORE PUSH1 0x3 ADD PUSH32 0x7B2274726169745F74797065223A202241737369676E6564204167656E74222C DUP2 MSTORE PUSH11 0x10113B30B63AB2911D1011 PUSH1 0xA9 SHL PUSH1 0x20 DUP3 ADD MSTORE PUSH1 0x2B ADD PUSH2 0x15B0 SWAP2 PUSH2 0x2C1C JUMP JUMPDEST PUSH2 0x227D PUSH1 0xF0 SHL DUP2 MSTORE PUSH1 0x2 ADD PUSH2 0x5D7D PUSH1 0xF0 SHL DUP2 MSTORE PUSH1 0x2 ADD SUB SWAP1 PUSH1 0x1F NOT SWAP2 DUP3 DUP2 ADD DUP3 MSTORE PUSH2 0x15DB SWAP1 DUP3 PUSH2 0x33A JUMP JUMPDEST PUSH2 0x15E4 SWAP1 PUSH2 0x31DD JUMP JUMPDEST PUSH1 0x40 MLOAD PUSH32 0x646174613A6170706C69636174696F6E2F6A736F6E3B6261736536342C000000 PUSH1 0x20 DUP3 ADD MSTORE SWAP2 SWAP1 DUP3 SWAP1 PUSH1 0x3D DUP3 ADD PUSH2 0x161E SWAP2 PUSH2 0x2C1C JUMP JUMPDEST SUB SWAP1 DUP2 ADD DUP3 MSTORE PUSH2 0x162E SWAP1 DUP3 PUSH2 0x33A JUMP JUMPDEST PUSH1 0x40 MLOAD PUSH2 0x62C DUP2 SWAP3 DUP3 PUSH2 0x5C3 JUMP JUMPDEST PUSH1 0xE0 PUSH2 0x1646 PUSH2 0x2E83 JUMP JUMPDEST SWAP3 PUSH2 0x1379 JUMP JUMPDEST CALLVALUE PUSH2 0x249 JUMPI PUSH1 0x20 CALLDATASIZE PUSH1 0x3 NOT ADD SLT PUSH2 0x249 JUMPI PUSH1 0x4 CALLDATALOAD PUSH2 0x1668 PUSH2 0x1B28 JUMP JUMPDEST PUSH2 0x1670 PUSH2 0x2765 JUMP JUMPDEST PUSH1 0x0 SWAP1 DUP1 DUP3 MSTORE PUSH1 0xB PUSH1 0x20 MSTORE PUSH1 0x40 DUP3 KECCAK256 SLOAD DUP1 PUSH2 0x1689 JUMPI DUP3 DUP1 RETURN JUMPDEST PUSH1 0x5 DUP2 GT ISZERO PUSH2 0x1717 JUMPI PUSH1 0x4 NOT DUP2 ADD SWAP1 DUP2 GT PUSH2 0x1712 JUMPI PUSH1 0x0 DUP1 MLOAD PUSH1 0x20 PUSH2 0x32BF DUP4 CODECOPY DUP2 MLOAD SWAP2 MSTORE SWAP2 PUSH2 0x1709 SWAP2 JUMPDEST DUP2 DUP6 MSTORE PUSH1 0xB PUSH1 0x20 MSTORE PUSH1 0x40 DUP6 KECCAK256 SSTORE DUP1 PUSH31 0xA4F8488CD701F9A77136EB5C91D5E2EDEF3C38001CA7148525ACF8A2626481 PUSH2 0x51C PUSH2 0x16F8 DUP4 PUSH1 0x0 MSTORE PUSH1 0xB PUSH1 0x20 MSTORE PUSH1 0x40 PUSH1 0x0 KECCAK256 SWAP1 JUMP JUMPDEST SLOAD PUSH1 0x40 MLOAD SWAP1 DUP2 MSTORE SWAP1 DUP2 SWAP1 PUSH1 0x20 DUP3 ADD SWAP1 JUMP JUMPDEST SUB SWAP1 LOG1 CODESIZE DUP1 DUP3 DUP1 RETURN JUMPDEST PUSH2 0x231B JUMP JUMPDEST POP PUSH2 0x1709 PUSH1 0x0 DUP1 MLOAD PUSH1 0x20 PUSH2 0x32BF DUP4 CODECOPY DUP2 MLOAD SWAP2 MSTORE SWAP2 DUP4 PUSH2 0x16B3 JUMP JUMPDEST CALLVALUE PUSH2 0x249 JUMPI PUSH1 0x20 PUSH2 0x1750 PUSH2 0x1744 CALLDATASIZE PUSH2 0xB4C JUMP JUMPDEST SWAP5 SWAP4 SWAP1 SWAP4 SWAP3 SWAP2 SWAP3 PUSH2 0x215A JUMP JUMPDEST PUSH1 0x40 MLOAD SWAP1 DUP2 MSTORE RETURN JUMPDEST CALLVALUE PUSH2 0x249 JUMPI PUSH1 0x20 CALLDATASIZE PUSH1 0x3 NOT ADD SLT PUSH2 0x249 JUMPI PUSH1 0x4 CALLDATALOAD PUSH1 0x0 MSTORE PUSH1 0xB PUSH1 0x20 MSTORE PUSH1 0x20 PUSH1 0x40 PUSH1 0x0 KECCAK256 SLOAD PUSH1 0x40 MLOAD SWAP1 DUP2 MSTORE RETURN JUMPDEST CALLVALUE PUSH2 0x249 JUMPI PUSH1 0x40 CALLDATASIZE PUSH1 0x3 NOT ADD SLT PUSH2 0x249 JUMPI PUSH1 0x20 PUSH1 0xFF PUSH2 0x17E0 PUSH1 0x4 CALLDATALOAD PUSH2 0x17A8 DUP2 PUSH2 0x2BC JUMP JUMPDEST PUSH1 0x24 CALLDATALOAD SWAP1 PUSH2 0x17B5 DUP3 PUSH2 0x2BC JUMP JUMPDEST PUSH1 0x1 DUP1 PUSH1 0xA0 SHL SUB AND PUSH1 0x0 MSTORE PUSH1 0x5 DUP5 MSTORE PUSH1 0x40 PUSH1 0x0 KECCAK256 SWAP1 PUSH1 0x1 DUP1 PUSH1 0xA0 SHL SUB AND PUSH1 0x0 MSTORE PUSH1 0x20 MSTORE PUSH1 0x40 PUSH1 0x0 KECCAK256 SWAP1 JUMP JUMPDEST SLOAD AND PUSH1 0x40 MLOAD SWAP1 ISZERO ISZERO DUP2 MSTORE RETURN JUMPDEST PUSH1 0x20 SWAP2 DUP3 DUP3 MSTORE DUP1 MLOAD SWAP1 PUSH2 0x180C PUSH2 0x100 SWAP3 DUP4 DUP7 DUP7 ADD MSTORE PUSH2 0x120 DUP6 ADD SWAP1 PUSH2 0x59E JUMP JUMPDEST SWAP4 DUP1 DUP3 ADD MLOAD SWAP5 PUSH1 0x1F NOT SWAP2 DUP3 DUP7 DUP4 SUB ADD PUSH1 0x40 DUP8 ADD MSTORE DUP7 MLOAD SWAP2 DUP3 DUP2 MSTORE DUP2 DUP2 ADD DUP3 DUP1 DUP6 PUSH1 0x5 SHL DUP5 ADD ADD SWAP10 ADD SWAP5 PUSH1 0x0 SWAP3 JUMPDEST DUP6 DUP5 LT PUSH2 0x1899 JUMPI POP POP POP POP POP POP POP SWAP1 PUSH1 0xE0 DUP3 PUSH1 0x40 PUSH2 0x3D7 SWAP6 SWAP5 ADD MLOAD PUSH1 0x60 DUP6 ADD MSTORE PUSH1 0x60 DUP2 ADD MLOAD PUSH1 0x80 DUP6 ADD MSTORE PUSH1 0x80 DUP2 ADD MLOAD PUSH1 0xA0 DUP6 ADD MSTORE PUSH1 0xA0 DUP2 ADD MLOAD PUSH1 0xC0 DUP6 ADD MSTORE PUSH2 0x1889 PUSH1 0xC0 DUP3 ADD MLOAD DUP4 DUP7 ADD SWAP1 ISZERO ISZERO SWAP1 MSTORE JUMP JUMPDEST ADD MLOAD PUSH1 0x1 PUSH1 0x1 PUSH1 0xA0 SHL SUB AND SWAP2 ADD MSTORE JUMP JUMPDEST SWAP1 SWAP2 SWAP3 SWAP4 SWAP5 SWAP6 SWAP10 DUP6 DUP1 PUSH2 0x18B6 DUP4 DUP15 DUP8 DUP8 PUSH1 0x1 SWAP8 SUB ADD DUP10 MSTORE MLOAD PUSH2 0x59E JUMP JUMPDEST SWAP13 ADD SWAP5 ADD SWAP5 ADD SWAP3 SWAP6 SWAP5 SWAP4 SWAP2 SWAP1 PUSH2 0x1839 JUMP JUMPDEST CALLVALUE PUSH2 0x249 JUMPI PUSH1 0x20 CALLDATASIZE PUSH1 0x3 NOT ADD SLT PUSH2 0x249 JUMPI PUSH2 0x62C PUSH2 0x1958 PUSH2 0x133A PUSH1 0x4 CALLDATALOAD PUSH2 0x1948 PUSH1 0xE0 PUSH1 0x40 MLOAD PUSH2 0x18F5 DUP2 PUSH2 0x2E3 JUMP JUMPDEST PUSH1 0x60 DUP2 MSTORE PUSH1 0x60 PUSH1 0x20 DUP3 ADD MSTORE PUSH1 0x0 SWAP2 DUP2 DUP4 PUSH1 0x40 DUP2 SWAP5 ADD MSTORE DUP3 PUSH1 0x60 DUP3 ADD MSTORE DUP3 PUSH1 0x80 DUP3 ADD MSTORE DUP3 PUSH1 0xA0 DUP3 ADD MSTORE DUP3 PUSH1 0xC0 DUP3 ADD MSTORE ADD MSTORE DUP3 DUP2 MSTORE PUSH1 0x2 PUSH1 0x20 MSTORE PUSH2 0x1318 PUSH1 0x40 PUSH1 0x1 DUP1 PUSH1 0xA0 SHL SUB SWAP3 KECCAK256 PUSH1 0x1 DUP1 PUSH1 0xA0 SHL SUB SWAP1 SLOAD AND SWAP1 JUMP JUMPDEST PUSH1 0x0 MSTORE PUSH1 0x9 PUSH1 0x20 MSTORE PUSH1 0x40 PUSH1 0x0 KECCAK256 SWAP1 JUMP JUMPDEST PUSH1 0x40 MLOAD SWAP2 DUP3 SWAP2 DUP3 PUSH2 0x17EC JUMP JUMPDEST CALLVALUE PUSH2 0x249 JUMPI PUSH1 0x20 CALLDATASIZE PUSH1 0x3 NOT ADD SLT PUSH2 0x249 JUMPI PUSH1 0x4 CALLDATALOAD PUSH2 0x1981 DUP2 PUSH2 0x2BC JUMP JUMPDEST PUSH2 0x1989 PUSH2 0x1B28 JUMP JUMPDEST PUSH1 0x1 PUSH1 0x1 PUSH1 0xA0 SHL SUB SWAP1 DUP2 AND SWAP1 DUP2 ISZERO PUSH2 0x19DD JUMPI PUSH1 0x6 SLOAD DUP3 PUSH12 0xFFFFFFFFFFFFFFFFFFFFFFFF PUSH1 0xA0 SHL DUP3 AND OR PUSH1 0x6 SSTORE AND PUSH32 0x8BE0079C531659141344CD1FD0A4F28419497F9722A3DAAFE3B4186F6B6457E0 PUSH1 0x0 DUP1 LOG3 STOP JUMPDEST PUSH1 0x40 MLOAD PUSH4 0x1E4FBDF7 PUSH1 0xE0 SHL DUP2 MSTORE PUSH1 0x0 PUSH1 0x4 DUP3 ADD MSTORE PUSH1 0x24 SWAP1 REVERT JUMPDEST SWAP2 DUP2 PUSH1 0x1F DUP5 ADD SLT ISZERO PUSH2 0x249 JUMPI DUP3 CALLDATALOAD SWAP2 PUSH1 0x1 PUSH1 0x1 PUSH1 0x40 SHL SUB DUP4 GT PUSH2 0x249 JUMPI PUSH1 0x20 DUP1 DUP6 ADD SWAP5 DUP5 PUSH1 0x5 SHL ADD ADD GT PUSH2 0x249 JUMPI JUMP JUMPDEST PUSH1 0x20 SWAP1 DUP2 PUSH1 0x40 DUP2 DUP4 ADD SWAP3 DUP3 DUP2 MSTORE DUP6 MLOAD DUP1 SWAP5 MSTORE ADD SWAP4 ADD SWAP2 PUSH1 0x0 JUMPDEST DUP3 DUP2 LT PUSH2 0x1A4D JUMPI POP POP POP POP SWAP1 JUMP JUMPDEST DUP4 MLOAD DUP6 MSTORE SWAP4 DUP2 ADD SWAP4 SWAP3 DUP2 ADD SWAP3 PUSH1 0x1 ADD PUSH2 0x1A3F JUMP JUMPDEST CALLVALUE PUSH2 0x249 JUMPI PUSH1 0xC0 CALLDATASIZE PUSH1 0x3 NOT ADD SLT PUSH2 0x249 JUMPI PUSH1 0x1 PUSH1 0x1 PUSH1 0x40 SHL SUB PUSH1 0x4 DUP1 CALLDATALOAD DUP3 DUP2 GT PUSH2 0x249 JUMPI PUSH2 0x1A92 SWAP1 CALLDATASIZE SWAP1 DUP4 ADD PUSH2 0x19F6 JUMP JUMPDEST SWAP1 PUSH1 0x24 CALLDATALOAD DUP5 DUP2 GT PUSH2 0x249 JUMPI PUSH2 0x1AAA SWAP1 CALLDATASIZE SWAP1 DUP6 ADD PUSH2 0x19F6 JUMP JUMPDEST SWAP1 PUSH1 0x44 CALLDATALOAD DUP7 DUP2 GT PUSH2 0x249 JUMPI PUSH2 0x1AC2 SWAP1 CALLDATASIZE SWAP1 DUP8 ADD PUSH2 0x19F6 JUMP JUMPDEST SWAP1 PUSH1 0x64 CALLDATALOAD DUP9 DUP2 GT PUSH2 0x249 JUMPI PUSH2 0x1ADA SWAP1 CALLDATASIZE SWAP1 DUP10 ADD PUSH2 0x19F6 JUMP JUMPDEST SWAP3 SWAP1 SWAP2 PUSH1 0x84 CALLDATALOAD DUP11 DUP2 GT PUSH2 0x249 JUMPI PUSH2 0x1AF4 SWAP1 CALLDATASIZE SWAP1 DUP12 ADD PUSH2 0x19F6 JUMP JUMPDEST SWAP7 SWAP1 SWAP6 PUSH1 0xA4 CALLDATALOAD SWAP12 DUP13 GT PUSH2 0x249 JUMPI PUSH2 0x1B14 PUSH2 0x1B1C SWAP12 PUSH2 0x62C SWAP14 CALLDATASIZE SWAP2 ADD PUSH2 0x19F6 JUMP JUMPDEST SWAP11 SWAP1 SWAP10 PUSH2 0x27A6 JUMP JUMPDEST PUSH1 0x40 MLOAD SWAP2 DUP3 SWAP2 DUP3 PUSH2 0x1A26 JUMP JUMPDEST PUSH1 0x6 SLOAD PUSH1 0x1 PUSH1 0x1 PUSH1 0xA0 SHL SUB AND CALLER SUB PUSH2 0x1B3C JUMPI JUMP JUMPDEST PUSH1 0x40 MLOAD PUSH4 0x118CDAA7 PUSH1 0xE0 SHL DUP2 MSTORE CALLER PUSH1 0x4 DUP3 ADD MSTORE PUSH1 0x24 SWAP1 REVERT JUMPDEST SWAP2 SWAP1 PUSH1 0x1 PUSH1 0x1 PUSH1 0xA0 SHL SUB SWAP1 DUP2 DUP2 AND ISZERO PUSH2 0x1C2D JUMPI DUP3 PUSH1 0x0 MSTORE PUSH1 0x2 PUSH1 0x20 MSTORE DUP2 PUSH1 0x40 PUSH1 0x0 KECCAK256 SLOAD AND ISZERO ISZERO DUP1 PUSH2 0x1C25 JUMPI JUMPDEST PUSH2 0x1BC5 JUMPI PUSH2 0x1B91 DUP3 SWAP2 DUP5 CALLER SWAP2 PUSH2 0x1FBD JUMP JUMPDEST SWAP4 AND SWAP3 AND SWAP1 DUP3 DUP3 SUB PUSH2 0x1BA2 JUMPI POP POP POP JUMP JUMPDEST PUSH1 0x64 SWAP4 POP PUSH1 0x40 MLOAD SWAP3 PUSH4 0x64283D7B PUSH1 0xE0 SHL DUP5 MSTORE PUSH1 0x4 DUP5 ADD MSTORE PUSH1 0x24 DUP4 ADD MSTORE PUSH1 0x44 DUP3 ADD MSTORE REVERT JUMPDEST PUSH1 0x40 MLOAD PUSH3 0x461BCD PUSH1 0xE5 SHL DUP2 MSTORE PUSH1 0x20 PUSH1 0x4 DUP3 ADD MSTORE PUSH1 0x32 PUSH1 0x24 DUP3 ADD MSTORE PUSH32 0x53494E43204167656E7420546F6B656E7320617265206E6F6E2D7472616E7366 PUSH1 0x44 DUP3 ADD MSTORE PUSH18 0x657261626C652028536F756C626F756E6429 PUSH1 0x70 SHL PUSH1 0x64 DUP3 ADD MSTORE PUSH1 0x84 SWAP1 REVERT JUMPDEST POP PUSH1 0x1 PUSH2 0x1B80 JUMP JUMPDEST PUSH1 0x40 MLOAD PUSH4 0x32505749 PUSH1 0xE1 SHL DUP2 MSTORE PUSH1 0x0 PUSH1 0x4 DUP3 ADD MSTORE PUSH1 0x24 SWAP1 REVERT JUMPDEST PUSH1 0x40 MLOAD SWAP1 PUSH2 0x1C53 DUP3 PUSH2 0x304 JUMP JUMPDEST PUSH1 0x0 DUP3 MSTORE JUMP JUMPDEST SWAP2 SWAP3 SWAP1 SWAP3 PUSH2 0x1C68 DUP2 DUP6 DUP6 PUSH2 0x1B54 JUMP JUMPDEST DUP4 EXTCODESIZE PUSH2 0x1C75 JUMPI JUMPDEST POP POP POP POP JUMP JUMPDEST PUSH2 0x1C9A SWAP2 PUSH1 0x20 SWAP2 PUSH1 0x40 MLOAD SWAP4 DUP5 SWAP3 DUP4 SWAP3 PUSH4 0xA85BD01 PUSH1 0xE1 SHL SWAP8 DUP9 DUP6 MSTORE CALLER PUSH1 0x4 DUP7 ADD PUSH2 0x1DD2 JUMP JUMPDEST SUB DUP2 PUSH1 0x0 PUSH1 0x1 PUSH1 0x1 PUSH1 0xA0 SHL SUB DUP9 AND GAS CALL PUSH1 0x0 SWAP2 DUP2 PUSH2 0x1D2E JUMPI JUMPDEST POP PUSH2 0x1CF2 JUMPI DUP3 PUSH2 0x1CC1 PUSH2 0x1E03 JUMP JUMPDEST DUP1 MLOAD SWAP2 SWAP1 DUP3 PUSH2 0x1CEB JUMPI PUSH1 0x40 MLOAD PUSH4 0x32505749 PUSH1 0xE1 SHL DUP2 MSTORE PUSH1 0x1 PUSH1 0x1 PUSH1 0xA0 SHL SUB DUP4 AND PUSH1 0x4 DUP3 ADD MSTORE PUSH1 0x24 SWAP1 REVERT JUMPDEST PUSH1 0x20 SWAP2 POP ADD REVERT JUMPDEST PUSH1 0x1 PUSH1 0x1 PUSH1 0xE0 SHL SUB NOT AND SUB PUSH2 0x1D0B JUMPI POP CODESIZE DUP1 DUP1 DUP1 PUSH2 0x1C6F JUMP JUMPDEST PUSH1 0x40 MLOAD PUSH4 0x32505749 PUSH1 0xE1 SHL DUP2 MSTORE PUSH1 0x1 PUSH1 0x1 PUSH1 0xA0 SHL SUB SWAP2 SWAP1 SWAP2 AND PUSH1 0x4 DUP3 ADD MSTORE PUSH1 0x24 SWAP1 REVERT JUMPDEST PUSH2 0x1D50 SWAP2 SWAP3 POP PUSH1 0x20 RETURNDATASIZE DUP2 GT PUSH2 0x1D57 JUMPI JUMPDEST PUSH2 0x1D48 DUP2 DUP4 PUSH2 0x33A JUMP JUMPDEST DUP2 ADD SWAP1 PUSH2 0x1DBD JUMP JUMPDEST SWAP1 CODESIZE PUSH2 0x1CB3 JUMP JUMPDEST POP RETURNDATASIZE PUSH2 0x1D3E JUMP JUMPDEST PUSH2 0x1D72 SWAP1 PUSH1 0x0 MSTORE PUSH1 0x4 PUSH1 0x20 MSTORE PUSH1 0x40 PUSH1 0x0 KECCAK256 SWAP1 JUMP JUMPDEST DUP1 SLOAD PUSH1 0x1 PUSH1 0x1 PUSH1 0xA0 SHL SUB NOT AND SWAP1 SSTORE JUMP JUMPDEST PUSH1 0x0 DUP2 DUP2 MSTORE PUSH1 0x2 PUSH1 0x20 MSTORE PUSH1 0x40 SWAP1 KECCAK256 SLOAD PUSH1 0x1 PUSH1 0x1 PUSH1 0xA0 SHL SUB AND SWAP1 DUP2 ISZERO PUSH2 0x1DA5 JUMPI POP SWAP1 JUMP JUMPDEST PUSH1 0x24 SWAP1 PUSH1 0x40 MLOAD SWAP1 PUSH4 0x7E273289 PUSH1 0xE0 SHL DUP3 MSTORE PUSH1 0x4 DUP3 ADD MSTORE REVERT JUMPDEST SWAP1 DUP2 PUSH1 0x20 SWAP2 SUB SLT PUSH2 0x249 JUMPI MLOAD PUSH2 0x3D7 DUP2 PUSH2 0x237 JUMP JUMPDEST PUSH1 0x1 PUSH1 0x1 PUSH1 0xA0 SHL SUB SWAP2 DUP3 AND DUP2 MSTORE SWAP2 AND PUSH1 0x20 DUP3 ADD MSTORE PUSH1 0x40 DUP2 ADD SWAP2 SWAP1 SWAP2 MSTORE PUSH1 0x80 PUSH1 0x60 DUP3 ADD DUP2 SWAP1 MSTORE PUSH2 0x3D7 SWAP3 SWAP2 ADD SWAP1 PUSH2 0x59E JUMP JUMPDEST RETURNDATASIZE ISZERO PUSH2 0x1E2E JUMPI RETURNDATASIZE SWAP1 PUSH2 0x1E14 DUP3 PUSH2 0x36A JUMP JUMPDEST SWAP2 PUSH2 0x1E22 PUSH1 0x40 MLOAD SWAP4 DUP5 PUSH2 0x33A JUMP JUMPDEST DUP3 MSTORE RETURNDATASIZE PUSH1 0x0 PUSH1 0x20 DUP5 ADD RETURNDATACOPY JUMP JUMPDEST PUSH1 0x60 SWAP1 JUMP JUMPDEST PUSH1 0x0 DUP3 DUP2 MSTORE PUSH1 0x2 PUSH1 0x20 MSTORE PUSH1 0x40 SWAP1 KECCAK256 SLOAD PUSH1 0x1 PUSH1 0x1 PUSH1 0xA0 SHL SUB SWAP1 DUP2 AND SWAP3 SWAP2 SWAP1 PUSH2 0x1E77 SWAP1 DUP5 PUSH2 0x1EC4 JUMPI JUMPDEST DUP3 AND SWAP2 DUP3 PUSH2 0x1EA0 JUMPI JUMPDEST PUSH2 0x77E DUP5 PUSH1 0x0 MSTORE PUSH1 0x2 PUSH1 0x20 MSTORE PUSH1 0x40 PUSH1 0x0 KECCAK256 SWAP1 JUMP JUMPDEST DUP3 PUSH32 0xDDF252AD1BE2C89B69C2B068FC378DAA952BA7F163C4A11628F55A4DF523B3EF PUSH1 0x0 DUP1 LOG4 SWAP1 JUMP JUMPDEST PUSH1 0x1 PUSH1 0x1 PUSH1 0xA0 SHL SUB DUP2 AND PUSH1 0x0 SWAP1 DUP2 MSTORE PUSH1 0x3 PUSH1 0x20 MSTORE PUSH1 0x40 SWAP1 KECCAK256 PUSH1 0x1 DUP2 SLOAD ADD SWAP1 SSTORE PUSH2 0x1E63 JUMP JUMPDEST PUSH2 0x1ED8 DUP5 PUSH1 0x0 MSTORE PUSH1 0x4 PUSH1 0x20 MSTORE PUSH1 0x40 PUSH1 0x0 KECCAK256 SWAP1 JUMP JUMPDEST DUP1 SLOAD PUSH1 0x1 PUSH1 0x1 PUSH1 0xA0 SHL SUB NOT AND SWAP1 SSTORE PUSH1 0x1 PUSH1 0x1 PUSH1 0xA0 SHL SUB DUP6 AND PUSH1 0x0 SWAP1 DUP2 MSTORE PUSH1 0x3 PUSH1 0x20 MSTORE PUSH1 0x40 SWAP1 KECCAK256 DUP1 SLOAD PUSH1 0x0 NOT ADD SWAP1 SSTORE PUSH2 0x1E5A JUMP JUMPDEST PUSH1 0x0 DUP2 DUP2 MSTORE PUSH1 0x2 PUSH1 0x20 MSTORE PUSH1 0x40 SWAP1 KECCAK256 SLOAD PUSH1 0x1 PUSH1 0x1 PUSH1 0xA0 SHL SUB AND SWAP1 DUP2 PUSH2 0x1F76 JUMPI JUMPDEST PUSH2 0x1F3E DUP2 PUSH1 0x0 MSTORE PUSH1 0x2 PUSH1 0x20 MSTORE PUSH1 0x40 PUSH1 0x0 KECCAK256 SWAP1 JUMP JUMPDEST DUP1 SLOAD PUSH1 0x1 PUSH1 0x1 PUSH1 0xA0 SHL SUB NOT AND SWAP1 SSTORE PUSH1 0x0 DUP3 PUSH32 0xDDF252AD1BE2C89B69C2B068FC378DAA952BA7F163C4A11628F55A4DF523B3EF DUP3 DUP1 LOG4 SWAP1 JUMP JUMPDEST PUSH2 0x1F8A DUP2 PUSH1 0x0 MSTORE PUSH1 0x4 PUSH1 0x20 MSTORE PUSH1 0x40 PUSH1 0x0 KECCAK256 SWAP1 JUMP JUMPDEST DUP1 SLOAD PUSH1 0x1 PUSH1 0x1 PUSH1 0xA0 SHL SUB NOT AND SWAP1 SSTORE PUSH1 0x1 PUSH1 0x1 PUSH1 0xA0 SHL SUB DUP3 AND PUSH1 0x0 SWAP1 DUP2 MSTORE PUSH1 0x3 PUSH1 0x20 MSTORE PUSH1 0x40 SWAP1 KECCAK256 DUP1 SLOAD PUSH1 0x0 NOT ADD SWAP1 SSTORE PUSH2 0x1F2A JUMP JUMPDEST PUSH1 0x0 DUP3 DUP2 MSTORE PUSH1 0x2 PUSH1 0x20 MSTORE PUSH1 0x40 DUP2 KECCAK256 SLOAD PUSH1 0x1 PUSH1 0x1 PUSH1 0xA0 SHL SUB SWAP1 DUP2 AND SWAP5 DUP6 SWAP3 SWAP2 SWAP1 DUP2 DUP2 AND DUP1 ISZERO ISZERO SWAP1 DUP2 PUSH2 0x208C JUMPI JUMPDEST POP POP POP SWAP1 PUSH2 0x2035 PUSH32 0xDDF252AD1BE2C89B69C2B068FC378DAA952BA7F163C4A11628F55A4DF523B3EF SWAP3 DUP5 PUSH2 0x205E JUMPI JUMPDEST DUP6 AND SWAP5 DUP6 PUSH2 0x203A JUMPI JUMPDEST PUSH2 0x77E DUP8 PUSH1 0x0 MSTORE PUSH1 0x2 PUSH1 0x20 MSTORE PUSH1 0x40 PUSH1 0x0 KECCAK256 SWAP1 JUMP JUMPDEST DUP1 LOG4 SWAP1 JUMP JUMPDEST PUSH1 0x1 PUSH1 0x1 PUSH1 0xA0 SHL SUB DUP2 AND PUSH1 0x0 SWAP1 DUP2 MSTORE PUSH1 0x3 PUSH1 0x20 MSTORE PUSH1 0x40 SWAP1 KECCAK256 PUSH1 0x1 DUP2 SLOAD ADD SWAP1 SSTORE PUSH2 0x2021 JUMP JUMPDEST PUSH2 0x2067 DUP8 PUSH2 0x1D5E JUMP JUMPDEST PUSH1 0x1 PUSH1 0x1 PUSH1 0xA0 SHL SUB DUP6 AND PUSH1 0x0 SWAP1 DUP2 MSTORE PUSH1 0x3 PUSH1 0x20 MSTORE PUSH1 0x40 SWAP1 KECCAK256 DUP1 SLOAD PUSH1 0x0 NOT ADD SWAP1 SSTORE PUSH2 0x2018 JUMP JUMPDEST SWAP1 DUP1 SWAP3 SWAP4 SWAP5 SWAP6 POP SWAP2 PUSH2 0x20F5 JUMPI JUMPDEST POP ISZERO PUSH2 0x20AA JUMPI SWAP1 DUP2 DUP1 DUP8 SWAP5 SWAP4 PUSH2 0x1FE9 JUMP JUMPDEST DUP5 SWAP1 DUP7 PUSH2 0x20CA JUMPI PUSH1 0x40 MLOAD PUSH4 0x7E273289 PUSH1 0xE0 SHL DUP2 MSTORE PUSH1 0x4 DUP2 ADD DUP4 SWAP1 MSTORE PUSH1 0x24 SWAP1 REVERT JUMPDEST PUSH1 0x40 MLOAD PUSH4 0x177E802F PUSH1 0xE0 SHL DUP2 MSTORE PUSH1 0x1 PUSH1 0x1 PUSH1 0xA0 SHL SUB SWAP2 SWAP1 SWAP2 AND PUSH1 0x4 DUP3 ADD MSTORE PUSH1 0x24 DUP2 ADD SWAP2 SWAP1 SWAP2 MSTORE PUSH1 0x44 SWAP1 REVERT JUMPDEST DUP8 DUP2 EQ SWAP2 POP DUP2 ISZERO PUSH2 0x2127 JUMPI JUMPDEST DUP2 ISZERO PUSH2 0x210F JUMPI JUMPDEST POP CODESIZE PUSH2 0x2099 JUMP JUMPDEST SWAP1 POP DUP6 DUP5 MSTORE PUSH1 0x4 PUSH1 0x20 MSTORE DUP3 PUSH1 0x40 DUP6 KECCAK256 SLOAD AND EQ CODESIZE PUSH2 0x2108 JUMP JUMPDEST SWAP1 POP DUP7 DUP5 MSTORE PUSH1 0x5 PUSH1 0x20 MSTORE PUSH1 0xFF PUSH2 0x2152 DUP4 PUSH1 0x40 DUP8 KECCAK256 SWAP1 PUSH1 0x1 DUP1 PUSH1 0xA0 SHL SUB AND PUSH1 0x0 MSTORE PUSH1 0x20 MSTORE PUSH1 0x40 PUSH1 0x0 KECCAK256 SWAP1 JUMP JUMPDEST SLOAD AND SWAP1 PUSH2 0x2101 JUMP JUMPDEST PUSH2 0x2247 PUSH32 0x914162C67690FA436B8C7DF6421BCE3EC89955C4D38A0C956B00AB365A01FAEC SWAP4 PUSH2 0x21EB SWAP8 SWAP6 PUSH2 0x2299 SWAP5 SWAP8 PUSH2 0x2191 PUSH2 0x1B28 JUMP JUMPDEST PUSH2 0x2199 PUSH2 0x2765 JUMP JUMPDEST PUSH2 0x21A1 PUSH2 0x2783 JUMP JUMPDEST PUSH1 0x1 PUSH1 0x1 PUSH1 0xA0 SHL SUB DUP6 AND PUSH1 0x0 SWAP1 DUP2 MSTORE PUSH1 0xA PUSH1 0x20 MSTORE PUSH1 0x40 SWAP1 KECCAK256 PUSH2 0x21C4 SWAP1 SLOAD ISZERO PUSH2 0x22C5 JUMP JUMPDEST PUSH1 0xC SLOAD SWAP10 DUP11 SWAP9 PUSH2 0x21DB PUSH2 0x21D6 DUP12 PUSH2 0x2331 JUMP JUMPDEST PUSH1 0xC SSTORE JUMP JUMPDEST PUSH2 0x21E5 DUP11 ADDRESS PUSH2 0x2706 JUMP JUMPDEST TIMESTAMP PUSH2 0x235C JUMP JUMPDEST SWAP2 PUSH2 0x21F4 PUSH2 0x35B JUMP JUMPDEST SWAP4 DUP11 DUP6 MSTORE PUSH1 0x20 DUP6 ADD MSTORE PUSH1 0x40 DUP5 ADD MSTORE PUSH1 0x60 DUP4 ADD MSTORE TIMESTAMP PUSH1 0x80 DUP4 ADD MSTORE PUSH1 0xA0 DUP3 ADD MSTORE PUSH2 0x221F PUSH1 0xC0 DUP3 ADD PUSH1 0x1 SWAP1 MSTORE JUMP JUMPDEST PUSH1 0x1 PUSH1 0x1 PUSH1 0xA0 SHL SUB DUP4 AND PUSH1 0xE0 DUP3 ADD MSTORE PUSH2 0x2242 DUP7 PUSH1 0x0 MSTORE PUSH1 0x9 PUSH1 0x20 MSTORE PUSH1 0x40 PUSH1 0x0 KECCAK256 SWAP1 JUMP JUMPDEST PUSH2 0x2592 JUMP JUMPDEST PUSH1 0x1 PUSH1 0x1 PUSH1 0xA0 SHL SUB DUP2 AND PUSH1 0x0 SWAP1 DUP2 MSTORE PUSH1 0xA PUSH1 0x20 MSTORE PUSH1 0x40 SWAP1 KECCAK256 DUP5 SWAP1 SSTORE PUSH2 0x2280 PUSH2 0x2279 DUP6 PUSH1 0x0 MSTORE PUSH1 0xB PUSH1 0x20 MSTORE PUSH1 0x40 PUSH1 0x0 KECCAK256 SWAP1 JUMP JUMPDEST PUSH2 0x1F4 SWAP1 SSTORE JUMP JUMPDEST PUSH1 0x40 MLOAD PUSH1 0x1 PUSH1 0x1 PUSH1 0xA0 SHL SUB SWAP1 SWAP2 AND SWAP5 SWAP1 SWAP2 DUP3 SWAP2 DUP3 PUSH2 0x5C3 JUMP JUMPDEST SUB SWAP1 LOG3 PUSH1 0x40 MLOAD DUP2 DUP2 MSTORE PUSH1 0x0 DUP1 MLOAD PUSH1 0x20 PUSH2 0x32BF DUP4 CODECOPY DUP2 MLOAD SWAP2 MSTORE SWAP1 DUP1 PUSH1 0x20 DUP2 ADD JUMPDEST SUB SWAP1 LOG1 PUSH2 0x3D7 PUSH1 0x1 PUSH1 0x7 SSTORE JUMP JUMPDEST ISZERO PUSH2 0x22CC JUMPI JUMP JUMPDEST PUSH1 0x40 MLOAD PUSH3 0x461BCD PUSH1 0xE5 SHL DUP2 MSTORE PUSH1 0x20 PUSH1 0x4 DUP3 ADD MSTORE PUSH1 0x21 PUSH1 0x24 DUP3 ADD MSTORE PUSH32 0x4167656E7420616C72656164792068617320616E2061637469766520746F6B65 PUSH1 0x44 DUP3 ADD MSTORE PUSH1 0x37 PUSH1 0xF9 SHL PUSH1 0x64 DUP3 ADD MSTORE PUSH1 0x84 SWAP1 REVERT JUMPDEST PUSH4 0x4E487B71 PUSH1 0xE0 SHL PUSH1 0x0 MSTORE PUSH1 0x11 PUSH1 0x4 MSTORE PUSH1 0x24 PUSH1 0x0 REVERT JUMPDEST PUSH1 0x0 NOT DUP2 EQ PUSH2 0x1712 JUMPI PUSH1 0x1 ADD SWAP1 JUMP JUMPDEST SWAP1 PUSH1 0x2 DUP3 ADD DUP1 SWAP3 GT PUSH2 0x1712 JUMPI JUMP JUMPDEST SWAP1 PUSH1 0x20 DUP3 ADD DUP1 SWAP3 GT PUSH2 0x1712 JUMPI JUMP JUMPDEST SWAP2 SWAP1 DUP3 ADD DUP1 SWAP3 GT PUSH2 0x1712 JUMPI JUMP JUMPDEST DUP2 DUP2 LT PUSH2 0x2374 JUMPI POP POP JUMP JUMPDEST PUSH1 0x0 DUP2 SSTORE PUSH1 0x1 ADD PUSH2 0x2369 JUMP JUMPDEST SWAP2 SWAP1 PUSH1 0x1F DUP2 GT PUSH2 0x238F JUMPI POP POP POP JUMP JUMPDEST PUSH2 0x368 SWAP3 PUSH1 0x0 MSTORE PUSH1 0x20 PUSH1 0x0 KECCAK256 SWAP1 PUSH1 0x20 PUSH1 0x1F DUP5 ADD PUSH1 0x5 SHR DUP4 ADD SWAP4 LT PUSH2 0x23BB JUMPI JUMPDEST PUSH1 0x1F ADD PUSH1 0x5 SHR ADD SWAP1 PUSH2 0x2369 JUMP JUMPDEST SWAP1 SWAP2 POP DUP2 SWAP1 PUSH2 0x23AE JUMP JUMPDEST SWAP2 SWAP1 SWAP2 DUP3 MLOAD PUSH1 0x1 PUSH1 0x1 PUSH1 0x40 SHL SUB DUP2 GT PUSH2 0x2FF JUMPI PUSH2 0x23EC DUP2 PUSH2 0x23E6 DUP5 SLOAD PUSH2 0x7F6 JUMP JUMPDEST DUP5 PUSH2 0x2380 JUMP JUMPDEST PUSH1 0x20 DUP1 PUSH1 0x1F DUP4 GT PUSH1 0x1 EQ PUSH2 0x2428 JUMPI POP DUP2 SWAP3 SWAP4 SWAP5 PUSH1 0x0 SWAP3 PUSH2 0x241D JUMPI JUMPDEST POP POP DUP2 PUSH1 0x1 SHL SWAP2 PUSH1 0x0 NOT SWAP1 PUSH1 0x3 SHL SHR NOT AND OR SWAP1 SSTORE JUMP JUMPDEST ADD MLOAD SWAP1 POP CODESIZE DUP1 PUSH2 0x2407 JUMP JUMPDEST SWAP1 PUSH1 0x1F NOT DUP4 AND SWAP6 PUSH2 0x243E DUP6 PUSH1 0x0 MSTORE PUSH1 0x20 PUSH1 0x0 KECCAK256 SWAP1 JUMP JUMPDEST SWAP3 PUSH1 0x0 SWAP1 JUMPDEST DUP9 DUP3 LT PUSH2 0x247B JUMPI POP POP DUP4 PUSH1 0x1 SWAP6 SWAP7 SWAP8 LT PUSH2 0x2462 JUMPI JUMPDEST POP POP POP DUP2 SHL ADD SWAP1 SSTORE JUMP JUMPDEST ADD MLOAD PUSH1 0x0 NOT PUSH1 0xF8 DUP5 PUSH1 0x3 SHL AND SHR NOT AND SWAP1 SSTORE CODESIZE DUP1 DUP1 PUSH2 0x2458 JUMP JUMPDEST DUP1 PUSH1 0x1 DUP6 SWAP7 DUP3 SWAP5 SWAP7 DUP7 ADD MLOAD DUP2 SSTORE ADD SWAP6 ADD SWAP4 ADD SWAP1 PUSH2 0x2443 JUMP JUMPDEST PUSH1 0x2 DUP2 SWAP1 SHL SWAP2 SWAP1 PUSH1 0x1 PUSH1 0x1 PUSH1 0xFE SHL SUB DUP2 AND SUB PUSH2 0x1712 JUMPI JUMP JUMPDEST DUP2 MLOAD SWAP2 PUSH9 0x10000000000000000 DUP4 GT PUSH2 0x2FF JUMPI DUP2 SLOAD DUP4 DUP4 SSTORE DUP1 DUP5 LT PUSH2 0x250E JUMPI JUMPDEST POP PUSH2 0x24E0 PUSH1 0x20 DUP1 SWAP3 ADD SWAP3 PUSH1 0x0 MSTORE PUSH1 0x20 PUSH1 0x0 KECCAK256 SWAP1 JUMP JUMPDEST PUSH1 0x0 SWAP3 JUMPDEST DUP5 DUP5 LT PUSH2 0x24F2 JUMPI POP POP POP POP POP JUMP JUMPDEST PUSH1 0x1 DUP4 DUP3 PUSH2 0x2502 DUP4 SWAP5 MLOAD DUP7 PUSH2 0x23C5 JUMP JUMPDEST ADD SWAP3 ADD SWAP4 ADD SWAP3 SWAP1 PUSH2 0x24E4 JUMP JUMPDEST PUSH1 0x0 DUP4 DUP2 MSTORE DUP5 PUSH1 0x20 DUP3 KECCAK256 SWAP3 DUP4 ADD SWAP3 ADD JUMPDEST DUP3 DUP2 LT PUSH2 0x252C JUMPI POP POP PUSH2 0x24CB JUMP JUMPDEST DUP1 PUSH2 0x2539 PUSH1 0x1 SWAP3 SLOAD PUSH2 0x7F6 JUMP JUMPDEST DUP1 PUSH2 0x2546 JUMPI JUMPDEST POP ADD PUSH2 0x251E JUMP JUMPDEST PUSH1 0x1F SWAP1 DUP2 DUP2 GT DUP5 EQ PUSH2 0x255E JUMPI POP POP DUP3 DUP2 SSTORE JUMPDEST CODESIZE PUSH2 0x253F JUMP JUMPDEST DUP4 PUSH2 0x2580 SWAP3 PUSH2 0x2572 DUP6 PUSH1 0x0 MSTORE PUSH1 0x20 PUSH1 0x0 KECCAK256 SWAP1 JUMP JUMPDEST SWAP3 ADD PUSH1 0x5 SHR DUP3 ADD SWAP2 ADD PUSH2 0x2369 JUMP JUMPDEST PUSH1 0x0 DUP2 DUP2 MSTORE PUSH1 0x20 DUP2 KECCAK256 DUP2 DUP4 SSTORE SSTORE PUSH2 0x2558 JUMP JUMPDEST SWAP2 SWAP1 DUP1 MLOAD SWAP3 DUP4 MLOAD PUSH1 0x1 PUSH1 0x1 PUSH1 0x40 SHL SUB DUP2 GT PUSH2 0x2FF JUMPI PUSH2 0x25B5 DUP2 PUSH2 0x23E6 DUP5 SLOAD PUSH2 0x7F6 JUMP JUMPDEST PUSH1 0x20 SWAP5 DUP6 SWAP1 PUSH1 0x1F DUP4 GT PUSH1 0x1 EQ PUSH2 0x2689 JUMPI SWAP3 PUSH2 0x2602 PUSH2 0x368 SWAP7 SWAP8 DUP5 PUSH1 0xE0 SWAP6 PUSH1 0x6 SWAP6 PUSH2 0x265C SWAP9 PUSH1 0x0 SWAP3 PUSH2 0x267E JUMPI JUMPDEST POP POP DUP2 PUSH1 0x1 SHL SWAP2 PUSH1 0x0 NOT SWAP1 PUSH1 0x3 SHL SHR NOT AND OR DUP4 SSTORE JUMPDEST DUP7 ADD MLOAD PUSH1 0x1 DUP4 ADD PUSH2 0x24AB JUMP JUMPDEST PUSH1 0x40 DUP6 ADD MLOAD PUSH1 0x2 DUP3 ADD SSTORE PUSH1 0x60 DUP6 ADD MLOAD PUSH1 0x3 DUP3 ADD SSTORE PUSH1 0x80 DUP6 ADD MLOAD PUSH1 0x4 DUP3 ADD SSTORE PUSH1 0xA0 DUP6 ADD MLOAD PUSH1 0x5 DUP3 ADD SSTORE ADD SWAP3 PUSH2 0x264E PUSH2 0x263C PUSH1 0xC0 DUP4 ADD MLOAD ISZERO ISZERO SWAP1 JUMP JUMPDEST DUP6 SWAP1 PUSH1 0xFF DUP1 NOT DUP4 SLOAD AND SWAP2 ISZERO ISZERO AND OR SWAP1 SSTORE JUMP JUMPDEST ADD MLOAD PUSH1 0x1 PUSH1 0x1 PUSH1 0xA0 SHL SUB AND SWAP1 JUMP JUMPDEST DUP2 SLOAD PUSH2 0x100 PUSH1 0x1 PUSH1 0xA8 SHL SUB NOT AND PUSH1 0x8 SWAP2 SWAP1 SWAP2 SHL PUSH2 0x100 PUSH1 0x1 PUSH1 0xA8 SHL SUB AND OR SWAP1 SSTORE JUMP JUMPDEST ADD MLOAD SWAP1 POP CODESIZE DUP1 PUSH2 0x25E1 JUMP JUMPDEST SWAP1 PUSH1 0x1F NOT DUP4 AND SWAP2 PUSH2 0x269F DUP6 PUSH1 0x0 MSTORE PUSH1 0x20 PUSH1 0x0 KECCAK256 SWAP1 JUMP JUMPDEST SWAP3 PUSH1 0x0 JUMPDEST DUP2 DUP2 LT PUSH2 0x26EF JUMPI POP SWAP8 PUSH1 0x1 DUP6 PUSH1 0x6 SWAP6 PUSH2 0x265C SWAP9 SWAP6 PUSH2 0x2602 SWAP6 PUSH1 0xE0 SWAP10 PUSH2 0x368 SWAP14 SWAP15 LT PUSH2 0x26D6 JUMPI JUMPDEST POP POP POP DUP2 SHL ADD DUP4 SSTORE PUSH2 0x25F6 JUMP JUMPDEST ADD MLOAD PUSH1 0x0 NOT PUSH1 0xF8 DUP5 PUSH1 0x3 SHL AND SHR NOT AND SWAP1 SSTORE CODESIZE DUP1 DUP1 PUSH2 0x26C9 JUMP JUMPDEST SWAP3 SWAP4 DUP10 PUSH1 0x1 DUP2 SWAP3 DUP8 DUP7 ADD MLOAD DUP2 SSTORE ADD SWAP6 ADD SWAP4 ADD PUSH2 0x26A3 JUMP JUMPDEST PUSH1 0x1 PUSH1 0x1 PUSH1 0xA0 SHL SUB SWAP2 DUP2 DUP4 AND ISZERO PUSH2 0x1C2D JUMPI DUP1 PUSH1 0x0 MSTORE PUSH1 0x2 PUSH1 0x20 MSTORE DUP3 PUSH1 0x40 PUSH1 0x0 KECCAK256 SLOAD AND ISZERO ISZERO DUP1 PUSH2 0x275D JUMPI JUMPDEST PUSH2 0x1BC5 JUMPI PUSH2 0x273D SWAP2 PUSH2 0x1E33 JUMP JUMPDEST AND PUSH2 0x2744 JUMPI JUMP JUMPDEST PUSH1 0x40 MLOAD PUSH4 0x39E35637 PUSH1 0xE1 SHL DUP2 MSTORE PUSH1 0x0 PUSH1 0x4 DUP3 ADD MSTORE PUSH1 0x24 SWAP1 REVERT JUMPDEST POP PUSH1 0x1 PUSH2 0x2730 JUMP JUMPDEST PUSH1 0xFF PUSH1 0x8 SLOAD AND PUSH2 0x2771 JUMPI JUMP JUMPDEST PUSH1 0x40 MLOAD PUSH4 0xD93C0665 PUSH1 0xE0 SHL DUP2 MSTORE PUSH1 0x4 SWAP1 REVERT JUMPDEST PUSH1 0x2 PUSH1 0x7 SLOAD EQ PUSH2 0x2794 JUMPI PUSH1 0x2 PUSH1 0x7 SSTORE JUMP JUMPDEST PUSH1 0x40 MLOAD PUSH4 0x3EE5AEB5 PUSH1 0xE0 SHL DUP2 MSTORE PUSH1 0x4 SWAP1 REVERT JUMPDEST SWAP9 SWAP5 SWAP7 SWAP4 SWAP2 SWAP10 SWAP1 SWAP12 SWAP11 SWAP6 SWAP3 SWAP8 PUSH2 0x27BA PUSH2 0x1B28 JUMP JUMPDEST PUSH2 0x27C2 PUSH2 0x2765 JUMP JUMPDEST PUSH2 0x27CA PUSH2 0x2783 JUMP JUMPDEST DUP13 DUP10 DUP2 EQ DUP1 PUSH2 0x2920 JUMPI JUMPDEST DUP1 PUSH2 0x2917 JUMPI JUMPDEST DUP9 DUP2 PUSH2 0x290D JUMPI JUMPDEST PUSH2 0x27F6 SWAP3 DUP3 PUSH2 0x2903 JUMPI JUMPDEST SWAP13 SWAP14 SWAP3 SWAP2 SWAP1 POP PUSH2 0x2929 JUMP JUMPDEST PUSH2 0x27FF DUP12 PUSH2 0x296E JUMP JUMPDEST SWAP12 PUSH1 0xC SLOAD SWAP12 PUSH1 0x0 SWAP1 JUMPDEST DUP2 LT PUSH2 0x2862 JUMPI POP POP POP POP POP POP POP POP POP POP POP POP PUSH32 0x6BD5C950A8D8DF17F772F5AF37CB3655737899CBF903264B9795592DA439661C SWAP2 SWAP3 SWAP4 POP PUSH2 0x284A PUSH1 0xC SLOAD PUSH2 0x2A6E JUMP JUMPDEST PUSH1 0x40 DUP1 MLOAD SWAP3 DUP4 MSTORE PUSH1 0x20 DUP4 ADD SWAP2 SWAP1 SWAP2 MSTORE DUP2 SWAP1 DUP2 ADD PUSH2 0x22B8 JUMP JUMPDEST SWAP1 DUP16 SWAP2 DUP1 DUP16 DUP15 DUP15 DUP15 DUP15 DUP15 DUP15 DUP15 DUP15 DUP10 DUP16 DUP16 DUP16 DUP16 DUP5 SWAP3 DUP4 PUSH2 0x2884 DUP2 DUP1 SWAP6 DUP2 SWAP6 PUSH2 0x29B6 JUMP JUMPDEST PUSH2 0x288D SWAP1 PUSH2 0x29CB JUMP JUMPDEST SWAP15 PUSH2 0x2897 SWAP3 PUSH2 0x29D5 JUMP JUMPDEST SWAP13 PUSH2 0x28A3 SWAP3 SWAP2 SWAP9 PUSH2 0x2A16 JUMP JUMPDEST SWAP9 PUSH2 0x28AF SWAP3 SWAP2 SWAP9 PUSH2 0x29B6 JUMP JUMPDEST CALLDATALOAD SWAP8 PUSH2 0x28BA SWAP3 PUSH2 0x29B6 JUMP JUMPDEST CALLDATALOAD SWAP7 PUSH2 0x28C5 SWAP3 PUSH2 0x29B6 JUMP JUMPDEST CALLDATALOAD SWAP6 CALLDATASIZE SWAP1 PUSH2 0x28D2 SWAP3 PUSH2 0x385 JUMP JUMPDEST SWAP2 CALLDATASIZE SWAP1 PUSH2 0x28DE SWAP3 PUSH2 0xADD JUMP JUMPDEST SWAP1 PUSH2 0x28E8 SWAP6 PUSH2 0x215A JUMP JUMPDEST SWAP2 PUSH2 0x28F2 SWAP2 PUSH2 0x2A5A JUMP JUMPDEST MSTORE PUSH2 0x28FC SWAP1 PUSH2 0x2331 JUMP JUMPDEST SWAP1 SWAP2 PUSH2 0x2808 JUMP JUMPDEST EQ SWAP1 POP DUP9 DUP16 PUSH2 0x27EB JUMP JUMPDEST DUP9 DUP4 EQ SWAP2 POP PUSH2 0x27E1 JUMP JUMPDEST POP DUP6 DUP2 EQ PUSH2 0x27DA JUMP JUMPDEST POP DUP9 DUP2 EQ PUSH2 0x27D4 JUMP JUMPDEST ISZERO PUSH2 0x2930 JUMPI JUMP JUMPDEST PUSH1 0x40 MLOAD PUSH3 0x461BCD PUSH1 0xE5 SHL DUP2 MSTORE PUSH1 0x20 PUSH1 0x4 DUP3 ADD MSTORE PUSH1 0x16 PUSH1 0x24 DUP3 ADD MSTORE PUSH22 0x82E4E4C2F240D8CADCCEE8D0E640DAD2E6DAC2E8C6D PUSH1 0x53 SHL PUSH1 0x44 DUP3 ADD MSTORE PUSH1 0x64 SWAP1 REVERT JUMPDEST SWAP1 PUSH2 0x2978 DUP3 PUSH2 0xAC6 JUMP JUMPDEST PUSH2 0x2985 PUSH1 0x40 MLOAD SWAP2 DUP3 PUSH2 0x33A JUMP JUMPDEST DUP3 DUP2 MSTORE DUP1 SWAP3 PUSH2 0x2996 PUSH1 0x1F NOT SWAP2 PUSH2 0xAC6 JUMP JUMPDEST ADD SWAP1 PUSH1 0x20 CALLDATASIZE SWAP2 ADD CALLDATACOPY JUMP JUMPDEST PUSH4 0x4E487B71 PUSH1 0xE0 SHL PUSH1 0x0 MSTORE PUSH1 0x32 PUSH1 0x4 MSTORE PUSH1 0x24 PUSH1 0x0 REVERT JUMPDEST SWAP2 SWAP1 DUP2 LT ISZERO PUSH2 0x29C6 JUMPI PUSH1 0x5 SHL ADD SWAP1 JUMP JUMPDEST PUSH2 0x29A0 JUMP JUMPDEST CALLDATALOAD PUSH2 0x3D7 DUP2 PUSH2 0x2BC JUMP JUMPDEST SWAP2 SWAP1 DUP2 LT ISZERO PUSH2 0x29C6 JUMPI PUSH1 0x5 SHL DUP2 ADD CALLDATALOAD SWAP1 PUSH1 0x1E NOT DUP2 CALLDATASIZE SUB ADD DUP3 SLT ISZERO PUSH2 0x249 JUMPI ADD SWAP1 DUP2 CALLDATALOAD SWAP2 PUSH1 0x1 PUSH1 0x1 PUSH1 0x40 SHL SUB DUP4 GT PUSH2 0x249 JUMPI PUSH1 0x20 ADD DUP3 CALLDATASIZE SUB DUP2 SGT PUSH2 0x249 JUMPI SWAP2 SWAP1 JUMP JUMPDEST SWAP2 SWAP1 DUP2 LT ISZERO PUSH2 0x29C6 JUMPI PUSH1 0x5 SHL DUP2 ADD CALLDATALOAD SWAP1 PUSH1 0x1E NOT DUP2 CALLDATASIZE SUB ADD DUP3 SLT ISZERO PUSH2 0x249 JUMPI ADD SWAP1 DUP2 CALLDATALOAD SWAP2 PUSH1 0x1 PUSH1 0x1 PUSH1 0x40 SHL SUB DUP4 GT PUSH2 0x249 JUMPI PUSH1 0x20 ADD DUP3 PUSH1 0x5 SHL CALLDATASIZE SUB DUP2 SGT PUSH2 0x249 JUMPI SWAP2 SWAP1 JUMP JUMPDEST DUP1 MLOAD DUP3 LT ISZERO PUSH2 0x29C6 JUMPI PUSH1 0x20 SWAP2 PUSH1 0x5 SHL ADD ADD SWAP1 JUMP JUMPDEST PUSH1 0x0 NOT DUP2 ADD SWAP2 SWAP1 DUP3 GT PUSH2 0x1712 JUMPI JUMP JUMPDEST ISZERO PUSH2 0x2A84 JUMPI JUMP JUMPDEST PUSH1 0x40 MLOAD PUSH3 0x461BCD PUSH1 0xE5 SHL DUP2 MSTORE PUSH1 0x20 PUSH1 0x4 DUP3 ADD MSTORE PUSH1 0xF PUSH1 0x24 DUP3 ADD MSTORE PUSH15 0x151BDAD95B881B9BDD08199BDD5B99 PUSH1 0x8A SHL PUSH1 0x44 DUP3 ADD MSTORE PUSH1 0x64 SWAP1 REVERT JUMPDEST ISZERO PUSH2 0x2AC2 JUMPI JUMP JUMPDEST PUSH1 0x40 MLOAD PUSH3 0x461BCD PUSH1 0xE5 SHL DUP2 MSTORE PUSH1 0x20 PUSH1 0x4 DUP3 ADD MSTORE PUSH1 0x18 PUSH1 0x24 DUP3 ADD MSTORE PUSH32 0x4167656E7420616C7265616479207465726D696E617465640000000000000000 PUSH1 0x44 DUP3 ADD MSTORE PUSH1 0x64 SWAP1 REVERT JUMPDEST ISZERO PUSH2 0x2B0E JUMPI JUMP JUMPDEST PUSH1 0x40 MLOAD PUSH3 0x461BCD PUSH1 0xE5 SHL DUP2 MSTORE PUSH1 0x20 PUSH1 0x4 DUP3 ADD MSTORE PUSH1 0xC PUSH1 0x24 DUP3 ADD MSTORE PUSH12 0x155B985D5D1A1BDC9A5E9959 PUSH1 0xA2 SHL PUSH1 0x44 DUP3 ADD MSTORE PUSH1 0x64 SWAP1 REVERT JUMPDEST PUSH1 0x0 DUP2 DUP2 MSTORE PUSH1 0x2 PUSH1 0x20 MSTORE PUSH1 0x40 SWAP1 KECCAK256 SLOAD PUSH1 0x1 PUSH1 0x1 PUSH1 0xA0 SHL SUB SWAP1 DUP2 AND ISZERO ISZERO DUP1 PUSH2 0x2B7A JUMPI JUMPDEST PUSH2 0x1BC5 JUMPI PUSH2 0x2B71 DUP3 PUSH2 0x1F0B JUMP JUMPDEST AND ISZERO PUSH2 0x1DA5 JUMPI POP JUMP JUMPDEST POP PUSH1 0x0 PUSH2 0x2B64 JUMP JUMPDEST DUP1 SLOAD DUP3 LT ISZERO PUSH2 0x29C6 JUMPI PUSH1 0x0 MSTORE PUSH1 0x20 PUSH1 0x0 KECCAK256 ADD SWAP1 PUSH1 0x0 SWAP1 JUMP JUMPDEST PUSH1 0x0 SWAP3 SWAP2 DUP2 SLOAD PUSH2 0x2BA9 DUP2 PUSH2 0x7F6 JUMP JUMPDEST SWAP3 PUSH1 0x1 SWAP2 DUP1 DUP4 AND SWAP1 DUP2 ISZERO PUSH2 0x2C01 JUMPI POP PUSH1 0x1 EQ PUSH2 0x2BC5 JUMPI POP POP POP POP JUMP JUMPDEST SWAP1 SWAP2 SWAP3 SWAP4 SWAP5 POP PUSH1 0x0 MSTORE PUSH1 0x20 SWAP1 DUP2 PUSH1 0x0 KECCAK256 SWAP1 PUSH1 0x0 SWAP2 JUMPDEST DUP6 DUP4 LT PUSH2 0x2BF0 JUMPI POP POP POP POP ADD SWAP1 CODESIZE DUP1 DUP1 DUP1 PUSH2 0x1C6F JUMP JUMPDEST DUP1 SLOAD DUP6 DUP5 ADD MSTORE SWAP2 DUP4 ADD SWAP2 DUP2 ADD PUSH2 0x2BDA JUMP JUMPDEST PUSH1 0xFF NOT AND DUP5 MSTORE POP POP POP DUP2 ISZERO ISZERO SWAP1 SWAP2 MUL ADD SWAP2 POP CODESIZE DUP1 DUP1 DUP1 PUSH2 0x1C6F JUMP JUMPDEST SWAP1 PUSH2 0x2C2F PUSH1 0x20 SWAP3 DUP3 DUP2 MLOAD SWAP5 DUP6 SWAP3 ADD PUSH2 0x57B JUMP JUMPDEST ADD SWAP1 JUMP JUMPDEST PUSH1 0x1 PUSH1 0x1 PUSH1 0xA0 SHL SUB AND PUSH1 0x0 SWAP1 DUP2 MSTORE PUSH1 0xA PUSH1 0x20 MSTORE PUSH1 0x40 SWAP1 KECCAK256 SLOAD DUP1 ISZERO PUSH2 0x2D1D JUMPI PUSH2 0x2C65 SWAP1 PUSH1 0x0 MSTORE PUSH1 0x9 PUSH1 0x20 MSTORE PUSH1 0x40 PUSH1 0x0 KECCAK256 SWAP1 JUMP JUMPDEST PUSH2 0x2C7A PUSH2 0x2C76 PUSH1 0x6 DUP4 ADD SLOAD PUSH1 0xFF AND SWAP1 JUMP JUMPDEST ISZERO SWAP1 JUMP JUMPDEST PUSH2 0x2D1D JUMPI PUSH1 0x5 DUP2 ADD SLOAD TIMESTAMP GT PUSH2 0x2D1D JUMPI PUSH1 0x0 SWAP2 PUSH1 0x1 DUP1 SWAP3 ADD DUP1 SLOAD SWAP4 JUMPDEST DUP5 DUP2 LT PUSH2 0x2CA6 JUMPI POP POP POP POP POP PUSH1 0x0 SWAP1 JUMP JUMPDEST PUSH2 0x2CB0 DUP2 DUP4 PUSH2 0x2B82 JUMP JUMPDEST POP PUSH1 0x40 SWAP1 DUP2 MLOAD SWAP1 PUSH2 0x2CFF PUSH1 0x20 SWAP2 DUP4 PUSH2 0x2CCB DUP5 DUP3 ADD DUP1 SWAP4 PUSH2 0x2B9A JUMP JUMPDEST SUB SWAP4 PUSH2 0x2CDF PUSH1 0x1F NOT SWAP6 DUP7 DUP2 ADD DUP4 MSTORE DUP3 PUSH2 0x33A JUMP JUMPDEST MLOAD SWAP1 KECCAK256 SWAP4 MLOAD SWAP2 DUP3 ADD SWAP3 DUP3 PUSH2 0x2CF3 DUP6 DUP11 PUSH2 0x2C1C JUMP JUMPDEST SUB SWAP1 DUP2 ADD DUP4 MSTORE DUP3 PUSH2 0x33A JUMP JUMPDEST MLOAD SWAP1 KECCAK256 EQ PUSH2 0x2D15 JUMPI PUSH2 0x2D10 SWAP1 PUSH2 0x2331 JUMP JUMPDEST PUSH2 0x2C95 JUMP JUMPDEST POP POP POP SWAP1 POP SWAP1 JUMP JUMPDEST POP POP PUSH1 0x0 SWAP1 JUMP JUMPDEST ISZERO PUSH2 0x2D2B JUMPI JUMP JUMPDEST PUSH1 0x40 MLOAD PUSH3 0x461BCD PUSH1 0xE5 SHL DUP2 MSTORE PUSH1 0x20 PUSH1 0x4 DUP3 ADD MSTORE PUSH1 0x14 PUSH1 0x24 DUP3 ADD MSTORE PUSH20 0x151BDAD95B88191BD95CC81B9BDD08195E1A5CDD PUSH1 0x62 SHL PUSH1 0x44 DUP3 ADD MSTORE PUSH1 0x64 SWAP1 REVERT JUMPDEST SWAP1 DUP2 SLOAD PUSH2 0x2D73 DUP2 PUSH2 0xAC6 JUMP JUMPDEST SWAP3 PUSH2 0x2D81 PUSH1 0x40 MLOAD SWAP5 DUP6 PUSH2 0x33A JUMP JUMPDEST DUP2 DUP5 MSTORE PUSH1 0x0 SWAP1 DUP2 MSTORE PUSH1 0x20 DUP1 DUP3 KECCAK256 DUP2 DUP7 ADD JUMPDEST DUP5 DUP5 LT PUSH2 0x2DA0 JUMPI POP POP POP POP POP JUMP JUMPDEST PUSH1 0x1 DUP4 DUP2 SWAP3 PUSH2 0x2DAE DUP6 PUSH2 0x830 JUMP JUMPDEST DUP2 MSTORE ADD SWAP3 ADD SWAP4 ADD SWAP3 SWAP1 PUSH2 0x2D92 JUMP JUMPDEST SWAP1 PUSH2 0x368 PUSH1 0x40 MLOAD PUSH2 0x2DCC DUP2 PUSH2 0x2E3 JUMP JUMPDEST PUSH1 0xE0 PUSH1 0x6 DUP3 SWAP6 PUSH2 0x2DDB DUP2 PUSH2 0x830 JUMP JUMPDEST DUP5 MSTORE PUSH2 0x2DE9 PUSH1 0x1 DUP3 ADD PUSH2 0x2D67 JUMP JUMPDEST PUSH1 0x20 DUP6 ADD MSTORE PUSH1 0x2 DUP2 ADD SLOAD PUSH1 0x40 DUP6 ADD MSTORE PUSH1 0x3 DUP2 ADD SLOAD PUSH1 0x60 DUP6 ADD MSTORE PUSH1 0x4 DUP2 ADD SLOAD PUSH1 0x80 DUP6 ADD MSTORE PUSH1 0x5 DUP2 ADD SLOAD PUSH1 0xA0 DUP6 ADD MSTORE ADD SLOAD PUSH1 0xFF DUP2 AND ISZERO ISZERO PUSH1 0xC0 DUP5 ADD MSTORE PUSH1 0x8 SHR PUSH1 0x1 PUSH1 0x1 PUSH1 0xA0 SHL SUB AND SWAP2 ADD MSTORE JUMP JUMPDEST PUSH1 0x1 PUSH1 0x1 PUSH1 0xA0 SHL SUB AND PUSH1 0x0 SWAP1 DUP2 MSTORE PUSH1 0xA PUSH1 0x20 MSTORE PUSH1 0x40 SWAP1 KECCAK256 SLOAD DUP1 ISZERO PUSH2 0x2E7D JUMPI PUSH1 0x0 MSTORE PUSH1 0x9 PUSH1 0x20 MSTORE PUSH1 0x40 PUSH1 0x0 KECCAK256 PUSH1 0xFF PUSH1 0x6 DUP3 ADD SLOAD AND SWAP1 DUP2 PUSH2 0x2E71 JUMPI POP SWAP1 JUMP JUMPDEST PUSH1 0x5 SWAP2 POP ADD SLOAD TIMESTAMP GT ISZERO SWAP1 JUMP JUMPDEST POP PUSH1 0x0 SWAP1 JUMP JUMPDEST PUSH1 0x40 MLOAD SWAP1 PUSH2 0x2E90 DUP3 PUSH2 0x31F JUMP JUMPDEST PUSH1 0x5 DUP3 MSTORE PUSH5 0x66616C7365 PUSH1 0xD8 SHL PUSH1 0x20 DUP4 ADD MSTORE JUMP JUMPDEST PUSH1 0x40 MLOAD SWAP1 PUSH2 0x2EB1 DUP3 PUSH2 0x31F JUMP JUMPDEST PUSH1 0x4 DUP3 MSTORE PUSH4 0x74727565 PUSH1 0xE0 SHL PUSH1 0x20 DUP4 ADD MSTORE JUMP JUMPDEST PUSH1 0x40 MLOAD SWAP1 PUSH1 0x60 DUP3 ADD DUP3 DUP2 LT PUSH1 0x1 PUSH1 0x1 PUSH1 0x40 SHL SUB DUP3 GT OR PUSH2 0x2FF JUMPI PUSH1 0x40 MSTORE PUSH1 0x2A DUP3 MSTORE PUSH1 0x40 DUP3 PUSH1 0x20 CALLDATASIZE SWAP2 ADD CALLDATACOPY JUMP JUMPDEST SWAP1 PUSH2 0x2EFA DUP3 PUSH2 0x36A JUMP JUMPDEST PUSH2 0x2F07 PUSH1 0x40 MLOAD SWAP2 DUP3 PUSH2 0x33A JUMP JUMPDEST DUP3 DUP2 MSTORE DUP1 SWAP3 PUSH2 0x2996 PUSH1 0x1F NOT SWAP2 PUSH2 0x36A JUMP JUMPDEST DUP1 PUSH1 0x0 SWAP2 PUSH27 0x184F03E93FF9F4DAA797ED6E38ED64BF6A1F010000000000000000 DUP1 DUP3 LT ISZERO PUSH2 0x304D JUMPI JUMPDEST POP PUSH14 0x4EE2D6D415B85ACEF8100000000 DUP1 DUP4 LT ISZERO PUSH2 0x303E JUMPI JUMPDEST POP PUSH7 0x2386F26FC10000 DUP1 DUP4 LT ISZERO PUSH2 0x302F JUMPI JUMPDEST POP PUSH4 0x5F5E100 DUP1 DUP4 LT ISZERO PUSH2 0x3020 JUMPI JUMPDEST POP PUSH2 0x2710 DUP1 DUP4 LT ISZERO PUSH2 0x3011 JUMPI JUMPDEST POP PUSH1 0x64 DUP3 LT ISZERO PUSH2 0x3001 JUMPI JUMPDEST PUSH1 0xA DUP1 SWAP3 LT ISZERO PUSH2 0x2FF7 JUMPI JUMPDEST PUSH1 0x1 SWAP1 DUP2 PUSH1 0x21 PUSH2 0x2FAF DUP3 DUP8 ADD PUSH2 0x2EF0 JUMP JUMPDEST SWAP6 DUP7 ADD ADD SWAP1 JUMPDEST PUSH2 0x2FC1 JUMPI JUMPDEST POP POP POP POP SWAP1 JUMP JUMPDEST PUSH1 0x0 NOT ADD SWAP1 DUP4 SWAP1 PUSH16 0x181899199A1A9B1B9C1CB0B131B232B3 PUSH1 0x81 SHL DUP3 DUP3 MOD BYTE DUP4 MSTORE8 DIV SWAP2 DUP3 ISZERO PUSH2 0x2FF2 JUMPI SWAP2 SWAP1 DUP3 PUSH2 0x2FB5 JUMP JUMPDEST PUSH2 0x2FBA JUMP JUMPDEST SWAP2 PUSH1 0x1 ADD SWAP2 PUSH2 0x2F9E JUMP JUMPDEST SWAP2 SWAP1 PUSH1 0x64 PUSH1 0x2 SWAP2 DIV SWAP2 ADD SWAP2 PUSH2 0x2F93 JUMP JUMPDEST PUSH1 0x4 SWAP2 SWAP4 SWAP3 DIV SWAP2 ADD SWAP2 CODESIZE PUSH2 0x2F88 JUMP JUMPDEST PUSH1 0x8 SWAP2 SWAP4 SWAP3 DIV SWAP2 ADD SWAP2 CODESIZE PUSH2 0x2F7B JUMP JUMPDEST PUSH1 0x10 SWAP2 SWAP4 SWAP3 DIV SWAP2 ADD SWAP2 CODESIZE PUSH2 0x2F6C JUMP JUMPDEST PUSH1 0x20 SWAP2 SWAP4 SWAP3 DIV SWAP2 ADD SWAP2 CODESIZE PUSH2 0x2F5A JUMP JUMPDEST PUSH1 0x40 SWAP4 POP DUP2 DIV SWAP2 POP CODESIZE PUSH2 0x2F41 JUMP JUMPDEST DUP1 MLOAD ISZERO PUSH2 0x29C6 JUMPI PUSH1 0x20 ADD SWAP1 JUMP JUMPDEST DUP1 MLOAD PUSH1 0x1 LT ISZERO PUSH2 0x29C6 JUMPI PUSH1 0x21 ADD SWAP1 JUMP JUMPDEST SWAP1 DUP2 MLOAD DUP2 LT ISZERO PUSH2 0x29C6 JUMPI ADD PUSH1 0x20 ADD SWAP1 JUMP JUMPDEST DUP1 ISZERO PUSH2 0x1712 JUMPI PUSH1 0x0 NOT ADD SWAP1 JUMP JUMPDEST DUP1 PUSH2 0x309F PUSH2 0x2EC4 JUMP JUMPDEST SWAP2 PUSH1 0x30 PUSH2 0x30AB DUP5 PUSH2 0x305B JUMP JUMPDEST MSTORE8 PUSH1 0x78 PUSH2 0x30B7 DUP5 PUSH2 0x3068 JUMP JUMPDEST MSTORE8 PUSH1 0x29 JUMPDEST PUSH1 0x1 DUP2 GT PUSH2 0x30ED JUMPI POP PUSH2 0x30CC JUMPI POP SWAP1 JUMP JUMPDEST PUSH1 0x40 MLOAD PUSH4 0xE22E27EB PUSH1 0xE0 SHL DUP2 MSTORE PUSH1 0x4 DUP2 ADD SWAP2 SWAP1 SWAP2 MSTORE PUSH1 0x14 PUSH1 0x24 DUP3 ADD MSTORE PUSH1 0x44 SWAP1 REVERT JUMPDEST SWAP1 PUSH1 0xF DUP2 AND SWAP1 PUSH1 0x10 DUP3 LT ISZERO PUSH2 0x29C6 JUMPI PUSH2 0x312A SWAP2 PUSH16 0x181899199A1A9B1B9C1CB0B131B232B3 PUSH1 0x81 SHL SWAP1 BYTE PUSH2 0x3120 DUP5 DUP8 PUSH2 0x3078 JUMP JUMPDEST MSTORE8 PUSH1 0x4 SHR SWAP2 PUSH2 0x3089 JUMP JUMPDEST PUSH2 0x30BB JUMP JUMPDEST ISZERO PUSH2 0x3136 JUMPI JUMP JUMPDEST PUSH1 0x40 MLOAD PUSH3 0x461BCD PUSH1 0xE5 SHL DUP2 MSTORE PUSH1 0x20 PUSH1 0x4 DUP3 ADD MSTORE PUSH1 0x10 PUSH1 0x24 DUP3 ADD MSTORE PUSH16 0x4167656E74206E6F7420616374697665 PUSH1 0x80 SHL PUSH1 0x44 DUP3 ADD MSTORE PUSH1 0x64 SWAP1 REVERT JUMPDEST PUSH1 0x40 MLOAD SWAP1 PUSH1 0x60 DUP3 ADD DUP3 DUP2 LT PUSH1 0x1 PUSH1 0x1 PUSH1 0x40 SHL SUB DUP3 GT OR PUSH2 0x2FF JUMPI PUSH1 0x40 MSTORE PUSH1 0x40 DUP3 MSTORE PUSH32 0x6768696A6B6C6D6E6F707172737475767778797A303132333435363738392B2F PUSH1 0x40 DUP4 PUSH32 0x4142434445464748494A4B4C4D4E4F505152535455565758595A616263646566 PUSH1 0x20 DUP3 ADD MSTORE ADD MSTORE JUMP JUMPDEST DUP1 MLOAD ISZERO PUSH2 0x32B5 JUMPI PUSH2 0x31EC PUSH2 0x316E JUMP JUMPDEST PUSH2 0x3208 PUSH2 0x3203 PUSH2 0x31FC DUP5 MLOAD PUSH2 0x2340 JUMP JUMPDEST PUSH1 0x3 SWAP1 DIV SWAP1 JUMP JUMPDEST PUSH2 0x2493 JUMP JUMPDEST SWAP2 PUSH2 0x321A PUSH2 0x3215 DUP5 PUSH2 0x234E JUMP JUMPDEST PUSH2 0x2EF0 JUMP JUMPDEST SWAP3 DUP4 MSTORE PUSH1 0x20 DUP2 ADD PUSH1 0x20 DUP3 MLOAD DUP4 ADD ADD PUSH1 0x20 DUP6 ADD SWAP4 JUMPDEST DUP2 DUP4 LT PUSH2 0x326E JUMPI POP POP POP PUSH1 0x3 SWAP1 MLOAD MOD DUP1 PUSH1 0x1 EQ PUSH2 0x325B JUMPI PUSH1 0x2 EQ PUSH2 0x3250 JUMPI POP SWAP1 JUMP JUMPDEST PUSH1 0x3D SWAP1 PUSH1 0x0 NOT ADD MSTORE8 SWAP1 JUMP JUMPDEST POP PUSH1 0x3D SWAP1 DUP2 PUSH1 0x0 NOT DUP3 ADD MSTORE8 PUSH1 0x1 NOT ADD MSTORE8 SWAP1 JUMP JUMPDEST SWAP1 SWAP2 SWAP4 PUSH1 0x4 DUP6 MLOAD PUSH1 0x3F SWAP1 DUP2 DUP2 PUSH1 0x12 SHR AND DUP6 ADD MLOAD DUP5 MSTORE8 DUP2 DUP2 PUSH1 0xC SHR AND DUP6 ADD MLOAD PUSH1 0x1 DUP6 ADD MSTORE8 DUP2 DUP2 PUSH1 0x6 SHR AND DUP6 ADD MLOAD PUSH1 0x2 DUP6 ADD MSTORE8 AND DUP4 ADD MLOAD SWAP2 PUSH1 0x3 SWAP3 DUP4 DUP3 ADD MSTORE8 ADD SWAP5 ADD SWAP2 SWAP1 PUSH2 0x322E JUMP JUMPDEST POP PUSH2 0x3D7 PUSH2 0x1C46 JUMP INVALID 0xF8 0xE1 LOG1 GAS 0xBA SWAP4 SWAP9 0xE0 NOT CREATE 0xB4 SWAP14 CALL LOG4 REVERT 0xE9 DUP15 0xE1 PUSH27 0xE345CB5F6B5E2C27F5033E8CE7A2646970667358221220E06D039D 0xAD NOT PUSH3 0x26A375 0xD 0xD6 DUP16 0xB3 0xD6 0x4A 0xE5 0xBD MOD RETURNDATACOPY 0xEA SWAP8 MLOAD NOT 0xF7 0x2D 0xFC 0xC7 0xD2 DUP12 PUSH18 0x3D64736F6C63430008140033000000000000 "},"methodIdentifiers":{"agentProfiles(uint256)":"0e7c52cd","agentReputation(uint256)":"debfc4ef","agentTokens(address)":"0374e1fb","approve(address,uint256)":"095ea7b3","balanceOf(address)":"70a08231","decayReputation(uint256)":"cb1d2723","delegateExecution(uint256,bytes32,string)":"383aaaf5","emergencyRevoke(address)":"58084024","getAgentProfile(uint256)":"f098a7ae","getAgentToken(address)":"cd409ffe","getApproved(uint256)":"081812fc","isAgentActive(address)":"554c4f4b","isApprovedForAll(address,address)":"e985e9c5","mintAgent(address,string,string[],uint256,uint256,uint256)":"d3b71c5b","mintAgentBatch(address[],string[],string[][],uint256[],uint256[],uint256[])":"f91bd050","name()":"06fdde03","owner()":"8da5cb5b","ownerOf(uint256)":"6352211e","pause()":"8456cb59","paused()":"5c975abb","reassignAgent(address,string,string[],uint256,uint256,uint256)":"1f141b23","renounceOwnership()":"715018a6","safeTransferFrom(address,address,uint256)":"42842e0e","safeTransferFrom(address,address,uint256,bytes)":"b88d4fde","setApprovalForAll(address,bool)":"a22cb465","supportsInterface(bytes4)":"01ffc9a7","symbol()":"95d89b41","terminateAgent(uint256)":"1ae024a4","tokenURI(uint256)":"c87b56dd","transferFrom(address,address,uint256)":"23b872dd","transferOwnership(address)":"f2fde38b","unpause()":"3f4ba83a","updateReputation(uint256,uint256)":"0675f763","validateAgent(address,string)":"02bb3f02"}}}}}