{"contracts/SINCCarbonCredit.sol":{"SINCCarbonCredit":{"abi":[{"inputs":[],"stateMutability":"nonpayable","type":"constructor"},{"inputs":[{"internalType":"address","name":"spender","type":"address"},{"internalType":"uint256","name":"allowance","type":"uint256"},{"internalType":"uint256","name":"needed","type":"uint256"}],"name":"ERC20InsufficientAllowance","type":"error"},{"inputs":[{"internalType":"address","name":"sender","type":"address"},{"internalType":"uint256","name":"balance","type":"uint256"},{"internalType":"uint256","name":"needed","type":"uint256"}],"name":"ERC20InsufficientBalance","type":"error"},{"inputs":[{"internalType":"address","name":"approver","type":"address"}],"name":"ERC20InvalidApprover","type":"error"},{"inputs":[{"internalType":"address","name":"receiver","type":"address"}],"name":"ERC20InvalidReceiver","type":"error"},{"inputs":[{"internalType":"address","name":"sender","type":"address"}],"name":"ERC20InvalidSender","type":"error"},{"inputs":[{"internalType":"address","name":"spender","type":"address"}],"name":"ERC20InvalidSpender","type":"error"},{"inputs":[{"internalType":"address","name":"owner","type":"address"}],"name":"OwnableInvalidOwner","type":"error"},{"inputs":[{"internalType":"address","name":"account","type":"address"}],"name":"OwnableUnauthorizedAccount","type":"error"},{"inputs":[],"name":"ReentrancyGuardReentrantCall","type":"error"},{"anonymous":false,"inputs":[{"indexed":true,"internalType":"address","name":"owner","type":"address"},{"indexed":true,"internalType":"address","name":"spender","type":"address"},{"indexed":false,"internalType":"uint256","name":"value","type":"uint256"}],"name":"Approval","type":"event"},{"anonymous":false,"inputs":[{"indexed":true,"internalType":"uint256","name":"projectId","type":"uint256"},{"indexed":true,"internalType":"address","name":"receiver","type":"address"},{"indexed":false,"internalType":"uint256","name":"amount","type":"uint256"}],"name":"CreditsIssued","type":"event"},{"anonymous":false,"inputs":[{"indexed":true,"internalType":"address","name":"user","type":"address"},{"indexed":false,"internalType":"uint256","name":"amount","type":"uint256"}],"name":"CreditsRetired","type":"event"},{"anonymous":false,"inputs":[{"indexed":true,"internalType":"address","name":"previousOwner","type":"address"},{"indexed":true,"internalType":"address","name":"newOwner","type":"address"}],"name":"OwnershipTransferred","type":"event"},{"anonymous":false,"inputs":[{"indexed":true,"internalType":"uint256","name":"projectId","type":"uint256"},{"indexed":false,"internalType":"string","name":"name","type":"string"},{"indexed":false,"internalType":"uint256","name":"totalCredits","type":"uint256"}],"name":"ProjectRegistered","type":"event"},{"anonymous":false,"inputs":[{"indexed":true,"internalType":"uint256","name":"projectId","type":"uint256"},{"indexed":false,"internalType":"string","name":"verificationUrl","type":"string"}],"name":"ProjectVerified","type":"event"},{"anonymous":false,"inputs":[{"indexed":true,"internalType":"address","name":"from","type":"address"},{"indexed":true,"internalType":"address","name":"to","type":"address"},{"indexed":false,"internalType":"uint256","name":"value","type":"uint256"}],"name":"Transfer","type":"event"},{"inputs":[{"internalType":"address","name":"owner","type":"address"},{"internalType":"address","name":"spender","type":"address"}],"name":"allowance","outputs":[{"internalType":"uint256","name":"","type":"uint256"}],"stateMutability":"view","type":"function"},{"inputs":[{"internalType":"address","name":"spender","type":"address"},{"internalType":"uint256","name":"value","type":"uint256"}],"name":"approve","outputs":[{"internalType":"bool","name":"","type":"bool"}],"stateMutability":"nonpayable","type":"function"},{"inputs":[{"internalType":"address","name":"account","type":"address"}],"name":"balanceOf","outputs":[{"internalType":"uint256","name":"","type":"uint256"}],"stateMutability":"view","type":"function"},{"inputs":[],"name":"decimals","outputs":[{"internalType":"uint8","name":"","type":"uint8"}],"stateMutability":"view","type":"function"},{"inputs":[{"internalType":"uint256","name":"projectId","type":"uint256"},{"internalType":"address","name":"receiver","type":"address"},{"internalType":"uint256","name":"amount","type":"uint256"}],"name":"issueCredits","outputs":[],"stateMutability":"nonpayable","type":"function"},{"inputs":[],"name":"name","outputs":[{"internalType":"string","name":"","type":"string"}],"stateMutability":"view","type":"function"},{"inputs":[],"name":"nextProjectId","outputs":[{"internalType":"uint256","name":"","type":"uint256"}],"stateMutability":"view","type":"function"},{"inputs":[],"name":"owner","outputs":[{"internalType":"address","name":"","type":"address"}],"stateMutability":"view","type":"function"},{"inputs":[{"internalType":"uint256","name":"","type":"uint256"}],"name":"projects","outputs":[{"internalType":"string","name":"name","type":"string"},{"internalType":"string","name":"location","type":"string"},{"internalType":"uint256","name":"totalCredits","type":"uint256"},{"internalType":"uint256","name":"issuedCredits","type":"uint256"},{"internalType":"bool","name":"verified","type":"bool"},{"internalType":"string","name":"verificationUrl","type":"string"}],"stateMutability":"view","type":"function"},{"inputs":[{"internalType":"string","name":"name","type":"string"},{"internalType":"string","name":"location","type":"string"},{"internalType":"uint256","name":"totalCredits","type":"uint256"}],"name":"registerProject","outputs":[{"internalType":"uint256","name":"","type":"uint256"}],"stateMutability":"nonpayable","type":"function"},{"inputs":[],"name":"renounceOwnership","outputs":[],"stateMutability":"nonpayable","type":"function"},{"inputs":[{"internalType":"uint256","name":"amount","type":"uint256"}],"name":"retireCredits","outputs":[],"stateMutability":"nonpayable","type":"function"},{"inputs":[],"name":"symbol","outputs":[{"internalType":"string","name":"","type":"string"}],"stateMutability":"view","type":"function"},{"inputs":[],"name":"totalSupply","outputs":[{"internalType":"uint256","name":"","type":"uint256"}],"stateMutability":"view","type":"function"},{"inputs":[{"internalType":"address","name":"to","type":"address"},{"internalType":"uint256","name":"value","type":"uint256"}],"name":"transfer","outputs":[{"internalType":"bool","name":"","type":"bool"}],"stateMutability":"nonpayable","type":"function"},{"inputs":[{"internalType":"address","name":"from","type":"address"},{"internalType":"address","name":"to","type":"address"},{"internalType":"uint256","name":"value","type":"uint256"}],"name":"transferFrom","outputs":[{"internalType":"bool","name":"","type":"bool"}],"stateMutability":"nonpayable","type":"function"},{"inputs":[{"internalType":"address","name":"newOwner","type":"address"}],"name":"transferOwnership","outputs":[],"stateMutability":"nonpayable","type":"function"},{"inputs":[{"internalType":"uint256","name":"projectId","type":"uint256"},{"internalType":"string","name":"verificationUrl","type":"string"}],"name":"verifyProject","outputs":[],"stateMutability":"nonpayable","type":"function"}],"evm":{"bytecode":{"linkReferences":{},"object":"60803462000394576001600160401b03906040908082018381118282101762000294578252601281526020927114d25390c810d85c989bdb8810dc99591a5d60721b84830152825190838201828110828211176200029457845260038083526253434360e81b86840152835182811162000294578154906001958683811c9316801562000389575b8984101462000373578190601f938481116200031d575b508990848311600114620002b657600092620002aa575b505060001982851b1c191690861b1782555b835192831162000294576004938454978689811c9916801562000289575b818a101462000274578883869798999a1162000218575b5080928511600114620001aa57506000936200019e575b505082851b92600019911b1c19161781555b331562000187575060058054336001600160a01b0319821681179092559251926001600160a01b03167f8be0079c531659141344cd1fd0a4f28419497f9722a3daafe3b4186f6b6457e0600080a38060065560085561131f90816200039a8239f35b6024906000845191631e4fbdf760e01b8352820152fd5b01519150388062000113565b929190879550601f1985168760005284600020946000905b828210620001fe5750508511620001e3575b50505050811b01815562000125565b01519060f884600019921b161c1916905538808080620001d4565b8484015187558a98909601959384019390810190620001c2565b90919293945086600052816000208480880160051c8201928489106200026a575b918a91899897969594930160051c01915b8281106200025a575050620000fc565b600081558897508a91016200024a565b9250819262000239565b602286634e487b7160e01b6000525260246000fd5b98607f1698620000e5565b634e487b7160e01b600052604160045260246000fd5b015190503880620000b5565b90889350601f19831691866000528b6000209260005b8d828210620003065750508411620002ed575b505050811b018255620000c7565b015160001983871b60f8161c19169055388080620002df565b8385015186558c97909501949384019301620002cc565b90915084600052896000208480850160051c8201928c861062000369575b918a91869594930160051c01915b828110620003595750506200009e565b600081558594508a910162000349565b925081926200033b565b634e487b7160e01b600052602260045260246000fd5b92607f169262000087565b600080fdfe608080604052600436101561001357600080fd5b60003560e01c90816306fdde0314610ef957508063095ea7b314610e73578063107046bd14610dd257806318160ddd14610db45780632039e33914610cc157806323b872dd14610bcf578063313ce56714610bb357806370a0823114610b79578063715018a614610b1c5780638da5cb5b14610af357806395d89b4114610a0d578063a29b04231461081d578063a9059cbb146107ec578063b8f9462214610657578063c7c7717e146101e7578063dd62ed3e14610196578063e935b7b1146101785763f2fde38b146100e557600080fd5b34610173576020366003190112610173576100fe610fdc565b610106611177565b6001600160a01b0390811690811561015a57600554826bffffffffffffffffffffffff60a01b821617600555167f8be0079c531659141344cd1fd0a4f28419497f9722a3daafe3b4186f6b6457e0600080a3005b604051631e4fbdf760e01b815260006004820152602490fd5b600080fd5b34610173576000366003190112610173576020600854604051908152f35b34610173576040366003190112610173576101af610fdc565b6101b7610ff2565b9060018060a01b038091166000526001602052604060002091166000526020526020604060002054604051908152f35b346101735760603660031901126101735760043567ffffffffffffffff811161017357610218903690600401611120565b6024803567ffffffffffffffff811161017357610239903690600401611120565b610241611177565b60085491600019831461064357600183016008556040519160c0830183811067ffffffffffffffff82111761062e5760405284835260208301526044356040830152600060608301526000608083015260405180602081011067ffffffffffffffff60208301111761061957602081016040526000815260a08301528260005260076020526040600020825180519067ffffffffffffffff821161058d5781906102f5826102ef8654611008565b86611272565b602090601f83116001146105ad576000926105a2575b50508160011b916000199060031b1c19161781555b602083015180519067ffffffffffffffff821161058d57610351826103486001860154611008565b60018601611272565b602090601f831160011461051857918060a0949260059460009261050d575b50508160011b916000199060031b1c19161760018201555b6040850151600282015560608501516003820155600481016080860151151560ff801983541691161790550192015180519167ffffffffffffffff83116104f95750918184936103e5602097946103df8554611008565b85611272565b8690601f831160011461046a57918061044d94927fc96f671035a5983839cbfb06e1101248d929c6a6cd8b317b233689c7ada29761969460009261045f575b50508160011b916000199060031b1c19161790555b604051918291604083526040830190610f9c565b604435878301520390a2604051908152f35b015190508980610424565b90601f1983169184600052886000209260005b8181106104df57509260019285927fc96f671035a5983839cbfb06e1101248d929c6a6cd8b317b233689c7ada29761989661044d9896106104c6575b505050811b019055610439565b015160001960f88460031b161c191690558980806104b9565b828401518555899850600190940193928a01928a0161047d565b634e487b7160e01b60009081526041600452fd5b015190508980610370565b906001840160005260206000209160005b601f198516811061057557509260a0949260019260059583601f1981161061055c575b505050811b016001820155610388565b015160001960f88460031b161c1916905589808061054c565b91926020600181928685015181550194019201610529565b83634e487b7160e01b60005260416004526000fd5b01519050878061030b565b9250836000526020600020906000935b601f19841685106105fe576001945083601f198116106105e5575b505050811b018155610320565b015160001960f88460031b161c191690558780806105d8565b818101518355602094850194600190930192909101906105bd565b50634e487b7160e01b60009081526041600452fd5b82634e487b7160e01b60005260416004526000fd5b634e487b7160e01b60009081526011600452fd5b3461017357606036600319011261017357600435610673610ff2565b9060443561067f611177565b6106876112c6565b8160005260209260078452604060002060ff600482015416156107b057600381019081549060026106b8868461124f565b9101541061077357836106ca9161124f565b90556001600160a01b031692831561075a578161070a7f80807df250fc60b0a27122f9dca640191a9a0347c492a6bea34b4570e50f2f029360025461124f565b600255846000526000825260406000208181540190558460007fddf252ad1be2c89b69c2b068fc378daa952ba7f163c4a11628f55a4df523b3ef84604051858152a3604051908152a36001600655005b60405163ec442f0560e01b815260006004820152602490fd5b60405162461bcd60e51b81526004810187905260156024820152744578636565647320746f74616c206372656469747360581b6044820152606490fd5b60405162461bcd60e51b8152600481018690526014602482015273141c9bda9958dd081b9bdd081d995c9a599a595960621b6044820152606490fd5b3461017357604036600319011261017357610812610808610fdc565b60243590336111a3565b602060405160018152f35b346101735760403660031901126101735760043560249081359167ffffffffffffffff908184116101735736602385011215610173578360040135918211610173573681838601011161017357610872611177565b826000526020936007855260406000206008548510156109d057600560048201916001928360ff1982541617905501906108b6856108b08454611008565b84611272565b6000601f861160011461094057937ff5572ad5bf12532768a550eaabdae192d15b31d2e676f245277508624a61fc7c9697938693848080958560409a600094610933575b50501b906000198660031b1c19161790555b855196858896875286015201848401376000828201840152601f01601f19168101030190a2005b860101359250858e6108fa565b601f1986169083600052886000209160005b8181106109b9575093879493604097937ff5572ad5bf12532768a550eaabdae192d15b31d2e676f245277508624a61fc7c9a9b97938780971061099d575b505084811b01905561090c565b8401850135600019600388901b60f8161c191690558b80610990565b868301880135845592840192918a01918a01610952565b60405162461bcd60e51b81526004810187905260168185015275141c9bda9958dd08191bd95cc81b9bdd08195e1a5cdd60521b6044820152606490fd5b34610173576000366003190112610173576040516000600454610a2f81611008565b80845290600190818116908115610acc5750600114610a71575b610a6d84610a5981860382611042565b604051918291602083526020830190610f9c565b0390f35b6004600090815292507f8a35acfbc15ff81a39ae7d344fd709f28e8600b4aa8c65c6b64bfe7fe36bd19b5b828410610ab4575050508101602001610a5982610a49565b80546020858701810191909152909301928101610a9c565b60ff191660208087019190915292151560051b85019092019250610a599150839050610a49565b34610173576000366003190112610173576005546040516001600160a01b039091168152602090f35b3461017357600036600319011261017357610b35611177565b600580546001600160a01b031981169091556000906001600160a01b03167f8be0079c531659141344cd1fd0a4f28419497f9722a3daafe3b4186f6b6457e08280a3005b34610173576020366003190112610173576001600160a01b03610b9a610fdc565b1660005260006020526020604060002054604051908152f35b3461017357600036600319011261017357602060405160128152f35b3461017357606036600319011261017357610be8610fdc565b610bf0610ff2565b6001600160a01b03821660008181526001602090815260408083203384529091529020549260443592916000198510610c2f575b5061081293506111a3565b838510610c9b578015610c82573315610c695761081294849160005260016020526040600020336000526020520360406000205584610c24565b604051634a1406b160e11b815260006004820152602490fd5b60405163e602df0560e01b815260006004820152602490fd5b604051637dc7a0d960e11b81523360048201526024810186905260448101859052606490fd5b3461017357602036600319011261017357600435610cdd6112c6565b3315610d9b5733600052600060205280604060002054818110610d735733600052600060205203604060002055806002540360025560006040518281527fddf252ad1be2c89b69c2b068fc378daa952ba7f163c4a11628f55a4df523b3ef60203392a36040519081527f75ce18f0b9e34e9d622e58c9a8e26936ea62297ebb7ca2ea99e83d0535d7997760203392a26001600655005b60405163391434e360e21b815233600482015260248101919091526044810191909152606490fd5b604051634b637e8f60e11b815260006004820152602490fd5b34610173576000366003190112610173576020600254604051908152f35b34610173576020366003190112610173576004356000526007602052610e466040600020610a6d610e028261107a565b91610e0f6001820161107a565b6002820154916003810154610e54610e31600560ff600486015416940161107a565b9360405198899860c08a5260c08a0190610f9c565b9088820360208a0152610f9c565b93604087015260608601521515608085015283820360a0850152610f9c565b3461017357604036600319011261017357610e8c610fdc565b602435903315610c82576001600160a01b0316908115610c6957336000526001602052604060002082600052602052806040600020556040519081527f8c5be1e5ebec7d5bd14f71427d1e84f3dd0314c0f7b2291e5b200ac8c7c3b92560203392a3602060405160018152f35b34610173576000366003190112610173576000600354610f1881611008565b80845290600190818116908115610acc5750600114610f4157610a6d84610a5981860382611042565b6003600090815292507fc2575a0e9e593c00f959f8c92f12db2869c3395a3b0502d05e2516446f71f85b5b828410610f84575050508101602001610a5982610a49565b80546020858701810191909152909301928101610f6c565b919082519283825260005b848110610fc8575050826000602080949584010152601f8019910116010190565b602081830181015184830182015201610fa7565b600435906001600160a01b038216820361017357565b602435906001600160a01b038216820361017357565b90600182811c92168015611038575b602083101461102257565b634e487b7160e01b600052602260045260246000fd5b91607f1691611017565b90601f8019910116810190811067ffffffffffffffff82111761106457604052565b634e487b7160e01b600052604160045260246000fd5b906040519182600082549261108e84611008565b9081845260019485811690816000146110fd57506001146110ba575b50506110b892500383611042565b565b9093915060005260209081600020936000915b8183106110e55750506110b8935082010138806110aa565b855488840185015294850194879450918301916110cd565b9150506110b894506020925060ff191682840152151560051b82010138806110aa565b81601f820112156101735780359067ffffffffffffffff82116110645760405192611155601f8401601f191660200185611042565b8284526020838301011161017357816000926020809301838601378301015290565b6005546001600160a01b0316330361118b57565b60405163118cdaa760e01b8152336004820152602490fd5b916001600160a01b03808416928315610d9b571692831561075a576000908382528160205260408220549083821061121d575091604082827fddf252ad1be2c89b69c2b068fc378daa952ba7f163c4a11628f55a4df523b3ef958760209652828652038282205586815220818154019055604051908152a3565b60405163391434e360e21b81526001600160a01b03919091166004820152602481019190915260448101839052606490fd5b9190820180921161125c57565b634e487b7160e01b600052601160045260246000fd5b90601f811161128057505050565b600091825260208220906020601f850160051c830194106112bc575b601f0160051c01915b8281106112b157505050565b8181556001016112a5565b909250829061129c565b6002600654146112d7576002600655565b604051633ee5aeb560e01b8152600490fdfea26469706673582212201486d0bcffb1a2f08d6f59a0f538b4cf52382b5fb8eac9e8d8539d97dca1425464736f6c63430008140033","opcodes":"PUSH1 0x80 CALLVALUE PUSH3 0x394 JUMPI PUSH1 0x1 PUSH1 0x1 PUSH1 0x40 SHL SUB SWAP1 PUSH1 0x40 SWAP1 DUP1 DUP3 ADD DUP4 DUP2 GT DUP3 DUP3 LT OR PUSH3 0x294 JUMPI DUP3 MSTORE PUSH1 0x12 DUP2 MSTORE PUSH1 0x20 SWAP3 PUSH18 0x14D25390C810D85C989BDB8810DC99591A5D PUSH1 0x72 SHL DUP5 DUP4 ADD MSTORE DUP3 MLOAD SWAP1 DUP4 DUP3 ADD DUP3 DUP2 LT DUP3 DUP3 GT OR PUSH3 0x294 JUMPI DUP5 MSTORE PUSH1 0x3 DUP1 DUP4 MSTORE PUSH3 0x534343 PUSH1 0xE8 SHL DUP7 DUP5 ADD MSTORE DUP4 MLOAD DUP3 DUP2 GT PUSH3 0x294 JUMPI DUP2 SLOAD SWAP1 PUSH1 0x1 SWAP6 DUP7 DUP4 DUP2 SHR SWAP4 AND DUP1 ISZERO PUSH3 0x389 JUMPI JUMPDEST DUP10 DUP5 LT EQ PUSH3 0x373 JUMPI DUP2 SWAP1 PUSH1 0x1F SWAP4 DUP5 DUP2 GT PUSH3 0x31D JUMPI JUMPDEST POP DUP10 SWAP1 DUP5 DUP4 GT PUSH1 0x1 EQ PUSH3 0x2B6 JUMPI PUSH1 0x0 SWAP3 PUSH3 0x2AA JUMPI JUMPDEST POP POP PUSH1 0x0 NOT DUP3 DUP6 SHL SHR NOT AND SWAP1 DUP7 SHL OR DUP3 SSTORE JUMPDEST DUP4 MLOAD SWAP3 DUP4 GT PUSH3 0x294 JUMPI PUSH1 0x4 SWAP4 DUP5 SLOAD SWAP8 DUP7 DUP10 DUP2 SHR SWAP10 AND DUP1 ISZERO PUSH3 0x289 JUMPI JUMPDEST DUP2 DUP11 LT EQ PUSH3 0x274 JUMPI DUP9 DUP4 DUP7 SWAP8 SWAP9 SWAP10 SWAP11 GT PUSH3 0x218 JUMPI JUMPDEST POP DUP1 SWAP3 DUP6 GT PUSH1 0x1 EQ PUSH3 0x1AA JUMPI POP PUSH1 0x0 SWAP4 PUSH3 0x19E JUMPI JUMPDEST POP POP DUP3 DUP6 SHL SWAP3 PUSH1 0x0 NOT SWAP2 SHL SHR NOT AND OR DUP2 SSTORE JUMPDEST CALLER ISZERO PUSH3 0x187 JUMPI POP PUSH1 0x5 DUP1 SLOAD CALLER PUSH1 0x1 PUSH1 0x1 PUSH1 0xA0 SHL SUB NOT DUP3 AND DUP2 OR SWAP1 SWAP3 SSTORE SWAP3 MLOAD SWAP3 PUSH1 0x1 PUSH1 0x1 PUSH1 0xA0 SHL SUB AND PUSH32 0x8BE0079C531659141344CD1FD0A4F28419497F9722A3DAAFE3B4186F6B6457E0 PUSH1 0x0 DUP1 LOG3 DUP1 PUSH1 0x6 SSTORE PUSH1 0x8 SSTORE PUSH2 0x131F SWAP1 DUP2 PUSH3 0x39A DUP3 CODECOPY RETURN JUMPDEST PUSH1 0x24 SWAP1 PUSH1 0x0 DUP5 MLOAD SWAP2 PUSH4 0x1E4FBDF7 PUSH1 0xE0 SHL DUP4 MSTORE DUP3 ADD MSTORE REVERT JUMPDEST ADD MLOAD SWAP2 POP CODESIZE DUP1 PUSH3 0x113 JUMP JUMPDEST SWAP3 SWAP2 SWAP1 DUP8 SWAP6 POP PUSH1 0x1F NOT DUP6 AND DUP8 PUSH1 0x0 MSTORE DUP5 PUSH1 0x0 KECCAK256 SWAP5 PUSH1 0x0 SWAP1 JUMPDEST DUP3 DUP3 LT PUSH3 0x1FE JUMPI POP POP DUP6 GT PUSH3 0x1E3 JUMPI JUMPDEST POP POP POP POP DUP2 SHL ADD DUP2 SSTORE PUSH3 0x125 JUMP JUMPDEST ADD MLOAD SWAP1 PUSH1 0xF8 DUP5 PUSH1 0x0 NOT SWAP3 SHL AND SHR NOT AND SWAP1 SSTORE CODESIZE DUP1 DUP1 DUP1 PUSH3 0x1D4 JUMP JUMPDEST DUP5 DUP5 ADD MLOAD DUP8 SSTORE DUP11 SWAP9 SWAP1 SWAP7 ADD SWAP6 SWAP4 DUP5 ADD SWAP4 SWAP1 DUP2 ADD SWAP1 PUSH3 0x1C2 JUMP JUMPDEST SWAP1 SWAP2 SWAP3 SWAP4 SWAP5 POP DUP7 PUSH1 0x0 MSTORE DUP2 PUSH1 0x0 KECCAK256 DUP5 DUP1 DUP9 ADD PUSH1 0x5 SHR DUP3 ADD SWAP3 DUP5 DUP10 LT PUSH3 0x26A JUMPI JUMPDEST SWAP2 DUP11 SWAP2 DUP10 SWAP9 SWAP8 SWAP7 SWAP6 SWAP5 SWAP4 ADD PUSH1 0x5 SHR ADD SWAP2 JUMPDEST DUP3 DUP2 LT PUSH3 0x25A JUMPI POP POP PUSH3 0xFC JUMP JUMPDEST PUSH1 0x0 DUP2 SSTORE DUP9 SWAP8 POP DUP11 SWAP2 ADD PUSH3 0x24A JUMP JUMPDEST SWAP3 POP DUP2 SWAP3 PUSH3 0x239 JUMP JUMPDEST PUSH1 0x22 DUP7 PUSH4 0x4E487B71 PUSH1 0xE0 SHL PUSH1 0x0 MSTORE MSTORE PUSH1 0x24 PUSH1 0x0 REVERT JUMPDEST SWAP9 PUSH1 0x7F AND SWAP9 PUSH3 0xE5 JUMP JUMPDEST PUSH4 0x4E487B71 PUSH1 0xE0 SHL PUSH1 0x0 MSTORE PUSH1 0x41 PUSH1 0x4 MSTORE PUSH1 0x24 PUSH1 0x0 REVERT JUMPDEST ADD MLOAD SWAP1 POP CODESIZE DUP1 PUSH3 0xB5 JUMP JUMPDEST SWAP1 DUP9 SWAP4 POP PUSH1 0x1F NOT DUP4 AND SWAP2 DUP7 PUSH1 0x0 MSTORE DUP12 PUSH1 0x0 KECCAK256 SWAP3 PUSH1 0x0 JUMPDEST DUP14 DUP3 DUP3 LT PUSH3 0x306 JUMPI POP POP DUP5 GT PUSH3 0x2ED JUMPI JUMPDEST POP POP POP DUP2 SHL ADD DUP3 SSTORE PUSH3 0xC7 JUMP JUMPDEST ADD MLOAD PUSH1 0x0 NOT DUP4 DUP8 SHL PUSH1 0xF8 AND SHR NOT AND SWAP1 SSTORE CODESIZE DUP1 DUP1 PUSH3 0x2DF JUMP JUMPDEST DUP4 DUP6 ADD MLOAD DUP7 SSTORE DUP13 SWAP8 SWAP1 SWAP6 ADD SWAP5 SWAP4 DUP5 ADD SWAP4 ADD PUSH3 0x2CC JUMP JUMPDEST SWAP1 SWAP2 POP DUP5 PUSH1 0x0 MSTORE DUP10 PUSH1 0x0 KECCAK256 DUP5 DUP1 DUP6 ADD PUSH1 0x5 SHR DUP3 ADD SWAP3 DUP13 DUP7 LT PUSH3 0x369 JUMPI JUMPDEST SWAP2 DUP11 SWAP2 DUP7 SWAP6 SWAP5 SWAP4 ADD PUSH1 0x5 SHR ADD SWAP2 JUMPDEST DUP3 DUP2 LT PUSH3 0x359 JUMPI POP POP PUSH3 0x9E JUMP JUMPDEST PUSH1 0x0 DUP2 SSTORE DUP6 SWAP5 POP DUP11 SWAP2 ADD PUSH3 0x349 JUMP JUMPDEST SWAP3 POP DUP2 SWAP3 PUSH3 0x33B JUMP JUMPDEST PUSH4 0x4E487B71 PUSH1 0xE0 SHL PUSH1 0x0 MSTORE PUSH1 0x22 PUSH1 0x4 MSTORE PUSH1 0x24 PUSH1 0x0 REVERT JUMPDEST SWAP3 PUSH1 0x7F AND SWAP3 PUSH3 0x87 JUMP JUMPDEST PUSH1 0x0 DUP1 REVERT INVALID PUSH1 0x80 DUP1 PUSH1 0x40 MSTORE PUSH1 0x4 CALLDATASIZE LT ISZERO PUSH2 0x13 JUMPI PUSH1 0x0 DUP1 REVERT JUMPDEST PUSH1 0x0 CALLDATALOAD PUSH1 0xE0 SHR SWAP1 DUP2 PUSH4 0x6FDDE03 EQ PUSH2 0xEF9 JUMPI POP DUP1 PUSH4 0x95EA7B3 EQ PUSH2 0xE73 JUMPI DUP1 PUSH4 0x107046BD EQ PUSH2 0xDD2 JUMPI DUP1 PUSH4 0x18160DDD EQ PUSH2 0xDB4 JUMPI DUP1 PUSH4 0x2039E339 EQ PUSH2 0xCC1 JUMPI DUP1 PUSH4 0x23B872DD EQ PUSH2 0xBCF JUMPI DUP1 PUSH4 0x313CE567 EQ PUSH2 0xBB3 JUMPI DUP1 PUSH4 0x70A08231 EQ PUSH2 0xB79 JUMPI DUP1 PUSH4 0x715018A6 EQ PUSH2 0xB1C JUMPI DUP1 PUSH4 0x8DA5CB5B EQ PUSH2 0xAF3 JUMPI DUP1 PUSH4 0x95D89B41 EQ PUSH2 0xA0D JUMPI DUP1 PUSH4 0xA29B0423 EQ PUSH2 0x81D JUMPI DUP1 PUSH4 0xA9059CBB EQ PUSH2 0x7EC JUMPI DUP1 PUSH4 0xB8F94622 EQ PUSH2 0x657 JUMPI DUP1 PUSH4 0xC7C7717E EQ PUSH2 0x1E7 JUMPI DUP1 PUSH4 0xDD62ED3E EQ PUSH2 0x196 JUMPI DUP1 PUSH4 0xE935B7B1 EQ PUSH2 0x178 JUMPI PUSH4 0xF2FDE38B EQ PUSH2 0xE5 JUMPI PUSH1 0x0 DUP1 REVERT JUMPDEST CALLVALUE PUSH2 0x173 JUMPI PUSH1 0x20 CALLDATASIZE PUSH1 0x3 NOT ADD SLT PUSH2 0x173 JUMPI PUSH2 0xFE PUSH2 0xFDC JUMP JUMPDEST PUSH2 0x106 PUSH2 0x1177 JUMP JUMPDEST PUSH1 0x1 PUSH1 0x1 PUSH1 0xA0 SHL SUB SWAP1 DUP2 AND SWAP1 DUP2 ISZERO PUSH2 0x15A JUMPI PUSH1 0x5 SLOAD DUP3 PUSH12 0xFFFFFFFFFFFFFFFFFFFFFFFF PUSH1 0xA0 SHL DUP3 AND OR PUSH1 0x5 SSTORE AND PUSH32 0x8BE0079C531659141344CD1FD0A4F28419497F9722A3DAAFE3B4186F6B6457E0 PUSH1 0x0 DUP1 LOG3 STOP JUMPDEST PUSH1 0x40 MLOAD PUSH4 0x1E4FBDF7 PUSH1 0xE0 SHL DUP2 MSTORE PUSH1 0x0 PUSH1 0x4 DUP3 ADD MSTORE PUSH1 0x24 SWAP1 REVERT JUMPDEST PUSH1 0x0 DUP1 REVERT JUMPDEST CALLVALUE PUSH2 0x173 JUMPI PUSH1 0x0 CALLDATASIZE PUSH1 0x3 NOT ADD SLT PUSH2 0x173 JUMPI PUSH1 0x20 PUSH1 0x8 SLOAD PUSH1 0x40 MLOAD SWAP1 DUP2 MSTORE RETURN JUMPDEST CALLVALUE PUSH2 0x173 JUMPI PUSH1 0x40 CALLDATASIZE PUSH1 0x3 NOT ADD SLT PUSH2 0x173 JUMPI PUSH2 0x1AF PUSH2 0xFDC JUMP JUMPDEST PUSH2 0x1B7 PUSH2 0xFF2 JUMP JUMPDEST SWAP1 PUSH1 0x1 DUP1 PUSH1 0xA0 SHL SUB DUP1 SWAP2 AND PUSH1 0x0 MSTORE PUSH1 0x1 PUSH1 0x20 MSTORE PUSH1 0x40 PUSH1 0x0 KECCAK256 SWAP2 AND PUSH1 0x0 MSTORE PUSH1 0x20 MSTORE PUSH1 0x20 PUSH1 0x40 PUSH1 0x0 KECCAK256 SLOAD PUSH1 0x40 MLOAD SWAP1 DUP2 MSTORE RETURN JUMPDEST CALLVALUE PUSH2 0x173 JUMPI PUSH1 0x60 CALLDATASIZE PUSH1 0x3 NOT ADD SLT PUSH2 0x173 JUMPI PUSH1 0x4 CALLDATALOAD PUSH8 0xFFFFFFFFFFFFFFFF DUP2 GT PUSH2 0x173 JUMPI PUSH2 0x218 SWAP1 CALLDATASIZE SWAP1 PUSH1 0x4 ADD PUSH2 0x1120 JUMP JUMPDEST PUSH1 0x24 DUP1 CALLDATALOAD PUSH8 0xFFFFFFFFFFFFFFFF DUP2 GT PUSH2 0x173 JUMPI PUSH2 0x239 SWAP1 CALLDATASIZE SWAP1 PUSH1 0x4 ADD PUSH2 0x1120 JUMP JUMPDEST PUSH2 0x241 PUSH2 0x1177 JUMP JUMPDEST PUSH1 0x8 SLOAD SWAP2 PUSH1 0x0 NOT DUP4 EQ PUSH2 0x643 JUMPI PUSH1 0x1 DUP4 ADD PUSH1 0x8 SSTORE PUSH1 0x40 MLOAD SWAP2 PUSH1 0xC0 DUP4 ADD DUP4 DUP2 LT PUSH8 0xFFFFFFFFFFFFFFFF DUP3 GT OR PUSH2 0x62E JUMPI PUSH1 0x40 MSTORE DUP5 DUP4 MSTORE PUSH1 0x20 DUP4 ADD MSTORE PUSH1 0x44 CALLDATALOAD PUSH1 0x40 DUP4 ADD MSTORE PUSH1 0x0 PUSH1 0x60 DUP4 ADD MSTORE PUSH1 0x0 PUSH1 0x80 DUP4 ADD MSTORE PUSH1 0x40 MLOAD DUP1 PUSH1 0x20 DUP2 ADD LT PUSH8 0xFFFFFFFFFFFFFFFF PUSH1 0x20 DUP4 ADD GT OR PUSH2 0x619 JUMPI PUSH1 0x20 DUP2 ADD PUSH1 0x40 MSTORE PUSH1 0x0 DUP2 MSTORE PUSH1 0xA0 DUP4 ADD MSTORE DUP3 PUSH1 0x0 MSTORE PUSH1 0x7 PUSH1 0x20 MSTORE PUSH1 0x40 PUSH1 0x0 KECCAK256 DUP3 MLOAD DUP1 MLOAD SWAP1 PUSH8 0xFFFFFFFFFFFFFFFF DUP3 GT PUSH2 0x58D JUMPI DUP2 SWAP1 PUSH2 0x2F5 DUP3 PUSH2 0x2EF DUP7 SLOAD PUSH2 0x1008 JUMP JUMPDEST DUP7 PUSH2 0x1272 JUMP JUMPDEST PUSH1 0x20 SWAP1 PUSH1 0x1F DUP4 GT PUSH1 0x1 EQ PUSH2 0x5AD JUMPI PUSH1 0x0 SWAP3 PUSH2 0x5A2 JUMPI JUMPDEST POP POP DUP2 PUSH1 0x1 SHL SWAP2 PUSH1 0x0 NOT SWAP1 PUSH1 0x3 SHL SHR NOT AND OR DUP2 SSTORE JUMPDEST PUSH1 0x20 DUP4 ADD MLOAD DUP1 MLOAD SWAP1 PUSH8 0xFFFFFFFFFFFFFFFF DUP3 GT PUSH2 0x58D JUMPI PUSH2 0x351 DUP3 PUSH2 0x348 PUSH1 0x1 DUP7 ADD SLOAD PUSH2 0x1008 JUMP JUMPDEST PUSH1 0x1 DUP7 ADD PUSH2 0x1272 JUMP JUMPDEST PUSH1 0x20 SWAP1 PUSH1 0x1F DUP4 GT PUSH1 0x1 EQ PUSH2 0x518 JUMPI SWAP2 DUP1 PUSH1 0xA0 SWAP5 SWAP3 PUSH1 0x5 SWAP5 PUSH1 0x0 SWAP3 PUSH2 0x50D JUMPI JUMPDEST POP POP DUP2 PUSH1 0x1 SHL SWAP2 PUSH1 0x0 NOT SWAP1 PUSH1 0x3 SHL SHR NOT AND OR PUSH1 0x1 DUP3 ADD SSTORE JUMPDEST PUSH1 0x40 DUP6 ADD MLOAD PUSH1 0x2 DUP3 ADD SSTORE PUSH1 0x60 DUP6 ADD MLOAD PUSH1 0x3 DUP3 ADD SSTORE PUSH1 0x4 DUP2 ADD PUSH1 0x80 DUP7 ADD MLOAD ISZERO ISZERO PUSH1 0xFF DUP1 NOT DUP4 SLOAD AND SWAP2 AND OR SWAP1 SSTORE ADD SWAP3 ADD MLOAD DUP1 MLOAD SWAP2 PUSH8 0xFFFFFFFFFFFFFFFF DUP4 GT PUSH2 0x4F9 JUMPI POP SWAP2 DUP2 DUP5 SWAP4 PUSH2 0x3E5 PUSH1 0x20 SWAP8 SWAP5 PUSH2 0x3DF DUP6 SLOAD PUSH2 0x1008 JUMP JUMPDEST DUP6 PUSH2 0x1272 JUMP JUMPDEST DUP7 SWAP1 PUSH1 0x1F DUP4 GT PUSH1 0x1 EQ PUSH2 0x46A JUMPI SWAP2 DUP1 PUSH2 0x44D SWAP5 SWAP3 PUSH32 0xC96F671035A5983839CBFB06E1101248D929C6A6CD8B317B233689C7ADA29761 SWAP7 SWAP5 PUSH1 0x0 SWAP3 PUSH2 0x45F JUMPI JUMPDEST POP POP DUP2 PUSH1 0x1 SHL SWAP2 PUSH1 0x0 NOT SWAP1 PUSH1 0x3 SHL SHR NOT AND OR SWAP1 SSTORE JUMPDEST PUSH1 0x40 MLOAD SWAP2 DUP3 SWAP2 PUSH1 0x40 DUP4 MSTORE PUSH1 0x40 DUP4 ADD SWAP1 PUSH2 0xF9C JUMP JUMPDEST PUSH1 0x44 CALLDATALOAD DUP8 DUP4 ADD MSTORE SUB SWAP1 LOG2 PUSH1 0x40 MLOAD SWAP1 DUP2 MSTORE RETURN JUMPDEST ADD MLOAD SWAP1 POP DUP10 DUP1 PUSH2 0x424 JUMP JUMPDEST SWAP1 PUSH1 0x1F NOT DUP4 AND SWAP2 DUP5 PUSH1 0x0 MSTORE DUP9 PUSH1 0x0 KECCAK256 SWAP3 PUSH1 0x0 JUMPDEST DUP2 DUP2 LT PUSH2 0x4DF JUMPI POP SWAP3 PUSH1 0x1 SWAP3 DUP6 SWAP3 PUSH32 0xC96F671035A5983839CBFB06E1101248D929C6A6CD8B317B233689C7ADA29761 SWAP9 SWAP7 PUSH2 0x44D SWAP9 SWAP7 LT PUSH2 0x4C6 JUMPI JUMPDEST POP POP POP DUP2 SHL ADD SWAP1 SSTORE PUSH2 0x439 JUMP JUMPDEST ADD MLOAD PUSH1 0x0 NOT PUSH1 0xF8 DUP5 PUSH1 0x3 SHL AND SHR NOT AND SWAP1 SSTORE DUP10 DUP1 DUP1 PUSH2 0x4B9 JUMP JUMPDEST DUP3 DUP5 ADD MLOAD DUP6 SSTORE DUP10 SWAP9 POP PUSH1 0x1 SWAP1 SWAP5 ADD SWAP4 SWAP3 DUP11 ADD SWAP3 DUP11 ADD PUSH2 0x47D JUMP JUMPDEST PUSH4 0x4E487B71 PUSH1 0xE0 SHL PUSH1 0x0 SWAP1 DUP2 MSTORE PUSH1 0x41 PUSH1 0x4 MSTORE REVERT JUMPDEST ADD MLOAD SWAP1 POP DUP10 DUP1 PUSH2 0x370 JUMP JUMPDEST SWAP1 PUSH1 0x1 DUP5 ADD PUSH1 0x0 MSTORE PUSH1 0x20 PUSH1 0x0 KECCAK256 SWAP2 PUSH1 0x0 JUMPDEST PUSH1 0x1F NOT DUP6 AND DUP2 LT PUSH2 0x575 JUMPI POP SWAP3 PUSH1 0xA0 SWAP5 SWAP3 PUSH1 0x1 SWAP3 PUSH1 0x5 SWAP6 DUP4 PUSH1 0x1F NOT DUP2 AND LT PUSH2 0x55C JUMPI JUMPDEST POP POP POP DUP2 SHL ADD PUSH1 0x1 DUP3 ADD SSTORE PUSH2 0x388 JUMP JUMPDEST ADD MLOAD PUSH1 0x0 NOT PUSH1 0xF8 DUP5 PUSH1 0x3 SHL AND SHR NOT AND SWAP1 SSTORE DUP10 DUP1 DUP1 PUSH2 0x54C JUMP JUMPDEST SWAP2 SWAP3 PUSH1 0x20 PUSH1 0x1 DUP2 SWAP3 DUP7 DUP6 ADD MLOAD DUP2 SSTORE ADD SWAP5 ADD SWAP3 ADD PUSH2 0x529 JUMP JUMPDEST DUP4 PUSH4 0x4E487B71 PUSH1 0xE0 SHL PUSH1 0x0 MSTORE PUSH1 0x41 PUSH1 0x4 MSTORE PUSH1 0x0 REVERT JUMPDEST ADD MLOAD SWAP1 POP DUP8 DUP1 PUSH2 0x30B JUMP JUMPDEST SWAP3 POP DUP4 PUSH1 0x0 MSTORE PUSH1 0x20 PUSH1 0x0 KECCAK256 SWAP1 PUSH1 0x0 SWAP4 JUMPDEST PUSH1 0x1F NOT DUP5 AND DUP6 LT PUSH2 0x5FE JUMPI PUSH1 0x1 SWAP5 POP DUP4 PUSH1 0x1F NOT DUP2 AND LT PUSH2 0x5E5 JUMPI JUMPDEST POP POP POP DUP2 SHL ADD DUP2 SSTORE PUSH2 0x320 JUMP JUMPDEST ADD MLOAD PUSH1 0x0 NOT PUSH1 0xF8 DUP5 PUSH1 0x3 SHL AND SHR NOT AND SWAP1 SSTORE DUP8 DUP1 DUP1 PUSH2 0x5D8 JUMP JUMPDEST DUP2 DUP2 ADD MLOAD DUP4 SSTORE PUSH1 0x20 SWAP5 DUP6 ADD SWAP5 PUSH1 0x1 SWAP1 SWAP4 ADD SWAP3 SWAP1 SWAP2 ADD SWAP1 PUSH2 0x5BD JUMP JUMPDEST POP PUSH4 0x4E487B71 PUSH1 0xE0 SHL PUSH1 0x0 SWAP1 DUP2 MSTORE PUSH1 0x41 PUSH1 0x4 MSTORE REVERT JUMPDEST DUP3 PUSH4 0x4E487B71 PUSH1 0xE0 SHL PUSH1 0x0 MSTORE PUSH1 0x41 PUSH1 0x4 MSTORE PUSH1 0x0 REVERT JUMPDEST PUSH4 0x4E487B71 PUSH1 0xE0 SHL PUSH1 0x0 SWAP1 DUP2 MSTORE PUSH1 0x11 PUSH1 0x4 MSTORE REVERT JUMPDEST CALLVALUE PUSH2 0x173 JUMPI PUSH1 0x60 CALLDATASIZE PUSH1 0x3 NOT ADD SLT PUSH2 0x173 JUMPI PUSH1 0x4 CALLDATALOAD PUSH2 0x673 PUSH2 0xFF2 JUMP JUMPDEST SWAP1 PUSH1 0x44 CALLDATALOAD PUSH2 0x67F PUSH2 0x1177 JUMP JUMPDEST PUSH2 0x687 PUSH2 0x12C6 JUMP JUMPDEST DUP2 PUSH1 0x0 MSTORE PUSH1 0x20 SWAP3 PUSH1 0x7 DUP5 MSTORE PUSH1 0x40 PUSH1 0x0 KECCAK256 PUSH1 0xFF PUSH1 0x4 DUP3 ADD SLOAD AND ISZERO PUSH2 0x7B0 JUMPI PUSH1 0x3 DUP2 ADD SWAP1 DUP2 SLOAD SWAP1 PUSH1 0x2 PUSH2 0x6B8 DUP7 DUP5 PUSH2 0x124F JUMP JUMPDEST SWAP2 ADD SLOAD LT PUSH2 0x773 JUMPI DUP4 PUSH2 0x6CA SWAP2 PUSH2 0x124F JUMP JUMPDEST SWAP1 SSTORE PUSH1 0x1 PUSH1 0x1 PUSH1 0xA0 SHL SUB AND SWAP3 DUP4 ISZERO PUSH2 0x75A JUMPI DUP2 PUSH2 0x70A PUSH32 0x80807DF250FC60B0A27122F9DCA640191A9A0347C492A6BEA34B4570E50F2F02 SWAP4 PUSH1 0x2 SLOAD PUSH2 0x124F JUMP JUMPDEST PUSH1 0x2 SSTORE DUP5 PUSH1 0x0 MSTORE PUSH1 0x0 DUP3 MSTORE PUSH1 0x40 PUSH1 0x0 KECCAK256 DUP2 DUP2 SLOAD ADD SWAP1 SSTORE DUP5 PUSH1 0x0 PUSH32 0xDDF252AD1BE2C89B69C2B068FC378DAA952BA7F163C4A11628F55A4DF523B3EF DUP5 PUSH1 0x40 MLOAD DUP6 DUP2 MSTORE LOG3 PUSH1 0x40 MLOAD SWAP1 DUP2 MSTORE LOG3 PUSH1 0x1 PUSH1 0x6 SSTORE STOP JUMPDEST PUSH1 0x40 MLOAD PUSH4 0xEC442F05 PUSH1 0xE0 SHL DUP2 MSTORE PUSH1 0x0 PUSH1 0x4 DUP3 ADD MSTORE PUSH1 0x24 SWAP1 REVERT JUMPDEST PUSH1 0x40 MLOAD PUSH3 0x461BCD PUSH1 0xE5 SHL DUP2 MSTORE PUSH1 0x4 DUP2 ADD DUP8 SWAP1 MSTORE PUSH1 0x15 PUSH1 0x24 DUP3 ADD MSTORE PUSH21 0x4578636565647320746F74616C2063726564697473 PUSH1 0x58 SHL PUSH1 0x44 DUP3 ADD MSTORE PUSH1 0x64 SWAP1 REVERT JUMPDEST PUSH1 0x40 MLOAD PUSH3 0x461BCD PUSH1 0xE5 SHL DUP2 MSTORE PUSH1 0x4 DUP2 ADD DUP7 SWAP1 MSTORE PUSH1 0x14 PUSH1 0x24 DUP3 ADD MSTORE PUSH20 0x141C9BDA9958DD081B9BDD081D995C9A599A5959 PUSH1 0x62 SHL PUSH1 0x44 DUP3 ADD MSTORE PUSH1 0x64 SWAP1 REVERT JUMPDEST CALLVALUE PUSH2 0x173 JUMPI PUSH1 0x40 CALLDATASIZE PUSH1 0x3 NOT ADD SLT PUSH2 0x173 JUMPI PUSH2 0x812 PUSH2 0x808 PUSH2 0xFDC JUMP JUMPDEST PUSH1 0x24 CALLDATALOAD SWAP1 CALLER PUSH2 0x11A3 JUMP JUMPDEST PUSH1 0x20 PUSH1 0x40 MLOAD PUSH1 0x1 DUP2 MSTORE RETURN JUMPDEST CALLVALUE PUSH2 0x173 JUMPI PUSH1 0x40 CALLDATASIZE PUSH1 0x3 NOT ADD SLT PUSH2 0x173 JUMPI PUSH1 0x4 CALLDATALOAD PUSH1 0x24 SWAP1 DUP2 CALLDATALOAD SWAP2 PUSH8 0xFFFFFFFFFFFFFFFF SWAP1 DUP2 DUP5 GT PUSH2 0x173 JUMPI CALLDATASIZE PUSH1 0x23 DUP6 ADD SLT ISZERO PUSH2 0x173 JUMPI DUP4 PUSH1 0x4 ADD CALLDATALOAD SWAP2 DUP3 GT PUSH2 0x173 JUMPI CALLDATASIZE DUP2 DUP4 DUP7 ADD ADD GT PUSH2 0x173 JUMPI PUSH2 0x872 PUSH2 0x1177 JUMP JUMPDEST DUP3 PUSH1 0x0 MSTORE PUSH1 0x20 SWAP4 PUSH1 0x7 DUP6 MSTORE PUSH1 0x40 PUSH1 0x0 KECCAK256 PUSH1 0x8 SLOAD DUP6 LT ISZERO PUSH2 0x9D0 JUMPI PUSH1 0x5 PUSH1 0x4 DUP3 ADD SWAP2 PUSH1 0x1 SWAP3 DUP4 PUSH1 0xFF NOT DUP3 SLOAD AND OR SWAP1 SSTORE ADD SWAP1 PUSH2 0x8B6 DUP6 PUSH2 0x8B0 DUP5 SLOAD PUSH2 0x1008 JUMP JUMPDEST DUP5 PUSH2 0x1272 JUMP JUMPDEST PUSH1 0x0 PUSH1 0x1F DUP7 GT PUSH1 0x1 EQ PUSH2 0x940 JUMPI SWAP4 PUSH32 0xF5572AD5BF12532768A550EAABDAE192D15B31D2E676F245277508624A61FC7C SWAP7 SWAP8 SWAP4 DUP7 SWAP4 DUP5 DUP1 DUP1 SWAP6 DUP6 PUSH1 0x40 SWAP11 PUSH1 0x0 SWAP5 PUSH2 0x933 JUMPI JUMPDEST POP POP SHL SWAP1 PUSH1 0x0 NOT DUP7 PUSH1 0x3 SHL SHR NOT AND OR SWAP1 SSTORE JUMPDEST DUP6 MLOAD SWAP7 DUP6 DUP9 SWAP7 DUP8 MSTORE DUP7 ADD MSTORE ADD DUP5 DUP5 ADD CALLDATACOPY PUSH1 0x0 DUP3 DUP3 ADD DUP5 ADD MSTORE PUSH1 0x1F ADD PUSH1 0x1F NOT AND DUP2 ADD SUB ADD SWAP1 LOG2 STOP JUMPDEST DUP7 ADD ADD CALLDATALOAD SWAP3 POP DUP6 DUP15 PUSH2 0x8FA JUMP JUMPDEST PUSH1 0x1F NOT DUP7 AND SWAP1 DUP4 PUSH1 0x0 MSTORE DUP9 PUSH1 0x0 KECCAK256 SWAP2 PUSH1 0x0 JUMPDEST DUP2 DUP2 LT PUSH2 0x9B9 JUMPI POP SWAP4 DUP8 SWAP5 SWAP4 PUSH1 0x40 SWAP8 SWAP4 PUSH32 0xF5572AD5BF12532768A550EAABDAE192D15B31D2E676F245277508624A61FC7C SWAP11 SWAP12 SWAP8 SWAP4 DUP8 DUP1 SWAP8 LT PUSH2 0x99D JUMPI JUMPDEST POP POP DUP5 DUP2 SHL ADD SWAP1 SSTORE PUSH2 0x90C JUMP JUMPDEST DUP5 ADD DUP6 ADD CALLDATALOAD PUSH1 0x0 NOT PUSH1 0x3 DUP9 SWAP1 SHL PUSH1 0xF8 AND SHR NOT AND SWAP1 SSTORE DUP12 DUP1 PUSH2 0x990 JUMP JUMPDEST DUP7 DUP4 ADD DUP9 ADD CALLDATALOAD DUP5 SSTORE SWAP3 DUP5 ADD SWAP3 SWAP2 DUP11 ADD SWAP2 DUP11 ADD PUSH2 0x952 JUMP JUMPDEST PUSH1 0x40 MLOAD PUSH3 0x461BCD PUSH1 0xE5 SHL DUP2 MSTORE PUSH1 0x4 DUP2 ADD DUP8 SWAP1 MSTORE PUSH1 0x16 DUP2 DUP6 ADD MSTORE PUSH22 0x141C9BDA9958DD08191BD95CC81B9BDD08195E1A5CDD PUSH1 0x52 SHL PUSH1 0x44 DUP3 ADD MSTORE PUSH1 0x64 SWAP1 REVERT JUMPDEST CALLVALUE PUSH2 0x173 JUMPI PUSH1 0x0 CALLDATASIZE PUSH1 0x3 NOT ADD SLT PUSH2 0x173 JUMPI PUSH1 0x40 MLOAD PUSH1 0x0 PUSH1 0x4 SLOAD PUSH2 0xA2F DUP2 PUSH2 0x1008 JUMP JUMPDEST DUP1 DUP5 MSTORE SWAP1 PUSH1 0x1 SWAP1 DUP2 DUP2 AND SWAP1 DUP2 ISZERO PUSH2 0xACC JUMPI POP PUSH1 0x1 EQ PUSH2 0xA71 JUMPI JUMPDEST PUSH2 0xA6D DUP5 PUSH2 0xA59 DUP2 DUP7 SUB DUP3 PUSH2 0x1042 JUMP JUMPDEST PUSH1 0x40 MLOAD SWAP2 DUP3 SWAP2 PUSH1 0x20 DUP4 MSTORE PUSH1 0x20 DUP4 ADD SWAP1 PUSH2 0xF9C JUMP JUMPDEST SUB SWAP1 RETURN JUMPDEST PUSH1 0x4 PUSH1 0x0 SWAP1 DUP2 MSTORE SWAP3 POP PUSH32 0x8A35ACFBC15FF81A39AE7D344FD709F28E8600B4AA8C65C6B64BFE7FE36BD19B JUMPDEST DUP3 DUP5 LT PUSH2 0xAB4 JUMPI POP POP POP DUP2 ADD PUSH1 0x20 ADD PUSH2 0xA59 DUP3 PUSH2 0xA49 JUMP JUMPDEST DUP1 SLOAD PUSH1 0x20 DUP6 DUP8 ADD DUP2 ADD SWAP2 SWAP1 SWAP2 MSTORE SWAP1 SWAP4 ADD SWAP3 DUP2 ADD PUSH2 0xA9C JUMP JUMPDEST PUSH1 0xFF NOT AND PUSH1 0x20 DUP1 DUP8 ADD SWAP2 SWAP1 SWAP2 MSTORE SWAP3 ISZERO ISZERO PUSH1 0x5 SHL DUP6 ADD SWAP1 SWAP3 ADD SWAP3 POP PUSH2 0xA59 SWAP2 POP DUP4 SWAP1 POP PUSH2 0xA49 JUMP JUMPDEST CALLVALUE PUSH2 0x173 JUMPI PUSH1 0x0 CALLDATASIZE PUSH1 0x3 NOT ADD SLT PUSH2 0x173 JUMPI PUSH1 0x5 SLOAD PUSH1 0x40 MLOAD PUSH1 0x1 PUSH1 0x1 PUSH1 0xA0 SHL SUB SWAP1 SWAP2 AND DUP2 MSTORE PUSH1 0x20 SWAP1 RETURN JUMPDEST CALLVALUE PUSH2 0x173 JUMPI PUSH1 0x0 CALLDATASIZE PUSH1 0x3 NOT ADD SLT PUSH2 0x173 JUMPI PUSH2 0xB35 PUSH2 0x1177 JUMP JUMPDEST PUSH1 0x5 DUP1 SLOAD PUSH1 0x1 PUSH1 0x1 PUSH1 0xA0 SHL SUB NOT DUP2 AND SWAP1 SWAP2 SSTORE PUSH1 0x0 SWAP1 PUSH1 0x1 PUSH1 0x1 PUSH1 0xA0 SHL SUB AND PUSH32 0x8BE0079C531659141344CD1FD0A4F28419497F9722A3DAAFE3B4186F6B6457E0 DUP3 DUP1 LOG3 STOP JUMPDEST CALLVALUE PUSH2 0x173 JUMPI PUSH1 0x20 CALLDATASIZE PUSH1 0x3 NOT ADD SLT PUSH2 0x173 JUMPI PUSH1 0x1 PUSH1 0x1 PUSH1 0xA0 SHL SUB PUSH2 0xB9A PUSH2 0xFDC JUMP JUMPDEST AND PUSH1 0x0 MSTORE PUSH1 0x0 PUSH1 0x20 MSTORE PUSH1 0x20 PUSH1 0x40 PUSH1 0x0 KECCAK256 SLOAD PUSH1 0x40 MLOAD SWAP1 DUP2 MSTORE RETURN JUMPDEST CALLVALUE PUSH2 0x173 JUMPI PUSH1 0x0 CALLDATASIZE PUSH1 0x3 NOT ADD SLT PUSH2 0x173 JUMPI PUSH1 0x20 PUSH1 0x40 MLOAD PUSH1 0x12 DUP2 MSTORE RETURN JUMPDEST CALLVALUE PUSH2 0x173 JUMPI PUSH1 0x60 CALLDATASIZE PUSH1 0x3 NOT ADD SLT PUSH2 0x173 JUMPI PUSH2 0xBE8 PUSH2 0xFDC JUMP JUMPDEST PUSH2 0xBF0 PUSH2 0xFF2 JUMP JUMPDEST PUSH1 0x1 PUSH1 0x1 PUSH1 0xA0 SHL SUB DUP3 AND PUSH1 0x0 DUP2 DUP2 MSTORE PUSH1 0x1 PUSH1 0x20 SWAP1 DUP2 MSTORE PUSH1 0x40 DUP1 DUP4 KECCAK256 CALLER DUP5 MSTORE SWAP1 SWAP2 MSTORE SWAP1 KECCAK256 SLOAD SWAP3 PUSH1 0x44 CALLDATALOAD SWAP3 SWAP2 PUSH1 0x0 NOT DUP6 LT PUSH2 0xC2F JUMPI JUMPDEST POP PUSH2 0x812 SWAP4 POP PUSH2 0x11A3 JUMP JUMPDEST DUP4 DUP6 LT PUSH2 0xC9B JUMPI DUP1 ISZERO PUSH2 0xC82 JUMPI CALLER ISZERO PUSH2 0xC69 JUMPI PUSH2 0x812 SWAP5 DUP5 SWAP2 PUSH1 0x0 MSTORE PUSH1 0x1 PUSH1 0x20 MSTORE PUSH1 0x40 PUSH1 0x0 KECCAK256 CALLER PUSH1 0x0 MSTORE PUSH1 0x20 MSTORE SUB PUSH1 0x40 PUSH1 0x0 KECCAK256 SSTORE DUP5 PUSH2 0xC24 JUMP JUMPDEST PUSH1 0x40 MLOAD PUSH4 0x4A1406B1 PUSH1 0xE1 SHL DUP2 MSTORE PUSH1 0x0 PUSH1 0x4 DUP3 ADD MSTORE PUSH1 0x24 SWAP1 REVERT JUMPDEST PUSH1 0x40 MLOAD PUSH4 0xE602DF05 PUSH1 0xE0 SHL DUP2 MSTORE PUSH1 0x0 PUSH1 0x4 DUP3 ADD MSTORE PUSH1 0x24 SWAP1 REVERT JUMPDEST PUSH1 0x40 MLOAD PUSH4 0x7DC7A0D9 PUSH1 0xE1 SHL DUP2 MSTORE CALLER PUSH1 0x4 DUP3 ADD MSTORE PUSH1 0x24 DUP2 ADD DUP7 SWAP1 MSTORE PUSH1 0x44 DUP2 ADD DUP6 SWAP1 MSTORE PUSH1 0x64 SWAP1 REVERT JUMPDEST CALLVALUE PUSH2 0x173 JUMPI PUSH1 0x20 CALLDATASIZE PUSH1 0x3 NOT ADD SLT PUSH2 0x173 JUMPI PUSH1 0x4 CALLDATALOAD PUSH2 0xCDD PUSH2 0x12C6 JUMP JUMPDEST CALLER ISZERO PUSH2 0xD9B JUMPI CALLER PUSH1 0x0 MSTORE PUSH1 0x0 PUSH1 0x20 MSTORE DUP1 PUSH1 0x40 PUSH1 0x0 KECCAK256 SLOAD DUP2 DUP2 LT PUSH2 0xD73 JUMPI CALLER PUSH1 0x0 MSTORE PUSH1 0x0 PUSH1 0x20 MSTORE SUB PUSH1 0x40 PUSH1 0x0 KECCAK256 SSTORE DUP1 PUSH1 0x2 SLOAD SUB PUSH1 0x2 SSTORE PUSH1 0x0 PUSH1 0x40 MLOAD DUP3 DUP2 MSTORE PUSH32 0xDDF252AD1BE2C89B69C2B068FC378DAA952BA7F163C4A11628F55A4DF523B3EF PUSH1 0x20 CALLER SWAP3 LOG3 PUSH1 0x40 MLOAD SWAP1 DUP2 MSTORE PUSH32 0x75CE18F0B9E34E9D622E58C9A8E26936EA62297EBB7CA2EA99E83D0535D79977 PUSH1 0x20 CALLER SWAP3 LOG2 PUSH1 0x1 PUSH1 0x6 SSTORE STOP JUMPDEST PUSH1 0x40 MLOAD PUSH4 0x391434E3 PUSH1 0xE2 SHL DUP2 MSTORE CALLER PUSH1 0x4 DUP3 ADD MSTORE PUSH1 0x24 DUP2 ADD SWAP2 SWAP1 SWAP2 MSTORE PUSH1 0x44 DUP2 ADD SWAP2 SWAP1 SWAP2 MSTORE PUSH1 0x64 SWAP1 REVERT JUMPDEST PUSH1 0x40 MLOAD PUSH4 0x4B637E8F PUSH1 0xE1 SHL DUP2 MSTORE PUSH1 0x0 PUSH1 0x4 DUP3 ADD MSTORE PUSH1 0x24 SWAP1 REVERT JUMPDEST CALLVALUE PUSH2 0x173 JUMPI PUSH1 0x0 CALLDATASIZE PUSH1 0x3 NOT ADD SLT PUSH2 0x173 JUMPI PUSH1 0x20 PUSH1 0x2 SLOAD PUSH1 0x40 MLOAD SWAP1 DUP2 MSTORE RETURN JUMPDEST CALLVALUE PUSH2 0x173 JUMPI PUSH1 0x20 CALLDATASIZE PUSH1 0x3 NOT ADD SLT PUSH2 0x173 JUMPI PUSH1 0x4 CALLDATALOAD PUSH1 0x0 MSTORE PUSH1 0x7 PUSH1 0x20 MSTORE PUSH2 0xE46 PUSH1 0x40 PUSH1 0x0 KECCAK256 PUSH2 0xA6D PUSH2 0xE02 DUP3 PUSH2 0x107A JUMP JUMPDEST SWAP2 PUSH2 0xE0F PUSH1 0x1 DUP3 ADD PUSH2 0x107A JUMP JUMPDEST PUSH1 0x2 DUP3 ADD SLOAD SWAP2 PUSH1 0x3 DUP2 ADD SLOAD PUSH2 0xE54 PUSH2 0xE31 PUSH1 0x5 PUSH1 0xFF PUSH1 0x4 DUP7 ADD SLOAD AND SWAP5 ADD PUSH2 0x107A JUMP JUMPDEST SWAP4 PUSH1 0x40 MLOAD SWAP9 DUP10 SWAP9 PUSH1 0xC0 DUP11 MSTORE PUSH1 0xC0 DUP11 ADD SWAP1 PUSH2 0xF9C JUMP JUMPDEST SWAP1 DUP9 DUP3 SUB PUSH1 0x20 DUP11 ADD MSTORE PUSH2 0xF9C JUMP JUMPDEST SWAP4 PUSH1 0x40 DUP8 ADD MSTORE PUSH1 0x60 DUP7 ADD MSTORE ISZERO ISZERO PUSH1 0x80 DUP6 ADD MSTORE DUP4 DUP3 SUB PUSH1 0xA0 DUP6 ADD MSTORE PUSH2 0xF9C JUMP JUMPDEST CALLVALUE PUSH2 0x173 JUMPI PUSH1 0x40 CALLDATASIZE PUSH1 0x3 NOT ADD SLT PUSH2 0x173 JUMPI PUSH2 0xE8C PUSH2 0xFDC JUMP JUMPDEST PUSH1 0x24 CALLDATALOAD SWAP1 CALLER ISZERO PUSH2 0xC82 JUMPI PUSH1 0x1 PUSH1 0x1 PUSH1 0xA0 SHL SUB AND SWAP1 DUP2 ISZERO PUSH2 0xC69 JUMPI CALLER PUSH1 0x0 MSTORE PUSH1 0x1 PUSH1 0x20 MSTORE PUSH1 0x40 PUSH1 0x0 KECCAK256 DUP3 PUSH1 0x0 MSTORE PUSH1 0x20 MSTORE DUP1 PUSH1 0x40 PUSH1 0x0 KECCAK256 SSTORE PUSH1 0x40 MLOAD SWAP1 DUP2 MSTORE PUSH32 0x8C5BE1E5EBEC7D5BD14F71427D1E84F3DD0314C0F7B2291E5B200AC8C7C3B925 PUSH1 0x20 CALLER SWAP3 LOG3 PUSH1 0x20 PUSH1 0x40 MLOAD PUSH1 0x1 DUP2 MSTORE RETURN JUMPDEST CALLVALUE PUSH2 0x173 JUMPI PUSH1 0x0 CALLDATASIZE PUSH1 0x3 NOT ADD SLT PUSH2 0x173 JUMPI PUSH1 0x0 PUSH1 0x3 SLOAD PUSH2 0xF18 DUP2 PUSH2 0x1008 JUMP JUMPDEST DUP1 DUP5 MSTORE SWAP1 PUSH1 0x1 SWAP1 DUP2 DUP2 AND SWAP1 DUP2 ISZERO PUSH2 0xACC JUMPI POP PUSH1 0x1 EQ PUSH2 0xF41 JUMPI PUSH2 0xA6D DUP5 PUSH2 0xA59 DUP2 DUP7 SUB DUP3 PUSH2 0x1042 JUMP JUMPDEST PUSH1 0x3 PUSH1 0x0 SWAP1 DUP2 MSTORE SWAP3 POP PUSH32 0xC2575A0E9E593C00F959F8C92F12DB2869C3395A3B0502D05E2516446F71F85B JUMPDEST DUP3 DUP5 LT PUSH2 0xF84 JUMPI POP POP POP DUP2 ADD PUSH1 0x20 ADD PUSH2 0xA59 DUP3 PUSH2 0xA49 JUMP JUMPDEST DUP1 SLOAD PUSH1 0x20 DUP6 DUP8 ADD DUP2 ADD SWAP2 SWAP1 SWAP2 MSTORE SWAP1 SWAP4 ADD SWAP3 DUP2 ADD PUSH2 0xF6C JUMP JUMPDEST SWAP2 SWAP1 DUP3 MLOAD SWAP3 DUP4 DUP3 MSTORE PUSH1 0x0 JUMPDEST DUP5 DUP2 LT PUSH2 0xFC8 JUMPI POP POP DUP3 PUSH1 0x0 PUSH1 0x20 DUP1 SWAP5 SWAP6 DUP5 ADD ADD MSTORE PUSH1 0x1F DUP1 NOT SWAP2 ADD AND ADD ADD SWAP1 JUMP JUMPDEST PUSH1 0x20 DUP2 DUP4 ADD DUP2 ADD MLOAD DUP5 DUP4 ADD DUP3 ADD MSTORE ADD PUSH2 0xFA7 JUMP JUMPDEST PUSH1 0x4 CALLDATALOAD SWAP1 PUSH1 0x1 PUSH1 0x1 PUSH1 0xA0 SHL SUB DUP3 AND DUP3 SUB PUSH2 0x173 JUMPI JUMP JUMPDEST PUSH1 0x24 CALLDATALOAD SWAP1 PUSH1 0x1 PUSH1 0x1 PUSH1 0xA0 SHL SUB DUP3 AND DUP3 SUB PUSH2 0x173 JUMPI JUMP JUMPDEST SWAP1 PUSH1 0x1 DUP3 DUP2 SHR SWAP3 AND DUP1 ISZERO PUSH2 0x1038 JUMPI JUMPDEST PUSH1 0x20 DUP4 LT EQ PUSH2 0x1022 JUMPI JUMP JUMPDEST PUSH4 0x4E487B71 PUSH1 0xE0 SHL PUSH1 0x0 MSTORE PUSH1 0x22 PUSH1 0x4 MSTORE PUSH1 0x24 PUSH1 0x0 REVERT JUMPDEST SWAP2 PUSH1 0x7F AND SWAP2 PUSH2 0x1017 JUMP JUMPDEST SWAP1 PUSH1 0x1F DUP1 NOT SWAP2 ADD AND DUP2 ADD SWAP1 DUP2 LT PUSH8 0xFFFFFFFFFFFFFFFF DUP3 GT OR PUSH2 0x1064 JUMPI PUSH1 0x40 MSTORE JUMP JUMPDEST PUSH4 0x4E487B71 PUSH1 0xE0 SHL PUSH1 0x0 MSTORE PUSH1 0x41 PUSH1 0x4 MSTORE PUSH1 0x24 PUSH1 0x0 REVERT JUMPDEST SWAP1 PUSH1 0x40 MLOAD SWAP2 DUP3 PUSH1 0x0 DUP3 SLOAD SWAP3 PUSH2 0x108E DUP5 PUSH2 0x1008 JUMP JUMPDEST SWAP1 DUP2 DUP5 MSTORE PUSH1 0x1 SWAP5 DUP6 DUP2 AND SWAP1 DUP2 PUSH1 0x0 EQ PUSH2 0x10FD JUMPI POP PUSH1 0x1 EQ PUSH2 0x10BA JUMPI JUMPDEST POP POP PUSH2 0x10B8 SWAP3 POP SUB DUP4 PUSH2 0x1042 JUMP JUMPDEST JUMP JUMPDEST SWAP1 SWAP4 SWAP2 POP PUSH1 0x0 MSTORE PUSH1 0x20 SWAP1 DUP2 PUSH1 0x0 KECCAK256 SWAP4 PUSH1 0x0 SWAP2 JUMPDEST DUP2 DUP4 LT PUSH2 0x10E5 JUMPI POP POP PUSH2 0x10B8 SWAP4 POP DUP3 ADD ADD CODESIZE DUP1 PUSH2 0x10AA JUMP JUMPDEST DUP6 SLOAD DUP9 DUP5 ADD DUP6 ADD MSTORE SWAP5 DUP6 ADD SWAP5 DUP8 SWAP5 POP SWAP2 DUP4 ADD SWAP2 PUSH2 0x10CD JUMP JUMPDEST SWAP2 POP POP PUSH2 0x10B8 SWAP5 POP PUSH1 0x20 SWAP3 POP PUSH1 0xFF NOT AND DUP3 DUP5 ADD MSTORE ISZERO ISZERO PUSH1 0x5 SHL DUP3 ADD ADD CODESIZE DUP1 PUSH2 0x10AA JUMP JUMPDEST DUP2 PUSH1 0x1F DUP3 ADD SLT ISZERO PUSH2 0x173 JUMPI DUP1 CALLDATALOAD SWAP1 PUSH8 0xFFFFFFFFFFFFFFFF DUP3 GT PUSH2 0x1064 JUMPI PUSH1 0x40 MLOAD SWAP3 PUSH2 0x1155 PUSH1 0x1F DUP5 ADD PUSH1 0x1F NOT AND PUSH1 0x20 ADD DUP6 PUSH2 0x1042 JUMP JUMPDEST DUP3 DUP5 MSTORE PUSH1 0x20 DUP4 DUP4 ADD ADD GT PUSH2 0x173 JUMPI DUP2 PUSH1 0x0 SWAP3 PUSH1 0x20 DUP1 SWAP4 ADD DUP4 DUP7 ADD CALLDATACOPY DUP4 ADD ADD MSTORE SWAP1 JUMP JUMPDEST PUSH1 0x5 SLOAD PUSH1 0x1 PUSH1 0x1 PUSH1 0xA0 SHL SUB AND CALLER SUB PUSH2 0x118B JUMPI JUMP JUMPDEST PUSH1 0x40 MLOAD PUSH4 0x118CDAA7 PUSH1 0xE0 SHL DUP2 MSTORE CALLER PUSH1 0x4 DUP3 ADD MSTORE PUSH1 0x24 SWAP1 REVERT JUMPDEST SWAP2 PUSH1 0x1 PUSH1 0x1 PUSH1 0xA0 SHL SUB DUP1 DUP5 AND SWAP3 DUP4 ISZERO PUSH2 0xD9B JUMPI AND SWAP3 DUP4 ISZERO PUSH2 0x75A JUMPI PUSH1 0x0 SWAP1 DUP4 DUP3 MSTORE DUP2 PUSH1 0x20 MSTORE PUSH1 0x40 DUP3 KECCAK256 SLOAD SWAP1 DUP4 DUP3 LT PUSH2 0x121D JUMPI POP SWAP2 PUSH1 0x40 DUP3 DUP3 PUSH32 0xDDF252AD1BE2C89B69C2B068FC378DAA952BA7F163C4A11628F55A4DF523B3EF SWAP6 DUP8 PUSH1 0x20 SWAP7 MSTORE DUP3 DUP7 MSTORE SUB DUP3 DUP3 KECCAK256 SSTORE DUP7 DUP2 MSTORE KECCAK256 DUP2 DUP2 SLOAD ADD SWAP1 SSTORE PUSH1 0x40 MLOAD SWAP1 DUP2 MSTORE LOG3 JUMP JUMPDEST PUSH1 0x40 MLOAD PUSH4 0x391434E3 PUSH1 0xE2 SHL DUP2 MSTORE PUSH1 0x1 PUSH1 0x1 PUSH1 0xA0 SHL SUB SWAP2 SWAP1 SWAP2 AND PUSH1 0x4 DUP3 ADD MSTORE PUSH1 0x24 DUP2 ADD SWAP2 SWAP1 SWAP2 MSTORE PUSH1 0x44 DUP2 ADD DUP4 SWAP1 MSTORE PUSH1 0x64 SWAP1 REVERT JUMPDEST SWAP2 SWAP1 DUP3 ADD DUP1 SWAP3 GT PUSH2 0x125C JUMPI JUMP JUMPDEST PUSH4 0x4E487B71 PUSH1 0xE0 SHL PUSH1 0x0 MSTORE PUSH1 0x11 PUSH1 0x4 MSTORE PUSH1 0x24 PUSH1 0x0 REVERT JUMPDEST SWAP1 PUSH1 0x1F DUP2 GT PUSH2 0x1280 JUMPI POP POP POP JUMP JUMPDEST PUSH1 0x0 SWAP2 DUP3 MSTORE PUSH1 0x20 DUP3 KECCAK256 SWAP1 PUSH1 0x20 PUSH1 0x1F DUP6 ADD PUSH1 0x5 SHR DUP4 ADD SWAP5 LT PUSH2 0x12BC JUMPI JUMPDEST PUSH1 0x1F ADD PUSH1 0x5 SHR ADD SWAP2 JUMPDEST DUP3 DUP2 LT PUSH2 0x12B1 JUMPI POP POP POP JUMP JUMPDEST DUP2 DUP2 SSTORE PUSH1 0x1 ADD PUSH2 0x12A5 JUMP JUMPDEST SWAP1 SWAP3 POP DUP3 SWAP1 PUSH2 0x129C JUMP JUMPDEST PUSH1 0x2 PUSH1 0x6 SLOAD EQ PUSH2 0x12D7 JUMPI PUSH1 0x2 PUSH1 0x6 SSTORE JUMP JUMPDEST PUSH1 0x40 MLOAD PUSH4 0x3EE5AEB5 PUSH1 0xE0 SHL DUP2 MSTORE PUSH1 0x4 SWAP1 REVERT INVALID LOG2 PUSH5 0x6970667358 0x22 SLT KECCAK256 EQ DUP7 0xD0 0xBC SELFDESTRUCT 0xB1 LOG2 CREATE DUP14 PUSH16 0x59A0F538B4CF52382B5FB8EAC9E8D853 SWAP14 SWAP8 0xDC LOG1 TIMESTAMP SLOAD PUSH5 0x736F6C6343 STOP ADDMOD EQ STOP CALLER "},"methodIdentifiers":{"allowance(address,address)":"dd62ed3e","approve(address,uint256)":"095ea7b3","balanceOf(address)":"70a08231","decimals()":"313ce567","issueCredits(uint256,address,uint256)":"b8f94622","name()":"06fdde03","nextProjectId()":"e935b7b1","owner()":"8da5cb5b","projects(uint256)":"107046bd","registerProject(string,string,uint256)":"c7c7717e","renounceOwnership()":"715018a6","retireCredits(uint256)":"2039e339","symbol()":"95d89b41","totalSupply()":"18160ddd","transfer(address,uint256)":"a9059cbb","transferFrom(address,address,uint256)":"23b872dd","transferOwnership(address)":"f2fde38b","verifyProject(uint256,string)":"a29b0423"}}}}}